{
  "contractName": "DragonFactory",
  "abi": [
    {
      "anonymous": false,
      "inputs": [
        {
          "components": [
            {
              "internalType": "string",
              "name": "name",
              "type": "string"
            },
            {
              "internalType": "address",
              "name": "id",
              "type": "address"
            },
            {
              "internalType": "uint256",
              "name": "power",
              "type": "uint256"
            },
            {
              "internalType": "uint256",
              "name": "health",
              "type": "uint256"
            },
            {
              "internalType": "uint256",
              "name": "goldReward",
              "type": "uint256"
            }
          ],
          "indexed": false,
          "internalType": "struct Dragon",
          "name": "",
          "type": "tuple"
        }
      ],
      "name": "newDragon",
      "type": "event"
    },
    {
      "inputs": [],
      "name": "initialize",
      "outputs": [],
      "stateMutability": "nonpayable",
      "type": "function"
    },
    {
      "inputs": [],
      "name": "getDragon",
      "outputs": [
        {
          "components": [
            {
              "internalType": "string",
              "name": "name",
              "type": "string"
            },
            {
              "internalType": "address",
              "name": "id",
              "type": "address"
            },
            {
              "internalType": "uint256",
              "name": "power",
              "type": "uint256"
            },
            {
              "internalType": "uint256",
              "name": "health",
              "type": "uint256"
            },
            {
              "internalType": "uint256",
              "name": "goldReward",
              "type": "uint256"
            }
          ],
          "internalType": "struct Dragon",
          "name": "",
          "type": "tuple"
        }
      ],
      "stateMutability": "view",
      "type": "function"
    },
    {
      "inputs": [],
      "name": "getDragons",
      "outputs": [
        {
          "components": [
            {
              "internalType": "string",
              "name": "name",
              "type": "string"
            },
            {
              "internalType": "address",
              "name": "id",
              "type": "address"
            },
            {
              "internalType": "uint256",
              "name": "power",
              "type": "uint256"
            },
            {
              "internalType": "uint256",
              "name": "health",
              "type": "uint256"
            },
            {
              "internalType": "uint256",
              "name": "goldReward",
              "type": "uint256"
            }
          ],
          "internalType": "struct Dragon[]",
          "name": "",
          "type": "tuple[]"
        }
      ],
      "stateMutability": "view",
      "type": "function"
    },
    {
      "inputs": [],
      "name": "createDragon",
      "outputs": [],
      "stateMutability": "nonpayable",
      "type": "function"
    }
  ],
  "bytecode": "0x6080604052620186a06034556298968060355534801561001e57600080fd5b5061102a8061002e6000396000f3fe608060405234801561001057600080fd5b506004361061004c5760003560e01c80638129fc1c14610051578063b11852441461005b578063b7ed99d614610079578063f8caf6c714610083575b600080fd5b6100596100a1565b005b610063610189565b6040516100709190610cd9565b60405180910390f35b610081610376565b005b61008b610380565b6040516100989190610c77565b60405180910390f35b600060019054906101000a900460ff16806100c057506100bf61052d565b5b806100d6575060008054906101000a900460ff16155b610115576040517f08c379a000000000000000000000000000000000000000000000000000000000815260040161010c90610cb9565b60405180910390fd5b60008060019054906101000a900460ff161590508015610165576001600060016101000a81548160ff02191690831515021790555060016000806101000a81548160ff0219169083151502179055505b80156101865760008060016101000a81548160ff0219169083151502179055505b50565b61019161078f565b6000603b80549050116101d9576040517f08c379a00000000000000000000000000000000000000000000000000000000081526004016101d090610c99565b60405180910390fd5b603b603360003073ffffffffffffffffffffffffffffffffffffffff1673ffffffffffffffffffffffffffffffffffffffff1681526020019081526020016000205481548110610252577f4e487b7100000000000000000000000000000000000000000000000000000000600052603260045260246000fd5b90600052602060002090600502016040518060a001604052908160008201805461027b90610e77565b80601f01602080910402602001604051908101604052809291908181526020018280546102a790610e77565b80156102f45780601f106102c9576101008083540402835291602001916102f4565b820191906000526020600020905b8154815290600101906020018083116102d757829003601f168201915b505050505081526020016001820160009054906101000a900473ffffffffffffffffffffffffffffffffffffffff1673ffffffffffffffffffffffffffffffffffffffff1673ffffffffffffffffffffffffffffffffffffffff1681526020016002820154815260200160038201548152602001600482015481525050905090565b61037e610544565b565b60606000603b80549050116103ca576040517f08c379a00000000000000000000000000000000000000000000000000000000081526004016103c190610c99565b60405180910390fd5b603b805480602002602001604051908101604052809291908181526020016000905b8282101561052457838290600052602060002090600502016040518060a001604052908160008201805461041f90610e77565b80601f016020809104026020016040519081016040528092919081815260200182805461044b90610e77565b80156104985780601f1061046d57610100808354040283529160200191610498565b820191906000526020600020905b81548152906001019060200180831161047b57829003601f168201915b505050505081526020016001820160009054906101000a900473ffffffffffffffffffffffffffffffffffffffff1673ffffffffffffffffffffffffffffffffffffffff1673ffffffffffffffffffffffffffffffffffffffff1681526020016002820154815260200160038201548152602001600482015481525050815260200190600101906103ec565b50505050905090565b6000803090506000813b9050600081149250505090565b603b6040518060a001604052806040518060400160405280600e81526020017f44656661756c745f447261676f6e00000000000000000000000000000000000081525081526020013073ffffffffffffffffffffffffffffffffffffffff1681526020016105b061070b565b81526020016105bd61074d565b8152602001600a8152509080600181540180825580915050600190039060005260206000209060050201600090919091909150600082015181600001908051906020019061060c9291906107d4565b5060208201518160010160006101000a81548173ffffffffffffffffffffffffffffffffffffffff021916908373ffffffffffffffffffffffffffffffffffffffff160217905550604082015181600201556060820151816003015560808201518160040155505060006001603b805490506106889190610d98565b90507fa8d5c415ae4486d0b0ca47d57931522bcf32daa16432a434fd9d4c57050e94da603b82815481106106e5577f4e487b7100000000000000000000000000000000000000000000000000000000600052603260045260246000fd5b90600052602060002090600502016040516107009190610cfb565b60405180910390a150565b600060345442444160405160200161072593929190610c3a565b6040516020818303038152906040528051906020012060001c6107489190610f0b565b905090565b600060355442444160405160200161076793929190610c3a565b6040516020818303038152906040528051906020012060001c61078a9190610f0b565b905090565b6040518060a0016040528060608152602001600073ffffffffffffffffffffffffffffffffffffffff1681526020016000815260200160008152602001600081525090565b8280546107e090610e77565b90600052602060002090601f0160209004810192826108025760008555610849565b82601f1061081b57805160ff1916838001178555610849565b82800160010185558215610849579182015b8281111561084857825182559160200191906001019061082d565b5b509050610856919061085a565b5090565b5b8082111561087357600081600090555060010161085b565b5090565b60006108838383610a85565b905092915050565b61089c61089782610e08565b610edd565b82525050565b6108ab81610df6565b82525050565b60006108bc82610d42565b6108c68185610d65565b9350836020820285016108d885610d1d565b8060005b8581101561091457848403895281516108f58582610877565b945061090083610d58565b925060208a019950506001810190506108dc565b50829750879550505050505092915050565b600061093182610d4d565b61093b8185610d76565b935061094b818560208601610e44565b61095481610fc9565b840191505092915050565b6000815461096c81610e77565b6109768186610d76565b9450600182166000811461099157600181146109a3576109d6565b60ff19831686526020860193506109d6565b6109ac85610d2d565b60005b838110156109ce578154818901526001820191506020810190506109af565b808801955050505b50505092915050565b60006109ec602083610d87565b91507f4e6f20647261676f6e7320617661696c61626c6520666f72206c6f6f6b75702e6000830152602082019050919050565b6000610a2c602e83610d87565b91507f436f6e747261637420696e7374616e63652068617320616c726561647920626560008301527f656e20696e697469616c697a65640000000000000000000000000000000000006020830152604082019050919050565b600060a0830160008301518482036000860152610aa28282610926565b9150506020830151610ab760208601826108a2565b506040830151610aca6040860182610c14565b506060830151610add6060860182610c14565b506080830151610af06080860182610c14565b508091505092915050565b600060a0830160008301518482036000860152610b188282610926565b9150506020830151610b2d60208601826108a2565b506040830151610b406040860182610c14565b506060830151610b536060860182610c14565b506080830151610b666080860182610c14565b508091505092915050565b600060a0830160008084018583036000870152610b8e838261095f565b92505060018401549050610ba181610ea9565b610bae60208701826108a2565b5060028401549050610bbf81610ec3565b610bcc6040870182610c14565b5060038401549050610bdd81610ec3565b610bea6060870182610c14565b5060048401549050610bfb81610ec3565b610c086080870182610c14565b50819250505092915050565b610c1d81610e3a565b82525050565b610c34610c2f82610e3a565b610f01565b82525050565b6000610c468286610c23565b602082019150610c568285610c23565b602082019150610c66828461088b565b601482019150819050949350505050565b60006020820190508181036000830152610c9181846108b1565b905092915050565b60006020820190508181036000830152610cb2816109df565b9050919050565b60006020820190508181036000830152610cd281610a1f565b9050919050565b60006020820190508181036000830152610cf38184610afb565b905092915050565b60006020820190508181036000830152610d158184610b71565b905092915050565b6000819050602082019050919050565b60008190508160005260206000209050919050565b600081519050919050565b600081519050919050565b6000602082019050919050565b600082825260208201905092915050565b600082825260208201905092915050565b600082825260208201905092915050565b6000610da382610e3a565b9150610dae83610e3a565b925082821015610dc157610dc0610f3c565b5b828203905092915050565b600073ffffffffffffffffffffffffffffffffffffffff82169050919050565b6000819050919050565b6000610e0182610e1a565b9050919050565b6000610e1382610e1a565b9050919050565b600073ffffffffffffffffffffffffffffffffffffffff82169050919050565b6000819050919050565b60005b83811015610e62578082015181840152602081019050610e47565b83811115610e71576000848401525b50505050565b60006002820490506001821680610e8f57607f821691505b60208210811415610ea357610ea2610f9a565b5b50919050565b6000610ebc610eb783610fe7565b610dcc565b9050919050565b6000610ed6610ed183610fe7565b610dec565b9050919050565b6000610ee882610eef565b9050919050565b6000610efa82610fda565b9050919050565b6000819050919050565b6000610f1682610e3a565b9150610f2183610e3a565b925082610f3157610f30610f6b565b5b828206905092915050565b7f4e487b7100000000000000000000000000000000000000000000000000000000600052601160045260246000fd5b7f4e487b7100000000000000000000000000000000000000000000000000000000600052601260045260246000fd5b7f4e487b7100000000000000000000000000000000000000000000000000000000600052602260045260246000fd5b6000601f19601f8301169050919050565b60008160601b9050919050565b60008160001c905091905056fea26469706673582212203702eba28ef34c99ce8947bb4cb71b0b180c9a76438d566d911045725ae2a91064736f6c63430008000033",
  "immutableReferences": {},
  "source": "// SPDX-License-Identifier: MIT\r\npragma solidity >=0.8.0;\r\npragma abicoder v2;\r\n\r\nimport \"./SimpleFactory.sol\";\r\nimport \"./Dragon.sol\";\r\nimport './Initializable.sol';\r\n\r\n/// @title Ormr, Man vs. Dragon\r\n/// @author github@ToFat4Fun\r\n/// @notice Responsible for creating dragons\r\n/// @dev Working with solidity v0.8.0, creates dragons\r\ncontract DragonFactory is SimpleFactory, Initializable {\r\n    /// @dev emits a newly created dragon\r\n    event newDragon(Dragon);\r\n\r\n    /// @dev allows for looking up specific dragon\r\n    mapping(address => uint256) dragonLookup;\r\n\r\n    /// @dev determine the maximum length of power and health\r\n    uint256 dragonPowerModulus = 10**5; // Max 5 digits.\r\n    uint256 dragonHealthModulus = 10**7; // Max 7 digits.\r\n    Dragon dragon;\r\n\r\n    /// @dev keep a list of all existing heroes in the contract.\r\n    Dragon[] dragons;\r\n\r\n    function initialize() public initializer { }\r\n    \r\n    /// @dev get method that returns one dragon\r\n    function getDragon() public view returns (Dragon memory) {\r\n        require((dragons.length > 0), \"No dragons available for lookup.\");\r\n        return dragons[dragonLookup[address(this)]];\r\n    }\r\n    \r\n    /// @dev method that returns all dragons known in the contract as an array\r\n    function getDragons() public view returns (Dragon[] memory) {\r\n        require((dragons.length > 0), \"No dragons available for lookup.\");\r\n        return dragons;\r\n    }\r\n\r\n    /// @dev Internal function which creates the dragon.\r\n    function _createDragon() internal {\r\n        dragons.push(\r\n            Dragon({\r\n                name: \"Default_Dragon\",\r\n                id: address(this),\r\n                power: randomPower(),\r\n                health: randomHealth(),\r\n                goldReward: 10\r\n            })\r\n        );\r\n        uint256 id = dragons.length - 1;\r\n        emit newDragon(dragons[id]);\r\n    }\r\n\r\n    /// @dev for now users can create dragons on-demand to play the game\r\n    //TODO: come up with a way so the contract automatically creates a random dragon, refactor this method and front-end when doing so\r\n    function createDragon() public {\r\n        _createDragon();\r\n    }\r\n\r\n    /// @dev Semi-Random number generator.Determines dragonpower\r\n    /// @return _power returns dragonpower\r\n    function randomPower() internal view override returns (uint256 _power) {\r\n        return uint256(keccak256(abi.encodePacked(block.timestamp, block.difficulty, block.coinbase))) % dragonPowerModulus;\r\n    }\r\n\r\n    /// @dev Semi-Random number generator.Determines dragonhealth\r\n    /// @return _health returns dragonhealth\r\n    function randomHealth() internal view override returns (uint256 _health) {\r\n        return uint256(keccak256(abi.encodePacked(block.timestamp, block.difficulty, block.coinbase))) % dragonHealthModulus;\r\n    }\r\n}\r\n",
  "sourcePath": "D:\\HHS\\Jaar 4 Minor\\IT Deel Minor\\Assignments\\PD-8\\contracts\\DragonFactory.sol",
  "compiler": {
    "name": "solc",
    "version": "0.8.0+commit.c7dfd78e.Emscripten.clang"
  },
  "schemaVersion": "3.3.2",
  "updatedAt": "2020-12-23T01:24:43.012Z",
  "devdoc": {
    "author": "github@ToFat4Fun",
    "details": "Working with solidity v0.8.0, creates dragons",
    "events": {
      "newDragon((string,address,uint256,uint256,uint256))": {
        "details": "emits a newly created dragon"
      }
    },
    "kind": "dev",
    "methods": {
      "createDragon()": {
        "details": "for now users can create dragons on-demand to play the game"
      },
      "getDragon()": {
        "details": "get method that returns one dragon"
      },
      "getDragons()": {
        "details": "method that returns all dragons known in the contract as an array"
      }
    },
    "stateVariables": {
      "dragonLookup": {
        "details": "allows for looking up specific dragon"
      },
      "dragonPowerModulus": {
        "details": "determine the maximum length of power and health"
      },
      "dragons": {
        "details": "keep a list of all existing heroes in the contract."
      }
    },
    "title": "Ormr, Man vs. Dragon",
    "version": 1
  },
  "userdoc": {
    "kind": "user",
    "methods": {},
    "notice": "Responsible for creating dragons",
    "version": 1
  }
}