{
  "contractName": "DragonFactory",
  "abi": [
    {
      "anonymous": false,
      "inputs": [
        {
          "components": [
            {
              "internalType": "string",
              "name": "name",
              "type": "string"
            },
            {
              "internalType": "address",
              "name": "id",
              "type": "address"
            },
            {
              "internalType": "uint256",
              "name": "power",
              "type": "uint256"
            },
            {
              "internalType": "uint256",
              "name": "health",
              "type": "uint256"
            },
            {
              "internalType": "uint256",
              "name": "goldReward",
              "type": "uint256"
            }
          ],
          "indexed": false,
          "internalType": "struct Dragon",
          "name": "",
          "type": "tuple"
        }
      ],
      "name": "newDragon",
      "type": "event"
    },
    {
      "inputs": [],
      "name": "getDragon",
      "outputs": [
        {
          "components": [
            {
              "internalType": "string",
              "name": "name",
              "type": "string"
            },
            {
              "internalType": "address",
              "name": "id",
              "type": "address"
            },
            {
              "internalType": "uint256",
              "name": "power",
              "type": "uint256"
            },
            {
              "internalType": "uint256",
              "name": "health",
              "type": "uint256"
            },
            {
              "internalType": "uint256",
              "name": "goldReward",
              "type": "uint256"
            }
          ],
          "internalType": "struct Dragon",
          "name": "",
          "type": "tuple"
        }
      ],
      "stateMutability": "view",
      "type": "function",
      "constant": true
    },
    {
      "inputs": [],
      "name": "getDragons",
      "outputs": [
        {
          "components": [
            {
              "internalType": "string",
              "name": "name",
              "type": "string"
            },
            {
              "internalType": "address",
              "name": "id",
              "type": "address"
            },
            {
              "internalType": "uint256",
              "name": "power",
              "type": "uint256"
            },
            {
              "internalType": "uint256",
              "name": "health",
              "type": "uint256"
            },
            {
              "internalType": "uint256",
              "name": "goldReward",
              "type": "uint256"
            }
          ],
          "internalType": "struct Dragon[]",
          "name": "",
          "type": "tuple[]"
        }
      ],
      "stateMutability": "view",
      "type": "function",
      "constant": true
    },
    {
      "inputs": [],
      "name": "createDragon",
      "outputs": [],
      "stateMutability": "nonpayable",
      "type": "function"
    }
  ],
  "bytecode": "0x6080604052620186a06001556298968060025534801561001e57600080fd5b50610e8f8061002e6000396000f3fe608060405234801561001057600080fd5b50600436106100415760003560e01c8063b118524414610046578063b7ed99d614610064578063f8caf6c71461006e575b600080fd5b61004e61008c565b60405161005b9190610b3e565b60405180910390f35b61006c610278565b005b610076610282565b6040516100839190610afc565b60405180910390f35b61009461067a565b6000600880549050116100dc576040517f08c379a00000000000000000000000000000000000000000000000000000000081526004016100d390610b1e565b60405180910390fd5b60086000803073ffffffffffffffffffffffffffffffffffffffff1673ffffffffffffffffffffffffffffffffffffffff1681526020019081526020016000205481548110610154577f4e487b7100000000000000000000000000000000000000000000000000000000600052603260045260246000fd5b90600052602060002090600502016040518060a001604052908160008201805461017d90610cdc565b80601f01602080910402602001604051908101604052809291908181526020018280546101a990610cdc565b80156101f65780601f106101cb576101008083540402835291602001916101f6565b820191906000526020600020905b8154815290600101906020018083116101d957829003601f168201915b505050505081526020016001820160009054906101000a900473ffffffffffffffffffffffffffffffffffffffff1673ffffffffffffffffffffffffffffffffffffffff1673ffffffffffffffffffffffffffffffffffffffff1681526020016002820154815260200160038201548152602001600482015481525050905090565b61028061042f565b565b60606000600880549050116102cc576040517f08c379a00000000000000000000000000000000000000000000000000000000081526004016102c390610b1e565b60405180910390fd5b6008805480602002602001604051908101604052809291908181526020016000905b8282101561042657838290600052602060002090600502016040518060a001604052908160008201805461032190610cdc565b80601f016020809104026020016040519081016040528092919081815260200182805461034d90610cdc565b801561039a5780601f1061036f5761010080835404028352916020019161039a565b820191906000526020600020905b81548152906001019060200180831161037d57829003601f168201915b505050505081526020016001820160009054906101000a900473ffffffffffffffffffffffffffffffffffffffff1673ffffffffffffffffffffffffffffffffffffffff1673ffffffffffffffffffffffffffffffffffffffff1681526020016002820154815260200160038201548152602001600482015481525050815260200190600101906102ee565b50505050905090565b60086040518060a001604052806040518060400160405280600e81526020017f44656661756c745f447261676f6e00000000000000000000000000000000000081525081526020013073ffffffffffffffffffffffffffffffffffffffff16815260200161049b6105f6565b81526020016104a8610638565b8152602001600a815250908060018154018082558091505060019003906000526020600020906005020160009091909190915060008201518160000190805190602001906104f79291906106bf565b5060208201518160010160006101000a81548173ffffffffffffffffffffffffffffffffffffffff021916908373ffffffffffffffffffffffffffffffffffffffff1602179055506040820151816002015560608201518160030155608082015181600401555050600060016008805490506105739190610bfd565b90507fa8d5c415ae4486d0b0ca47d57931522bcf32daa16432a434fd9d4c57050e94da600882815481106105d0577f4e487b7100000000000000000000000000000000000000000000000000000000600052603260045260246000fd5b90600052602060002090600502016040516105eb9190610b60565b60405180910390a150565b600060015442444160405160200161061093929190610abf565b6040516020818303038152906040528051906020012060001c6106339190610d70565b905090565b600060025442444160405160200161065293929190610abf565b6040516020818303038152906040528051906020012060001c6106759190610d70565b905090565b6040518060a0016040528060608152602001600073ffffffffffffffffffffffffffffffffffffffff1681526020016000815260200160008152602001600081525090565b8280546106cb90610cdc565b90600052602060002090601f0160209004810192826106ed5760008555610734565b82601f1061070657805160ff1916838001178555610734565b82800160010185558215610734579182015b82811115610733578251825591602001919060010190610718565b5b5090506107419190610745565b5090565b5b8082111561075e576000816000905550600101610746565b5090565b600061076e838361090a565b905092915050565b61078761078282610c6d565b610d42565b82525050565b61079681610c5b565b82525050565b60006107a782610ba7565b6107b18185610bca565b9350836020820285016107c385610b82565b8060005b858110156107ff57848403895281516107e08582610762565b94506107eb83610bbd565b925060208a019950506001810190506107c7565b50829750879550505050505092915050565b600061081c82610bb2565b6108268185610bdb565b9350610836818560208601610ca9565b61083f81610e2e565b840191505092915050565b6000815461085781610cdc565b6108618186610bdb565b9450600182166000811461087c576001811461088e576108c1565b60ff19831686526020860193506108c1565b61089785610b92565b60005b838110156108b95781548189015260018201915060208101905061089a565b808801955050505b50505092915050565b60006108d7602083610bec565b91507f4e6f20647261676f6e7320617661696c61626c6520666f72206c6f6f6b75702e6000830152602082019050919050565b600060a08301600083015184820360008601526109278282610811565b915050602083015161093c602086018261078d565b50604083015161094f6040860182610a99565b5060608301516109626060860182610a99565b5060808301516109756080860182610a99565b508091505092915050565b600060a083016000830151848203600086015261099d8282610811565b91505060208301516109b2602086018261078d565b5060408301516109c56040860182610a99565b5060608301516109d86060860182610a99565b5060808301516109eb6080860182610a99565b508091505092915050565b600060a0830160008084018583036000870152610a13838261084a565b92505060018401549050610a2681610d0e565b610a33602087018261078d565b5060028401549050610a4481610d28565b610a516040870182610a99565b5060038401549050610a6281610d28565b610a6f6060870182610a99565b5060048401549050610a8081610d28565b610a8d6080870182610a99565b50819250505092915050565b610aa281610c9f565b82525050565b610ab9610ab482610c9f565b610d66565b82525050565b6000610acb8286610aa8565b602082019150610adb8285610aa8565b602082019150610aeb8284610776565b601482019150819050949350505050565b60006020820190508181036000830152610b16818461079c565b905092915050565b60006020820190508181036000830152610b37816108ca565b9050919050565b60006020820190508181036000830152610b588184610980565b905092915050565b60006020820190508181036000830152610b7a81846109f6565b905092915050565b6000819050602082019050919050565b60008190508160005260206000209050919050565b600081519050919050565b600081519050919050565b6000602082019050919050565b600082825260208201905092915050565b600082825260208201905092915050565b600082825260208201905092915050565b6000610c0882610c9f565b9150610c1383610c9f565b925082821015610c2657610c25610da1565b5b828203905092915050565b600073ffffffffffffffffffffffffffffffffffffffff82169050919050565b6000819050919050565b6000610c6682610c7f565b9050919050565b6000610c7882610c7f565b9050919050565b600073ffffffffffffffffffffffffffffffffffffffff82169050919050565b6000819050919050565b60005b83811015610cc7578082015181840152602081019050610cac565b83811115610cd6576000848401525b50505050565b60006002820490506001821680610cf457607f821691505b60208210811415610d0857610d07610dff565b5b50919050565b6000610d21610d1c83610e4c565b610c31565b9050919050565b6000610d3b610d3683610e4c565b610c51565b9050919050565b6000610d4d82610d54565b9050919050565b6000610d5f82610e3f565b9050919050565b6000819050919050565b6000610d7b82610c9f565b9150610d8683610c9f565b925082610d9657610d95610dd0565b5b828206905092915050565b7f4e487b7100000000000000000000000000000000000000000000000000000000600052601160045260246000fd5b7f4e487b7100000000000000000000000000000000000000000000000000000000600052601260045260246000fd5b7f4e487b7100000000000000000000000000000000000000000000000000000000600052602260045260246000fd5b6000601f19601f8301169050919050565b60008160601b9050919050565b60008160001c905091905056fea26469706673582212200c3eaaf24cb397b576bf15e1ddda50abb016c41ee75a2bb40b3dcb7435f0b01064736f6c63430008000033",
  "immutableReferences": {},
  "source": "// SPDX-License-Identifier: MIT\r\npragma solidity >=0.8.0;\r\npragma abicoder v2;\r\n\r\nimport \"./SimpleFactory.sol\";\r\nimport \"./Dragon.sol\";\r\n\r\n// Responsible for creating the dragons our hero can slay!\r\ncontract DragonFactory is SimpleFactory {\r\n    // Events\r\n    event newDragon(Dragon);\r\n\r\n    // Mappings\r\n    mapping(address => uint256) dragonLookup;\r\n\r\n    // Variables\r\n    uint256 dragonPowerModulus = 10**5; // Max 5 digits.\r\n    uint256 dragonHealthModulus = 10**7; // Max 7 digits.\r\n    Dragon dragon;\r\n\r\n    // Keep a list of all existing dragons.\r\n    Dragon[] dragons;\r\n\r\n    // Getters and Setters\r\n    function getDragon() public view returns (Dragon memory) {\r\n        require((dragons.length > 0), \"No dragons available for lookup.\"); // Check if there are dragons.\r\n        return dragons[dragonLookup[address(this)]];\r\n    }\r\n\r\n    function getDragons() public view returns (Dragon[] memory) {\r\n        require((dragons.length > 0), \"No dragons available for lookup.\"); // Check if there are dragons.\r\n        return dragons;\r\n    }\r\n\r\n    function _createDragon() internal {\r\n        dragons.push(\r\n            Dragon({\r\n                name: \"Default_Dragon\",\r\n                id: address(this),\r\n                power: randomPower(),\r\n                health: randomHealth(),\r\n                goldReward: 10\r\n            })\r\n        );\r\n        uint256 id = dragons.length - 1;\r\n        emit newDragon(dragons[id]);\r\n    }\r\n\r\n    // For ease of testing, this remains public for now..\r\n    function createDragon() public {\r\n        _createDragon();\r\n    }\r\n\r\n    // The override keyword has to be present since v0.6.0: https://docs.soliditylang.org/en/v0.6.0/060-breaking-changes.html\r\n    // Semi-Random number generator. W.I.P\r\n    // Determines dragon power.\r\n    function randomPower() internal view override returns (uint256 _power) {\r\n        return\r\n            uint256(\r\n                keccak256(\r\n                    abi.encodePacked(\r\n                        block.timestamp,\r\n                        block.difficulty,\r\n                        block.coinbase\r\n                    )\r\n                )\r\n            ) % dragonPowerModulus;\r\n    }\r\n\r\n    // Semi-Random number generator. W.I.P\r\n    // Determines dragon health.\r\n    function randomHealth() internal view override returns (uint256 _health) {\r\n        return\r\n            uint256(\r\n                keccak256(\r\n                    abi.encodePacked(\r\n                        block.timestamp,\r\n                        block.difficulty,\r\n                        block.coinbase\r\n                    )\r\n                )\r\n            ) % dragonHealthModulus;\r\n    }\r\n}\r\n",
  "sourcePath": "D:\\HHS\\Jaar 4 Minor\\IT Deel Minor\\Assignments\\PD-8\\contracts\\DragonFactory.sol",
  "compiler": {
    "name": "solc",
    "version": "0.8.0+commit.c7dfd78e.Emscripten.clang"
  },
  "schemaVersion": "3.3.2",
  "updatedAt": "2020-12-22T15:44:52.928Z",
  "networkType": "ethereum",
  "devdoc": {
    "kind": "dev",
    "methods": {},
    "version": 1
  },
  "userdoc": {
    "kind": "user",
    "methods": {},
    "version": 1
  }
}