{
  "contractName": "DragonFactory",
  "abi": [
    {
      "anonymous": false,
      "inputs": [
        {
          "components": [
            {
              "internalType": "string",
              "name": "name",
              "type": "string"
            },
            {
              "internalType": "address",
              "name": "id",
              "type": "address"
            },
            {
              "internalType": "uint256",
              "name": "power",
              "type": "uint256"
            },
            {
              "internalType": "uint256",
              "name": "health",
              "type": "uint256"
            },
            {
              "internalType": "uint256",
              "name": "goldReward",
              "type": "uint256"
            }
          ],
          "indexed": false,
          "internalType": "struct Dragon",
          "name": "",
          "type": "tuple"
        }
      ],
      "name": "newDragon",
      "type": "event"
    },
    {
      "inputs": [],
      "name": "initialize",
      "outputs": [],
      "stateMutability": "nonpayable",
      "type": "function"
    },
    {
      "inputs": [],
      "name": "getDragon",
      "outputs": [
        {
          "components": [
            {
              "internalType": "string",
              "name": "name",
              "type": "string"
            },
            {
              "internalType": "address",
              "name": "id",
              "type": "address"
            },
            {
              "internalType": "uint256",
              "name": "power",
              "type": "uint256"
            },
            {
              "internalType": "uint256",
              "name": "health",
              "type": "uint256"
            },
            {
              "internalType": "uint256",
              "name": "goldReward",
              "type": "uint256"
            }
          ],
          "internalType": "struct Dragon",
          "name": "",
          "type": "tuple"
        }
      ],
      "stateMutability": "view",
      "type": "function"
    },
    {
      "inputs": [],
      "name": "getDragons",
      "outputs": [
        {
          "components": [
            {
              "internalType": "string",
              "name": "name",
              "type": "string"
            },
            {
              "internalType": "address",
              "name": "id",
              "type": "address"
            },
            {
              "internalType": "uint256",
              "name": "power",
              "type": "uint256"
            },
            {
              "internalType": "uint256",
              "name": "health",
              "type": "uint256"
            },
            {
              "internalType": "uint256",
              "name": "goldReward",
              "type": "uint256"
            }
          ],
          "internalType": "struct Dragon[]",
          "name": "",
          "type": "tuple[]"
        }
      ],
      "stateMutability": "view",
      "type": "function"
    },
    {
      "inputs": [],
      "name": "createDragon",
      "outputs": [],
      "stateMutability": "nonpayable",
      "type": "function"
    }
  ],
  "bytecode": "0x608060405234801561001057600080fd5b5061103e806100206000396000f3fe608060405234801561001057600080fd5b506004361061004c5760003560e01c80638129fc1c14610051578063b11852441461005b578063b7ed99d614610079578063f8caf6c714610083575b600080fd5b6100596100a1565b005b61006361019d565b6040516100709190610ced565b60405180910390f35b61008161038a565b005b61008b610394565b6040516100989190610c8b565b60405180910390f35b600060019054906101000a900460ff16806100c057506100bf610541565b5b806100d6575060008054906101000a900460ff16155b610115576040517f08c379a000000000000000000000000000000000000000000000000000000000815260040161010c90610ccd565b60405180910390fd5b60008060019054906101000a900460ff161590508015610165576001600060016101000a81548160ff02191690831515021790555060016000806101000a81548160ff0219169083151502179055505b620186a060348190555062989680603581905550801561019a5760008060016101000a81548160ff0219169083151502179055505b50565b6101a56107a3565b6000603b80549050116101ed576040517f08c379a00000000000000000000000000000000000000000000000000000000081526004016101e490610cad565b60405180910390fd5b603b603360003073ffffffffffffffffffffffffffffffffffffffff1673ffffffffffffffffffffffffffffffffffffffff1681526020019081526020016000205481548110610266577f4e487b7100000000000000000000000000000000000000000000000000000000600052603260045260246000fd5b90600052602060002090600502016040518060a001604052908160008201805461028f90610e8b565b80601f01602080910402602001604051908101604052809291908181526020018280546102bb90610e8b565b80156103085780601f106102dd57610100808354040283529160200191610308565b820191906000526020600020905b8154815290600101906020018083116102eb57829003601f168201915b505050505081526020016001820160009054906101000a900473ffffffffffffffffffffffffffffffffffffffff1673ffffffffffffffffffffffffffffffffffffffff1673ffffffffffffffffffffffffffffffffffffffff1681526020016002820154815260200160038201548152602001600482015481525050905090565b610392610558565b565b60606000603b80549050116103de576040517f08c379a00000000000000000000000000000000000000000000000000000000081526004016103d590610cad565b60405180910390fd5b603b805480602002602001604051908101604052809291908181526020016000905b8282101561053857838290600052602060002090600502016040518060a001604052908160008201805461043390610e8b565b80601f016020809104026020016040519081016040528092919081815260200182805461045f90610e8b565b80156104ac5780601f10610481576101008083540402835291602001916104ac565b820191906000526020600020905b81548152906001019060200180831161048f57829003601f168201915b505050505081526020016001820160009054906101000a900473ffffffffffffffffffffffffffffffffffffffff1673ffffffffffffffffffffffffffffffffffffffff1673ffffffffffffffffffffffffffffffffffffffff168152602001600282015481526020016003820154815260200160048201548152505081526020019060010190610400565b50505050905090565b6000803090506000813b9050600081149250505090565b603b6040518060a001604052806040518060400160405280600e81526020017f44656661756c745f447261676f6e00000000000000000000000000000000000081525081526020013073ffffffffffffffffffffffffffffffffffffffff1681526020016105c461071f565b81526020016105d1610761565b8152602001600a815250908060018154018082558091505060019003906000526020600020906005020160009091909190915060008201518160000190805190602001906106209291906107e8565b5060208201518160010160006101000a81548173ffffffffffffffffffffffffffffffffffffffff021916908373ffffffffffffffffffffffffffffffffffffffff160217905550604082015181600201556060820151816003015560808201518160040155505060006001603b8054905061069c9190610dac565b90507fa8d5c415ae4486d0b0ca47d57931522bcf32daa16432a434fd9d4c57050e94da603b82815481106106f9577f4e487b7100000000000000000000000000000000000000000000000000000000600052603260045260246000fd5b90600052602060002090600502016040516107149190610d0f565b60405180910390a150565b600060345442444160405160200161073993929190610c4e565b6040516020818303038152906040528051906020012060001c61075c9190610f1f565b905090565b600060355442444160405160200161077b93929190610c4e565b6040516020818303038152906040528051906020012060001c61079e9190610f1f565b905090565b6040518060a0016040528060608152602001600073ffffffffffffffffffffffffffffffffffffffff1681526020016000815260200160008152602001600081525090565b8280546107f490610e8b565b90600052602060002090601f016020900481019282610816576000855561085d565b82601f1061082f57805160ff191683800117855561085d565b8280016001018555821561085d579182015b8281111561085c578251825591602001919060010190610841565b5b50905061086a919061086e565b5090565b5b8082111561088757600081600090555060010161086f565b5090565b60006108978383610a99565b905092915050565b6108b06108ab82610e1c565b610ef1565b82525050565b6108bf81610e0a565b82525050565b60006108d082610d56565b6108da8185610d79565b9350836020820285016108ec85610d31565b8060005b858110156109285784840389528151610909858261088b565b945061091483610d6c565b925060208a019950506001810190506108f0565b50829750879550505050505092915050565b600061094582610d61565b61094f8185610d8a565b935061095f818560208601610e58565b61096881610fdd565b840191505092915050565b6000815461098081610e8b565b61098a8186610d8a565b945060018216600081146109a557600181146109b7576109ea565b60ff19831686526020860193506109ea565b6109c085610d41565b60005b838110156109e2578154818901526001820191506020810190506109c3565b808801955050505b50505092915050565b6000610a00602083610d9b565b91507f4e6f20647261676f6e7320617661696c61626c6520666f72206c6f6f6b75702e6000830152602082019050919050565b6000610a40602e83610d9b565b91507f436f6e747261637420696e7374616e63652068617320616c726561647920626560008301527f656e20696e697469616c697a65640000000000000000000000000000000000006020830152604082019050919050565b600060a0830160008301518482036000860152610ab6828261093a565b9150506020830151610acb60208601826108b6565b506040830151610ade6040860182610c28565b506060830151610af16060860182610c28565b506080830151610b046080860182610c28565b508091505092915050565b600060a0830160008301518482036000860152610b2c828261093a565b9150506020830151610b4160208601826108b6565b506040830151610b546040860182610c28565b506060830151610b676060860182610c28565b506080830151610b7a6080860182610c28565b508091505092915050565b600060a0830160008084018583036000870152610ba28382610973565b92505060018401549050610bb581610ebd565b610bc260208701826108b6565b5060028401549050610bd381610ed7565b610be06040870182610c28565b5060038401549050610bf181610ed7565b610bfe6060870182610c28565b5060048401549050610c0f81610ed7565b610c1c6080870182610c28565b50819250505092915050565b610c3181610e4e565b82525050565b610c48610c4382610e4e565b610f15565b82525050565b6000610c5a8286610c37565b602082019150610c6a8285610c37565b602082019150610c7a828461089f565b601482019150819050949350505050565b60006020820190508181036000830152610ca581846108c5565b905092915050565b60006020820190508181036000830152610cc6816109f3565b9050919050565b60006020820190508181036000830152610ce681610a33565b9050919050565b60006020820190508181036000830152610d078184610b0f565b905092915050565b60006020820190508181036000830152610d298184610b85565b905092915050565b6000819050602082019050919050565b60008190508160005260206000209050919050565b600081519050919050565b600081519050919050565b6000602082019050919050565b600082825260208201905092915050565b600082825260208201905092915050565b600082825260208201905092915050565b6000610db782610e4e565b9150610dc283610e4e565b925082821015610dd557610dd4610f50565b5b828203905092915050565b600073ffffffffffffffffffffffffffffffffffffffff82169050919050565b6000819050919050565b6000610e1582610e2e565b9050919050565b6000610e2782610e2e565b9050919050565b600073ffffffffffffffffffffffffffffffffffffffff82169050919050565b6000819050919050565b60005b83811015610e76578082015181840152602081019050610e5b565b83811115610e85576000848401525b50505050565b60006002820490506001821680610ea357607f821691505b60208210811415610eb757610eb6610fae565b5b50919050565b6000610ed0610ecb83610ffb565b610de0565b9050919050565b6000610eea610ee583610ffb565b610e00565b9050919050565b6000610efc82610f03565b9050919050565b6000610f0e82610fee565b9050919050565b6000819050919050565b6000610f2a82610e4e565b9150610f3583610e4e565b925082610f4557610f44610f7f565b5b828206905092915050565b7f4e487b7100000000000000000000000000000000000000000000000000000000600052601160045260246000fd5b7f4e487b7100000000000000000000000000000000000000000000000000000000600052601260045260246000fd5b7f4e487b7100000000000000000000000000000000000000000000000000000000600052602260045260246000fd5b6000601f19601f8301169050919050565b60008160601b9050919050565b60008160001c905091905056fea26469706673582212201fda41d06ca6c39be86db518f0e2689752f7fa0b41891d644a49aa383125056f64736f6c63430008000033",
  "immutableReferences": {},
  "source": "// SPDX-License-Identifier: MIT\r\npragma solidity >=0.8.0;\r\npragma abicoder v2;\r\n\r\nimport './SimpleFactory.sol';\r\nimport './Initializable.sol';\r\n\r\n/// @dev struct defined here to allow code re-usage: https://docs.soliditylang.org/en/v0.8.0/types.html#structs \r\n/// this model will be used as dragon throughout the app\r\nstruct Dragon {\r\n    string name;\r\n    address id;\r\n    uint256 power;\r\n    uint256 health;\r\n    uint256 goldReward;\r\n}\r\n\r\n/// @title Ormr, Man vs. Dragon\r\n/// @author github@ToFat4Fun\r\n/// @notice Responsible for creating dragons\r\n/// @dev Working with solidity v0.8.0, creates dragons\r\ncontract DragonFactory is SimpleFactory, Initializable {\r\n\r\n    /// @dev emits a newly created dragon\r\n    event newDragon(Dragon);\r\n\r\n    /// @dev allows for looking up specific dragon\r\n    mapping(address => uint256) dragonLookup;\r\n\r\n    /// @dev determine the maximum length of power and health\r\n    uint256 dragonPowerModulus;\r\n    uint256 dragonHealthModulus;\r\n    Dragon dragon;\r\n\r\n    /// @dev keep a list of all existing heroes in the contract.\r\n    Dragon[] dragons;\r\n\r\n    function initialize() public initializer { \r\n        dragonPowerModulus = 10**5;\r\n        dragonHealthModulus = 10**7;\r\n    }\r\n    \r\n    /// @dev get method that returns one dragon\r\n    function getDragon() public view returns (Dragon memory) {\r\n        require((dragons.length > 0), \"No dragons available for lookup.\");\r\n        return dragons[dragonLookup[address(this)]];\r\n    }\r\n    \r\n    /// @dev method that returns all dragons known in the contract as an array\r\n    function getDragons() public view returns (Dragon[] memory) {\r\n        require((dragons.length > 0), \"No dragons available for lookup.\");\r\n        return dragons;\r\n    }\r\n\r\n    /// @dev Internal function which creates the dragon.\r\n    function _createDragon() internal {\r\n        dragons.push(\r\n            Dragon({\r\n                name: \"Default_Dragon\",\r\n                id: address(this),\r\n                power: randomPower(),\r\n                health: randomHealth(),\r\n                goldReward: 10\r\n            })\r\n        );\r\n        uint256 id = dragons.length - 1;\r\n        emit newDragon(dragons[id]);\r\n    }\r\n\r\n    /// @dev for now users can create dragons on-demand to play the game\r\n    //TODO: come up with a way so the contract automatically creates a random dragon, refactor this method and front-end when doing so\r\n    function createDragon() public {\r\n        _createDragon();\r\n    }\r\n\r\n    /// @dev Semi-Random number generator.Determines dragonpower\r\n    /// @return _power returns dragonpower\r\n    function randomPower() internal view override returns (uint256 _power) {\r\n        return uint256(keccak256(abi.encodePacked(block.timestamp, block.difficulty, block.coinbase))) % dragonPowerModulus;\r\n    }\r\n\r\n    /// @dev Semi-Random number generator.Determines dragonhealth\r\n    /// @return _health returns dragonhealth\r\n    function randomHealth() internal view override returns (uint256 _health) {\r\n        return uint256(keccak256(abi.encodePacked(block.timestamp, block.difficulty, block.coinbase))) % dragonHealthModulus;\r\n    }\r\n}\r\n",
  "sourcePath": "D:\\HHS\\Jaar 4 Minor\\IT Deel Minor\\Assignments\\PD-8\\contracts\\DragonFactory.sol",
  "compiler": {
    "name": "solc",
    "version": "0.8.0+commit.c7dfd78e.Emscripten.clang"
  },
  "schemaVersion": "3.3.2",
  "updatedAt": "2020-12-23T20:56:16.810Z",
  "devdoc": {
    "author": "github@ToFat4Fun",
    "details": "Working with solidity v0.8.0, creates dragons",
    "events": {
      "newDragon((string,address,uint256,uint256,uint256))": {
        "details": "emits a newly created dragon"
      }
    },
    "kind": "dev",
    "methods": {
      "createDragon()": {
        "details": "for now users can create dragons on-demand to play the game"
      },
      "getDragon()": {
        "details": "get method that returns one dragon"
      },
      "getDragons()": {
        "details": "method that returns all dragons known in the contract as an array"
      }
    },
    "stateVariables": {
      "dragonLookup": {
        "details": "allows for looking up specific dragon"
      },
      "dragonPowerModulus": {
        "details": "determine the maximum length of power and health"
      },
      "dragons": {
        "details": "keep a list of all existing heroes in the contract."
      }
    },
    "title": "Ormr, Man vs. Dragon",
    "version": 1
  },
  "userdoc": {
    "kind": "user",
    "methods": {},
    "notice": "Responsible for creating dragons",
    "version": 1
  }
}