{
  "contractName": "HeroFactory",
  "abi": [
    {
      "anonymous": false,
      "inputs": [
        {
          "indexed": false,
          "internalType": "uint256",
          "name": "heroId",
          "type": "uint256"
        },
        {
          "indexed": false,
          "internalType": "string",
          "name": "name",
          "type": "string"
        }
      ],
      "name": "newHero",
      "type": "event"
    },
    {
      "inputs": [],
      "name": "initialize",
      "outputs": [],
      "stateMutability": "nonpayable",
      "type": "function"
    },
    {
      "inputs": [
        {
          "internalType": "address",
          "name": "sender",
          "type": "address"
        }
      ],
      "name": "getHero",
      "outputs": [
        {
          "components": [
            {
              "internalType": "string",
              "name": "name",
              "type": "string"
            },
            {
              "internalType": "uint256",
              "name": "power",
              "type": "uint256"
            },
            {
              "internalType": "uint256",
              "name": "health",
              "type": "uint256"
            },
            {
              "internalType": "uint256",
              "name": "bank",
              "type": "uint256"
            }
          ],
          "internalType": "struct Hero",
          "name": "",
          "type": "tuple"
        }
      ],
      "stateMutability": "view",
      "type": "function"
    },
    {
      "inputs": [],
      "name": "getHeroes",
      "outputs": [
        {
          "components": [
            {
              "internalType": "string",
              "name": "name",
              "type": "string"
            },
            {
              "internalType": "uint256",
              "name": "power",
              "type": "uint256"
            },
            {
              "internalType": "uint256",
              "name": "health",
              "type": "uint256"
            },
            {
              "internalType": "uint256",
              "name": "bank",
              "type": "uint256"
            }
          ],
          "internalType": "struct Hero[]",
          "name": "",
          "type": "tuple[]"
        }
      ],
      "stateMutability": "view",
      "type": "function"
    },
    {
      "inputs": [
        {
          "internalType": "string",
          "name": "_name",
          "type": "string"
        },
        {
          "internalType": "address",
          "name": "sender",
          "type": "address"
        }
      ],
      "name": "createHero",
      "outputs": [],
      "stateMutability": "nonpayable",
      "type": "function"
    }
  ],
  "bytecode": "0x6080604052620186a06036556298968060375534801561001e57600080fd5b506110f48061002e6000396000f3fe608060405234801561001057600080fd5b506004361061004c5760003560e01c806327df259a146100515780638129fc1c146100815780639a8d28821461008b578063deb786c4146100a9575b600080fd5b61006b600480360381019061006691906108e7565b6100c5565b6040516100789190610d16565b60405180910390f35b61008961025e565b005b610093610346565b6040516100a09190610c94565b60405180910390f35b6100c360048036038101906100be9190610910565b61049d565b005b6100cd61079f565b6000603c8054905011610115576040517f08c379a000000000000000000000000000000000000000000000000000000000815260040161010c90610cb6565b60405180910390fd5b603c603460008473ffffffffffffffffffffffffffffffffffffffff1673ffffffffffffffffffffffffffffffffffffffff168152602001908152602001600020548154811061018e577f4e487b7100000000000000000000000000000000000000000000000000000000600052603260045260246000fd5b90600052602060002090600402016040518060800160405290816000820180546101b790610ef3565b80601f01602080910402602001604051908101604052809291908181526020018280546101e390610ef3565b80156102305780601f1061020557610100808354040283529160200191610230565b820191906000526020600020905b81548152906001019060200180831161021357829003601f168201915b5050505050815260200160018201548152602001600282015481526020016003820154815250509050919050565b600060019054906101000a900460ff168061027d575061027c61052d565b5b80610293575060008054906101000a900460ff16155b6102d2576040517f08c379a00000000000000000000000000000000000000000000000000000000081526004016102c990610cd6565b60405180910390fd5b60008060019054906101000a900460ff161590508015610322576001600060016101000a81548160ff02191690831515021790555060016000806101000a81548160ff0219169083151502179055505b80156103435760008060016101000a81548160ff0219169083151502179055505b50565b60606000603c8054905011610390576040517f08c379a000000000000000000000000000000000000000000000000000000000815260040161038790610cb6565b60405180910390fd5b603c805480602002602001604051908101604052809291908181526020016000905b8282101561049457838290600052602060002090600402016040518060800160405290816000820180546103e590610ef3565b80601f016020809104026020016040519081016040528092919081815260200182805461041190610ef3565b801561045e5780601f106104335761010080835404028352916020019161045e565b820191906000526020600020905b81548152906001019060200180831161044157829003601f168201915b505050505081526020016001820154815260200160028201548152602001600382015481525050815260200190600101906103b2565b50505050905090565b6000603560008373ffffffffffffffffffffffffffffffffffffffff1673ffffffffffffffffffffffffffffffffffffffff168152602001908152602001600020541461051f576040517f08c379a000000000000000000000000000000000000000000000000000000000815260040161051690610cf6565b60405180910390fd5b6105298282610544565b5050565b6000803090506000813b9050600081149250505090565b603c604051806080016040528084815260200161055f61071b565b815260200161056c61075d565b81526020016000815250908060018154018082558091505060019003906000526020600020906004020160009091909190915060008201518160000190805190602001906105bb9291906107c7565b50602082015181600101556040820151816002015560608201518160030155505060006001603c805490506105f09190610e2f565b9050816033600083815260200190815260200160002060006101000a81548173ffffffffffffffffffffffffffffffffffffffff021916908373ffffffffffffffffffffffffffffffffffffffff16021790555080603460008473ffffffffffffffffffffffffffffffffffffffff1673ffffffffffffffffffffffffffffffffffffffff16815260200190815260200160002081905550603560008373ffffffffffffffffffffffffffffffffffffffff1673ffffffffffffffffffffffffffffffffffffffff16815260200190815260200160002060008154809291906106d890610f25565b91905055507fe091168a421f352d46fe9eafce51f4d2bce03324348c1d1d6f9bb1283d60bed6818460405161070e929190610d38565b60405180910390a1505050565b600060365442444160405160200161073593929190610c57565b6040516020818303038152906040528051906020012060001c6107589190610f9c565b905090565b600060375442444160405160200161077793929190610c57565b6040516020818303038152906040528051906020012060001c61079a9190610f9c565b905090565b6040518060800160405280606081526020016000815260200160008152602001600081525090565b8280546107d390610ef3565b90600052602060002090601f0160209004810192826107f5576000855561083c565b82601f1061080e57805160ff191683800117855561083c565b8280016001018555821561083c579182015b8281111561083b578251825591602001919060010190610820565b5b509050610849919061084d565b5090565b5b8082111561086657600081600090555060010161084e565b5090565b600061087d61087884610d99565b610d68565b90508281526020810184848401111561089557600080fd5b6108a0848285610eb1565b509392505050565b6000813590506108b7816110a7565b92915050565b600082601f8301126108ce57600080fd5b81356108de84826020860161086a565b91505092915050565b6000602082840312156108f957600080fd5b6000610907848285016108a8565b91505092915050565b6000806040838503121561092357600080fd5b600083013567ffffffffffffffff81111561093d57600080fd5b610949858286016108bd565b925050602061095a858286016108a8565b9150509250929050565b60006109708383610b5c565b905092915050565b61098961098482610e75565b610f6e565b82525050565b600061099a82610dd9565b6109a48185610dfc565b9350836020820285016109b685610dc9565b8060005b858110156109f257848403895281516109d38582610964565b94506109de83610def565b925060208a019950506001810190506109ba565b50829750879550505050505092915050565b6000610a0f82610de4565b610a198185610e0d565b9350610a29818560208601610ec0565b610a3281611089565b840191505092915050565b6000610a4882610de4565b610a528185610e1e565b9350610a62818560208601610ec0565b610a6b81611089565b840191505092915050565b6000610a83601f83610e1e565b91507f4e6f206865726f657320617661696c61626c6520666f72206c6f6f6b75702e006000830152602082019050919050565b6000610ac3602e83610e1e565b91507f436f6e747261637420696e7374616e63652068617320616c726561647920626560008301527f656e20696e697469616c697a65640000000000000000000000000000000000006020830152604082019050919050565b6000610b29601b83610e1e565b91507f596f7520616c726561647920637265617465642061206865726f2100000000006000830152602082019050919050565b60006080830160008301518482036000860152610b798282610a04565b9150506020830151610b8e6020860182610c22565b506040830151610ba16040860182610c22565b506060830151610bb46060860182610c22565b508091505092915050565b60006080830160008301518482036000860152610bdc8282610a04565b9150506020830151610bf16020860182610c22565b506040830151610c046040860182610c22565b506060830151610c176060860182610c22565b508091505092915050565b610c2b81610ea7565b82525050565b610c3a81610ea7565b82525050565b610c51610c4c82610ea7565b610f92565b82525050565b6000610c638286610c40565b602082019150610c738285610c40565b602082019150610c838284610978565b601482019150819050949350505050565b60006020820190508181036000830152610cae818461098f565b905092915050565b60006020820190508181036000830152610ccf81610a76565b9050919050565b60006020820190508181036000830152610cef81610ab6565b9050919050565b60006020820190508181036000830152610d0f81610b1c565b9050919050565b60006020820190508181036000830152610d308184610bbf565b905092915050565b6000604082019050610d4d6000830185610c31565b8181036020830152610d5f8184610a3d565b90509392505050565b6000604051905081810181811067ffffffffffffffff82111715610d8f57610d8e61105a565b5b8060405250919050565b600067ffffffffffffffff821115610db457610db361105a565b5b601f19601f8301169050602081019050919050565b6000819050602082019050919050565b600081519050919050565b600081519050919050565b6000602082019050919050565b600082825260208201905092915050565b600082825260208201905092915050565b600082825260208201905092915050565b6000610e3a82610ea7565b9150610e4583610ea7565b925082821015610e5857610e57610fcd565b5b828203905092915050565b6000610e6e82610e87565b9050919050565b6000610e8082610e87565b9050919050565b600073ffffffffffffffffffffffffffffffffffffffff82169050919050565b6000819050919050565b82818337600083830152505050565b60005b83811015610ede578082015181840152602081019050610ec3565b83811115610eed576000848401525b50505050565b60006002820490506001821680610f0b57607f821691505b60208210811415610f1f57610f1e61102b565b5b50919050565b6000610f3082610ea7565b91507fffffffffffffffffffffffffffffffffffffffffffffffffffffffffffffffff821415610f6357610f62610fcd565b5b600182019050919050565b6000610f7982610f80565b9050919050565b6000610f8b8261109a565b9050919050565b6000819050919050565b6000610fa782610ea7565b9150610fb283610ea7565b925082610fc257610fc1610ffc565b5b828206905092915050565b7f4e487b7100000000000000000000000000000000000000000000000000000000600052601160045260246000fd5b7f4e487b7100000000000000000000000000000000000000000000000000000000600052601260045260246000fd5b7f4e487b7100000000000000000000000000000000000000000000000000000000600052602260045260246000fd5b7f4e487b7100000000000000000000000000000000000000000000000000000000600052604160045260246000fd5b6000601f19601f8301169050919050565b60008160601b9050919050565b6110b081610e63565b81146110bb57600080fd5b5056fea26469706673582212202ddcac50a7bc42408066853db0fcd8caa2fda4042b1192df0598d32bfc4a8be964736f6c63430008000033",
  "immutableReferences": {},
  "source": "// SPDX-License-Identifier: MIT\r\npragma solidity >=0.8.0;\r\npragma abicoder v2;\r\n\r\nimport \"./SimpleFactory.sol\";\r\nimport \"./Hero.sol\";\r\nimport './Initializable.sol';\r\n\r\n/// @title Ormr, Man vs. Dragon\r\n/// @author github@ToFat4Fun\r\n/// @notice Responsible for creating the hero our players can play with!\r\n/// @dev Working with solidity v0.8.0, creates heroes\r\ncontract HeroFactory is SimpleFactory, Initializable {\r\n    /// @dev emits a newly created hero\r\n    event newHero(uint256 heroId, string name);\r\n\r\n    /// @dev these mappings allow linking and looking up heroes that are stored in the contract\r\n    /// with the address of users. OwnerToHeroCount enforces a maximum number of heroes per address\r\n    mapping(uint256 => address) heroToOwner;\r\n    mapping(address => uint256) heroLookup;\r\n    mapping(address => uint256) ownerHeroCount;\r\n\r\n    /// @dev determine the maximum length of power and health\r\n    uint256 heroPowerModulus = 10**5; // Max 5 digits\r\n    uint256 heroHealthModulus = 10**7; // Max 7 digits.\r\n    Hero hero;\r\n\r\n    /// @dev keep a list of all existing heroes in the contract.\r\n    Hero[] heroes;\r\n\r\n    function initialize() public initializer { }\r\n    \r\n    /// @param sender address of the person interacting with the contract\r\n    /// @return hero object that corresponds with the given sender address\r\n    function getHero(address sender) public view returns (Hero memory) {\r\n        require((heroes.length > 0), \"No heroes available for lookup.\"); \r\n        return heroes[heroLookup[sender]];\r\n    }\r\n\r\n    /// @return array of all heroes in the contract\r\n    function getHeroes() public view returns (Hero[] memory) {\r\n        require((heroes.length > 0), \"No heroes available for lookup.\");\r\n        return heroes;\r\n    }\r\n\r\n    /// @dev Internal function which creates the hero.\r\n    /// @param _name the hero name submitted by the user\r\n    /// @param sender the user's address which we use to link the user and the hero\r\n    function _createHero(string memory _name, address sender) internal {\r\n        heroes.push(\r\n            Hero({\r\n                name: _name,\r\n                power: randomPower(),\r\n                health: randomHealth(),\r\n                bank: 0\r\n            })\r\n        ); // Default hero power, health and bank.\r\n        uint256 id = heroes.length - 1; // Different syntax because: https://docs.soliditylang.org/en/v0.6.0/060-breaking-changes.html#how-to-update-your-code\r\n        heroToOwner[id] = sender; // Assign the hero we just created to the owner's address using the mapping.\r\n        heroLookup[sender] = id; // Assign the address calling the method with the hero array index, enabling lookup from address.\r\n        ownerHeroCount[sender]++; // Increase the count which tracks how many heroes are owned by an address.\r\n        emit newHero(id, _name);\r\n    }\r\n\r\n    /// @dev The player interacts with the contract through this method to create a hero, which checks if they already have a hero.\r\n    /// @param _name name submitted by the user\r\n    /// @param sender the user's address which we use to check if a user already has a hero\r\n    function createHero(string memory _name, address sender) public {\r\n        require((ownerHeroCount[sender] == 0), \"You already created a hero!\");\r\n        _createHero(_name, sender);\r\n    }\r\n\r\n    /// @dev Semi-Random number generator.Determines heropower\r\n    /// @return returns hero power\r\n    function randomPower() internal view override returns (uint256) {\r\n        return uint256(keccak256(abi.encodePacked(block.timestamp, block.difficulty, block.coinbase))) % heroPowerModulus;\r\n    }\r\n\r\n    /// @dev Semi-Random number generator.Determines herohealth\r\n    /// @return returns hero health\r\n    function randomHealth() internal view override returns (uint256) {\r\n        return uint256(keccak256(abi.encodePacked(block.timestamp, block.difficulty, block.coinbase))) % heroHealthModulus;\r\n    }\r\n}\r\n",
  "sourcePath": "D:\\HHS\\Jaar 4 Minor\\IT Deel Minor\\Assignments\\PD-8\\contracts\\HeroFactory.sol",
  "compiler": {
    "name": "solc",
    "version": "0.8.0+commit.c7dfd78e.Emscripten.clang"
  },
  "schemaVersion": "3.3.2",
  "updatedAt": "2020-12-23T01:24:43.025Z",
  "devdoc": {
    "author": "github@ToFat4Fun",
    "details": "Working with solidity v0.8.0, creates heroes",
    "events": {
      "newHero(uint256,string)": {
        "details": "emits a newly created hero"
      }
    },
    "kind": "dev",
    "methods": {
      "createHero(string,address)": {
        "details": "The player interacts with the contract through this method to create a hero, which checks if they already have a hero.",
        "params": {
          "_name": "name submitted by the user",
          "sender": "the user's address which we use to check if a user already has a hero"
        }
      },
      "getHero(address)": {
        "params": {
          "sender": "address of the person interacting with the contract"
        },
        "returns": {
          "_0": "hero object that corresponds with the given sender address"
        }
      },
      "getHeroes()": {
        "returns": {
          "_0": "array of all heroes in the contract"
        }
      }
    },
    "stateVariables": {
      "heroPowerModulus": {
        "details": "determine the maximum length of power and health"
      },
      "heroToOwner": {
        "details": "these mappings allow linking and looking up heroes that are stored in the contract with the address of users. OwnerToHeroCount enforces a maximum number of heroes per address"
      },
      "heroes": {
        "details": "keep a list of all existing heroes in the contract."
      }
    },
    "title": "Ormr, Man vs. Dragon",
    "version": 1
  },
  "userdoc": {
    "kind": "user",
    "methods": {},
    "notice": "Responsible for creating the hero our players can play with!",
    "version": 1
  }
}