{
  "contractName": "HeroFactory",
  "abi": [
    {
      "anonymous": false,
      "inputs": [
        {
          "indexed": false,
          "internalType": "uint256",
          "name": "heroId",
          "type": "uint256"
        },
        {
          "indexed": false,
          "internalType": "string",
          "name": "name",
          "type": "string"
        }
      ],
      "name": "newHero",
      "type": "event"
    },
    {
      "inputs": [
        {
          "internalType": "address",
          "name": "sender",
          "type": "address"
        }
      ],
      "name": "getHero",
      "outputs": [
        {
          "components": [
            {
              "internalType": "string",
              "name": "name",
              "type": "string"
            },
            {
              "internalType": "uint256",
              "name": "power",
              "type": "uint256"
            },
            {
              "internalType": "uint256",
              "name": "health",
              "type": "uint256"
            },
            {
              "internalType": "uint256",
              "name": "bank",
              "type": "uint256"
            }
          ],
          "internalType": "struct Hero",
          "name": "",
          "type": "tuple"
        }
      ],
      "stateMutability": "view",
      "type": "function",
      "constant": true
    },
    {
      "inputs": [],
      "name": "getHeroes",
      "outputs": [
        {
          "components": [
            {
              "internalType": "string",
              "name": "name",
              "type": "string"
            },
            {
              "internalType": "uint256",
              "name": "power",
              "type": "uint256"
            },
            {
              "internalType": "uint256",
              "name": "health",
              "type": "uint256"
            },
            {
              "internalType": "uint256",
              "name": "bank",
              "type": "uint256"
            }
          ],
          "internalType": "struct Hero[]",
          "name": "",
          "type": "tuple[]"
        }
      ],
      "stateMutability": "view",
      "type": "function",
      "constant": true
    },
    {
      "inputs": [
        {
          "internalType": "string",
          "name": "_name",
          "type": "string"
        },
        {
          "internalType": "address",
          "name": "sender",
          "type": "address"
        }
      ],
      "name": "createHero",
      "outputs": [],
      "stateMutability": "nonpayable",
      "type": "function"
    }
  ],
  "bytecode": "0x6080604052620186a06003556298968060045534801561001e57600080fd5b50610f598061002e6000396000f3fe608060405234801561001057600080fd5b50600436106100415760003560e01c806327df259a146100465780639a8d288214610076578063deb786c414610094575b600080fd5b610060600480360381019061005b91906107d2565b6100b0565b60405161006d9190610b7b565b60405180910390f35b61007e610249565b60405161008b9190610b19565b60405180910390f35b6100ae60048036038101906100a991906107fb565b6103a0565b005b6100b861068a565b600060098054905011610100576040517f08c379a00000000000000000000000000000000000000000000000000000000081526004016100f790610b3b565b60405180910390fd5b6009600160008473ffffffffffffffffffffffffffffffffffffffff1673ffffffffffffffffffffffffffffffffffffffff1681526020019081526020016000205481548110610179577f4e487b7100000000000000000000000000000000000000000000000000000000600052603260045260246000fd5b90600052602060002090600402016040518060800160405290816000820180546101a290610d58565b80601f01602080910402602001604051908101604052809291908181526020018280546101ce90610d58565b801561021b5780601f106101f05761010080835404028352916020019161021b565b820191906000526020600020905b8154815290600101906020018083116101fe57829003601f168201915b5050505050815260200160018201548152602001600282015481526020016003820154815250509050919050565b6060600060098054905011610293576040517f08c379a000000000000000000000000000000000000000000000000000000000815260040161028a90610b3b565b60405180910390fd5b6009805480602002602001604051908101604052809291908181526020016000905b8282101561039757838290600052602060002090600402016040518060800160405290816000820180546102e890610d58565b80601f016020809104026020016040519081016040528092919081815260200182805461031490610d58565b80156103615780601f1061033657610100808354040283529160200191610361565b820191906000526020600020905b81548152906001019060200180831161034457829003601f168201915b505050505081526020016001820154815260200160028201548152602001600382015481525050815260200190600101906102b5565b50505050905090565b6000600260008373ffffffffffffffffffffffffffffffffffffffff1673ffffffffffffffffffffffffffffffffffffffff1681526020019081526020016000205414610422576040517f08c379a000000000000000000000000000000000000000000000000000000000815260040161041990610b5b565b60405180910390fd5b61042c8282610430565b5050565b6009604051806080016040528084815260200161044b610606565b8152602001610458610648565b81526020016000815250908060018154018082558091505060019003906000526020600020906004020160009091909190915060008201518160000190805190602001906104a79291906106b2565b506020820151816001015560408201518160020155606082015181600301555050600060016009805490506104dc9190610c94565b90508160008083815260200190815260200160002060006101000a81548173ffffffffffffffffffffffffffffffffffffffff021916908373ffffffffffffffffffffffffffffffffffffffff16021790555080600160008473ffffffffffffffffffffffffffffffffffffffff1673ffffffffffffffffffffffffffffffffffffffff16815260200190815260200160002081905550600260008373ffffffffffffffffffffffffffffffffffffffff1673ffffffffffffffffffffffffffffffffffffffff16815260200190815260200160002060008154809291906105c390610d8a565b91905055507fe091168a421f352d46fe9eafce51f4d2bce03324348c1d1d6f9bb1283d60bed681846040516105f9929190610b9d565b60405180910390a1505050565b600060035442444160405160200161062093929190610adc565b6040516020818303038152906040528051906020012060001c6106439190610e01565b905090565b600060045442444160405160200161066293929190610adc565b6040516020818303038152906040528051906020012060001c6106859190610e01565b905090565b6040518060800160405280606081526020016000815260200160008152602001600081525090565b8280546106be90610d58565b90600052602060002090601f0160209004810192826106e05760008555610727565b82601f106106f957805160ff1916838001178555610727565b82800160010185558215610727579182015b8281111561072657825182559160200191906001019061070b565b5b5090506107349190610738565b5090565b5b80821115610751576000816000905550600101610739565b5090565b600061076861076384610bfe565b610bcd565b90508281526020810184848401111561078057600080fd5b61078b848285610d16565b509392505050565b6000813590506107a281610f0c565b92915050565b600082601f8301126107b957600080fd5b81356107c9848260208601610755565b91505092915050565b6000602082840312156107e457600080fd5b60006107f284828501610793565b91505092915050565b6000806040838503121561080e57600080fd5b600083013567ffffffffffffffff81111561082857600080fd5b610834858286016107a8565b925050602061084585828601610793565b9150509250929050565b600061085b83836109e1565b905092915050565b61087461086f82610cda565b610dd3565b82525050565b600061088582610c3e565b61088f8185610c61565b9350836020820285016108a185610c2e565b8060005b858110156108dd57848403895281516108be858261084f565b94506108c983610c54565b925060208a019950506001810190506108a5565b50829750879550505050505092915050565b60006108fa82610c49565b6109048185610c72565b9350610914818560208601610d25565b61091d81610eee565b840191505092915050565b600061093382610c49565b61093d8185610c83565b935061094d818560208601610d25565b61095681610eee565b840191505092915050565b600061096e601f83610c83565b91507f4e6f206865726f657320617661696c61626c6520666f72206c6f6f6b75702e006000830152602082019050919050565b60006109ae601b83610c83565b91507f596f7520616c726561647920637265617465642061206865726f2100000000006000830152602082019050919050565b600060808301600083015184820360008601526109fe82826108ef565b9150506020830151610a136020860182610aa7565b506040830151610a266040860182610aa7565b506060830151610a396060860182610aa7565b508091505092915050565b60006080830160008301518482036000860152610a6182826108ef565b9150506020830151610a766020860182610aa7565b506040830151610a896040860182610aa7565b506060830151610a9c6060860182610aa7565b508091505092915050565b610ab081610d0c565b82525050565b610abf81610d0c565b82525050565b610ad6610ad182610d0c565b610df7565b82525050565b6000610ae88286610ac5565b602082019150610af88285610ac5565b602082019150610b088284610863565b601482019150819050949350505050565b60006020820190508181036000830152610b33818461087a565b905092915050565b60006020820190508181036000830152610b5481610961565b9050919050565b60006020820190508181036000830152610b74816109a1565b9050919050565b60006020820190508181036000830152610b958184610a44565b905092915050565b6000604082019050610bb26000830185610ab6565b8181036020830152610bc48184610928565b90509392505050565b6000604051905081810181811067ffffffffffffffff82111715610bf457610bf3610ebf565b5b8060405250919050565b600067ffffffffffffffff821115610c1957610c18610ebf565b5b601f19601f8301169050602081019050919050565b6000819050602082019050919050565b600081519050919050565b600081519050919050565b6000602082019050919050565b600082825260208201905092915050565b600082825260208201905092915050565b600082825260208201905092915050565b6000610c9f82610d0c565b9150610caa83610d0c565b925082821015610cbd57610cbc610e32565b5b828203905092915050565b6000610cd382610cec565b9050919050565b6000610ce582610cec565b9050919050565b600073ffffffffffffffffffffffffffffffffffffffff82169050919050565b6000819050919050565b82818337600083830152505050565b60005b83811015610d43578082015181840152602081019050610d28565b83811115610d52576000848401525b50505050565b60006002820490506001821680610d7057607f821691505b60208210811415610d8457610d83610e90565b5b50919050565b6000610d9582610d0c565b91507fffffffffffffffffffffffffffffffffffffffffffffffffffffffffffffffff821415610dc857610dc7610e32565b5b600182019050919050565b6000610dde82610de5565b9050919050565b6000610df082610eff565b9050919050565b6000819050919050565b6000610e0c82610d0c565b9150610e1783610d0c565b925082610e2757610e26610e61565b5b828206905092915050565b7f4e487b7100000000000000000000000000000000000000000000000000000000600052601160045260246000fd5b7f4e487b7100000000000000000000000000000000000000000000000000000000600052601260045260246000fd5b7f4e487b7100000000000000000000000000000000000000000000000000000000600052602260045260246000fd5b7f4e487b7100000000000000000000000000000000000000000000000000000000600052604160045260246000fd5b6000601f19601f8301169050919050565b60008160601b9050919050565b610f1581610cc8565b8114610f2057600080fd5b5056fea264697066735822122027bd8300d0c54a80062bea4a496bb8834149f655484a62710160c905ce98399b64736f6c63430008000033",
  "immutableReferences": {},
  "source": "// SPDX-License-Identifier: MIT\r\npragma solidity >=0.8.0;\r\npragma abicoder v2;\r\n\r\nimport \"./SimpleFactory.sol\";\r\nimport \"./Hero.sol\";\r\n\r\n// Responsible for creating the hero our players can play with!\r\ncontract HeroFactory is SimpleFactory {\r\n    // Events\r\n    event newHero(uint256 heroId, string name);\r\n\r\n    // Mappings\r\n    mapping(uint256 => address) heroToOwner;\r\n    mapping(address => uint256) heroLookup;\r\n    mapping(address => uint256) ownerHeroCount;\r\n\r\n    // Variables\r\n    uint256 heroPowerModulus = 10**5; // Max 5 digits\r\n    uint256 heroHealthModulus = 10**7; // Max 7 digits.\r\n    Hero hero;\r\n\r\n    // Keep a list of all existing heroes in the contract.\r\n    Hero[] heroes;\r\n\r\n    // Getters and Setters\r\n    function getHero(address sender) public view returns (Hero memory) {\r\n        require((heroes.length > 0), \"No heroes available for lookup.\"); // Check if there are heroes.\r\n        return heroes[heroLookup[sender]];\r\n    }\r\n\r\n    function getHeroes() public view returns (Hero[] memory) {\r\n        require((heroes.length > 0), \"No heroes available for lookup.\"); // Check if there are heroes.\r\n        return heroes;\r\n    }\r\n\r\n    // Internal function which creates the hero.\r\n    function _createHero(string memory _name, address sender) internal {\r\n        heroes.push(\r\n            Hero({\r\n                name: _name,\r\n                power: randomPower(),\r\n                health: randomHealth(),\r\n                bank: 0\r\n            })\r\n        ); // Default hero power, health and bank.\r\n        uint256 id = heroes.length - 1; // Different syntax because: https://docs.soliditylang.org/en/v0.6.0/060-breaking-changes.html#how-to-update-your-code\r\n        heroToOwner[id] = sender; // Assign the hero we just created to the owner's address using the mapping.\r\n        heroLookup[sender] = id; // Assign the address calling the method with the hero array index, enabling lookup from address.\r\n        ownerHeroCount[sender]++; // Increase the count which tracks how many heroes are owned by an address.\r\n        emit newHero(id, _name);\r\n    }\r\n\r\n    // The player interacts with the contract through this method to create a hero, which checks if they already have a hero.\r\n    function createHero(string memory _name, address sender) public {\r\n        require((ownerHeroCount[sender] == 0), \"You already created a hero!\"); // Can only have one hero!\r\n        _createHero(_name, sender);\r\n    }\r\n\r\n    // Semi-Random number generator. W.I.P\r\n    // Determines hero power.\r\n    function randomPower() internal view override returns (uint256) {\r\n        return\r\n            uint256(\r\n                keccak256(\r\n                    abi.encodePacked(\r\n                        block.timestamp,\r\n                        block.difficulty,\r\n                        block.coinbase\r\n                    )\r\n                )\r\n            ) % heroPowerModulus;\r\n    }\r\n\r\n    // Semi-Random number generator. W.I.P\r\n    // Determines hero health.\r\n    function randomHealth() internal view override returns (uint256) {\r\n        return\r\n            uint256(\r\n                keccak256(\r\n                    abi.encodePacked(\r\n                        block.timestamp,\r\n                        block.difficulty,\r\n                        block.coinbase\r\n                    )\r\n                )\r\n            ) % heroHealthModulus;\r\n    }\r\n}\r\n",
  "sourcePath": "D:\\HHS\\Jaar 4 Minor\\IT Deel Minor\\Assignments\\PD-8\\contracts\\HeroFactory.sol",
  "compiler": {
    "name": "solc",
    "version": "0.8.0+commit.c7dfd78e.Emscripten.clang"
  },
  "schemaVersion": "3.3.2",
  "updatedAt": "2020-12-22T15:44:52.934Z",
  "networkType": "ethereum",
  "devdoc": {
    "kind": "dev",
    "methods": {},
    "version": 1
  },
  "userdoc": {
    "kind": "user",
    "methods": {},
    "version": 1
  }
}