{
  "contractName": "HeroFactory",
  "abi": [
    {
      "anonymous": false,
      "inputs": [
        {
          "indexed": false,
          "internalType": "uint256",
          "name": "heroId",
          "type": "uint256"
        },
        {
          "indexed": false,
          "internalType": "string",
          "name": "name",
          "type": "string"
        }
      ],
      "name": "newHero",
      "type": "event"
    },
    {
      "inputs": [],
      "name": "initialize",
      "outputs": [],
      "stateMutability": "nonpayable",
      "type": "function"
    },
    {
      "inputs": [
        {
          "internalType": "address",
          "name": "sender",
          "type": "address"
        }
      ],
      "name": "getHero",
      "outputs": [
        {
          "components": [
            {
              "internalType": "string",
              "name": "name",
              "type": "string"
            },
            {
              "internalType": "uint256",
              "name": "power",
              "type": "uint256"
            },
            {
              "internalType": "uint256",
              "name": "health",
              "type": "uint256"
            },
            {
              "internalType": "uint256",
              "name": "bank",
              "type": "uint256"
            }
          ],
          "internalType": "struct Hero",
          "name": "",
          "type": "tuple"
        }
      ],
      "stateMutability": "view",
      "type": "function"
    },
    {
      "inputs": [],
      "name": "getHeroes",
      "outputs": [
        {
          "components": [
            {
              "internalType": "string",
              "name": "name",
              "type": "string"
            },
            {
              "internalType": "uint256",
              "name": "power",
              "type": "uint256"
            },
            {
              "internalType": "uint256",
              "name": "health",
              "type": "uint256"
            },
            {
              "internalType": "uint256",
              "name": "bank",
              "type": "uint256"
            }
          ],
          "internalType": "struct Hero[]",
          "name": "",
          "type": "tuple[]"
        }
      ],
      "stateMutability": "view",
      "type": "function"
    },
    {
      "inputs": [
        {
          "internalType": "string",
          "name": "_name",
          "type": "string"
        },
        {
          "internalType": "address",
          "name": "sender",
          "type": "address"
        }
      ],
      "name": "createHero",
      "outputs": [],
      "stateMutability": "nonpayable",
      "type": "function"
    }
  ],
  "bytecode": "0x608060405234801561001057600080fd5b50611108806100206000396000f3fe608060405234801561001057600080fd5b506004361061004c5760003560e01c806327df259a146100515780638129fc1c146100815780639a8d28821461008b578063deb786c4146100a9575b600080fd5b61006b600480360381019061006691906108fb565b6100c5565b6040516100789190610d2a565b60405180910390f35b61008961025e565b005b61009361035a565b6040516100a09190610ca8565b60405180910390f35b6100c360048036038101906100be9190610924565b6104b1565b005b6100cd6107b3565b6000603c8054905011610115576040517f08c379a000000000000000000000000000000000000000000000000000000000815260040161010c90610cca565b60405180910390fd5b603c603460008473ffffffffffffffffffffffffffffffffffffffff1673ffffffffffffffffffffffffffffffffffffffff168152602001908152602001600020548154811061018e577f4e487b7100000000000000000000000000000000000000000000000000000000600052603260045260246000fd5b90600052602060002090600402016040518060800160405290816000820180546101b790610f07565b80601f01602080910402602001604051908101604052809291908181526020018280546101e390610f07565b80156102305780601f1061020557610100808354040283529160200191610230565b820191906000526020600020905b81548152906001019060200180831161021357829003601f168201915b5050505050815260200160018201548152602001600282015481526020016003820154815250509050919050565b600060019054906101000a900460ff168061027d575061027c610541565b5b80610293575060008054906101000a900460ff16155b6102d2576040517f08c379a00000000000000000000000000000000000000000000000000000000081526004016102c990610cea565b60405180910390fd5b60008060019054906101000a900460ff161590508015610322576001600060016101000a81548160ff02191690831515021790555060016000806101000a81548160ff0219169083151502179055505b620186a06036819055506298968060378190555080156103575760008060016101000a81548160ff0219169083151502179055505b50565b60606000603c80549050116103a4576040517f08c379a000000000000000000000000000000000000000000000000000000000815260040161039b90610cca565b60405180910390fd5b603c805480602002602001604051908101604052809291908181526020016000905b828210156104a857838290600052602060002090600402016040518060800160405290816000820180546103f990610f07565b80601f016020809104026020016040519081016040528092919081815260200182805461042590610f07565b80156104725780601f1061044757610100808354040283529160200191610472565b820191906000526020600020905b81548152906001019060200180831161045557829003601f168201915b505050505081526020016001820154815260200160028201548152602001600382015481525050815260200190600101906103c6565b50505050905090565b6000603560008373ffffffffffffffffffffffffffffffffffffffff1673ffffffffffffffffffffffffffffffffffffffff1681526020019081526020016000205414610533576040517f08c379a000000000000000000000000000000000000000000000000000000000815260040161052a90610d0a565b60405180910390fd5b61053d8282610558565b5050565b6000803090506000813b9050600081149250505090565b603c604051806080016040528084815260200161057361072f565b8152602001610580610771565b81526020016000815250908060018154018082558091505060019003906000526020600020906004020160009091909190915060008201518160000190805190602001906105cf9291906107db565b50602082015181600101556040820151816002015560608201518160030155505060006001603c805490506106049190610e43565b9050816033600083815260200190815260200160002060006101000a81548173ffffffffffffffffffffffffffffffffffffffff021916908373ffffffffffffffffffffffffffffffffffffffff16021790555080603460008473ffffffffffffffffffffffffffffffffffffffff1673ffffffffffffffffffffffffffffffffffffffff16815260200190815260200160002081905550603560008373ffffffffffffffffffffffffffffffffffffffff1673ffffffffffffffffffffffffffffffffffffffff16815260200190815260200160002060008154809291906106ec90610f39565b91905055507fe091168a421f352d46fe9eafce51f4d2bce03324348c1d1d6f9bb1283d60bed68184604051610722929190610d4c565b60405180910390a1505050565b600060365442444160405160200161074993929190610c6b565b6040516020818303038152906040528051906020012060001c61076c9190610fb0565b905090565b600060375442444160405160200161078b93929190610c6b565b6040516020818303038152906040528051906020012060001c6107ae9190610fb0565b905090565b6040518060800160405280606081526020016000815260200160008152602001600081525090565b8280546107e790610f07565b90600052602060002090601f0160209004810192826108095760008555610850565b82601f1061082257805160ff1916838001178555610850565b82800160010185558215610850579182015b8281111561084f578251825591602001919060010190610834565b5b50905061085d9190610861565b5090565b5b8082111561087a576000816000905550600101610862565b5090565b600061089161088c84610dad565b610d7c565b9050828152602081018484840111156108a957600080fd5b6108b4848285610ec5565b509392505050565b6000813590506108cb816110bb565b92915050565b600082601f8301126108e257600080fd5b81356108f284826020860161087e565b91505092915050565b60006020828403121561090d57600080fd5b600061091b848285016108bc565b91505092915050565b6000806040838503121561093757600080fd5b600083013567ffffffffffffffff81111561095157600080fd5b61095d858286016108d1565b925050602061096e858286016108bc565b9150509250929050565b60006109848383610b70565b905092915050565b61099d61099882610e89565b610f82565b82525050565b60006109ae82610ded565b6109b88185610e10565b9350836020820285016109ca85610ddd565b8060005b85811015610a0657848403895281516109e78582610978565b94506109f283610e03565b925060208a019950506001810190506109ce565b50829750879550505050505092915050565b6000610a2382610df8565b610a2d8185610e21565b9350610a3d818560208601610ed4565b610a468161109d565b840191505092915050565b6000610a5c82610df8565b610a668185610e32565b9350610a76818560208601610ed4565b610a7f8161109d565b840191505092915050565b6000610a97601f83610e32565b91507f4e6f206865726f657320617661696c61626c6520666f72206c6f6f6b75702e006000830152602082019050919050565b6000610ad7602e83610e32565b91507f436f6e747261637420696e7374616e63652068617320616c726561647920626560008301527f656e20696e697469616c697a65640000000000000000000000000000000000006020830152604082019050919050565b6000610b3d601b83610e32565b91507f596f7520616c726561647920637265617465642061206865726f2100000000006000830152602082019050919050565b60006080830160008301518482036000860152610b8d8282610a18565b9150506020830151610ba26020860182610c36565b506040830151610bb56040860182610c36565b506060830151610bc86060860182610c36565b508091505092915050565b60006080830160008301518482036000860152610bf08282610a18565b9150506020830151610c056020860182610c36565b506040830151610c186040860182610c36565b506060830151610c2b6060860182610c36565b508091505092915050565b610c3f81610ebb565b82525050565b610c4e81610ebb565b82525050565b610c65610c6082610ebb565b610fa6565b82525050565b6000610c778286610c54565b602082019150610c878285610c54565b602082019150610c97828461098c565b601482019150819050949350505050565b60006020820190508181036000830152610cc281846109a3565b905092915050565b60006020820190508181036000830152610ce381610a8a565b9050919050565b60006020820190508181036000830152610d0381610aca565b9050919050565b60006020820190508181036000830152610d2381610b30565b9050919050565b60006020820190508181036000830152610d448184610bd3565b905092915050565b6000604082019050610d616000830185610c45565b8181036020830152610d738184610a51565b90509392505050565b6000604051905081810181811067ffffffffffffffff82111715610da357610da261106e565b5b8060405250919050565b600067ffffffffffffffff821115610dc857610dc761106e565b5b601f19601f8301169050602081019050919050565b6000819050602082019050919050565b600081519050919050565b600081519050919050565b6000602082019050919050565b600082825260208201905092915050565b600082825260208201905092915050565b600082825260208201905092915050565b6000610e4e82610ebb565b9150610e5983610ebb565b925082821015610e6c57610e6b610fe1565b5b828203905092915050565b6000610e8282610e9b565b9050919050565b6000610e9482610e9b565b9050919050565b600073ffffffffffffffffffffffffffffffffffffffff82169050919050565b6000819050919050565b82818337600083830152505050565b60005b83811015610ef2578082015181840152602081019050610ed7565b83811115610f01576000848401525b50505050565b60006002820490506001821680610f1f57607f821691505b60208210811415610f3357610f3261103f565b5b50919050565b6000610f4482610ebb565b91507fffffffffffffffffffffffffffffffffffffffffffffffffffffffffffffffff821415610f7757610f76610fe1565b5b600182019050919050565b6000610f8d82610f94565b9050919050565b6000610f9f826110ae565b9050919050565b6000819050919050565b6000610fbb82610ebb565b9150610fc683610ebb565b925082610fd657610fd5611010565b5b828206905092915050565b7f4e487b7100000000000000000000000000000000000000000000000000000000600052601160045260246000fd5b7f4e487b7100000000000000000000000000000000000000000000000000000000600052601260045260246000fd5b7f4e487b7100000000000000000000000000000000000000000000000000000000600052602260045260246000fd5b7f4e487b7100000000000000000000000000000000000000000000000000000000600052604160045260246000fd5b6000601f19601f8301169050919050565b60008160601b9050919050565b6110c481610e77565b81146110cf57600080fd5b5056fea26469706673582212204b0725f2ac838423470d96b11adda115b656a3df2cf015cfdce99510359fa20864736f6c63430008000033",
  "immutableReferences": {},
  "source": "// SPDX-License-Identifier: MIT\r\npragma solidity >=0.8.0;\r\npragma abicoder v2;\r\n\r\nimport './SimpleFactory.sol';\r\nimport './Initializable.sol';\r\n\r\n/// @dev struct defined here to allow code re-usage: https://docs.soliditylang.org/en/v0.8.0/types.html#structs \r\n/// this model will be used as hero throughout the app\r\nstruct Hero {\r\n    string name;\r\n    uint256 power;\r\n    uint256 health;\r\n    uint256 bank;\r\n}\r\n\r\n/// @title Ormr, Man vs. Dragon\r\n/// @author github@ToFat4Fun\r\n/// @notice Responsible for creating the hero our players can play with!\r\n/// @dev Working with solidity v0.8.0, creates heroes\r\ncontract HeroFactory is SimpleFactory, Initializable {\r\n\r\n    /// @dev emits a newly created hero\r\n    event newHero(uint256 heroId, string name);\r\n\r\n    /// @dev these mappings allow linking and looking up heroes that are stored in the contract\r\n    /// with the address of users. OwnerToHeroCount enforces a maximum number of heroes per address\r\n    mapping(uint256 => address) heroToOwner;\r\n    mapping(address => uint256) heroLookup;\r\n    mapping(address => uint256) ownerHeroCount;\r\n\r\n    /// @dev determine the maximum length of power and health\r\n    uint256 heroPowerModulus;\r\n    uint256 heroHealthModulus;\r\n    Hero hero;\r\n\r\n    /// @dev keep a list of all existing heroes in the contract.\r\n    Hero[] heroes;\r\n\r\n    function initialize() public initializer { \r\n        heroPowerModulus = 10 ** 5;\r\n        heroHealthModulus = 10 ** 7;\r\n    }\r\n    \r\n    /// @param sender address of the person interacting with the contract\r\n    /// @return hero object that corresponds with the given sender address\r\n    function getHero(address sender) public view returns (Hero memory) {\r\n        require((heroes.length > 0), \"No heroes available for lookup.\"); \r\n        return heroes[heroLookup[sender]];\r\n    }\r\n\r\n    /// @return array of all heroes in the contract\r\n    function getHeroes() public view returns (Hero[] memory) {\r\n        require((heroes.length > 0), \"No heroes available for lookup.\");\r\n        return heroes;\r\n    }\r\n\r\n    /// @dev Internal function which creates the hero.\r\n    /// @param _name the hero name submitted by the user\r\n    /// @param sender the user's address which we use to link the user and the hero\r\n    function _createHero(string memory _name, address sender) internal {\r\n        heroes.push(\r\n            Hero({\r\n                name: _name,\r\n                power: randomPower(),\r\n                health: randomHealth(),\r\n                bank: 0\r\n            })\r\n        ); // Default hero power, health and bank.\r\n        uint256 id = heroes.length - 1; // Different syntax because: https://docs.soliditylang.org/en/v0.6.0/060-breaking-changes.html#how-to-update-your-code\r\n        heroToOwner[id] = sender; // Assign the hero we just created to the owner's address using the mapping.\r\n        heroLookup[sender] = id; // Assign the address calling the method with the hero array index, enabling lookup from address.\r\n        ownerHeroCount[sender]++; // Increase the count which tracks how many heroes are owned by an address.\r\n        emit newHero(id, _name);\r\n    }\r\n\r\n    /// @dev The player interacts with the contract through this method to create a hero, which checks if they already have a hero.\r\n    /// @param _name name submitted by the user\r\n    /// @param sender the user's address which we use to check if a user already has a hero\r\n    function createHero(string memory _name, address sender) public {\r\n        require((ownerHeroCount[sender] == 0), \"You already created a hero!\");\r\n        _createHero(_name, sender);\r\n    }\r\n\r\n    /// @dev Semi-Random number generator.Determines heropower\r\n    /// @return returns hero power\r\n    function randomPower() internal view override returns (uint256) {\r\n        return uint256(keccak256(abi.encodePacked(block.timestamp, block.difficulty, block.coinbase))) % heroPowerModulus;\r\n    }\r\n\r\n    /// @dev Semi-Random number generator.Determines herohealth\r\n    /// @return returns hero health\r\n    function randomHealth() internal view override returns (uint256) {\r\n        return uint256(keccak256(abi.encodePacked(block.timestamp, block.difficulty, block.coinbase))) % heroHealthModulus;\r\n    }\r\n}\r\n",
  "sourcePath": "D:\\HHS\\Jaar 4 Minor\\IT Deel Minor\\Assignments\\PD-8\\contracts\\HeroFactory.sol",
  "compiler": {
    "name": "solc",
    "version": "0.8.0+commit.c7dfd78e.Emscripten.clang"
  },
  "schemaVersion": "3.3.2",
  "updatedAt": "2020-12-23T20:56:16.822Z",
  "devdoc": {
    "author": "github@ToFat4Fun",
    "details": "Working with solidity v0.8.0, creates heroes",
    "events": {
      "newHero(uint256,string)": {
        "details": "emits a newly created hero"
      }
    },
    "kind": "dev",
    "methods": {
      "createHero(string,address)": {
        "details": "The player interacts with the contract through this method to create a hero, which checks if they already have a hero.",
        "params": {
          "_name": "name submitted by the user",
          "sender": "the user's address which we use to check if a user already has a hero"
        }
      },
      "getHero(address)": {
        "params": {
          "sender": "address of the person interacting with the contract"
        },
        "returns": {
          "_0": "hero object that corresponds with the given sender address"
        }
      },
      "getHeroes()": {
        "returns": {
          "_0": "array of all heroes in the contract"
        }
      }
    },
    "stateVariables": {
      "heroPowerModulus": {
        "details": "determine the maximum length of power and health"
      },
      "heroToOwner": {
        "details": "these mappings allow linking and looking up heroes that are stored in the contract with the address of users. OwnerToHeroCount enforces a maximum number of heroes per address"
      },
      "heroes": {
        "details": "keep a list of all existing heroes in the contract."
      }
    },
    "title": "Ormr, Man vs. Dragon",
    "version": 1
  },
  "userdoc": {
    "kind": "user",
    "methods": {},
    "notice": "Responsible for creating the hero our players can play with!",
    "version": 1
  }
}