{
  "contractName": "Migrations",
  "abi": [
    {
      "inputs": [],
      "name": "last_completed_migration",
      "outputs": [
        {
          "internalType": "uint256",
          "name": "",
          "type": "uint256"
        }
      ],
      "stateMutability": "view",
      "type": "function"
    },
    {
      "inputs": [],
      "name": "owner",
      "outputs": [
        {
          "internalType": "address",
          "name": "",
          "type": "address"
        }
      ],
      "stateMutability": "view",
      "type": "function"
    },
    {
      "inputs": [],
      "name": "initialize",
      "outputs": [],
      "stateMutability": "nonpayable",
      "type": "function"
    },
    {
      "inputs": [
        {
          "internalType": "uint256",
          "name": "completed",
          "type": "uint256"
        }
      ],
      "name": "setCompleted",
      "outputs": [],
      "stateMutability": "nonpayable",
      "type": "function"
    },
    {
      "inputs": [
        {
          "internalType": "address",
          "name": "new_address",
          "type": "address"
        }
      ],
      "name": "upgrade",
      "outputs": [],
      "stateMutability": "nonpayable",
      "type": "function"
    }
  ],
  "bytecode": "0x608060405234801561001057600080fd5b5061057b806100206000396000f3fe608060405234801561001057600080fd5b50600436106100575760003560e01c80630900f0101461005c578063445df0ac146100785780638129fc1c146100965780638da5cb5b146100a0578063fdacd576146100be575b600080fd5b6100766004803603810190610071919061039e565b6100da565b005b6100806101a7565b60405161008d91906104af565b60405180910390f35b61009e6101ad565b005b6100a86102d6565b6040516100b59190610474565b60405180910390f35b6100d860048036038101906100d391906103c7565b6102fc565b005b603360009054906101000a900473ffffffffffffffffffffffffffffffffffffffff1673ffffffffffffffffffffffffffffffffffffffff163373ffffffffffffffffffffffffffffffffffffffff1614156101a45760008190508073ffffffffffffffffffffffffffffffffffffffff1663fdacd5766034546040518263ffffffff1660e01b815260040161017091906104af565b600060405180830381600087803b15801561018a57600080fd5b505af115801561019e573d6000803e3d6000fd5b50505050505b50565b60345481565b600060019054906101000a900460ff16806101cc57506101cb61035d565b5b806101e2575060008054906101000a900460ff16155b610221576040517f08c379a00000000000000000000000000000000000000000000000000000000081526004016102189061048f565b60405180910390fd5b60008060019054906101000a900460ff161590508015610271576001600060016101000a81548160ff02191690831515021790555060016000806101000a81548160ff0219169083151502179055505b33603360006101000a81548173ffffffffffffffffffffffffffffffffffffffff021916908373ffffffffffffffffffffffffffffffffffffffff16021790555080156102d35760008060016101000a81548160ff0219169083151502179055505b50565b603360009054906101000a900473ffffffffffffffffffffffffffffffffffffffff1681565b603360009054906101000a900473ffffffffffffffffffffffffffffffffffffffff1673ffffffffffffffffffffffffffffffffffffffff163373ffffffffffffffffffffffffffffffffffffffff16141561035a57806034819055505b50565b6000803090506000813b9050600081149250505090565b60008135905061038381610517565b92915050565b6000813590506103988161052e565b92915050565b6000602082840312156103b057600080fd5b60006103be84828501610374565b91505092915050565b6000602082840312156103d957600080fd5b60006103e784828501610389565b91505092915050565b6103f9816104db565b82525050565b600061040c602e836104ca565b91507f436f6e747261637420696e7374616e63652068617320616c726561647920626560008301527f656e20696e697469616c697a65640000000000000000000000000000000000006020830152604082019050919050565b61046e8161050d565b82525050565b600060208201905061048960008301846103f0565b92915050565b600060208201905081810360008301526104a8816103ff565b9050919050565b60006020820190506104c46000830184610465565b92915050565b600082825260208201905092915050565b60006104e6826104ed565b9050919050565b600073ffffffffffffffffffffffffffffffffffffffff82169050919050565b6000819050919050565b610520816104db565b811461052b57600080fd5b50565b6105378161050d565b811461054257600080fd5b5056fea2646970667358221220882cb8e563c31cef1f28409226728a4988232c29a8d38e24ccc5f955e42dbded64736f6c63430008000033",
  "immutableReferences": {},
  "source": "// SPDX-License-Identifier: MIT \npragma solidity >=0.4.21 <=0.8.0;\nimport './Initializable.sol';\n\ncontract Migrations is Initializable {\n  address public owner;\n  uint public last_completed_migration;\n\n  function initialize() public initializer() {\n    owner = msg.sender;\n  }\n\n  modifier restricted() {\n    if (msg.sender == owner) _;\n  }\n\n  function setCompleted(uint completed) public restricted {\n    last_completed_migration = completed;\n  }\n\n  function upgrade(address new_address) public restricted {\n    Migrations upgraded = Migrations(new_address);\n    upgraded.setCompleted(last_completed_migration);\n  }\n}\n",
  "sourcePath": "D:/HHS/Jaar 4 Minor/IT Deel Minor/Assignments/PD-8/contracts/Migrations.sol",
  "compiler": {
    "name": "solc",
    "version": "0.8.0+commit.c7dfd78e.Emscripten.clang"
  },
  "schemaVersion": "3.3.2",
  "updatedAt": "2020-12-23T01:24:43.031Z",
  "devdoc": {
    "kind": "dev",
    "methods": {},
    "version": 1
  },
  "userdoc": {
    "kind": "user",
    "methods": {},
    "version": 1
  }
}