{
  "contractName": "OrmrOracle",
  "abi": [
    {
      "inputs": [],
      "stateMutability": "payable",
      "type": "constructor",
      "payable": true
    },
    {
      "inputs": [],
      "name": "priceOfUrl",
      "outputs": [
        {
          "internalType": "uint256",
          "name": "",
          "type": "uint256"
        }
      ],
      "stateMutability": "view",
      "type": "function",
      "constant": true
    },
    {
      "inputs": [],
      "name": "temp",
      "outputs": [
        {
          "internalType": "bytes",
          "name": "",
          "type": "bytes"
        }
      ],
      "stateMutability": "view",
      "type": "function",
      "constant": true
    },
    {
      "inputs": [
        {
          "internalType": "bytes32",
          "name": "",
          "type": "bytes32"
        },
        {
          "internalType": "string",
          "name": "result",
          "type": "string"
        }
      ],
      "name": "__callback",
      "outputs": [],
      "stateMutability": "nonpayable",
      "type": "function"
    },
    {
      "inputs": [
        {
          "internalType": "bytes32",
          "name": "_myid",
          "type": "bytes32"
        },
        {
          "internalType": "string",
          "name": "_result",
          "type": "string"
        },
        {
          "internalType": "bytes",
          "name": "_proof",
          "type": "bytes"
        }
      ],
      "name": "__callback",
      "outputs": [],
      "stateMutability": "nonpayable",
      "type": "function"
    },
    {
      "inputs": [],
      "name": "requestTemp",
      "outputs": [],
      "stateMutability": "payable",
      "type": "function",
      "payable": true
    },
    {
      "inputs": [],
      "name": "getTemp",
      "outputs": [
        {
          "internalType": "bytes",
          "name": "",
          "type": "bytes"
        }
      ],
      "stateMutability": "view",
      "type": "function",
      "constant": true
    }
  ],
  "bytecode": "0x6080604052611ca8806100136000396000f3fe6080604052600436106100555760003560e01c806313fdba3c1461005a57806327dc297e1461006457806338bbfa501461008d57806343d3b1be146100b6578063673402e5146100e1578063952525601461010c575b600080fd5b610062610137565b005b34801561007057600080fd5b5061008b6004803603810190610086919061162d565b61021a565b005b34801561009957600080fd5b506100b460048036038101906100af9190611681565b610274565b005b3480156100c257600080fd5b506100cb610297565b6040516100d891906118c8565b60405180910390f35b3480156100ed57600080fd5b506100f661029d565b604051610103919061181f565b60405180910390f35b34801561011857600080fd5b5061012161032b565b60405161012e919061181f565b60405180910390f35b6101756040518060400160405280600381526020017f55524c00000000000000000000000000000000000000000000000000000000008152506103bd565b6006819055506006544710156101c0576040517f08c379a00000000000000000000000000000000000000000000000000000000081526004016101b7906118a8565b60405180910390fd5b6102176040518060400160405280600381526020017f55524c00000000000000000000000000000000000000000000000000000000008152506040518060a0016040528060678152602001611c0c606791396106de565b50565b610222610aed565b73ffffffffffffffffffffffffffffffffffffffff163373ffffffffffffffffffffffffffffffffffffffff161461025957600080fd5b806005908051906020019061026f92919061138e565b505050565b6000801b600360008060001b815260200190815260200160002081905550505050565b60065481565b600580546102aa90611af6565b80601f01602080910402602001604051908101604052809291908181526020018280546102d690611af6565b80156103235780601f106102f857610100808354040283529160200191610323565b820191906000526020600020905b81548152906001019060200180831161030657829003601f168201915b505050505081565b60606005805461033a90611af6565b80601f016020809104026020016040519081016040528092919081815260200182805461036690611af6565b80156103b35780601f10610388576101008083540402835291602001916103b3565b820191906000526020600020905b81548152906001019060200180831161039657829003601f168201915b5050505050905090565b60008073ffffffffffffffffffffffffffffffffffffffff16600160009054906101000a900473ffffffffffffffffffffffffffffffffffffffff1673ffffffffffffffffffffffffffffffffffffffff16148061044557506000610443600160009054906101000a900473ffffffffffffffffffffffffffffffffffffffff16610e01565b145b15610456576104546000610e0c565b505b600160009054906101000a900473ffffffffffffffffffffffffffffffffffffffff1673ffffffffffffffffffffffffffffffffffffffff166338cc48316040518163ffffffff1660e01b8152600401602060405180830381600087803b1580156104c057600080fd5b505af11580156104d4573d6000803e3d6000fd5b505050506040513d601f19601f820116820180604052508101906104f891906115db565b73ffffffffffffffffffffffffffffffffffffffff1660008054906101000a900473ffffffffffffffffffffffffffffffffffffffff1673ffffffffffffffffffffffffffffffffffffffff161461062c57600160009054906101000a900473ffffffffffffffffffffffffffffffffffffffff1673ffffffffffffffffffffffffffffffffffffffff166338cc48316040518163ffffffff1660e01b8152600401602060405180830381600087803b1580156105b457600080fd5b505af11580156105c8573d6000803e3d6000fd5b505050506040513d601f19601f820116820180604052508101906105ec91906115db565b6000806101000a81548173ffffffffffffffffffffffffffffffffffffffff021916908373ffffffffffffffffffffffffffffffffffffffff1602179055505b60008054906101000a900473ffffffffffffffffffffffffffffffffffffffff1673ffffffffffffffffffffffffffffffffffffffff1663524f3889836040518263ffffffff1660e01b81526004016106859190611886565b602060405180830381600087803b15801561069f57600080fd5b505af11580156106b3573d6000803e3d6000fd5b505050506040513d601f19601f820116820180604052508101906106d79190611700565b9050919050565b60008073ffffffffffffffffffffffffffffffffffffffff16600160009054906101000a900473ffffffffffffffffffffffffffffffffffffffff1673ffffffffffffffffffffffffffffffffffffffff16148061076657506000610764600160009054906101000a900473ffffffffffffffffffffffffffffffffffffffff16610e01565b145b15610777576107756000610e0c565b505b600160009054906101000a900473ffffffffffffffffffffffffffffffffffffffff1673ffffffffffffffffffffffffffffffffffffffff166338cc48316040518163ffffffff1660e01b8152600401602060405180830381600087803b1580156107e157600080fd5b505af11580156107f5573d6000803e3d6000fd5b505050506040513d601f19601f8201168201806040525081019061081991906115db565b73ffffffffffffffffffffffffffffffffffffffff1660008054906101000a900473ffffffffffffffffffffffffffffffffffffffff1673ffffffffffffffffffffffffffffffffffffffff161461094d57600160009054906101000a900473ffffffffffffffffffffffffffffffffffffffff1673ffffffffffffffffffffffffffffffffffffffff166338cc48316040518163ffffffff1660e01b8152600401602060405180830381600087803b1580156108d557600080fd5b505af11580156108e9573d6000803e3d6000fd5b505050506040513d601f19601f8201168201806040525081019061090d91906115db565b6000806101000a81548173ffffffffffffffffffffffffffffffffffffffff021916908373ffffffffffffffffffffffffffffffffffffffff1602179055505b60008060009054906101000a900473ffffffffffffffffffffffffffffffffffffffff1673ffffffffffffffffffffffffffffffffffffffff1663524f3889856040518263ffffffff1660e01b81526004016109a99190611886565b602060405180830381600087803b1580156109c357600080fd5b505af11580156109d7573d6000803e3d6000fd5b505050506040513d601f19601f820116820180604052508101906109fb9190611700565b905062030d403a610a0c9190611a02565b670de0b6b3a7640000610a1f91906119ac565b811115610a32576000801b915050610ae7565b60008054906101000a900473ffffffffffffffffffffffffffffffffffffffff1673ffffffffffffffffffffffffffffffffffffffff1663adf59f9982600087876040518563ffffffff1660e01b8152600401610a9193929190611841565b6020604051808303818588803b158015610aaa57600080fd5b505af1158015610abe573d6000803e3d6000fd5b50505050506040513d601f19601f82011682018060405250810190610ae39190611604565b9150505b92915050565b60008073ffffffffffffffffffffffffffffffffffffffff16600160009054906101000a900473ffffffffffffffffffffffffffffffffffffffff1673ffffffffffffffffffffffffffffffffffffffff161480610b7557506000610b73600160009054906101000a900473ffffffffffffffffffffffffffffffffffffffff16610e01565b145b15610b8657610b846000610e0c565b505b600160009054906101000a900473ffffffffffffffffffffffffffffffffffffffff1673ffffffffffffffffffffffffffffffffffffffff166338cc48316040518163ffffffff1660e01b8152600401602060405180830381600087803b158015610bf057600080fd5b505af1158015610c04573d6000803e3d6000fd5b505050506040513d601f19601f82011682018060405250810190610c2891906115db565b73ffffffffffffffffffffffffffffffffffffffff1660008054906101000a900473ffffffffffffffffffffffffffffffffffffffff1673ffffffffffffffffffffffffffffffffffffffff1614610d5c57600160009054906101000a900473ffffffffffffffffffffffffffffffffffffffff1673ffffffffffffffffffffffffffffffffffffffff166338cc48316040518163ffffffff1660e01b8152600401602060405180830381600087803b158015610ce457600080fd5b505af1158015610cf8573d6000803e3d6000fd5b505050506040513d601f19601f82011682018060405250810190610d1c91906115db565b6000806101000a81548173ffffffffffffffffffffffffffffffffffffffff021916908373ffffffffffffffffffffffffffffffffffffffff1602179055505b60008054906101000a900473ffffffffffffffffffffffffffffffffffffffff1673ffffffffffffffffffffffffffffffffffffffff1663c281d19e6040518163ffffffff1660e01b8152600401602060405180830381600087803b158015610dc457600080fd5b505af1158015610dd8573d6000803e3d6000fd5b505050506040513d601f19601f82011682018060405250810190610dfc91906115db565b905090565b6000813b9050919050565b6000610e16610e1d565b9050919050565b600080610e3d731d3b2638a7cc9f2cb3d298a3da7a90b67e5506ed610e01565b1115610edf57731d3b2638a7cc9f2cb3d298a3da7a90b67e5506ed600160006101000a81548173ffffffffffffffffffffffffffffffffffffffff021916908373ffffffffffffffffffffffffffffffffffffffff160217905550610ed66040518060400160405280600b81526020017f6574685f6d61696e6e6574000000000000000000000000000000000000000000815250611374565b60019050611371565b6000610efe73c03a2615d5efaf5f49f60b7bb6583eaec212fdf1610e01565b1115610fa05773c03a2615d5efaf5f49f60b7bb6583eaec212fdf1600160006101000a81548173ffffffffffffffffffffffffffffffffffffffff021916908373ffffffffffffffffffffffffffffffffffffffff160217905550610f976040518060400160405280600c81526020017f6574685f726f707374656e330000000000000000000000000000000000000000815250611374565b60019050611371565b6000610fbf73b7a07bcf2ba2f2703b24c0691b5278999c59ac7e610e01565b11156110615773b7a07bcf2ba2f2703b24c0691b5278999c59ac7e600160006101000a81548173ffffffffffffffffffffffffffffffffffffffff021916908373ffffffffffffffffffffffffffffffffffffffff1602179055506110586040518060400160405280600981526020017f6574685f6b6f76616e0000000000000000000000000000000000000000000000815250611374565b60019050611371565b600061108073146500cfd35b22e4a392fe0adc06de1a1368ed48610e01565b11156111225773146500cfd35b22e4a392fe0adc06de1a1368ed48600160006101000a81548173ffffffffffffffffffffffffffffffffffffffff021916908373ffffffffffffffffffffffffffffffffffffffff1602179055506111196040518060400160405280600b81526020017f6574685f72696e6b656279000000000000000000000000000000000000000000815250611374565b60019050611371565b600061114173a2998efd205fb9d4b4963afb70778d6354ad3a41610e01565b11156111e35773a2998efd205fb9d4b4963afb70778d6354ad3a41600160006101000a81548173ffffffffffffffffffffffffffffffffffffffff021916908373ffffffffffffffffffffffffffffffffffffffff1602179055506111da6040518060400160405280600a81526020017f6574685f676f65726c6900000000000000000000000000000000000000000000815250611374565b60019050611371565b6000611202736f485c8bf6fc43ea212e93bbf8ce046c7f1cb475610e01565b111561126657736f485c8bf6fc43ea212e93bbf8ce046c7f1cb475600160006101000a81548173ffffffffffffffffffffffffffffffffffffffff021916908373ffffffffffffffffffffffffffffffffffffffff16021790555060019050611371565b60006112857320e12a1f859b3feae5fb2a0a32c18f5a65555bbf610e01565b11156112e9577320e12a1f859b3feae5fb2a0a32c18f5a65555bbf600160006101000a81548173ffffffffffffffffffffffffffffffffffffffff021916908373ffffffffffffffffffffffffffffffffffffffff16021790555060019050611371565b60006113087351efaf4c8b3c9afbd5ab9f4bbc82784ab6ef8faa610e01565b111561136c577351efaf4c8b3c9afbd5ab9f4bbc82784ab6ef8faa600160006101000a81548173ffffffffffffffffffffffffffffffffffffffff021916908373ffffffffffffffffffffffffffffffffffffffff16021790555060019050611371565b600090505b90565b806002908051906020019061138a929190611414565b5050565b82805461139a90611af6565b90600052602060002090601f0160209004810192826113bc5760008555611403565b82601f106113d557805160ff1916838001178555611403565b82800160010185558215611403579182015b828111156114025782518255916020019190600101906113e7565b5b509050611410919061149a565b5090565b82805461142090611af6565b90600052602060002090601f0160209004810192826114425760008555611489565b82601f1061145b57805160ff1916838001178555611489565b82800160010185558215611489579182015b8281111561148857825182559160200191906001019061146d565b5b509050611496919061149a565b5090565b5b808211156114b357600081600090555060010161149b565b5090565b60006114ca6114c584611914565b6118e3565b9050828152602081018484840111156114e257600080fd5b6114ed848285611ab4565b509392505050565b600061150861150384611944565b6118e3565b90508281526020810184848401111561152057600080fd5b61152b848285611ab4565b509392505050565b60008151905061154281611bc6565b92915050565b60008135905061155781611bdd565b92915050565b60008151905061156c81611bdd565b92915050565b600082601f83011261158357600080fd5b81356115938482602086016114b7565b91505092915050565b600082601f8301126115ad57600080fd5b81356115bd8482602086016114f5565b91505092915050565b6000815190506115d581611bf4565b92915050565b6000602082840312156115ed57600080fd5b60006115fb84828501611533565b91505092915050565b60006020828403121561161657600080fd5b60006116248482850161155d565b91505092915050565b6000806040838503121561164057600080fd5b600061164e85828601611548565b925050602083013567ffffffffffffffff81111561166b57600080fd5b6116778582860161159c565b9150509250929050565b60008060006060848603121561169657600080fd5b60006116a486828701611548565b935050602084013567ffffffffffffffff8111156116c157600080fd5b6116cd8682870161159c565b925050604084013567ffffffffffffffff8111156116ea57600080fd5b6116f686828701611572565b9150509250925092565b60006020828403121561171257600080fd5b6000611720848285016115c6565b91505092915050565b600061173482611974565b61173e818561198a565b935061174e818560208601611ac3565b61175781611bb5565b840191505092915050565b61176b81611aa2565b82525050565b600061177c8261197f565b611786818561199b565b9350611796818560208601611ac3565b61179f81611bb5565b840191505092915050565b60006117b7602e8361199b565b91507f706c656173652061646420736f6d652045544820746f20636f76657220666f7260008301527f20746865207175657279206665650000000000000000000000000000000000006020830152604082019050919050565b61181981611a98565b82525050565b600060208201905081810360008301526118398184611729565b905092915050565b60006060820190506118566000830186611762565b81810360208301526118688185611771565b9050818103604083015261187c8184611771565b9050949350505050565b600060208201905081810360008301526118a08184611771565b905092915050565b600060208201905081810360008301526118c1816117aa565b9050919050565b60006020820190506118dd6000830184611810565b92915050565b6000604051905081810181811067ffffffffffffffff8211171561190a57611909611b86565b5b8060405250919050565b600067ffffffffffffffff82111561192f5761192e611b86565b5b601f19601f8301169050602081019050919050565b600067ffffffffffffffff82111561195f5761195e611b86565b5b601f19601f8301169050602081019050919050565b600081519050919050565b600081519050919050565b600082825260208201905092915050565b600082825260208201905092915050565b60006119b782611a98565b91506119c283611a98565b9250827fffffffffffffffffffffffffffffffffffffffffffffffffffffffffffffffff038211156119f7576119f6611b28565b5b828201905092915050565b6000611a0d82611a98565b9150611a1883611a98565b9250817fffffffffffffffffffffffffffffffffffffffffffffffffffffffffffffffff0483118215151615611a5157611a50611b28565b5b828202905092915050565b6000611a6782611a78565b9050919050565b6000819050919050565b600073ffffffffffffffffffffffffffffffffffffffff82169050919050565b6000819050919050565b6000611aad82611a98565b9050919050565b82818337600083830152505050565b60005b83811015611ae1578082015181840152602081019050611ac6565b83811115611af0576000848401525b50505050565b60006002820490506001821680611b0e57607f821691505b60208210811415611b2257611b21611b57565b5b50919050565b7f4e487b7100000000000000000000000000000000000000000000000000000000600052601160045260246000fd5b7f4e487b7100000000000000000000000000000000000000000000000000000000600052602260045260246000fd5b7f4e487b7100000000000000000000000000000000000000000000000000000000600052604160045260246000fd5b6000601f19601f8301169050919050565b611bcf81611a5c565b8114611bda57600080fd5b50565b611be681611a6e565b8114611bf157600080fd5b50565b611bfd81611a98565b8114611c0857600080fd5b5056fe6a736f6e28687474703a2f2f776565726c6976652e6e6c2f6170692f6a736f6e2d646174612d31306d696e2e7068703f6b65793d30313436346364363235266c6f63617469653d48656c6c65766f6574736c756973292e6c697665776565725b305d2e74656d70a26469706673582212204b744da61605831b2e77a47b5b1b77db65d9c55d8a85a79005146f5845cdec1964736f6c63430008000033",
  "immutableReferences": {},
  "source": "// SPDX-License-Identifier: MIT\r\npragma solidity >=0.8.0;\r\n\r\nimport \"./provableAPI.sol\";\r\n\r\n// Template from web3examples github: https://github.com/web3examples/ethereum/blob/master/oracle_examples/provable_temperature.sol\r\ncontract OrmrOracle is usingProvable {\r\n    bytes public temp;\r\n    uint256 public priceOfUrl;\r\n\r\n    constructor() payable {}\r\n\r\n    function __callback(\r\n        bytes32, /* myid prevent warning*/\r\n        string memory result\r\n    ) public override {\r\n        if (msg.sender != provable_cbAddress()) revert();\r\n        temp = bytes(result);\r\n    }\r\n\r\n    function requestTemp() public payable {\r\n        priceOfUrl = provable_getPrice(\"URL\");\r\n        require(\r\n            address(this).balance >= priceOfUrl,\r\n            \"please add some ETH to cover for the query fee\"\r\n        );\r\n        provable_query(\r\n            \"URL\",\r\n            \"json(http://weerlive.nl/api/json-data-10min.php?key=01464cd625&locatie=Hellevoetsluis).liveweer[0].temp\"\r\n        );\r\n    }\r\n\r\n    // corona cijfer oracle https://api.apify.com/v2/key-value-stores/vqnEUe7VtKNMqGqFF/records/LATEST?disableRedirect=true\r\n    // \"json(https://api.apify.com/v2/key-value-stores/vqnEUe7VtKNMqGqFF/records/LATEST?disableRedirect=true).infectedByRegion[0].infectedCount\"\r\n\r\n    function getTemp() public view returns (bytes memory) {\r\n        return temp;\r\n    }\r\n}\r\n",
  "sourcePath": "D:\\HHS\\Jaar 4 Minor\\IT Deel Minor\\Assignments\\PD-8\\contracts\\OrmrOracle.sol",
  "compiler": {
    "name": "solc",
    "version": "0.8.0+commit.c7dfd78e.Emscripten.clang"
  },
  "schemaVersion": "3.3.2",
  "updatedAt": "2020-12-22T15:44:52.950Z",
  "networkType": "ethereum",
  "devdoc": {
    "kind": "dev",
    "methods": {},
    "version": 1
  },
  "userdoc": {
    "kind": "user",
    "methods": {},
    "version": 1
  }
}