{
  "contractName": "OrmrOracle",
  "abi": [
    {
      "inputs": [],
      "name": "priceOfUrl",
      "outputs": [
        {
          "internalType": "uint256",
          "name": "",
          "type": "uint256"
        }
      ],
      "stateMutability": "view",
      "type": "function",
      "constant": true
    },
    {
      "inputs": [],
      "name": "temp",
      "outputs": [
        {
          "internalType": "bytes",
          "name": "",
          "type": "bytes"
        }
      ],
      "stateMutability": "view",
      "type": "function",
      "constant": true
    },
    {
      "inputs": [],
      "name": "initialize",
      "outputs": [],
      "stateMutability": "payable",
      "type": "function",
      "payable": true
    },
    {
      "inputs": [
        {
          "internalType": "bytes32",
          "name": "",
          "type": "bytes32"
        },
        {
          "internalType": "string",
          "name": "result",
          "type": "string"
        }
      ],
      "name": "__callback",
      "outputs": [],
      "stateMutability": "nonpayable",
      "type": "function"
    },
    {
      "inputs": [
        {
          "internalType": "bytes32",
          "name": "_myid",
          "type": "bytes32"
        },
        {
          "internalType": "string",
          "name": "_result",
          "type": "string"
        },
        {
          "internalType": "bytes",
          "name": "_proof",
          "type": "bytes"
        }
      ],
      "name": "__callback",
      "outputs": [],
      "stateMutability": "nonpayable",
      "type": "function"
    },
    {
      "inputs": [],
      "name": "requestTemp",
      "outputs": [],
      "stateMutability": "payable",
      "type": "function",
      "payable": true
    },
    {
      "inputs": [],
      "name": "getTemp",
      "outputs": [
        {
          "internalType": "bytes",
          "name": "",
          "type": "bytes"
        }
      ],
      "stateMutability": "view",
      "type": "function",
      "constant": true
    }
  ],
  "bytecode": "0x608060405234801561001057600080fd5b50611e57806100206000396000f3fe6080604052600436106100705760003560e01c806343d3b1be1161004e57806343d3b1be146100d1578063673402e5146100fc5780638129fc1c14610127578063952525601461013157610070565b806313fdba3c1461007557806327dc297e1461007f57806338bbfa50146100a8575b600080fd5b61007d61015c565b005b34801561008b57600080fd5b506100a660048036038101906100a19190611756565b61023f565b005b3480156100b457600080fd5b506100cf60048036038101906100ca91906117aa565b610299565b005b3480156100dd57600080fd5b506100e66102bc565b6040516100f39190611a77565b60405180910390f35b34801561010857600080fd5b506101116102c2565b60405161011e91906119ae565b60405180910390f35b61012f610350565b005b34801561013d57600080fd5b5061014661043d565b60405161015391906119ae565b60405180910390f35b61019a6040518060400160405280600381526020017f55524c00000000000000000000000000000000000000000000000000000000008152506104cf565b6039819055506039544710156101e5576040517f08c379a00000000000000000000000000000000000000000000000000000000081526004016101dc90611a37565b60405180910390fd5b61023c6040518060400160405280600381526020017f55524c00000000000000000000000000000000000000000000000000000000008152506040518060a0016040528060678152602001611dbb606791396107f0565b50565b610247610bff565b73ffffffffffffffffffffffffffffffffffffffff163373ffffffffffffffffffffffffffffffffffffffff161461027e57600080fd5b80603890805190602001906102949291906114b7565b505050565b6000801b600360008060001b815260200190815260200160002081905550505050565b60395481565b603880546102cf90611ca5565b80601f01602080910402602001604051908101604052809291908181526020018280546102fb90611ca5565b80156103485780601f1061031d57610100808354040283529160200191610348565b820191906000526020600020905b81548152906001019060200180831161032b57829003601f168201915b505050505081565b600560019054906101000a900460ff168061036f575061036e610f13565b5b806103875750600560009054906101000a900460ff16155b6103c6576040517f08c379a00000000000000000000000000000000000000000000000000000000081526004016103bd90611a57565b60405180910390fd5b6000600560019054906101000a900460ff161590508015610418576001600560016101000a81548160ff0219169083151502179055506001600560006101000a81548160ff0219169083151502179055505b801561043a576000600560016101000a81548160ff0219169083151502179055505b50565b60606038805461044c90611ca5565b80601f016020809104026020016040519081016040528092919081815260200182805461047890611ca5565b80156104c55780601f1061049a576101008083540402835291602001916104c5565b820191906000526020600020905b8154815290600101906020018083116104a857829003601f168201915b5050505050905090565b60008073ffffffffffffffffffffffffffffffffffffffff16600160009054906101000a900473ffffffffffffffffffffffffffffffffffffffff1673ffffffffffffffffffffffffffffffffffffffff16148061055757506000610555600160009054906101000a900473ffffffffffffffffffffffffffffffffffffffff16610f2a565b145b15610568576105666000610f35565b505b600160009054906101000a900473ffffffffffffffffffffffffffffffffffffffff1673ffffffffffffffffffffffffffffffffffffffff166338cc48316040518163ffffffff1660e01b8152600401602060405180830381600087803b1580156105d257600080fd5b505af11580156105e6573d6000803e3d6000fd5b505050506040513d601f19601f8201168201806040525081019061060a9190611704565b73ffffffffffffffffffffffffffffffffffffffff1660008054906101000a900473ffffffffffffffffffffffffffffffffffffffff1673ffffffffffffffffffffffffffffffffffffffff161461073e57600160009054906101000a900473ffffffffffffffffffffffffffffffffffffffff1673ffffffffffffffffffffffffffffffffffffffff166338cc48316040518163ffffffff1660e01b8152600401602060405180830381600087803b1580156106c657600080fd5b505af11580156106da573d6000803e3d6000fd5b505050506040513d601f19601f820116820180604052508101906106fe9190611704565b6000806101000a81548173ffffffffffffffffffffffffffffffffffffffff021916908373ffffffffffffffffffffffffffffffffffffffff1602179055505b60008054906101000a900473ffffffffffffffffffffffffffffffffffffffff1673ffffffffffffffffffffffffffffffffffffffff1663524f3889836040518263ffffffff1660e01b81526004016107979190611a15565b602060405180830381600087803b1580156107b157600080fd5b505af11580156107c5573d6000803e3d6000fd5b505050506040513d601f19601f820116820180604052508101906107e99190611829565b9050919050565b60008073ffffffffffffffffffffffffffffffffffffffff16600160009054906101000a900473ffffffffffffffffffffffffffffffffffffffff1673ffffffffffffffffffffffffffffffffffffffff16148061087857506000610876600160009054906101000a900473ffffffffffffffffffffffffffffffffffffffff16610f2a565b145b15610889576108876000610f35565b505b600160009054906101000a900473ffffffffffffffffffffffffffffffffffffffff1673ffffffffffffffffffffffffffffffffffffffff166338cc48316040518163ffffffff1660e01b8152600401602060405180830381600087803b1580156108f357600080fd5b505af1158015610907573d6000803e3d6000fd5b505050506040513d601f19601f8201168201806040525081019061092b9190611704565b73ffffffffffffffffffffffffffffffffffffffff1660008054906101000a900473ffffffffffffffffffffffffffffffffffffffff1673ffffffffffffffffffffffffffffffffffffffff1614610a5f57600160009054906101000a900473ffffffffffffffffffffffffffffffffffffffff1673ffffffffffffffffffffffffffffffffffffffff166338cc48316040518163ffffffff1660e01b8152600401602060405180830381600087803b1580156109e757600080fd5b505af11580156109fb573d6000803e3d6000fd5b505050506040513d601f19601f82011682018060405250810190610a1f9190611704565b6000806101000a81548173ffffffffffffffffffffffffffffffffffffffff021916908373ffffffffffffffffffffffffffffffffffffffff1602179055505b60008060009054906101000a900473ffffffffffffffffffffffffffffffffffffffff1673ffffffffffffffffffffffffffffffffffffffff1663524f3889856040518263ffffffff1660e01b8152600401610abb9190611a15565b602060405180830381600087803b158015610ad557600080fd5b505af1158015610ae9573d6000803e3d6000fd5b505050506040513d601f19601f82011682018060405250810190610b0d9190611829565b905062030d403a610b1e9190611bb1565b670de0b6b3a7640000610b319190611b5b565b811115610b44576000801b915050610bf9565b60008054906101000a900473ffffffffffffffffffffffffffffffffffffffff1673ffffffffffffffffffffffffffffffffffffffff1663adf59f9982600087876040518563ffffffff1660e01b8152600401610ba3939291906119d0565b6020604051808303818588803b158015610bbc57600080fd5b505af1158015610bd0573d6000803e3d6000fd5b50505050506040513d601f19601f82011682018060405250810190610bf5919061172d565b9150505b92915050565b60008073ffffffffffffffffffffffffffffffffffffffff16600160009054906101000a900473ffffffffffffffffffffffffffffffffffffffff1673ffffffffffffffffffffffffffffffffffffffff161480610c8757506000610c85600160009054906101000a900473ffffffffffffffffffffffffffffffffffffffff16610f2a565b145b15610c9857610c966000610f35565b505b600160009054906101000a900473ffffffffffffffffffffffffffffffffffffffff1673ffffffffffffffffffffffffffffffffffffffff166338cc48316040518163ffffffff1660e01b8152600401602060405180830381600087803b158015610d0257600080fd5b505af1158015610d16573d6000803e3d6000fd5b505050506040513d601f19601f82011682018060405250810190610d3a9190611704565b73ffffffffffffffffffffffffffffffffffffffff1660008054906101000a900473ffffffffffffffffffffffffffffffffffffffff1673ffffffffffffffffffffffffffffffffffffffff1614610e6e57600160009054906101000a900473ffffffffffffffffffffffffffffffffffffffff1673ffffffffffffffffffffffffffffffffffffffff166338cc48316040518163ffffffff1660e01b8152600401602060405180830381600087803b158015610df657600080fd5b505af1158015610e0a573d6000803e3d6000fd5b505050506040513d601f19601f82011682018060405250810190610e2e9190611704565b6000806101000a81548173ffffffffffffffffffffffffffffffffffffffff021916908373ffffffffffffffffffffffffffffffffffffffff1602179055505b60008054906101000a900473ffffffffffffffffffffffffffffffffffffffff1673ffffffffffffffffffffffffffffffffffffffff1663c281d19e6040518163ffffffff1660e01b8152600401602060405180830381600087803b158015610ed657600080fd5b505af1158015610eea573d6000803e3d6000fd5b505050506040513d601f19601f82011682018060405250810190610f0e9190611704565b905090565b6000803090506000813b9050600081149250505090565b6000813b9050919050565b6000610f3f610f46565b9050919050565b600080610f66731d3b2638a7cc9f2cb3d298a3da7a90b67e5506ed610f2a565b111561100857731d3b2638a7cc9f2cb3d298a3da7a90b67e5506ed600160006101000a81548173ffffffffffffffffffffffffffffffffffffffff021916908373ffffffffffffffffffffffffffffffffffffffff160217905550610fff6040518060400160405280600b81526020017f6574685f6d61696e6e657400000000000000000000000000000000000000000081525061149d565b6001905061149a565b600061102773c03a2615d5efaf5f49f60b7bb6583eaec212fdf1610f2a565b11156110c95773c03a2615d5efaf5f49f60b7bb6583eaec212fdf1600160006101000a81548173ffffffffffffffffffffffffffffffffffffffff021916908373ffffffffffffffffffffffffffffffffffffffff1602179055506110c06040518060400160405280600c81526020017f6574685f726f707374656e33000000000000000000000000000000000000000081525061149d565b6001905061149a565b60006110e873b7a07bcf2ba2f2703b24c0691b5278999c59ac7e610f2a565b111561118a5773b7a07bcf2ba2f2703b24c0691b5278999c59ac7e600160006101000a81548173ffffffffffffffffffffffffffffffffffffffff021916908373ffffffffffffffffffffffffffffffffffffffff1602179055506111816040518060400160405280600981526020017f6574685f6b6f76616e000000000000000000000000000000000000000000000081525061149d565b6001905061149a565b60006111a973146500cfd35b22e4a392fe0adc06de1a1368ed48610f2a565b111561124b5773146500cfd35b22e4a392fe0adc06de1a1368ed48600160006101000a81548173ffffffffffffffffffffffffffffffffffffffff021916908373ffffffffffffffffffffffffffffffffffffffff1602179055506112426040518060400160405280600b81526020017f6574685f72696e6b65627900000000000000000000000000000000000000000081525061149d565b6001905061149a565b600061126a73a2998efd205fb9d4b4963afb70778d6354ad3a41610f2a565b111561130c5773a2998efd205fb9d4b4963afb70778d6354ad3a41600160006101000a81548173ffffffffffffffffffffffffffffffffffffffff021916908373ffffffffffffffffffffffffffffffffffffffff1602179055506113036040518060400160405280600a81526020017f6574685f676f65726c690000000000000000000000000000000000000000000081525061149d565b6001905061149a565b600061132b736f485c8bf6fc43ea212e93bbf8ce046c7f1cb475610f2a565b111561138f57736f485c8bf6fc43ea212e93bbf8ce046c7f1cb475600160006101000a81548173ffffffffffffffffffffffffffffffffffffffff021916908373ffffffffffffffffffffffffffffffffffffffff1602179055506001905061149a565b60006113ae7320e12a1f859b3feae5fb2a0a32c18f5a65555bbf610f2a565b1115611412577320e12a1f859b3feae5fb2a0a32c18f5a65555bbf600160006101000a81548173ffffffffffffffffffffffffffffffffffffffff021916908373ffffffffffffffffffffffffffffffffffffffff1602179055506001905061149a565b60006114317351efaf4c8b3c9afbd5ab9f4bbc82784ab6ef8faa610f2a565b1115611495577351efaf4c8b3c9afbd5ab9f4bbc82784ab6ef8faa600160006101000a81548173ffffffffffffffffffffffffffffffffffffffff021916908373ffffffffffffffffffffffffffffffffffffffff1602179055506001905061149a565b600090505b90565b80600290805190602001906114b392919061153d565b5050565b8280546114c390611ca5565b90600052602060002090601f0160209004810192826114e5576000855561152c565b82601f106114fe57805160ff191683800117855561152c565b8280016001018555821561152c579182015b8281111561152b578251825591602001919060010190611510565b5b50905061153991906115c3565b5090565b82805461154990611ca5565b90600052602060002090601f01602090048101928261156b57600085556115b2565b82601f1061158457805160ff19168380011785556115b2565b828001600101855582156115b2579182015b828111156115b1578251825591602001919060010190611596565b5b5090506115bf91906115c3565b5090565b5b808211156115dc5760008160009055506001016115c4565b5090565b60006115f36115ee84611ac3565b611a92565b90508281526020810184848401111561160b57600080fd5b611616848285611c63565b509392505050565b600061163161162c84611af3565b611a92565b90508281526020810184848401111561164957600080fd5b611654848285611c63565b509392505050565b60008151905061166b81611d75565b92915050565b60008135905061168081611d8c565b92915050565b60008151905061169581611d8c565b92915050565b600082601f8301126116ac57600080fd5b81356116bc8482602086016115e0565b91505092915050565b600082601f8301126116d657600080fd5b81356116e684826020860161161e565b91505092915050565b6000815190506116fe81611da3565b92915050565b60006020828403121561171657600080fd5b60006117248482850161165c565b91505092915050565b60006020828403121561173f57600080fd5b600061174d84828501611686565b91505092915050565b6000806040838503121561176957600080fd5b600061177785828601611671565b925050602083013567ffffffffffffffff81111561179457600080fd5b6117a0858286016116c5565b9150509250929050565b6000806000606084860312156117bf57600080fd5b60006117cd86828701611671565b935050602084013567ffffffffffffffff8111156117ea57600080fd5b6117f6868287016116c5565b925050604084013567ffffffffffffffff81111561181357600080fd5b61181f8682870161169b565b9150509250925092565b60006020828403121561183b57600080fd5b6000611849848285016116ef565b91505092915050565b600061185d82611b23565b6118678185611b39565b9350611877818560208601611c72565b61188081611d64565b840191505092915050565b61189481611c51565b82525050565b60006118a582611b2e565b6118af8185611b4a565b93506118bf818560208601611c72565b6118c881611d64565b840191505092915050565b60006118e0602e83611b4a565b91507f706c656173652061646420736f6d652045544820746f20636f76657220666f7260008301527f20746865207175657279206665650000000000000000000000000000000000006020830152604082019050919050565b6000611946602e83611b4a565b91507f436f6e747261637420696e7374616e63652068617320616c726561647920626560008301527f656e20696e697469616c697a65640000000000000000000000000000000000006020830152604082019050919050565b6119a881611c47565b82525050565b600060208201905081810360008301526119c88184611852565b905092915050565b60006060820190506119e5600083018661188b565b81810360208301526119f7818561189a565b90508181036040830152611a0b818461189a565b9050949350505050565b60006020820190508181036000830152611a2f818461189a565b905092915050565b60006020820190508181036000830152611a50816118d3565b9050919050565b60006020820190508181036000830152611a7081611939565b9050919050565b6000602082019050611a8c600083018461199f565b92915050565b6000604051905081810181811067ffffffffffffffff82111715611ab957611ab8611d35565b5b8060405250919050565b600067ffffffffffffffff821115611ade57611add611d35565b5b601f19601f8301169050602081019050919050565b600067ffffffffffffffff821115611b0e57611b0d611d35565b5b601f19601f8301169050602081019050919050565b600081519050919050565b600081519050919050565b600082825260208201905092915050565b600082825260208201905092915050565b6000611b6682611c47565b9150611b7183611c47565b9250827fffffffffffffffffffffffffffffffffffffffffffffffffffffffffffffffff03821115611ba657611ba5611cd7565b5b828201905092915050565b6000611bbc82611c47565b9150611bc783611c47565b9250817fffffffffffffffffffffffffffffffffffffffffffffffffffffffffffffffff0483118215151615611c0057611bff611cd7565b5b828202905092915050565b6000611c1682611c27565b9050919050565b6000819050919050565b600073ffffffffffffffffffffffffffffffffffffffff82169050919050565b6000819050919050565b6000611c5c82611c47565b9050919050565b82818337600083830152505050565b60005b83811015611c90578082015181840152602081019050611c75565b83811115611c9f576000848401525b50505050565b60006002820490506001821680611cbd57607f821691505b60208210811415611cd157611cd0611d06565b5b50919050565b7f4e487b7100000000000000000000000000000000000000000000000000000000600052601160045260246000fd5b7f4e487b7100000000000000000000000000000000000000000000000000000000600052602260045260246000fd5b7f4e487b7100000000000000000000000000000000000000000000000000000000600052604160045260246000fd5b6000601f19601f8301169050919050565b611d7e81611c0b565b8114611d8957600080fd5b50565b611d9581611c1d565b8114611da057600080fd5b50565b611dac81611c47565b8114611db757600080fd5b5056fe6a736f6e28687474703a2f2f776565726c6976652e6e6c2f6170692f6a736f6e2d646174612d31306d696e2e7068703f6b65793d30313436346364363235266c6f63617469653d48656c6c65766f6574736c756973292e6c697665776565725b305d2e74656d70a2646970667358221220abdc59ce36bacf2d7cad63de1b1e2daa582611f130bfe677ebbe18fa91ebd57c64736f6c63430008000033",
  "immutableReferences": {},
  "source": "// SPDX-License-Identifier: MIT\r\npragma solidity >=0.8.0;\r\n\r\nimport \"./provableAPI.sol\";\r\nimport './Initializable.sol';\r\n\r\n/// @title Ormr, Man vs. Dragon\r\n/// @author github@ToFat4Fun\r\n/// @notice Oracle we're calling to get a random number back for the sake of randomness\r\n/// @dev Template from web3examples github: https://github.com/web3examples/ethereum/blob/master/oracle_examples/provable_temperature.sol\r\ncontract OrmrOracle is usingProvable, Initializable {\r\n    /// @dev temp used for storing the return value of our call to the Oracle\r\n    /// @dev priceOfUrl price of the query in ETH\r\n    bytes public temp;\r\n    uint256 public priceOfUrl;\r\n\r\n    /// @dev substitutes the constructor\r\n    function initialize() public payable initializer {}\r\n\r\n    /// @dev awaits the Oracle's response\r\n    function __callback(bytes32, /* myid prevent warning*/string memory result\r\n    ) public override {\r\n        if (msg.sender != provable_cbAddress()) revert();\r\n        temp = bytes(result);\r\n    }\r\n\r\n    /// @dev sends a request to the provable oracle service\r\n    function requestTemp() public payable {\r\n        priceOfUrl = provable_getPrice(\"URL\");\r\n        require(\r\n            address(this).balance >= priceOfUrl,\r\n            \"please add some ETH to cover for the query fee\"\r\n        );\r\n        provable_query(\r\n            \"URL\",\r\n            \"json(http://weerlive.nl/api/json-data-10min.php?key=01464cd625&locatie=Hellevoetsluis).liveweer[0].temp\"\r\n        );\r\n    }\r\n\r\n    // corona cijfer oracle https://api.apify.com/v2/key-value-stores/vqnEUe7VtKNMqGqFF/records/LATEST?disableRedirect=true\r\n    // \"json(https://api.apify.com/v2/key-value-stores/vqnEUe7VtKNMqGqFF/records/LATEST?disableRedirect=true).infectedByRegion[0].infectedCount\"\r\n\r\n    /// @dev return the random number as requested per oracle in bytes\r\n    /// @return oracle result in bytes\r\n    function getTemp() public view returns (bytes memory) {\r\n        return temp;\r\n    }\r\n}\r\n",
  "sourcePath": "D:\\HHS\\Jaar 4 Minor\\IT Deel Minor\\Assignments\\PD-8\\contracts\\OrmrOracle.sol",
  "compiler": {
    "name": "solc",
    "version": "0.8.0+commit.c7dfd78e.Emscripten.clang"
  },
  "schemaVersion": "3.3.2",
  "updatedAt": "2020-12-25T18:03:26.625Z",
  "networkType": "ethereum",
  "devdoc": {
    "author": "github@ToFat4Fun",
    "details": "Template from web3examples github: https://github.com/web3examples/ethereum/blob/master/oracle_examples/provable_temperature.sol",
    "kind": "dev",
    "methods": {
      "__callback(bytes32,string)": {
        "details": "awaits the Oracle's response"
      },
      "getTemp()": {
        "details": "return the random number as requested per oracle in bytes",
        "returns": {
          "_0": "oracle result in bytes"
        }
      },
      "initialize()": {
        "details": "substitutes the constructor"
      },
      "requestTemp()": {
        "details": "sends a request to the provable oracle service"
      }
    },
    "stateVariables": {
      "temp": {
        "details": "temp used for storing the return value of our call to the OraclepriceOfUrl price of the query in ETH"
      }
    },
    "title": "Ormr, Man vs. Dragon",
    "version": 1
  },
  "userdoc": {
    "kind": "user",
    "methods": {},
    "notice": "Oracle we're calling to get a random number back for the sake of randomness",
    "version": 1
  }
}