{
  "contractName": "Ormr",
  "abi": [
    {
      "inputs": [],
      "stateMutability": "nonpayable",
      "type": "constructor"
    },
    {
      "anonymous": false,
      "inputs": [
        {
          "indexed": false,
          "internalType": "string",
          "name": "",
          "type": "string"
        }
      ],
      "name": "encounterResult",
      "type": "event"
    },
    {
      "inputs": [
        {
          "internalType": "string",
          "name": "_name",
          "type": "string"
        }
      ],
      "name": "createHero",
      "outputs": [],
      "stateMutability": "nonpayable",
      "type": "function"
    },
    {
      "inputs": [],
      "name": "getHero",
      "outputs": [
        {
          "components": [
            {
              "internalType": "string",
              "name": "name",
              "type": "string"
            },
            {
              "internalType": "uint256",
              "name": "power",
              "type": "uint256"
            },
            {
              "internalType": "uint256",
              "name": "health",
              "type": "uint256"
            },
            {
              "internalType": "uint256",
              "name": "bank",
              "type": "uint256"
            }
          ],
          "internalType": "struct Hero",
          "name": "",
          "type": "tuple"
        }
      ],
      "stateMutability": "view",
      "type": "function",
      "constant": true
    },
    {
      "inputs": [],
      "name": "getHeroes",
      "outputs": [
        {
          "components": [
            {
              "internalType": "string",
              "name": "name",
              "type": "string"
            },
            {
              "internalType": "uint256",
              "name": "power",
              "type": "uint256"
            },
            {
              "internalType": "uint256",
              "name": "health",
              "type": "uint256"
            },
            {
              "internalType": "uint256",
              "name": "bank",
              "type": "uint256"
            }
          ],
          "internalType": "struct Hero[]",
          "name": "",
          "type": "tuple[]"
        }
      ],
      "stateMutability": "view",
      "type": "function",
      "constant": true
    },
    {
      "inputs": [],
      "name": "createDragon",
      "outputs": [],
      "stateMutability": "nonpayable",
      "type": "function"
    },
    {
      "inputs": [],
      "name": "getDragon",
      "outputs": [
        {
          "components": [
            {
              "internalType": "string",
              "name": "name",
              "type": "string"
            },
            {
              "internalType": "address",
              "name": "id",
              "type": "address"
            },
            {
              "internalType": "uint256",
              "name": "power",
              "type": "uint256"
            },
            {
              "internalType": "uint256",
              "name": "health",
              "type": "uint256"
            },
            {
              "internalType": "uint256",
              "name": "goldReward",
              "type": "uint256"
            }
          ],
          "internalType": "struct Dragon",
          "name": "",
          "type": "tuple"
        }
      ],
      "stateMutability": "view",
      "type": "function",
      "constant": true
    },
    {
      "inputs": [],
      "name": "startEncounter",
      "outputs": [],
      "stateMutability": "nonpayable",
      "type": "function"
    },
    {
      "inputs": [
        {
          "internalType": "bytes",
          "name": "input",
          "type": "bytes"
        }
      ],
      "name": "convertToUint",
      "outputs": [
        {
          "internalType": "uint256",
          "name": "",
          "type": "uint256"
        }
      ],
      "stateMutability": "pure",
      "type": "function",
      "constant": true
    },
    {
      "inputs": [],
      "name": "callOracleRandom",
      "outputs": [],
      "stateMutability": "payable",
      "type": "function",
      "payable": true
    },
    {
      "inputs": [],
      "name": "getTempUint",
      "outputs": [
        {
          "internalType": "uint256",
          "name": "",
          "type": "uint256"
        }
      ],
      "stateMutability": "view",
      "type": "function",
      "constant": true
    },
    {
      "inputs": [],
      "name": "getTemp",
      "outputs": [
        {
          "internalType": "bytes",
          "name": "",
          "type": "bytes"
        }
      ],
      "stateMutability": "view",
      "type": "function",
      "constant": true
    }
  ],
  "bytecode": "0x60806040523480156200001157600080fd5b5060405162000020906200015c565b604051809103906000f0801580156200003d573d6000803e3d6000fd5b50603360006101000a81548173ffffffffffffffffffffffffffffffffffffffff021916908373ffffffffffffffffffffffffffffffffffffffff1602179055506040516200008c906200016a565b604051809103906000f080158015620000a9573d6000803e3d6000fd5b50603460006101000a81548173ffffffffffffffffffffffffffffffffffffffff021916908373ffffffffffffffffffffffffffffffffffffffff160217905550604051620000f89062000178565b604051809103906000f08015801562000115573d6000803e3d6000fd5b50603560006101000a81548173ffffffffffffffffffffffffffffffffffffffff021916908373ffffffffffffffffffffffffffffffffffffffff16021790555062000186565b610f878062001ab683390190565b610ebd8062002a3d83390190565b611cbb80620038fa83390190565b61192080620001966000396000f3fe6080604052600436106100915760003560e01c80639525256011610059578063952525601461015c5780639a8d2882146101875780639e01b853146101b2578063b1185244146101c9578063b7ed99d6146101f457610091565b806307b8163c14610096578063581bee2f146100c15780636865856c146100ec5780636a9444351461012957806378242aaf14610133575b600080fd5b3480156100a257600080fd5b506100ab61020b565b6040516100b89190611557565b60405180910390f35b3480156100cd57600080fd5b506100d66102c4565b6040516100e39190611535565b60405180910390f35b3480156100f857600080fd5b50610113600480360381019061010e9190610f3a565b610381565b6040516101209190611557565b60405180910390f35b61013161040c565b005b34801561013f57600080fd5b5061015a60048036038101906101559190610fbc565b610491565b005b34801561016857600080fd5b50610171610523565b60405161017e919061145f565b60405180910390f35b34801561019357600080fd5b5061019c6105cf565b6040516101a9919061143d565b60405180910390f35b3480156101be57600080fd5b506101c761067b565b005b3480156101d557600080fd5b506101de6107da565b6040516101eb9190611513565b60405180910390f35b34801561020057600080fd5b5061020961088c565b005b600080603560009054906101000a900473ffffffffffffffffffffffffffffffffffffffff1673ffffffffffffffffffffffffffffffffffffffff1663952525606040518163ffffffff1660e01b815260040160006040518083038186803b15801561027657600080fd5b505afa15801561028a573d6000803e3d6000fd5b505050506040513d6000823e3d601f19601f820116820180604052508101906102b39190610f7b565b90506102be81610381565b91505090565b6102cc610b0f565b603360009054906101000a900473ffffffffffffffffffffffffffffffffffffffff1673ffffffffffffffffffffffffffffffffffffffff166327df259a336040518263ffffffff1660e01b81526004016103279190611422565b60006040518083038186803b15801561033f57600080fd5b505afa158015610353573d6000803e3d6000fd5b505050506040513d6000823e3d601f19601f8201168201806040525081019061037c919061103e565b905090565b6000806000905060005b8351811015610402578381815181106103cd577f4e487b7100000000000000000000000000000000000000000000000000000000600052603260045260246000fd5b602001015160f81c60f81b60f81c60ff16600883901b6103ed91906116bc565b915080806103fa90611790565b91505061038b565b5080915050919050565b603560009054906101000a900473ffffffffffffffffffffffffffffffffffffffff1673ffffffffffffffffffffffffffffffffffffffff166313fdba3c346040518263ffffffff1660e01b81526004016000604051808303818588803b15801561047657600080fd5b505af115801561048a573d6000803e3d6000fd5b5050505050565b603360009054906101000a900473ffffffffffffffffffffffffffffffffffffffff1673ffffffffffffffffffffffffffffffffffffffff1663deb786c482336040518363ffffffff1660e01b81526004016104ee9291906114a3565b600060405180830381600087803b15801561050857600080fd5b505af115801561051c573d6000803e3d6000fd5b5050505050565b6060603560009054906101000a900473ffffffffffffffffffffffffffffffffffffffff1673ffffffffffffffffffffffffffffffffffffffff1663952525606040518163ffffffff1660e01b815260040160006040518083038186803b15801561058d57600080fd5b505afa1580156105a1573d6000803e3d6000fd5b505050506040513d6000823e3d601f19601f820116820180604052508101906105ca9190610f7b565b905090565b6060603360009054906101000a900473ffffffffffffffffffffffffffffffffffffffff1673ffffffffffffffffffffffffffffffffffffffff16639a8d28826040518163ffffffff1660e01b815260040160006040518083038186803b15801561063957600080fd5b505afa15801561064d573d6000803e3d6000fd5b505050506040513d6000823e3d601f19601f820116820180604052508101906106769190610ef9565b905090565b6107d8603360009054906101000a900473ffffffffffffffffffffffffffffffffffffffff1673ffffffffffffffffffffffffffffffffffffffff166327df259a336040518263ffffffff1660e01b81526004016106d99190611422565b60006040518083038186803b1580156106f157600080fd5b505afa158015610705573d6000803e3d6000fd5b505050506040513d6000823e3d601f19601f8201168201806040525081019061072e919061103e565b603460009054906101000a900473ffffffffffffffffffffffffffffffffffffffff1673ffffffffffffffffffffffffffffffffffffffff1663b11852446040518163ffffffff1660e01b815260040160006040518083038186803b15801561079657600080fd5b505afa1580156107aa573d6000803e3d6000fd5b505050506040513d6000823e3d601f19601f820116820180604052508101906107d39190610ffd565b610910565b565b6107e2610b37565b603460009054906101000a900473ffffffffffffffffffffffffffffffffffffffff1673ffffffffffffffffffffffffffffffffffffffff1663b11852446040518163ffffffff1660e01b815260040160006040518083038186803b15801561084a57600080fd5b505afa15801561085e573d6000803e3d6000fd5b505050506040513d6000823e3d601f19601f820116820180604052508101906108879190610ffd565b905090565b603460009054906101000a900473ffffffffffffffffffffffffffffffffffffffff1673ffffffffffffffffffffffffffffffffffffffff1663b7ed99d66040518163ffffffff1660e01b8152600401600060405180830381600087803b1580156108f657600080fd5b505af115801561090a573d6000803e3d6000fd5b50505050565b60405160200161091f9061140d565b60405160208183030381529060405280519060200120826000015160405160200161094a91906113f6565b6040516020818303038152906040528051906020012014156109a1576040517f08c379a0000000000000000000000000000000000000000000000000000000008152600401610998906114f3565b60405180910390fd5b6040516020016109b09061140d565b6040516020818303038152906040528051906020012081600001516040516020016109db91906113f6565b604051602081830303815290604052805190602001201415610a32576040517f08c379a0000000000000000000000000000000000000000000000000000000008152600401610a29906114d3565b60405180910390fd5b7fdd4beaba995f8a41cdd2f0af8918a02603e1b887060a362f32b17b80b1af367a610a6583602001518360400151610a7e565b604051610a729190611481565b60405180910390a15050565b606081831115610ac5576040518060400160405280601a81526020017f54686520647261676f6e20686173206265656e20736c61696e210000000000008152509050610b09565b81831015610aed57604051806060016040528060368152602001611877603691399050610b09565b6040518060600160405280603e81526020016118ad603e913990505b92915050565b6040518060800160405280606081526020016000815260200160008152602001600081525090565b6040518060a0016040528060608152602001600073ffffffffffffffffffffffffffffffffffffffff1681526020016000815260200160008152602001600081525090565b6000610b8f610b8a846115a3565b611572565b9050808382526020820190508260005b85811015610bcf5781518501610bb58882610e58565b845260208401935060208301925050600181019050610b9f565b5050509392505050565b6000610bec610be7846115cf565b611572565b905082815260208101848484011115610c0457600080fd5b610c0f84828561174e565b509392505050565b6000610c2a610c25846115cf565b611572565b905082815260208101848484011115610c4257600080fd5b610c4d84828561175d565b509392505050565b6000610c68610c63846115ff565b611572565b905082815260208101848484011115610c8057600080fd5b610c8b84828561174e565b509392505050565b6000610ca6610ca1846115ff565b611572565b905082815260208101848484011115610cbe57600080fd5b610cc984828561175d565b509392505050565b600081519050610ce081611848565b92915050565b600082601f830112610cf757600080fd5b8151610d07848260208601610b7c565b91505092915050565b600082601f830112610d2157600080fd5b8135610d31848260208601610bd9565b91505092915050565b600082601f830112610d4b57600080fd5b8151610d5b848260208601610c17565b91505092915050565b600082601f830112610d7557600080fd5b8135610d85848260208601610c55565b91505092915050565b600082601f830112610d9f57600080fd5b8151610daf848260208601610c93565b91505092915050565b600060a08284031215610dca57600080fd5b610dd460a0611572565b9050600082015167ffffffffffffffff811115610df057600080fd5b610dfc84828501610d8e565b6000830152506020610e1084828501610cd1565b6020830152506040610e2484828501610ee4565b6040830152506060610e3884828501610ee4565b6060830152506080610e4c84828501610ee4565b60808301525092915050565b600060808284031215610e6a57600080fd5b610e746080611572565b9050600082015167ffffffffffffffff811115610e9057600080fd5b610e9c84828501610d8e565b6000830152506020610eb084828501610ee4565b6020830152506040610ec484828501610ee4565b6040830152506060610ed884828501610ee4565b60608301525092915050565b600081519050610ef38161185f565b92915050565b600060208284031215610f0b57600080fd5b600082015167ffffffffffffffff811115610f2557600080fd5b610f3184828501610ce6565b91505092915050565b600060208284031215610f4c57600080fd5b600082013567ffffffffffffffff811115610f6657600080fd5b610f7284828501610d10565b91505092915050565b600060208284031215610f8d57600080fd5b600082015167ffffffffffffffff811115610fa757600080fd5b610fb384828501610d3a565b91505092915050565b600060208284031215610fce57600080fd5b600082013567ffffffffffffffff811115610fe857600080fd5b610ff484828501610d64565b91505092915050565b60006020828403121561100f57600080fd5b600082015167ffffffffffffffff81111561102957600080fd5b61103584828501610db8565b91505092915050565b60006020828403121561105057600080fd5b600082015167ffffffffffffffff81111561106a57600080fd5b61107684828501610e58565b91505092915050565b600061108b8383611312565b905092915050565b61109c81611712565b82525050565b6110ab81611712565b82525050565b60006110bc8261163f565b6110c6818561166d565b9350836020820285016110d88561162f565b8060005b8581101561111457848403895281516110f5858261107f565b945061110083611660565b925060208a019950506001810190506110dc565b50829750879550505050505092915050565b60006111318261164a565b61113b818561167e565b935061114b81856020860161175d565b61115481611837565b840191505092915050565b600061116a82611655565b611174818561168f565b935061118481856020860161175d565b61118d81611837565b840191505092915050565b60006111a382611655565b6111ad81856116a0565b93506111bd81856020860161175d565b6111c681611837565b840191505092915050565b60006111dc82611655565b6111e681856116b1565b93506111f681856020860161175d565b80840191505092915050565b600061120f6000836116b1565b9150600082019050919050565b60006112296010836116a0565b91507f447261676f6e206e6f7420666f756e64000000000000000000000000000000006000830152602082019050919050565b6000611269600e836116a0565b91507f4865726f206e6f7420666f756e640000000000000000000000000000000000006000830152602082019050919050565b600060a08301600083015184820360008601526112b9828261115f565b91505060208301516112ce6020860182611093565b5060408301516112e160408601826113d8565b5060608301516112f460608601826113d8565b50608083015161130760808601826113d8565b508091505092915050565b6000608083016000830151848203600086015261132f828261115f565b915050602083015161134460208601826113d8565b50604083015161135760408601826113d8565b50606083015161136a60608601826113d8565b508091505092915050565b60006080830160008301518482036000860152611392828261115f565b91505060208301516113a760208601826113d8565b5060408301516113ba60408601826113d8565b5060608301516113cd60608601826113d8565b508091505092915050565b6113e181611744565b82525050565b6113f081611744565b82525050565b600061140282846111d1565b915081905092915050565b600061141882611202565b9150819050919050565b600060208201905061143760008301846110a2565b92915050565b6000602082019050818103600083015261145781846110b1565b905092915050565b600060208201905081810360008301526114798184611126565b905092915050565b6000602082019050818103600083015261149b8184611198565b905092915050565b600060408201905081810360008301526114bd8185611198565b90506114cc60208301846110a2565b9392505050565b600060208201905081810360008301526114ec8161121c565b9050919050565b6000602082019050818103600083015261150c8161125c565b9050919050565b6000602082019050818103600083015261152d818461129c565b905092915050565b6000602082019050818103600083015261154f8184611375565b905092915050565b600060208201905061156c60008301846113e7565b92915050565b6000604051905081810181811067ffffffffffffffff8211171561159957611598611808565b5b8060405250919050565b600067ffffffffffffffff8211156115be576115bd611808565b5b602082029050602081019050919050565b600067ffffffffffffffff8211156115ea576115e9611808565b5b601f19601f8301169050602081019050919050565b600067ffffffffffffffff82111561161a57611619611808565b5b601f19601f8301169050602081019050919050565b6000819050602082019050919050565b600081519050919050565b600081519050919050565b600081519050919050565b6000602082019050919050565b600082825260208201905092915050565b600082825260208201905092915050565b600082825260208201905092915050565b600082825260208201905092915050565b600081905092915050565b60006116c782611744565b91506116d283611744565b9250827fffffffffffffffffffffffffffffffffffffffffffffffffffffffffffffffff03821115611707576117066117d9565b5b828201905092915050565b600061171d82611724565b9050919050565b600073ffffffffffffffffffffffffffffffffffffffff82169050919050565b6000819050919050565b82818337600083830152505050565b60005b8381101561177b578082015181840152602081019050611760565b8381111561178a576000848401525b50505050565b600061179b82611744565b91507fffffffffffffffffffffffffffffffffffffffffffffffffffffffffffffffff8214156117ce576117cd6117d9565b5b600182019050919050565b7f4e487b7100000000000000000000000000000000000000000000000000000000600052601160045260246000fd5b7f4e487b7100000000000000000000000000000000000000000000000000000000600052604160045260246000fd5b6000601f19601f8301169050919050565b61185181611712565b811461185c57600080fd5b50565b61186881611744565b811461187357600080fd5b5056fe546865206865726f20686173206265656e206465666561746564212054686520647261676f6e2077617320746f6f207374726f6e6721546865206865726f20616e6420647261676f6e2061726520657175616c20696e20737472656e6774682c207468657265206973206e6f20766963746f7221a2646970667358221220094312febca638e78d8683fbf167cbae133be836e137e940326a0f900f95397f64736f6c634300080000336080604052620186a06003556298968060045534801561001e57600080fd5b50610f598061002e6000396000f3fe608060405234801561001057600080fd5b50600436106100415760003560e01c806327df259a146100465780639a8d288214610076578063deb786c414610094575b600080fd5b610060600480360381019061005b91906107d2565b6100b0565b60405161006d9190610b7b565b60405180910390f35b61007e610249565b60405161008b9190610b19565b60405180910390f35b6100ae60048036038101906100a991906107fb565b6103a0565b005b6100b861068a565b600060098054905011610100576040517f08c379a00000000000000000000000000000000000000000000000000000000081526004016100f790610b3b565b60405180910390fd5b6009600160008473ffffffffffffffffffffffffffffffffffffffff1673ffffffffffffffffffffffffffffffffffffffff1681526020019081526020016000205481548110610179577f4e487b7100000000000000000000000000000000000000000000000000000000600052603260045260246000fd5b90600052602060002090600402016040518060800160405290816000820180546101a290610d58565b80601f01602080910402602001604051908101604052809291908181526020018280546101ce90610d58565b801561021b5780601f106101f05761010080835404028352916020019161021b565b820191906000526020600020905b8154815290600101906020018083116101fe57829003601f168201915b5050505050815260200160018201548152602001600282015481526020016003820154815250509050919050565b6060600060098054905011610293576040517f08c379a000000000000000000000000000000000000000000000000000000000815260040161028a90610b3b565b60405180910390fd5b6009805480602002602001604051908101604052809291908181526020016000905b8282101561039757838290600052602060002090600402016040518060800160405290816000820180546102e890610d58565b80601f016020809104026020016040519081016040528092919081815260200182805461031490610d58565b80156103615780601f1061033657610100808354040283529160200191610361565b820191906000526020600020905b81548152906001019060200180831161034457829003601f168201915b505050505081526020016001820154815260200160028201548152602001600382015481525050815260200190600101906102b5565b50505050905090565b6000600260008373ffffffffffffffffffffffffffffffffffffffff1673ffffffffffffffffffffffffffffffffffffffff1681526020019081526020016000205414610422576040517f08c379a000000000000000000000000000000000000000000000000000000000815260040161041990610b5b565b60405180910390fd5b61042c8282610430565b5050565b6009604051806080016040528084815260200161044b610606565b8152602001610458610648565b81526020016000815250908060018154018082558091505060019003906000526020600020906004020160009091909190915060008201518160000190805190602001906104a79291906106b2565b506020820151816001015560408201518160020155606082015181600301555050600060016009805490506104dc9190610c94565b90508160008083815260200190815260200160002060006101000a81548173ffffffffffffffffffffffffffffffffffffffff021916908373ffffffffffffffffffffffffffffffffffffffff16021790555080600160008473ffffffffffffffffffffffffffffffffffffffff1673ffffffffffffffffffffffffffffffffffffffff16815260200190815260200160002081905550600260008373ffffffffffffffffffffffffffffffffffffffff1673ffffffffffffffffffffffffffffffffffffffff16815260200190815260200160002060008154809291906105c390610d8a565b91905055507fe091168a421f352d46fe9eafce51f4d2bce03324348c1d1d6f9bb1283d60bed681846040516105f9929190610b9d565b60405180910390a1505050565b600060035442444160405160200161062093929190610adc565b6040516020818303038152906040528051906020012060001c6106439190610e01565b905090565b600060045442444160405160200161066293929190610adc565b6040516020818303038152906040528051906020012060001c6106859190610e01565b905090565b6040518060800160405280606081526020016000815260200160008152602001600081525090565b8280546106be90610d58565b90600052602060002090601f0160209004810192826106e05760008555610727565b82601f106106f957805160ff1916838001178555610727565b82800160010185558215610727579182015b8281111561072657825182559160200191906001019061070b565b5b5090506107349190610738565b5090565b5b80821115610751576000816000905550600101610739565b5090565b600061076861076384610bfe565b610bcd565b90508281526020810184848401111561078057600080fd5b61078b848285610d16565b509392505050565b6000813590506107a281610f0c565b92915050565b600082601f8301126107b957600080fd5b81356107c9848260208601610755565b91505092915050565b6000602082840312156107e457600080fd5b60006107f284828501610793565b91505092915050565b6000806040838503121561080e57600080fd5b600083013567ffffffffffffffff81111561082857600080fd5b610834858286016107a8565b925050602061084585828601610793565b9150509250929050565b600061085b83836109e1565b905092915050565b61087461086f82610cda565b610dd3565b82525050565b600061088582610c3e565b61088f8185610c61565b9350836020820285016108a185610c2e565b8060005b858110156108dd57848403895281516108be858261084f565b94506108c983610c54565b925060208a019950506001810190506108a5565b50829750879550505050505092915050565b60006108fa82610c49565b6109048185610c72565b9350610914818560208601610d25565b61091d81610eee565b840191505092915050565b600061093382610c49565b61093d8185610c83565b935061094d818560208601610d25565b61095681610eee565b840191505092915050565b600061096e601f83610c83565b91507f4e6f206865726f657320617661696c61626c6520666f72206c6f6f6b75702e006000830152602082019050919050565b60006109ae601b83610c83565b91507f596f7520616c726561647920637265617465642061206865726f2100000000006000830152602082019050919050565b600060808301600083015184820360008601526109fe82826108ef565b9150506020830151610a136020860182610aa7565b506040830151610a266040860182610aa7565b506060830151610a396060860182610aa7565b508091505092915050565b60006080830160008301518482036000860152610a6182826108ef565b9150506020830151610a766020860182610aa7565b506040830151610a896040860182610aa7565b506060830151610a9c6060860182610aa7565b508091505092915050565b610ab081610d0c565b82525050565b610abf81610d0c565b82525050565b610ad6610ad182610d0c565b610df7565b82525050565b6000610ae88286610ac5565b602082019150610af88285610ac5565b602082019150610b088284610863565b601482019150819050949350505050565b60006020820190508181036000830152610b33818461087a565b905092915050565b60006020820190508181036000830152610b5481610961565b9050919050565b60006020820190508181036000830152610b74816109a1565b9050919050565b60006020820190508181036000830152610b958184610a44565b905092915050565b6000604082019050610bb26000830185610ab6565b8181036020830152610bc48184610928565b90509392505050565b6000604051905081810181811067ffffffffffffffff82111715610bf457610bf3610ebf565b5b8060405250919050565b600067ffffffffffffffff821115610c1957610c18610ebf565b5b601f19601f8301169050602081019050919050565b6000819050602082019050919050565b600081519050919050565b600081519050919050565b6000602082019050919050565b600082825260208201905092915050565b600082825260208201905092915050565b600082825260208201905092915050565b6000610c9f82610d0c565b9150610caa83610d0c565b925082821015610cbd57610cbc610e32565b5b828203905092915050565b6000610cd382610cec565b9050919050565b6000610ce582610cec565b9050919050565b600073ffffffffffffffffffffffffffffffffffffffff82169050919050565b6000819050919050565b82818337600083830152505050565b60005b83811015610d43578082015181840152602081019050610d28565b83811115610d52576000848401525b50505050565b60006002820490506001821680610d7057607f821691505b60208210811415610d8457610d83610e90565b5b50919050565b6000610d9582610d0c565b91507fffffffffffffffffffffffffffffffffffffffffffffffffffffffffffffffff821415610dc857610dc7610e32565b5b600182019050919050565b6000610dde82610de5565b9050919050565b6000610df082610eff565b9050919050565b6000819050919050565b6000610e0c82610d0c565b9150610e1783610d0c565b925082610e2757610e26610e61565b5b828206905092915050565b7f4e487b7100000000000000000000000000000000000000000000000000000000600052601160045260246000fd5b7f4e487b7100000000000000000000000000000000000000000000000000000000600052601260045260246000fd5b7f4e487b7100000000000000000000000000000000000000000000000000000000600052602260045260246000fd5b7f4e487b7100000000000000000000000000000000000000000000000000000000600052604160045260246000fd5b6000601f19601f8301169050919050565b60008160601b9050919050565b610f1581610cc8565b8114610f2057600080fd5b5056fea264697066735822122027bd8300d0c54a80062bea4a496bb8834149f655484a62710160c905ce98399b64736f6c634300080000336080604052620186a06001556298968060025534801561001e57600080fd5b50610e8f8061002e6000396000f3fe608060405234801561001057600080fd5b50600436106100415760003560e01c8063b118524414610046578063b7ed99d614610064578063f8caf6c71461006e575b600080fd5b61004e61008c565b60405161005b9190610b3e565b60405180910390f35b61006c610278565b005b610076610282565b6040516100839190610afc565b60405180910390f35b61009461067a565b6000600880549050116100dc576040517f08c379a00000000000000000000000000000000000000000000000000000000081526004016100d390610b1e565b60405180910390fd5b60086000803073ffffffffffffffffffffffffffffffffffffffff1673ffffffffffffffffffffffffffffffffffffffff1681526020019081526020016000205481548110610154577f4e487b7100000000000000000000000000000000000000000000000000000000600052603260045260246000fd5b90600052602060002090600502016040518060a001604052908160008201805461017d90610cdc565b80601f01602080910402602001604051908101604052809291908181526020018280546101a990610cdc565b80156101f65780601f106101cb576101008083540402835291602001916101f6565b820191906000526020600020905b8154815290600101906020018083116101d957829003601f168201915b505050505081526020016001820160009054906101000a900473ffffffffffffffffffffffffffffffffffffffff1673ffffffffffffffffffffffffffffffffffffffff1673ffffffffffffffffffffffffffffffffffffffff1681526020016002820154815260200160038201548152602001600482015481525050905090565b61028061042f565b565b60606000600880549050116102cc576040517f08c379a00000000000000000000000000000000000000000000000000000000081526004016102c390610b1e565b60405180910390fd5b6008805480602002602001604051908101604052809291908181526020016000905b8282101561042657838290600052602060002090600502016040518060a001604052908160008201805461032190610cdc565b80601f016020809104026020016040519081016040528092919081815260200182805461034d90610cdc565b801561039a5780601f1061036f5761010080835404028352916020019161039a565b820191906000526020600020905b81548152906001019060200180831161037d57829003601f168201915b505050505081526020016001820160009054906101000a900473ffffffffffffffffffffffffffffffffffffffff1673ffffffffffffffffffffffffffffffffffffffff1673ffffffffffffffffffffffffffffffffffffffff1681526020016002820154815260200160038201548152602001600482015481525050815260200190600101906102ee565b50505050905090565b60086040518060a001604052806040518060400160405280600e81526020017f44656661756c745f447261676f6e00000000000000000000000000000000000081525081526020013073ffffffffffffffffffffffffffffffffffffffff16815260200161049b6105f6565b81526020016104a8610638565b8152602001600a815250908060018154018082558091505060019003906000526020600020906005020160009091909190915060008201518160000190805190602001906104f79291906106bf565b5060208201518160010160006101000a81548173ffffffffffffffffffffffffffffffffffffffff021916908373ffffffffffffffffffffffffffffffffffffffff1602179055506040820151816002015560608201518160030155608082015181600401555050600060016008805490506105739190610bfd565b90507fa8d5c415ae4486d0b0ca47d57931522bcf32daa16432a434fd9d4c57050e94da600882815481106105d0577f4e487b7100000000000000000000000000000000000000000000000000000000600052603260045260246000fd5b90600052602060002090600502016040516105eb9190610b60565b60405180910390a150565b600060015442444160405160200161061093929190610abf565b6040516020818303038152906040528051906020012060001c6106339190610d70565b905090565b600060025442444160405160200161065293929190610abf565b6040516020818303038152906040528051906020012060001c6106759190610d70565b905090565b6040518060a0016040528060608152602001600073ffffffffffffffffffffffffffffffffffffffff1681526020016000815260200160008152602001600081525090565b8280546106cb90610cdc565b90600052602060002090601f0160209004810192826106ed5760008555610734565b82601f1061070657805160ff1916838001178555610734565b82800160010185558215610734579182015b82811115610733578251825591602001919060010190610718565b5b5090506107419190610745565b5090565b5b8082111561075e576000816000905550600101610746565b5090565b600061076e838361090a565b905092915050565b61078761078282610c6d565b610d42565b82525050565b61079681610c5b565b82525050565b60006107a782610ba7565b6107b18185610bca565b9350836020820285016107c385610b82565b8060005b858110156107ff57848403895281516107e08582610762565b94506107eb83610bbd565b925060208a019950506001810190506107c7565b50829750879550505050505092915050565b600061081c82610bb2565b6108268185610bdb565b9350610836818560208601610ca9565b61083f81610e2e565b840191505092915050565b6000815461085781610cdc565b6108618186610bdb565b9450600182166000811461087c576001811461088e576108c1565b60ff19831686526020860193506108c1565b61089785610b92565b60005b838110156108b95781548189015260018201915060208101905061089a565b808801955050505b50505092915050565b60006108d7602083610bec565b91507f4e6f20647261676f6e7320617661696c61626c6520666f72206c6f6f6b75702e6000830152602082019050919050565b600060a08301600083015184820360008601526109278282610811565b915050602083015161093c602086018261078d565b50604083015161094f6040860182610a99565b5060608301516109626060860182610a99565b5060808301516109756080860182610a99565b508091505092915050565b600060a083016000830151848203600086015261099d8282610811565b91505060208301516109b2602086018261078d565b5060408301516109c56040860182610a99565b5060608301516109d86060860182610a99565b5060808301516109eb6080860182610a99565b508091505092915050565b600060a0830160008084018583036000870152610a13838261084a565b92505060018401549050610a2681610d0e565b610a33602087018261078d565b5060028401549050610a4481610d28565b610a516040870182610a99565b5060038401549050610a6281610d28565b610a6f6060870182610a99565b5060048401549050610a8081610d28565b610a8d6080870182610a99565b50819250505092915050565b610aa281610c9f565b82525050565b610ab9610ab482610c9f565b610d66565b82525050565b6000610acb8286610aa8565b602082019150610adb8285610aa8565b602082019150610aeb8284610776565b601482019150819050949350505050565b60006020820190508181036000830152610b16818461079c565b905092915050565b60006020820190508181036000830152610b37816108ca565b9050919050565b60006020820190508181036000830152610b588184610980565b905092915050565b60006020820190508181036000830152610b7a81846109f6565b905092915050565b6000819050602082019050919050565b60008190508160005260206000209050919050565b600081519050919050565b600081519050919050565b6000602082019050919050565b600082825260208201905092915050565b600082825260208201905092915050565b600082825260208201905092915050565b6000610c0882610c9f565b9150610c1383610c9f565b925082821015610c2657610c25610da1565b5b828203905092915050565b600073ffffffffffffffffffffffffffffffffffffffff82169050919050565b6000819050919050565b6000610c6682610c7f565b9050919050565b6000610c7882610c7f565b9050919050565b600073ffffffffffffffffffffffffffffffffffffffff82169050919050565b6000819050919050565b60005b83811015610cc7578082015181840152602081019050610cac565b83811115610cd6576000848401525b50505050565b60006002820490506001821680610cf457607f821691505b60208210811415610d0857610d07610dff565b5b50919050565b6000610d21610d1c83610e4c565b610c31565b9050919050565b6000610d3b610d3683610e4c565b610c51565b9050919050565b6000610d4d82610d54565b9050919050565b6000610d5f82610e3f565b9050919050565b6000819050919050565b6000610d7b82610c9f565b9150610d8683610c9f565b925082610d9657610d95610dd0565b5b828206905092915050565b7f4e487b7100000000000000000000000000000000000000000000000000000000600052601160045260246000fd5b7f4e487b7100000000000000000000000000000000000000000000000000000000600052601260045260246000fd5b7f4e487b7100000000000000000000000000000000000000000000000000000000600052602260045260246000fd5b6000601f19601f8301169050919050565b60008160601b9050919050565b60008160001c905091905056fea26469706673582212200c3eaaf24cb397b576bf15e1ddda50abb016c41ee75a2bb40b3dcb7435f0b01064736f6c634300080000336080604052611ca8806100136000396000f3fe6080604052600436106100555760003560e01c806313fdba3c1461005a57806327dc297e1461006457806338bbfa501461008d57806343d3b1be146100b6578063673402e5146100e1578063952525601461010c575b600080fd5b610062610137565b005b34801561007057600080fd5b5061008b6004803603810190610086919061162d565b61021a565b005b34801561009957600080fd5b506100b460048036038101906100af9190611681565b610274565b005b3480156100c257600080fd5b506100cb610297565b6040516100d891906118c8565b60405180910390f35b3480156100ed57600080fd5b506100f661029d565b604051610103919061181f565b60405180910390f35b34801561011857600080fd5b5061012161032b565b60405161012e919061181f565b60405180910390f35b6101756040518060400160405280600381526020017f55524c00000000000000000000000000000000000000000000000000000000008152506103bd565b6006819055506006544710156101c0576040517f08c379a00000000000000000000000000000000000000000000000000000000081526004016101b7906118a8565b60405180910390fd5b6102176040518060400160405280600381526020017f55524c00000000000000000000000000000000000000000000000000000000008152506040518060a0016040528060678152602001611c0c606791396106de565b50565b610222610aed565b73ffffffffffffffffffffffffffffffffffffffff163373ffffffffffffffffffffffffffffffffffffffff161461025957600080fd5b806005908051906020019061026f92919061138e565b505050565b6000801b600360008060001b815260200190815260200160002081905550505050565b60065481565b600580546102aa90611af6565b80601f01602080910402602001604051908101604052809291908181526020018280546102d690611af6565b80156103235780601f106102f857610100808354040283529160200191610323565b820191906000526020600020905b81548152906001019060200180831161030657829003601f168201915b505050505081565b60606005805461033a90611af6565b80601f016020809104026020016040519081016040528092919081815260200182805461036690611af6565b80156103b35780601f10610388576101008083540402835291602001916103b3565b820191906000526020600020905b81548152906001019060200180831161039657829003601f168201915b5050505050905090565b60008073ffffffffffffffffffffffffffffffffffffffff16600160009054906101000a900473ffffffffffffffffffffffffffffffffffffffff1673ffffffffffffffffffffffffffffffffffffffff16148061044557506000610443600160009054906101000a900473ffffffffffffffffffffffffffffffffffffffff16610e01565b145b15610456576104546000610e0c565b505b600160009054906101000a900473ffffffffffffffffffffffffffffffffffffffff1673ffffffffffffffffffffffffffffffffffffffff166338cc48316040518163ffffffff1660e01b8152600401602060405180830381600087803b1580156104c057600080fd5b505af11580156104d4573d6000803e3d6000fd5b505050506040513d601f19601f820116820180604052508101906104f891906115db565b73ffffffffffffffffffffffffffffffffffffffff1660008054906101000a900473ffffffffffffffffffffffffffffffffffffffff1673ffffffffffffffffffffffffffffffffffffffff161461062c57600160009054906101000a900473ffffffffffffffffffffffffffffffffffffffff1673ffffffffffffffffffffffffffffffffffffffff166338cc48316040518163ffffffff1660e01b8152600401602060405180830381600087803b1580156105b457600080fd5b505af11580156105c8573d6000803e3d6000fd5b505050506040513d601f19601f820116820180604052508101906105ec91906115db565b6000806101000a81548173ffffffffffffffffffffffffffffffffffffffff021916908373ffffffffffffffffffffffffffffffffffffffff1602179055505b60008054906101000a900473ffffffffffffffffffffffffffffffffffffffff1673ffffffffffffffffffffffffffffffffffffffff1663524f3889836040518263ffffffff1660e01b81526004016106859190611886565b602060405180830381600087803b15801561069f57600080fd5b505af11580156106b3573d6000803e3d6000fd5b505050506040513d601f19601f820116820180604052508101906106d79190611700565b9050919050565b60008073ffffffffffffffffffffffffffffffffffffffff16600160009054906101000a900473ffffffffffffffffffffffffffffffffffffffff1673ffffffffffffffffffffffffffffffffffffffff16148061076657506000610764600160009054906101000a900473ffffffffffffffffffffffffffffffffffffffff16610e01565b145b15610777576107756000610e0c565b505b600160009054906101000a900473ffffffffffffffffffffffffffffffffffffffff1673ffffffffffffffffffffffffffffffffffffffff166338cc48316040518163ffffffff1660e01b8152600401602060405180830381600087803b1580156107e157600080fd5b505af11580156107f5573d6000803e3d6000fd5b505050506040513d601f19601f8201168201806040525081019061081991906115db565b73ffffffffffffffffffffffffffffffffffffffff1660008054906101000a900473ffffffffffffffffffffffffffffffffffffffff1673ffffffffffffffffffffffffffffffffffffffff161461094d57600160009054906101000a900473ffffffffffffffffffffffffffffffffffffffff1673ffffffffffffffffffffffffffffffffffffffff166338cc48316040518163ffffffff1660e01b8152600401602060405180830381600087803b1580156108d557600080fd5b505af11580156108e9573d6000803e3d6000fd5b505050506040513d601f19601f8201168201806040525081019061090d91906115db565b6000806101000a81548173ffffffffffffffffffffffffffffffffffffffff021916908373ffffffffffffffffffffffffffffffffffffffff1602179055505b60008060009054906101000a900473ffffffffffffffffffffffffffffffffffffffff1673ffffffffffffffffffffffffffffffffffffffff1663524f3889856040518263ffffffff1660e01b81526004016109a99190611886565b602060405180830381600087803b1580156109c357600080fd5b505af11580156109d7573d6000803e3d6000fd5b505050506040513d601f19601f820116820180604052508101906109fb9190611700565b905062030d403a610a0c9190611a02565b670de0b6b3a7640000610a1f91906119ac565b811115610a32576000801b915050610ae7565b60008054906101000a900473ffffffffffffffffffffffffffffffffffffffff1673ffffffffffffffffffffffffffffffffffffffff1663adf59f9982600087876040518563ffffffff1660e01b8152600401610a9193929190611841565b6020604051808303818588803b158015610aaa57600080fd5b505af1158015610abe573d6000803e3d6000fd5b50505050506040513d601f19601f82011682018060405250810190610ae39190611604565b9150505b92915050565b60008073ffffffffffffffffffffffffffffffffffffffff16600160009054906101000a900473ffffffffffffffffffffffffffffffffffffffff1673ffffffffffffffffffffffffffffffffffffffff161480610b7557506000610b73600160009054906101000a900473ffffffffffffffffffffffffffffffffffffffff16610e01565b145b15610b8657610b846000610e0c565b505b600160009054906101000a900473ffffffffffffffffffffffffffffffffffffffff1673ffffffffffffffffffffffffffffffffffffffff166338cc48316040518163ffffffff1660e01b8152600401602060405180830381600087803b158015610bf057600080fd5b505af1158015610c04573d6000803e3d6000fd5b505050506040513d601f19601f82011682018060405250810190610c2891906115db565b73ffffffffffffffffffffffffffffffffffffffff1660008054906101000a900473ffffffffffffffffffffffffffffffffffffffff1673ffffffffffffffffffffffffffffffffffffffff1614610d5c57600160009054906101000a900473ffffffffffffffffffffffffffffffffffffffff1673ffffffffffffffffffffffffffffffffffffffff166338cc48316040518163ffffffff1660e01b8152600401602060405180830381600087803b158015610ce457600080fd5b505af1158015610cf8573d6000803e3d6000fd5b505050506040513d601f19601f82011682018060405250810190610d1c91906115db565b6000806101000a81548173ffffffffffffffffffffffffffffffffffffffff021916908373ffffffffffffffffffffffffffffffffffffffff1602179055505b60008054906101000a900473ffffffffffffffffffffffffffffffffffffffff1673ffffffffffffffffffffffffffffffffffffffff1663c281d19e6040518163ffffffff1660e01b8152600401602060405180830381600087803b158015610dc457600080fd5b505af1158015610dd8573d6000803e3d6000fd5b505050506040513d601f19601f82011682018060405250810190610dfc91906115db565b905090565b6000813b9050919050565b6000610e16610e1d565b9050919050565b600080610e3d731d3b2638a7cc9f2cb3d298a3da7a90b67e5506ed610e01565b1115610edf57731d3b2638a7cc9f2cb3d298a3da7a90b67e5506ed600160006101000a81548173ffffffffffffffffffffffffffffffffffffffff021916908373ffffffffffffffffffffffffffffffffffffffff160217905550610ed66040518060400160405280600b81526020017f6574685f6d61696e6e6574000000000000000000000000000000000000000000815250611374565b60019050611371565b6000610efe73c03a2615d5efaf5f49f60b7bb6583eaec212fdf1610e01565b1115610fa05773c03a2615d5efaf5f49f60b7bb6583eaec212fdf1600160006101000a81548173ffffffffffffffffffffffffffffffffffffffff021916908373ffffffffffffffffffffffffffffffffffffffff160217905550610f976040518060400160405280600c81526020017f6574685f726f707374656e330000000000000000000000000000000000000000815250611374565b60019050611371565b6000610fbf73b7a07bcf2ba2f2703b24c0691b5278999c59ac7e610e01565b11156110615773b7a07bcf2ba2f2703b24c0691b5278999c59ac7e600160006101000a81548173ffffffffffffffffffffffffffffffffffffffff021916908373ffffffffffffffffffffffffffffffffffffffff1602179055506110586040518060400160405280600981526020017f6574685f6b6f76616e0000000000000000000000000000000000000000000000815250611374565b60019050611371565b600061108073146500cfd35b22e4a392fe0adc06de1a1368ed48610e01565b11156111225773146500cfd35b22e4a392fe0adc06de1a1368ed48600160006101000a81548173ffffffffffffffffffffffffffffffffffffffff021916908373ffffffffffffffffffffffffffffffffffffffff1602179055506111196040518060400160405280600b81526020017f6574685f72696e6b656279000000000000000000000000000000000000000000815250611374565b60019050611371565b600061114173a2998efd205fb9d4b4963afb70778d6354ad3a41610e01565b11156111e35773a2998efd205fb9d4b4963afb70778d6354ad3a41600160006101000a81548173ffffffffffffffffffffffffffffffffffffffff021916908373ffffffffffffffffffffffffffffffffffffffff1602179055506111da6040518060400160405280600a81526020017f6574685f676f65726c6900000000000000000000000000000000000000000000815250611374565b60019050611371565b6000611202736f485c8bf6fc43ea212e93bbf8ce046c7f1cb475610e01565b111561126657736f485c8bf6fc43ea212e93bbf8ce046c7f1cb475600160006101000a81548173ffffffffffffffffffffffffffffffffffffffff021916908373ffffffffffffffffffffffffffffffffffffffff16021790555060019050611371565b60006112857320e12a1f859b3feae5fb2a0a32c18f5a65555bbf610e01565b11156112e9577320e12a1f859b3feae5fb2a0a32c18f5a65555bbf600160006101000a81548173ffffffffffffffffffffffffffffffffffffffff021916908373ffffffffffffffffffffffffffffffffffffffff16021790555060019050611371565b60006113087351efaf4c8b3c9afbd5ab9f4bbc82784ab6ef8faa610e01565b111561136c577351efaf4c8b3c9afbd5ab9f4bbc82784ab6ef8faa600160006101000a81548173ffffffffffffffffffffffffffffffffffffffff021916908373ffffffffffffffffffffffffffffffffffffffff16021790555060019050611371565b600090505b90565b806002908051906020019061138a929190611414565b5050565b82805461139a90611af6565b90600052602060002090601f0160209004810192826113bc5760008555611403565b82601f106113d557805160ff1916838001178555611403565b82800160010185558215611403579182015b828111156114025782518255916020019190600101906113e7565b5b509050611410919061149a565b5090565b82805461142090611af6565b90600052602060002090601f0160209004810192826114425760008555611489565b82601f1061145b57805160ff1916838001178555611489565b82800160010185558215611489579182015b8281111561148857825182559160200191906001019061146d565b5b509050611496919061149a565b5090565b5b808211156114b357600081600090555060010161149b565b5090565b60006114ca6114c584611914565b6118e3565b9050828152602081018484840111156114e257600080fd5b6114ed848285611ab4565b509392505050565b600061150861150384611944565b6118e3565b90508281526020810184848401111561152057600080fd5b61152b848285611ab4565b509392505050565b60008151905061154281611bc6565b92915050565b60008135905061155781611bdd565b92915050565b60008151905061156c81611bdd565b92915050565b600082601f83011261158357600080fd5b81356115938482602086016114b7565b91505092915050565b600082601f8301126115ad57600080fd5b81356115bd8482602086016114f5565b91505092915050565b6000815190506115d581611bf4565b92915050565b6000602082840312156115ed57600080fd5b60006115fb84828501611533565b91505092915050565b60006020828403121561161657600080fd5b60006116248482850161155d565b91505092915050565b6000806040838503121561164057600080fd5b600061164e85828601611548565b925050602083013567ffffffffffffffff81111561166b57600080fd5b6116778582860161159c565b9150509250929050565b60008060006060848603121561169657600080fd5b60006116a486828701611548565b935050602084013567ffffffffffffffff8111156116c157600080fd5b6116cd8682870161159c565b925050604084013567ffffffffffffffff8111156116ea57600080fd5b6116f686828701611572565b9150509250925092565b60006020828403121561171257600080fd5b6000611720848285016115c6565b91505092915050565b600061173482611974565b61173e818561198a565b935061174e818560208601611ac3565b61175781611bb5565b840191505092915050565b61176b81611aa2565b82525050565b600061177c8261197f565b611786818561199b565b9350611796818560208601611ac3565b61179f81611bb5565b840191505092915050565b60006117b7602e8361199b565b91507f706c656173652061646420736f6d652045544820746f20636f76657220666f7260008301527f20746865207175657279206665650000000000000000000000000000000000006020830152604082019050919050565b61181981611a98565b82525050565b600060208201905081810360008301526118398184611729565b905092915050565b60006060820190506118566000830186611762565b81810360208301526118688185611771565b9050818103604083015261187c8184611771565b9050949350505050565b600060208201905081810360008301526118a08184611771565b905092915050565b600060208201905081810360008301526118c1816117aa565b9050919050565b60006020820190506118dd6000830184611810565b92915050565b6000604051905081810181811067ffffffffffffffff8211171561190a57611909611b86565b5b8060405250919050565b600067ffffffffffffffff82111561192f5761192e611b86565b5b601f19601f8301169050602081019050919050565b600067ffffffffffffffff82111561195f5761195e611b86565b5b601f19601f8301169050602081019050919050565b600081519050919050565b600081519050919050565b600082825260208201905092915050565b600082825260208201905092915050565b60006119b782611a98565b91506119c283611a98565b9250827fffffffffffffffffffffffffffffffffffffffffffffffffffffffffffffffff038211156119f7576119f6611b28565b5b828201905092915050565b6000611a0d82611a98565b9150611a1883611a98565b9250817fffffffffffffffffffffffffffffffffffffffffffffffffffffffffffffffff0483118215151615611a5157611a50611b28565b5b828202905092915050565b6000611a6782611a78565b9050919050565b6000819050919050565b600073ffffffffffffffffffffffffffffffffffffffff82169050919050565b6000819050919050565b6000611aad82611a98565b9050919050565b82818337600083830152505050565b60005b83811015611ae1578082015181840152602081019050611ac6565b83811115611af0576000848401525b50505050565b60006002820490506001821680611b0e57607f821691505b60208210811415611b2257611b21611b57565b5b50919050565b7f4e487b7100000000000000000000000000000000000000000000000000000000600052601160045260246000fd5b7f4e487b7100000000000000000000000000000000000000000000000000000000600052602260045260246000fd5b7f4e487b7100000000000000000000000000000000000000000000000000000000600052604160045260246000fd5b6000601f19601f8301169050919050565b611bcf81611a5c565b8114611bda57600080fd5b50565b611be681611a6e565b8114611bf157600080fd5b50565b611bfd81611a98565b8114611c0857600080fd5b5056fe6a736f6e28687474703a2f2f776565726c6976652e6e6c2f6170692f6a736f6e2d646174612d31306d696e2e7068703f6b65793d30313436346364363235266c6f63617469653d48656c6c65766f6574736c756973292e6c697665776565725b305d2e74656d70a26469706673582212204b744da61605831b2e77a47b5b1b77db65d9c55d8a85a79005146f5845cdec1964736f6c63430008000033",
  "immutableReferences": {},
  "source": "// SPDX-License-Identifier: MIT\r\npragma solidity ^0.8.0;\r\npragma abicoder v2; // To fix a type-error we need to enable this.\r\n\r\nimport \"./HeroFactory.sol\";\r\nimport \"./DragonFactory.sol\";\r\nimport \"./Dragon.sol\";\r\nimport \"./Hero.sol\";\r\nimport \"./OrmrOracle.sol\";\r\nimport './Initializable.sol';\r\n\r\n// This Contract is supposed to become a game where our hero is fighting dragons.\r\ncontract Ormr is Initializable {\r\n    //Events. PD-3 Events.\r\n    event encounterResult(string); // Emit the result of a battle.\r\n\r\n    // Variables\r\n    HeroFactory HF;\r\n    DragonFactory DF;\r\n    OrmrOracle OO;\r\n\r\n    // Called once at deployment of the contract.\r\n    constructor() {\r\n        HF = new HeroFactory();\r\n        DF = new DragonFactory();\r\n        OO = new OrmrOracle();\r\n    }\r\n\r\n    // Hero logic\r\n    function createHero(string memory _name) public {\r\n        HF.createHero(_name, msg.sender);\r\n    }\r\n\r\n    function getHero() public view returns (Hero memory) {\r\n        return HF.getHero(msg.sender);\r\n    }\r\n\r\n    function getHeroes() public view returns (Hero[] memory) {\r\n        return HF.getHeroes();\r\n    }\r\n\r\n    //Dragon logic\r\n    function createDragon() public {\r\n        DF.createDragon();\r\n    }\r\n\r\n    function getDragon() public view returns (Dragon memory) {\r\n        return DF.getDragon();\r\n    }\r\n\r\n    // This is the function our user sees when starting a battle.\r\n    function startEncounter() public {\r\n        // Create checks to check whether a hero and dragon are available.\r\n        _encounter(HF.getHero(msg.sender), DF.getDragon()); // Increase gas limit in remix.\r\n    }\r\n\r\n    // Lock in our Hero and the Dragon. Emits the result of the encounter.\r\n    function _encounter(Hero memory _hero, Dragon memory _dragon) internal {\r\n        // Check if there are both a hero and a dragon. Require keyword and ternary operator. PD-3 Error Handling.\r\n        require(\r\n            keccak256(abi.encodePacked(_hero.name)) !=\r\n                keccak256(abi.encodePacked(\"\")),\r\n            \"Hero not found\"\r\n        );\r\n        require(\r\n            keccak256(abi.encodePacked(_dragon.name)) !=\r\n                keccak256(abi.encodePacked(\"\")),\r\n            \"Dragon not found\"\r\n        );\r\n\r\n        // Fight!\r\n        emit encounterResult(_battle(_hero.power, _dragon.power)); // Emit our event containing result of battle..\r\n    }\r\n\r\n    // Determine who wins the fight.\r\n    function _battle(uint256 heroPower, uint256 dragonPower)\r\n        private\r\n        pure\r\n        returns (string memory)\r\n    {\r\n        if (heroPower > dragonPower) {\r\n            return \"The dragon has been slain!\";\r\n        } else if (heroPower < dragonPower) {\r\n            return \"The hero has been defeated! The dragon was too strong!\";\r\n        } else {\r\n            return\r\n                \"The hero and dragon are equal in strength, there is no victor!\";\r\n        }\r\n    }\r\n\r\n    // Let's do something with our Oracle here.\r\n\r\n    // Web3examples convert to uint https://github.com/web3examples/ethereum/blob/master/solidity_examples/bytes2uint.sol\r\n    // Because we need a uint for our hero and dragon creation and our Oracle returns bytes, let's convert it here.\r\n    function convertToUint(bytes memory input) public pure returns (uint256) {\r\n        uint256 res = 0;\r\n        for (uint256 i = 0; i < input.length; i++)\r\n            res = (res << 8) + uint256(uint8(input[i]));\r\n        return res;\r\n    }\r\n\r\n    // Check oracle output\r\n    function callOracleRandom() public payable {\r\n        OO.requestTemp{value: msg.value}();\r\n    }\r\n\r\n    function getTempUint() public view returns (uint256) {\r\n        bytes memory res = OO.getTemp();\r\n        return convertToUint(res);\r\n    }\r\n\r\n    function getTemp() public view returns (bytes memory) {\r\n        return OO.getTemp();\r\n    }\r\n}\r\n",
  "sourcePath": "D:/HHS/Jaar 4 Minor/IT Deel Minor/Assignments/PD-8/contracts/Ormr.sol",
  "compiler": {
    "name": "solc",
    "version": "0.8.0+commit.c7dfd78e.Emscripten.clang"
  },
  "schemaVersion": "3.3.2",
  "updatedAt": "2020-12-22T15:44:52.942Z",
  "networkType": "ethereum",
  "devdoc": {
    "kind": "dev",
    "methods": {},
    "version": 1
  },
  "userdoc": {
    "kind": "user",
    "methods": {},
    "version": 1
  }
}