{
  "contractName": "Ormr",
  "abi": [
    {
      "anonymous": false,
      "inputs": [
        {
          "indexed": false,
          "internalType": "string",
          "name": "",
          "type": "string"
        }
      ],
      "name": "encounterResult",
      "type": "event"
    },
    {
      "inputs": [],
      "name": "owner",
      "outputs": [
        {
          "internalType": "address",
          "name": "",
          "type": "address"
        }
      ],
      "stateMutability": "view",
      "type": "function"
    },
    {
      "inputs": [],
      "name": "initialize",
      "outputs": [],
      "stateMutability": "nonpayable",
      "type": "function"
    },
    {
      "inputs": [],
      "name": "ownerSays",
      "outputs": [
        {
          "internalType": "string",
          "name": "messageFromOwner",
          "type": "string"
        }
      ],
      "stateMutability": "view",
      "type": "function"
    },
    {
      "inputs": [],
      "name": "destroy",
      "outputs": [],
      "stateMutability": "nonpayable",
      "type": "function"
    },
    {
      "inputs": [
        {
          "internalType": "string",
          "name": "_name",
          "type": "string"
        }
      ],
      "name": "createHero",
      "outputs": [],
      "stateMutability": "nonpayable",
      "type": "function"
    },
    {
      "inputs": [],
      "name": "getHero",
      "outputs": [
        {
          "components": [
            {
              "internalType": "string",
              "name": "name",
              "type": "string"
            },
            {
              "internalType": "uint256",
              "name": "power",
              "type": "uint256"
            },
            {
              "internalType": "uint256",
              "name": "health",
              "type": "uint256"
            },
            {
              "internalType": "uint256",
              "name": "bank",
              "type": "uint256"
            }
          ],
          "internalType": "struct Hero",
          "name": "",
          "type": "tuple"
        }
      ],
      "stateMutability": "view",
      "type": "function"
    },
    {
      "inputs": [],
      "name": "getHeroes",
      "outputs": [
        {
          "components": [
            {
              "internalType": "string",
              "name": "name",
              "type": "string"
            },
            {
              "internalType": "uint256",
              "name": "power",
              "type": "uint256"
            },
            {
              "internalType": "uint256",
              "name": "health",
              "type": "uint256"
            },
            {
              "internalType": "uint256",
              "name": "bank",
              "type": "uint256"
            }
          ],
          "internalType": "struct Hero[]",
          "name": "",
          "type": "tuple[]"
        }
      ],
      "stateMutability": "view",
      "type": "function"
    },
    {
      "inputs": [],
      "name": "createDragon",
      "outputs": [],
      "stateMutability": "nonpayable",
      "type": "function"
    },
    {
      "inputs": [],
      "name": "getDragon",
      "outputs": [
        {
          "components": [
            {
              "internalType": "string",
              "name": "name",
              "type": "string"
            },
            {
              "internalType": "address",
              "name": "id",
              "type": "address"
            },
            {
              "internalType": "uint256",
              "name": "power",
              "type": "uint256"
            },
            {
              "internalType": "uint256",
              "name": "health",
              "type": "uint256"
            },
            {
              "internalType": "uint256",
              "name": "goldReward",
              "type": "uint256"
            }
          ],
          "internalType": "struct Dragon",
          "name": "",
          "type": "tuple"
        }
      ],
      "stateMutability": "view",
      "type": "function"
    },
    {
      "inputs": [],
      "name": "startEncounter",
      "outputs": [],
      "stateMutability": "nonpayable",
      "type": "function"
    },
    {
      "inputs": [
        {
          "internalType": "bytes",
          "name": "input",
          "type": "bytes"
        }
      ],
      "name": "convertToUint",
      "outputs": [
        {
          "internalType": "uint256",
          "name": "",
          "type": "uint256"
        }
      ],
      "stateMutability": "pure",
      "type": "function"
    },
    {
      "inputs": [],
      "name": "callOracleRandom",
      "outputs": [],
      "stateMutability": "payable",
      "type": "function"
    },
    {
      "inputs": [],
      "name": "getTempUint",
      "outputs": [
        {
          "internalType": "uint256",
          "name": "",
          "type": "uint256"
        }
      ],
      "stateMutability": "view",
      "type": "function"
    },
    {
      "inputs": [],
      "name": "getTemp",
      "outputs": [
        {
          "internalType": "bytes",
          "name": "",
          "type": "bytes"
        }
      ],
      "stateMutability": "view",
      "type": "function"
    }
  ],
  "bytecode": "0x608060405233603660006101000a81548173ffffffffffffffffffffffffffffffffffffffff021916908373ffffffffffffffffffffffffffffffffffffffff16021790555034801561005157600080fd5b50615efa806100616000396000f3fe6080604052600436106100dd5760003560e01c806383197ef01161007f5780639a8d2882116100595780639a8d2882146102575780639e01b85314610282578063b118524414610299578063b7ed99d6146102c4576100dd565b806383197ef0146101ea5780638da5cb5b14610201578063952525601461022c576100dd565b80636919b8f2116100bb5780636919b8f2146101755780636a944435146101a057806378242aaf146101aa5780638129fc1c146101d3576100dd565b806307b8163c146100e2578063581bee2f1461010d5780636865856c14610138575b600080fd5b3480156100ee57600080fd5b506100f76102db565b6040516101049190611b0f565b60405180910390f35b34801561011957600080fd5b50610122610394565b60405161012f9190611aed565b60405180910390f35b34801561014457600080fd5b5061015f600480360381019061015a919061140c565b610451565b60405161016c9190611b0f565b60405180910390f35b34801561018157600080fd5b5061018a6104dc565b60405161019791906119f9565b60405180910390f35b6101a861058c565b005b3480156101b657600080fd5b506101d160048036038101906101cc919061148e565b610611565b005b3480156101df57600080fd5b506101e86106a3565b005b3480156101f657600080fd5b506101ff6108c6565b005b34801561020d57600080fd5b50610216610991565b604051610223919061199a565b60405180910390f35b34801561023857600080fd5b506102416109b7565b60405161024e91906119d7565b60405180910390f35b34801561026357600080fd5b5061026c610a63565b60405161027991906119b5565b60405180910390f35b34801561028e57600080fd5b50610297610b0f565b005b3480156102a557600080fd5b506102ae610c6e565b6040516102bb9190611acb565b60405180910390f35b3480156102d057600080fd5b506102d9610d20565b005b600080603560009054906101000a900473ffffffffffffffffffffffffffffffffffffffff1673ffffffffffffffffffffffffffffffffffffffff1663952525606040518163ffffffff1660e01b815260040160006040518083038186803b15801561034657600080fd5b505afa15801561035a573d6000803e3d6000fd5b505050506040513d6000823e3d601f19601f82011682018060405250810190610383919061144d565b905061038e81610451565b91505090565b61039c610fba565b603360009054906101000a900473ffffffffffffffffffffffffffffffffffffffff1673ffffffffffffffffffffffffffffffffffffffff166327df259a336040518263ffffffff1660e01b81526004016103f7919061199a565b60006040518083038186803b15801561040f57600080fd5b505afa158015610423573d6000803e3d6000fd5b505050506040513d6000823e3d601f19601f8201168201806040525081019061044c9190611510565b905090565b6000806000905060005b83518110156104d25783818151811061049d577f4e487b7100000000000000000000000000000000000000000000000000000000600052603260045260246000fd5b602001015160f81c60f81b60f81c60ff16600883901b6104bd9190611c74565b915080806104ca90611d48565b91505061045b565b5080915050919050565b6060603660009054906101000a900473ffffffffffffffffffffffffffffffffffffffff1673ffffffffffffffffffffffffffffffffffffffff163373ffffffffffffffffffffffffffffffffffffffff161461056e576040517f08c379a000000000000000000000000000000000000000000000000000000000815260040161056590611aab565b60405180910390fd5b604051806060016040528060318152602001615e9460319139905090565b603560009054906101000a900473ffffffffffffffffffffffffffffffffffffffff1673ffffffffffffffffffffffffffffffffffffffff166313fdba3c346040518263ffffffff1660e01b81526004016000604051808303818588803b1580156105f657600080fd5b505af115801561060a573d6000803e3d6000fd5b5050505050565b603360009054906101000a900473ffffffffffffffffffffffffffffffffffffffff1673ffffffffffffffffffffffffffffffffffffffff1663deb786c482336040518363ffffffff1660e01b815260040161066e929190611a1b565b600060405180830381600087803b15801561068857600080fd5b505af115801561069c573d6000803e3d6000fd5b5050505050565b600060019054906101000a900460ff16806106c257506106c1610da4565b5b806106d8575060008054906101000a900460ff16155b610717576040517f08c379a000000000000000000000000000000000000000000000000000000000815260040161070e90611a4b565b60405180910390fd5b60008060019054906101000a900460ff161590508015610767576001600060016101000a81548160ff02191690831515021790555060016000806101000a81548160ff0219169083151502179055505b60405161077390610fe2565b604051809103906000f08015801561078f573d6000803e3d6000fd5b50603360006101000a81548173ffffffffffffffffffffffffffffffffffffffff021916908373ffffffffffffffffffffffffffffffffffffffff1602179055506040516107dc90610fef565b604051809103906000f0801580156107f8573d6000803e3d6000fd5b50603460006101000a81548173ffffffffffffffffffffffffffffffffffffffff021916908373ffffffffffffffffffffffffffffffffffffffff16021790555060405161084590610ffc565b604051809103906000f080158015610861573d6000803e3d6000fd5b50603560006101000a81548173ffffffffffffffffffffffffffffffffffffffff021916908373ffffffffffffffffffffffffffffffffffffffff16021790555080156108c35760008060016101000a81548160ff0219169083151502179055505b50565b603660009054906101000a900473ffffffffffffffffffffffffffffffffffffffff1673ffffffffffffffffffffffffffffffffffffffff163373ffffffffffffffffffffffffffffffffffffffff1614610956576040517f08c379a000000000000000000000000000000000000000000000000000000000815260040161094d90611aab565b60405180910390fd5b603660009054906101000a900473ffffffffffffffffffffffffffffffffffffffff1673ffffffffffffffffffffffffffffffffffffffff16ff5b603660009054906101000a900473ffffffffffffffffffffffffffffffffffffffff1681565b6060603560009054906101000a900473ffffffffffffffffffffffffffffffffffffffff1673ffffffffffffffffffffffffffffffffffffffff1663952525606040518163ffffffff1660e01b815260040160006040518083038186803b158015610a2157600080fd5b505afa158015610a35573d6000803e3d6000fd5b505050506040513d6000823e3d601f19601f82011682018060405250810190610a5e919061144d565b905090565b6060603360009054906101000a900473ffffffffffffffffffffffffffffffffffffffff1673ffffffffffffffffffffffffffffffffffffffff16639a8d28826040518163ffffffff1660e01b815260040160006040518083038186803b158015610acd57600080fd5b505afa158015610ae1573d6000803e3d6000fd5b505050506040513d6000823e3d601f19601f82011682018060405250810190610b0a91906113cb565b905090565b610c6c603360009054906101000a900473ffffffffffffffffffffffffffffffffffffffff1673ffffffffffffffffffffffffffffffffffffffff166327df259a336040518263ffffffff1660e01b8152600401610b6d919061199a565b60006040518083038186803b158015610b8557600080fd5b505afa158015610b99573d6000803e3d6000fd5b505050506040513d6000823e3d601f19601f82011682018060405250810190610bc29190611510565b603460009054906101000a900473ffffffffffffffffffffffffffffffffffffffff1673ffffffffffffffffffffffffffffffffffffffff1663b11852446040518163ffffffff1660e01b815260040160006040518083038186803b158015610c2a57600080fd5b505afa158015610c3e573d6000803e3d6000fd5b505050506040513d6000823e3d601f19601f82011682018060405250810190610c6791906114cf565b610dbb565b565b610c76611009565b603460009054906101000a900473ffffffffffffffffffffffffffffffffffffffff1673ffffffffffffffffffffffffffffffffffffffff1663b11852446040518163ffffffff1660e01b815260040160006040518083038186803b158015610cde57600080fd5b505afa158015610cf2573d6000803e3d6000fd5b505050506040513d6000823e3d601f19601f82011682018060405250810190610d1b91906114cf565b905090565b603460009054906101000a900473ffffffffffffffffffffffffffffffffffffffff1673ffffffffffffffffffffffffffffffffffffffff1663b7ed99d66040518163ffffffff1660e01b8152600401600060405180830381600087803b158015610d8a57600080fd5b505af1158015610d9e573d6000803e3d6000fd5b50505050565b6000803090506000813b9050600081149250505090565b604051602001610dca90611985565b604051602081830303815290604052805190602001208260000151604051602001610df5919061196e565b604051602081830303815290604052805190602001201415610e4c576040517f08c379a0000000000000000000000000000000000000000000000000000000008152600401610e4390611a8b565b60405180910390fd5b604051602001610e5b90611985565b604051602081830303815290604052805190602001208160000151604051602001610e86919061196e565b604051602081830303815290604052805190602001201415610edd576040517f08c379a0000000000000000000000000000000000000000000000000000000008152600401610ed490611a6b565b60405180910390fd5b7fdd4beaba995f8a41cdd2f0af8918a02603e1b887060a362f32b17b80b1af367a610f1083602001518360400151610f29565b604051610f1d91906119f9565b60405180910390a15050565b606081831115610f70576040518060400160405280601a81526020017f54686520647261676f6e20686173206265656e20736c61696e210000000000008152509050610fb4565b81831015610f9857604051806060016040528060368152602001615e20603691399050610fb4565b6040518060600160405280603e8152602001615e56603e913990505b92915050565b6040518060800160405280606081526020016000815260200160008152602001600081525090565b61112280611e2f83390190565b61105880612f5183390190565b611e7780613fa983390190565b6040518060a0016040528060608152602001600073ffffffffffffffffffffffffffffffffffffffff1681526020016000815260200160008152602001600081525090565b600061106161105c84611b5b565b611b2a565b9050808382526020820190508260005b858110156110a15781518501611087888261132a565b845260208401935060208301925050600181019050611071565b5050509392505050565b60006110be6110b984611b87565b611b2a565b9050828152602081018484840111156110d657600080fd5b6110e1848285611d06565b509392505050565b60006110fc6110f784611b87565b611b2a565b90508281526020810184848401111561111457600080fd5b61111f848285611d15565b509392505050565b600061113a61113584611bb7565b611b2a565b90508281526020810184848401111561115257600080fd5b61115d848285611d06565b509392505050565b600061117861117384611bb7565b611b2a565b90508281526020810184848401111561119057600080fd5b61119b848285611d15565b509392505050565b6000815190506111b281611e00565b92915050565b600082601f8301126111c957600080fd5b81516111d984826020860161104e565b91505092915050565b600082601f8301126111f357600080fd5b81356112038482602086016110ab565b91505092915050565b600082601f83011261121d57600080fd5b815161122d8482602086016110e9565b91505092915050565b600082601f83011261124757600080fd5b8135611257848260208601611127565b91505092915050565b600082601f83011261127157600080fd5b8151611281848260208601611165565b91505092915050565b600060a0828403121561129c57600080fd5b6112a660a0611b2a565b9050600082015167ffffffffffffffff8111156112c257600080fd5b6112ce84828501611260565b60008301525060206112e2848285016111a3565b60208301525060406112f6848285016113b6565b604083015250606061130a848285016113b6565b606083015250608061131e848285016113b6565b60808301525092915050565b60006080828403121561133c57600080fd5b6113466080611b2a565b9050600082015167ffffffffffffffff81111561136257600080fd5b61136e84828501611260565b6000830152506020611382848285016113b6565b6020830152506040611396848285016113b6565b60408301525060606113aa848285016113b6565b60608301525092915050565b6000815190506113c581611e17565b92915050565b6000602082840312156113dd57600080fd5b600082015167ffffffffffffffff8111156113f757600080fd5b611403848285016111b8565b91505092915050565b60006020828403121561141e57600080fd5b600082013567ffffffffffffffff81111561143857600080fd5b611444848285016111e2565b91505092915050565b60006020828403121561145f57600080fd5b600082015167ffffffffffffffff81111561147957600080fd5b6114858482850161120c565b91505092915050565b6000602082840312156114a057600080fd5b600082013567ffffffffffffffff8111156114ba57600080fd5b6114c684828501611236565b91505092915050565b6000602082840312156114e157600080fd5b600082015167ffffffffffffffff8111156114fb57600080fd5b6115078482850161128a565b91505092915050565b60006020828403121561152257600080fd5b600082015167ffffffffffffffff81111561153c57600080fd5b6115488482850161132a565b91505092915050565b600061155d838361188a565b905092915050565b61156e81611cca565b82525050565b61157d81611cca565b82525050565b600061158e82611bf7565b6115988185611c25565b9350836020820285016115aa85611be7565b8060005b858110156115e657848403895281516115c78582611551565b94506115d283611c18565b925060208a019950506001810190506115ae565b50829750879550505050505092915050565b600061160382611c02565b61160d8185611c36565b935061161d818560208601611d15565b61162681611def565b840191505092915050565b600061163c82611c0d565b6116468185611c47565b9350611656818560208601611d15565b61165f81611def565b840191505092915050565b600061167582611c0d565b61167f8185611c58565b935061168f818560208601611d15565b61169881611def565b840191505092915050565b60006116ae82611c0d565b6116b88185611c69565b93506116c8818560208601611d15565b80840191505092915050565b60006116e1602e83611c58565b91507f436f6e747261637420696e7374616e63652068617320616c726561647920626560008301527f656e20696e697469616c697a65640000000000000000000000000000000000006020830152604082019050919050565b6000611747600083611c69565b9150600082019050919050565b6000611761601083611c58565b91507f447261676f6e206e6f7420666f756e64000000000000000000000000000000006000830152602082019050919050565b60006117a1600e83611c58565b91507f4865726f206e6f7420666f756e640000000000000000000000000000000000006000830152602082019050919050565b60006117e1601683611c58565b91507f53656e646572206e6f7420617574686f72697a65642e000000000000000000006000830152602082019050919050565b600060a08301600083015184820360008601526118318282611631565b91505060208301516118466020860182611565565b5060408301516118596040860182611950565b50606083015161186c6060860182611950565b50608083015161187f6080860182611950565b508091505092915050565b600060808301600083015184820360008601526118a78282611631565b91505060208301516118bc6020860182611950565b5060408301516118cf6040860182611950565b5060608301516118e26060860182611950565b508091505092915050565b6000608083016000830151848203600086015261190a8282611631565b915050602083015161191f6020860182611950565b5060408301516119326040860182611950565b5060608301516119456060860182611950565b508091505092915050565b61195981611cfc565b82525050565b61196881611cfc565b82525050565b600061197a82846116a3565b915081905092915050565b60006119908261173a565b9150819050919050565b60006020820190506119af6000830184611574565b92915050565b600060208201905081810360008301526119cf8184611583565b905092915050565b600060208201905081810360008301526119f181846115f8565b905092915050565b60006020820190508181036000830152611a13818461166a565b905092915050565b60006040820190508181036000830152611a35818561166a565b9050611a446020830184611574565b9392505050565b60006020820190508181036000830152611a64816116d4565b9050919050565b60006020820190508181036000830152611a8481611754565b9050919050565b60006020820190508181036000830152611aa481611794565b9050919050565b60006020820190508181036000830152611ac4816117d4565b9050919050565b60006020820190508181036000830152611ae58184611814565b905092915050565b60006020820190508181036000830152611b0781846118ed565b905092915050565b6000602082019050611b24600083018461195f565b92915050565b6000604051905081810181811067ffffffffffffffff82111715611b5157611b50611dc0565b5b8060405250919050565b600067ffffffffffffffff821115611b7657611b75611dc0565b5b602082029050602081019050919050565b600067ffffffffffffffff821115611ba257611ba1611dc0565b5b601f19601f8301169050602081019050919050565b600067ffffffffffffffff821115611bd257611bd1611dc0565b5b601f19601f8301169050602081019050919050565b6000819050602082019050919050565b600081519050919050565b600081519050919050565b600081519050919050565b6000602082019050919050565b600082825260208201905092915050565b600082825260208201905092915050565b600082825260208201905092915050565b600082825260208201905092915050565b600081905092915050565b6000611c7f82611cfc565b9150611c8a83611cfc565b9250827fffffffffffffffffffffffffffffffffffffffffffffffffffffffffffffffff03821115611cbf57611cbe611d91565b5b828201905092915050565b6000611cd582611cdc565b9050919050565b600073ffffffffffffffffffffffffffffffffffffffff82169050919050565b6000819050919050565b82818337600083830152505050565b60005b83811015611d33578082015181840152602081019050611d18565b83811115611d42576000848401525b50505050565b6000611d5382611cfc565b91507fffffffffffffffffffffffffffffffffffffffffffffffffffffffffffffffff821415611d8657611d85611d91565b5b600182019050919050565b7f4e487b7100000000000000000000000000000000000000000000000000000000600052601160045260246000fd5b7f4e487b7100000000000000000000000000000000000000000000000000000000600052604160045260246000fd5b6000601f19601f8301169050919050565b611e0981611cca565b8114611e1457600080fd5b50565b611e2081611cfc565b8114611e2b57600080fd5b5056fe6080604052620186a06036556298968060375534801561001e57600080fd5b506110f48061002e6000396000f3fe608060405234801561001057600080fd5b506004361061004c5760003560e01c806327df259a146100515780638129fc1c146100815780639a8d28821461008b578063deb786c4146100a9575b600080fd5b61006b600480360381019061006691906108e7565b6100c5565b6040516100789190610d16565b60405180910390f35b61008961025e565b005b610093610346565b6040516100a09190610c94565b60405180910390f35b6100c360048036038101906100be9190610910565b61049d565b005b6100cd61079f565b6000603c8054905011610115576040517f08c379a000000000000000000000000000000000000000000000000000000000815260040161010c90610cb6565b60405180910390fd5b603c603460008473ffffffffffffffffffffffffffffffffffffffff1673ffffffffffffffffffffffffffffffffffffffff168152602001908152602001600020548154811061018e577f4e487b7100000000000000000000000000000000000000000000000000000000600052603260045260246000fd5b90600052602060002090600402016040518060800160405290816000820180546101b790610ef3565b80601f01602080910402602001604051908101604052809291908181526020018280546101e390610ef3565b80156102305780601f1061020557610100808354040283529160200191610230565b820191906000526020600020905b81548152906001019060200180831161021357829003601f168201915b5050505050815260200160018201548152602001600282015481526020016003820154815250509050919050565b600060019054906101000a900460ff168061027d575061027c61052d565b5b80610293575060008054906101000a900460ff16155b6102d2576040517f08c379a00000000000000000000000000000000000000000000000000000000081526004016102c990610cd6565b60405180910390fd5b60008060019054906101000a900460ff161590508015610322576001600060016101000a81548160ff02191690831515021790555060016000806101000a81548160ff0219169083151502179055505b80156103435760008060016101000a81548160ff0219169083151502179055505b50565b60606000603c8054905011610390576040517f08c379a000000000000000000000000000000000000000000000000000000000815260040161038790610cb6565b60405180910390fd5b603c805480602002602001604051908101604052809291908181526020016000905b8282101561049457838290600052602060002090600402016040518060800160405290816000820180546103e590610ef3565b80601f016020809104026020016040519081016040528092919081815260200182805461041190610ef3565b801561045e5780601f106104335761010080835404028352916020019161045e565b820191906000526020600020905b81548152906001019060200180831161044157829003601f168201915b505050505081526020016001820154815260200160028201548152602001600382015481525050815260200190600101906103b2565b50505050905090565b6000603560008373ffffffffffffffffffffffffffffffffffffffff1673ffffffffffffffffffffffffffffffffffffffff168152602001908152602001600020541461051f576040517f08c379a000000000000000000000000000000000000000000000000000000000815260040161051690610cf6565b60405180910390fd5b6105298282610544565b5050565b6000803090506000813b9050600081149250505090565b603c604051806080016040528084815260200161055f61071b565b815260200161056c61075d565b81526020016000815250908060018154018082558091505060019003906000526020600020906004020160009091909190915060008201518160000190805190602001906105bb9291906107c7565b50602082015181600101556040820151816002015560608201518160030155505060006001603c805490506105f09190610e2f565b9050816033600083815260200190815260200160002060006101000a81548173ffffffffffffffffffffffffffffffffffffffff021916908373ffffffffffffffffffffffffffffffffffffffff16021790555080603460008473ffffffffffffffffffffffffffffffffffffffff1673ffffffffffffffffffffffffffffffffffffffff16815260200190815260200160002081905550603560008373ffffffffffffffffffffffffffffffffffffffff1673ffffffffffffffffffffffffffffffffffffffff16815260200190815260200160002060008154809291906106d890610f25565b91905055507fe091168a421f352d46fe9eafce51f4d2bce03324348c1d1d6f9bb1283d60bed6818460405161070e929190610d38565b60405180910390a1505050565b600060365442444160405160200161073593929190610c57565b6040516020818303038152906040528051906020012060001c6107589190610f9c565b905090565b600060375442444160405160200161077793929190610c57565b6040516020818303038152906040528051906020012060001c61079a9190610f9c565b905090565b6040518060800160405280606081526020016000815260200160008152602001600081525090565b8280546107d390610ef3565b90600052602060002090601f0160209004810192826107f5576000855561083c565b82601f1061080e57805160ff191683800117855561083c565b8280016001018555821561083c579182015b8281111561083b578251825591602001919060010190610820565b5b509050610849919061084d565b5090565b5b8082111561086657600081600090555060010161084e565b5090565b600061087d61087884610d99565b610d68565b90508281526020810184848401111561089557600080fd5b6108a0848285610eb1565b509392505050565b6000813590506108b7816110a7565b92915050565b600082601f8301126108ce57600080fd5b81356108de84826020860161086a565b91505092915050565b6000602082840312156108f957600080fd5b6000610907848285016108a8565b91505092915050565b6000806040838503121561092357600080fd5b600083013567ffffffffffffffff81111561093d57600080fd5b610949858286016108bd565b925050602061095a858286016108a8565b9150509250929050565b60006109708383610b5c565b905092915050565b61098961098482610e75565b610f6e565b82525050565b600061099a82610dd9565b6109a48185610dfc565b9350836020820285016109b685610dc9565b8060005b858110156109f257848403895281516109d38582610964565b94506109de83610def565b925060208a019950506001810190506109ba565b50829750879550505050505092915050565b6000610a0f82610de4565b610a198185610e0d565b9350610a29818560208601610ec0565b610a3281611089565b840191505092915050565b6000610a4882610de4565b610a528185610e1e565b9350610a62818560208601610ec0565b610a6b81611089565b840191505092915050565b6000610a83601f83610e1e565b91507f4e6f206865726f657320617661696c61626c6520666f72206c6f6f6b75702e006000830152602082019050919050565b6000610ac3602e83610e1e565b91507f436f6e747261637420696e7374616e63652068617320616c726561647920626560008301527f656e20696e697469616c697a65640000000000000000000000000000000000006020830152604082019050919050565b6000610b29601b83610e1e565b91507f596f7520616c726561647920637265617465642061206865726f2100000000006000830152602082019050919050565b60006080830160008301518482036000860152610b798282610a04565b9150506020830151610b8e6020860182610c22565b506040830151610ba16040860182610c22565b506060830151610bb46060860182610c22565b508091505092915050565b60006080830160008301518482036000860152610bdc8282610a04565b9150506020830151610bf16020860182610c22565b506040830151610c046040860182610c22565b506060830151610c176060860182610c22565b508091505092915050565b610c2b81610ea7565b82525050565b610c3a81610ea7565b82525050565b610c51610c4c82610ea7565b610f92565b82525050565b6000610c638286610c40565b602082019150610c738285610c40565b602082019150610c838284610978565b601482019150819050949350505050565b60006020820190508181036000830152610cae818461098f565b905092915050565b60006020820190508181036000830152610ccf81610a76565b9050919050565b60006020820190508181036000830152610cef81610ab6565b9050919050565b60006020820190508181036000830152610d0f81610b1c565b9050919050565b60006020820190508181036000830152610d308184610bbf565b905092915050565b6000604082019050610d4d6000830185610c31565b8181036020830152610d5f8184610a3d565b90509392505050565b6000604051905081810181811067ffffffffffffffff82111715610d8f57610d8e61105a565b5b8060405250919050565b600067ffffffffffffffff821115610db457610db361105a565b5b601f19601f8301169050602081019050919050565b6000819050602082019050919050565b600081519050919050565b600081519050919050565b6000602082019050919050565b600082825260208201905092915050565b600082825260208201905092915050565b600082825260208201905092915050565b6000610e3a82610ea7565b9150610e4583610ea7565b925082821015610e5857610e57610fcd565b5b828203905092915050565b6000610e6e82610e87565b9050919050565b6000610e8082610e87565b9050919050565b600073ffffffffffffffffffffffffffffffffffffffff82169050919050565b6000819050919050565b82818337600083830152505050565b60005b83811015610ede578082015181840152602081019050610ec3565b83811115610eed576000848401525b50505050565b60006002820490506001821680610f0b57607f821691505b60208210811415610f1f57610f1e61102b565b5b50919050565b6000610f3082610ea7565b91507fffffffffffffffffffffffffffffffffffffffffffffffffffffffffffffffff821415610f6357610f62610fcd565b5b600182019050919050565b6000610f7982610f80565b9050919050565b6000610f8b8261109a565b9050919050565b6000819050919050565b6000610fa782610ea7565b9150610fb283610ea7565b925082610fc257610fc1610ffc565b5b828206905092915050565b7f4e487b7100000000000000000000000000000000000000000000000000000000600052601160045260246000fd5b7f4e487b7100000000000000000000000000000000000000000000000000000000600052601260045260246000fd5b7f4e487b7100000000000000000000000000000000000000000000000000000000600052602260045260246000fd5b7f4e487b7100000000000000000000000000000000000000000000000000000000600052604160045260246000fd5b6000601f19601f8301169050919050565b60008160601b9050919050565b6110b081610e63565b81146110bb57600080fd5b5056fea26469706673582212202ddcac50a7bc42408066853db0fcd8caa2fda4042b1192df0598d32bfc4a8be964736f6c634300080000336080604052620186a06034556298968060355534801561001e57600080fd5b5061102a8061002e6000396000f3fe608060405234801561001057600080fd5b506004361061004c5760003560e01c80638129fc1c14610051578063b11852441461005b578063b7ed99d614610079578063f8caf6c714610083575b600080fd5b6100596100a1565b005b610063610189565b6040516100709190610cd9565b60405180910390f35b610081610376565b005b61008b610380565b6040516100989190610c77565b60405180910390f35b600060019054906101000a900460ff16806100c057506100bf61052d565b5b806100d6575060008054906101000a900460ff16155b610115576040517f08c379a000000000000000000000000000000000000000000000000000000000815260040161010c90610cb9565b60405180910390fd5b60008060019054906101000a900460ff161590508015610165576001600060016101000a81548160ff02191690831515021790555060016000806101000a81548160ff0219169083151502179055505b80156101865760008060016101000a81548160ff0219169083151502179055505b50565b61019161078f565b6000603b80549050116101d9576040517f08c379a00000000000000000000000000000000000000000000000000000000081526004016101d090610c99565b60405180910390fd5b603b603360003073ffffffffffffffffffffffffffffffffffffffff1673ffffffffffffffffffffffffffffffffffffffff1681526020019081526020016000205481548110610252577f4e487b7100000000000000000000000000000000000000000000000000000000600052603260045260246000fd5b90600052602060002090600502016040518060a001604052908160008201805461027b90610e77565b80601f01602080910402602001604051908101604052809291908181526020018280546102a790610e77565b80156102f45780601f106102c9576101008083540402835291602001916102f4565b820191906000526020600020905b8154815290600101906020018083116102d757829003601f168201915b505050505081526020016001820160009054906101000a900473ffffffffffffffffffffffffffffffffffffffff1673ffffffffffffffffffffffffffffffffffffffff1673ffffffffffffffffffffffffffffffffffffffff1681526020016002820154815260200160038201548152602001600482015481525050905090565b61037e610544565b565b60606000603b80549050116103ca576040517f08c379a00000000000000000000000000000000000000000000000000000000081526004016103c190610c99565b60405180910390fd5b603b805480602002602001604051908101604052809291908181526020016000905b8282101561052457838290600052602060002090600502016040518060a001604052908160008201805461041f90610e77565b80601f016020809104026020016040519081016040528092919081815260200182805461044b90610e77565b80156104985780601f1061046d57610100808354040283529160200191610498565b820191906000526020600020905b81548152906001019060200180831161047b57829003601f168201915b505050505081526020016001820160009054906101000a900473ffffffffffffffffffffffffffffffffffffffff1673ffffffffffffffffffffffffffffffffffffffff1673ffffffffffffffffffffffffffffffffffffffff1681526020016002820154815260200160038201548152602001600482015481525050815260200190600101906103ec565b50505050905090565b6000803090506000813b9050600081149250505090565b603b6040518060a001604052806040518060400160405280600e81526020017f44656661756c745f447261676f6e00000000000000000000000000000000000081525081526020013073ffffffffffffffffffffffffffffffffffffffff1681526020016105b061070b565b81526020016105bd61074d565b8152602001600a8152509080600181540180825580915050600190039060005260206000209060050201600090919091909150600082015181600001908051906020019061060c9291906107d4565b5060208201518160010160006101000a81548173ffffffffffffffffffffffffffffffffffffffff021916908373ffffffffffffffffffffffffffffffffffffffff160217905550604082015181600201556060820151816003015560808201518160040155505060006001603b805490506106889190610d98565b90507fa8d5c415ae4486d0b0ca47d57931522bcf32daa16432a434fd9d4c57050e94da603b82815481106106e5577f4e487b7100000000000000000000000000000000000000000000000000000000600052603260045260246000fd5b90600052602060002090600502016040516107009190610cfb565b60405180910390a150565b600060345442444160405160200161072593929190610c3a565b6040516020818303038152906040528051906020012060001c6107489190610f0b565b905090565b600060355442444160405160200161076793929190610c3a565b6040516020818303038152906040528051906020012060001c61078a9190610f0b565b905090565b6040518060a0016040528060608152602001600073ffffffffffffffffffffffffffffffffffffffff1681526020016000815260200160008152602001600081525090565b8280546107e090610e77565b90600052602060002090601f0160209004810192826108025760008555610849565b82601f1061081b57805160ff1916838001178555610849565b82800160010185558215610849579182015b8281111561084857825182559160200191906001019061082d565b5b509050610856919061085a565b5090565b5b8082111561087357600081600090555060010161085b565b5090565b60006108838383610a85565b905092915050565b61089c61089782610e08565b610edd565b82525050565b6108ab81610df6565b82525050565b60006108bc82610d42565b6108c68185610d65565b9350836020820285016108d885610d1d565b8060005b8581101561091457848403895281516108f58582610877565b945061090083610d58565b925060208a019950506001810190506108dc565b50829750879550505050505092915050565b600061093182610d4d565b61093b8185610d76565b935061094b818560208601610e44565b61095481610fc9565b840191505092915050565b6000815461096c81610e77565b6109768186610d76565b9450600182166000811461099157600181146109a3576109d6565b60ff19831686526020860193506109d6565b6109ac85610d2d565b60005b838110156109ce578154818901526001820191506020810190506109af565b808801955050505b50505092915050565b60006109ec602083610d87565b91507f4e6f20647261676f6e7320617661696c61626c6520666f72206c6f6f6b75702e6000830152602082019050919050565b6000610a2c602e83610d87565b91507f436f6e747261637420696e7374616e63652068617320616c726561647920626560008301527f656e20696e697469616c697a65640000000000000000000000000000000000006020830152604082019050919050565b600060a0830160008301518482036000860152610aa28282610926565b9150506020830151610ab760208601826108a2565b506040830151610aca6040860182610c14565b506060830151610add6060860182610c14565b506080830151610af06080860182610c14565b508091505092915050565b600060a0830160008301518482036000860152610b188282610926565b9150506020830151610b2d60208601826108a2565b506040830151610b406040860182610c14565b506060830151610b536060860182610c14565b506080830151610b666080860182610c14565b508091505092915050565b600060a0830160008084018583036000870152610b8e838261095f565b92505060018401549050610ba181610ea9565b610bae60208701826108a2565b5060028401549050610bbf81610ec3565b610bcc6040870182610c14565b5060038401549050610bdd81610ec3565b610bea6060870182610c14565b5060048401549050610bfb81610ec3565b610c086080870182610c14565b50819250505092915050565b610c1d81610e3a565b82525050565b610c34610c2f82610e3a565b610f01565b82525050565b6000610c468286610c23565b602082019150610c568285610c23565b602082019150610c66828461088b565b601482019150819050949350505050565b60006020820190508181036000830152610c9181846108b1565b905092915050565b60006020820190508181036000830152610cb2816109df565b9050919050565b60006020820190508181036000830152610cd281610a1f565b9050919050565b60006020820190508181036000830152610cf38184610afb565b905092915050565b60006020820190508181036000830152610d158184610b71565b905092915050565b6000819050602082019050919050565b60008190508160005260206000209050919050565b600081519050919050565b600081519050919050565b6000602082019050919050565b600082825260208201905092915050565b600082825260208201905092915050565b600082825260208201905092915050565b6000610da382610e3a565b9150610dae83610e3a565b925082821015610dc157610dc0610f3c565b5b828203905092915050565b600073ffffffffffffffffffffffffffffffffffffffff82169050919050565b6000819050919050565b6000610e0182610e1a565b9050919050565b6000610e1382610e1a565b9050919050565b600073ffffffffffffffffffffffffffffffffffffffff82169050919050565b6000819050919050565b60005b83811015610e62578082015181840152602081019050610e47565b83811115610e71576000848401525b50505050565b60006002820490506001821680610e8f57607f821691505b60208210811415610ea357610ea2610f9a565b5b50919050565b6000610ebc610eb783610fe7565b610dcc565b9050919050565b6000610ed6610ed183610fe7565b610dec565b9050919050565b6000610ee882610eef565b9050919050565b6000610efa82610fda565b9050919050565b6000819050919050565b6000610f1682610e3a565b9150610f2183610e3a565b925082610f3157610f30610f6b565b5b828206905092915050565b7f4e487b7100000000000000000000000000000000000000000000000000000000600052601160045260246000fd5b7f4e487b7100000000000000000000000000000000000000000000000000000000600052601260045260246000fd5b7f4e487b7100000000000000000000000000000000000000000000000000000000600052602260045260246000fd5b6000601f19601f8301169050919050565b60008160601b9050919050565b60008160001c905091905056fea26469706673582212203702eba28ef34c99ce8947bb4cb71b0b180c9a76438d566d911045725ae2a91064736f6c63430008000033608060405234801561001057600080fd5b50611e57806100206000396000f3fe6080604052600436106100705760003560e01c806343d3b1be1161004e57806343d3b1be146100d1578063673402e5146100fc5780638129fc1c14610127578063952525601461013157610070565b806313fdba3c1461007557806327dc297e1461007f57806338bbfa50146100a8575b600080fd5b61007d61015c565b005b34801561008b57600080fd5b506100a660048036038101906100a19190611756565b61023f565b005b3480156100b457600080fd5b506100cf60048036038101906100ca91906117aa565b610299565b005b3480156100dd57600080fd5b506100e66102bc565b6040516100f39190611a77565b60405180910390f35b34801561010857600080fd5b506101116102c2565b60405161011e91906119ae565b60405180910390f35b61012f610350565b005b34801561013d57600080fd5b5061014661043d565b60405161015391906119ae565b60405180910390f35b61019a6040518060400160405280600381526020017f55524c00000000000000000000000000000000000000000000000000000000008152506104cf565b6039819055506039544710156101e5576040517f08c379a00000000000000000000000000000000000000000000000000000000081526004016101dc90611a37565b60405180910390fd5b61023c6040518060400160405280600381526020017f55524c00000000000000000000000000000000000000000000000000000000008152506040518060a0016040528060678152602001611dbb606791396107f0565b50565b610247610bff565b73ffffffffffffffffffffffffffffffffffffffff163373ffffffffffffffffffffffffffffffffffffffff161461027e57600080fd5b80603890805190602001906102949291906114b7565b505050565b6000801b600360008060001b815260200190815260200160002081905550505050565b60395481565b603880546102cf90611ca5565b80601f01602080910402602001604051908101604052809291908181526020018280546102fb90611ca5565b80156103485780601f1061031d57610100808354040283529160200191610348565b820191906000526020600020905b81548152906001019060200180831161032b57829003601f168201915b505050505081565b600560019054906101000a900460ff168061036f575061036e610f13565b5b806103875750600560009054906101000a900460ff16155b6103c6576040517f08c379a00000000000000000000000000000000000000000000000000000000081526004016103bd90611a57565b60405180910390fd5b6000600560019054906101000a900460ff161590508015610418576001600560016101000a81548160ff0219169083151502179055506001600560006101000a81548160ff0219169083151502179055505b801561043a576000600560016101000a81548160ff0219169083151502179055505b50565b60606038805461044c90611ca5565b80601f016020809104026020016040519081016040528092919081815260200182805461047890611ca5565b80156104c55780601f1061049a576101008083540402835291602001916104c5565b820191906000526020600020905b8154815290600101906020018083116104a857829003601f168201915b5050505050905090565b60008073ffffffffffffffffffffffffffffffffffffffff16600160009054906101000a900473ffffffffffffffffffffffffffffffffffffffff1673ffffffffffffffffffffffffffffffffffffffff16148061055757506000610555600160009054906101000a900473ffffffffffffffffffffffffffffffffffffffff16610f2a565b145b15610568576105666000610f35565b505b600160009054906101000a900473ffffffffffffffffffffffffffffffffffffffff1673ffffffffffffffffffffffffffffffffffffffff166338cc48316040518163ffffffff1660e01b8152600401602060405180830381600087803b1580156105d257600080fd5b505af11580156105e6573d6000803e3d6000fd5b505050506040513d601f19601f8201168201806040525081019061060a9190611704565b73ffffffffffffffffffffffffffffffffffffffff1660008054906101000a900473ffffffffffffffffffffffffffffffffffffffff1673ffffffffffffffffffffffffffffffffffffffff161461073e57600160009054906101000a900473ffffffffffffffffffffffffffffffffffffffff1673ffffffffffffffffffffffffffffffffffffffff166338cc48316040518163ffffffff1660e01b8152600401602060405180830381600087803b1580156106c657600080fd5b505af11580156106da573d6000803e3d6000fd5b505050506040513d601f19601f820116820180604052508101906106fe9190611704565b6000806101000a81548173ffffffffffffffffffffffffffffffffffffffff021916908373ffffffffffffffffffffffffffffffffffffffff1602179055505b60008054906101000a900473ffffffffffffffffffffffffffffffffffffffff1673ffffffffffffffffffffffffffffffffffffffff1663524f3889836040518263ffffffff1660e01b81526004016107979190611a15565b602060405180830381600087803b1580156107b157600080fd5b505af11580156107c5573d6000803e3d6000fd5b505050506040513d601f19601f820116820180604052508101906107e99190611829565b9050919050565b60008073ffffffffffffffffffffffffffffffffffffffff16600160009054906101000a900473ffffffffffffffffffffffffffffffffffffffff1673ffffffffffffffffffffffffffffffffffffffff16148061087857506000610876600160009054906101000a900473ffffffffffffffffffffffffffffffffffffffff16610f2a565b145b15610889576108876000610f35565b505b600160009054906101000a900473ffffffffffffffffffffffffffffffffffffffff1673ffffffffffffffffffffffffffffffffffffffff166338cc48316040518163ffffffff1660e01b8152600401602060405180830381600087803b1580156108f357600080fd5b505af1158015610907573d6000803e3d6000fd5b505050506040513d601f19601f8201168201806040525081019061092b9190611704565b73ffffffffffffffffffffffffffffffffffffffff1660008054906101000a900473ffffffffffffffffffffffffffffffffffffffff1673ffffffffffffffffffffffffffffffffffffffff1614610a5f57600160009054906101000a900473ffffffffffffffffffffffffffffffffffffffff1673ffffffffffffffffffffffffffffffffffffffff166338cc48316040518163ffffffff1660e01b8152600401602060405180830381600087803b1580156109e757600080fd5b505af11580156109fb573d6000803e3d6000fd5b505050506040513d601f19601f82011682018060405250810190610a1f9190611704565b6000806101000a81548173ffffffffffffffffffffffffffffffffffffffff021916908373ffffffffffffffffffffffffffffffffffffffff1602179055505b60008060009054906101000a900473ffffffffffffffffffffffffffffffffffffffff1673ffffffffffffffffffffffffffffffffffffffff1663524f3889856040518263ffffffff1660e01b8152600401610abb9190611a15565b602060405180830381600087803b158015610ad557600080fd5b505af1158015610ae9573d6000803e3d6000fd5b505050506040513d601f19601f82011682018060405250810190610b0d9190611829565b905062030d403a610b1e9190611bb1565b670de0b6b3a7640000610b319190611b5b565b811115610b44576000801b915050610bf9565b60008054906101000a900473ffffffffffffffffffffffffffffffffffffffff1673ffffffffffffffffffffffffffffffffffffffff1663adf59f9982600087876040518563ffffffff1660e01b8152600401610ba3939291906119d0565b6020604051808303818588803b158015610bbc57600080fd5b505af1158015610bd0573d6000803e3d6000fd5b50505050506040513d601f19601f82011682018060405250810190610bf5919061172d565b9150505b92915050565b60008073ffffffffffffffffffffffffffffffffffffffff16600160009054906101000a900473ffffffffffffffffffffffffffffffffffffffff1673ffffffffffffffffffffffffffffffffffffffff161480610c8757506000610c85600160009054906101000a900473ffffffffffffffffffffffffffffffffffffffff16610f2a565b145b15610c9857610c966000610f35565b505b600160009054906101000a900473ffffffffffffffffffffffffffffffffffffffff1673ffffffffffffffffffffffffffffffffffffffff166338cc48316040518163ffffffff1660e01b8152600401602060405180830381600087803b158015610d0257600080fd5b505af1158015610d16573d6000803e3d6000fd5b505050506040513d601f19601f82011682018060405250810190610d3a9190611704565b73ffffffffffffffffffffffffffffffffffffffff1660008054906101000a900473ffffffffffffffffffffffffffffffffffffffff1673ffffffffffffffffffffffffffffffffffffffff1614610e6e57600160009054906101000a900473ffffffffffffffffffffffffffffffffffffffff1673ffffffffffffffffffffffffffffffffffffffff166338cc48316040518163ffffffff1660e01b8152600401602060405180830381600087803b158015610df657600080fd5b505af1158015610e0a573d6000803e3d6000fd5b505050506040513d601f19601f82011682018060405250810190610e2e9190611704565b6000806101000a81548173ffffffffffffffffffffffffffffffffffffffff021916908373ffffffffffffffffffffffffffffffffffffffff1602179055505b60008054906101000a900473ffffffffffffffffffffffffffffffffffffffff1673ffffffffffffffffffffffffffffffffffffffff1663c281d19e6040518163ffffffff1660e01b8152600401602060405180830381600087803b158015610ed657600080fd5b505af1158015610eea573d6000803e3d6000fd5b505050506040513d601f19601f82011682018060405250810190610f0e9190611704565b905090565b6000803090506000813b9050600081149250505090565b6000813b9050919050565b6000610f3f610f46565b9050919050565b600080610f66731d3b2638a7cc9f2cb3d298a3da7a90b67e5506ed610f2a565b111561100857731d3b2638a7cc9f2cb3d298a3da7a90b67e5506ed600160006101000a81548173ffffffffffffffffffffffffffffffffffffffff021916908373ffffffffffffffffffffffffffffffffffffffff160217905550610fff6040518060400160405280600b81526020017f6574685f6d61696e6e657400000000000000000000000000000000000000000081525061149d565b6001905061149a565b600061102773c03a2615d5efaf5f49f60b7bb6583eaec212fdf1610f2a565b11156110c95773c03a2615d5efaf5f49f60b7bb6583eaec212fdf1600160006101000a81548173ffffffffffffffffffffffffffffffffffffffff021916908373ffffffffffffffffffffffffffffffffffffffff1602179055506110c06040518060400160405280600c81526020017f6574685f726f707374656e33000000000000000000000000000000000000000081525061149d565b6001905061149a565b60006110e873b7a07bcf2ba2f2703b24c0691b5278999c59ac7e610f2a565b111561118a5773b7a07bcf2ba2f2703b24c0691b5278999c59ac7e600160006101000a81548173ffffffffffffffffffffffffffffffffffffffff021916908373ffffffffffffffffffffffffffffffffffffffff1602179055506111816040518060400160405280600981526020017f6574685f6b6f76616e000000000000000000000000000000000000000000000081525061149d565b6001905061149a565b60006111a973146500cfd35b22e4a392fe0adc06de1a1368ed48610f2a565b111561124b5773146500cfd35b22e4a392fe0adc06de1a1368ed48600160006101000a81548173ffffffffffffffffffffffffffffffffffffffff021916908373ffffffffffffffffffffffffffffffffffffffff1602179055506112426040518060400160405280600b81526020017f6574685f72696e6b65627900000000000000000000000000000000000000000081525061149d565b6001905061149a565b600061126a73a2998efd205fb9d4b4963afb70778d6354ad3a41610f2a565b111561130c5773a2998efd205fb9d4b4963afb70778d6354ad3a41600160006101000a81548173ffffffffffffffffffffffffffffffffffffffff021916908373ffffffffffffffffffffffffffffffffffffffff1602179055506113036040518060400160405280600a81526020017f6574685f676f65726c690000000000000000000000000000000000000000000081525061149d565b6001905061149a565b600061132b736f485c8bf6fc43ea212e93bbf8ce046c7f1cb475610f2a565b111561138f57736f485c8bf6fc43ea212e93bbf8ce046c7f1cb475600160006101000a81548173ffffffffffffffffffffffffffffffffffffffff021916908373ffffffffffffffffffffffffffffffffffffffff1602179055506001905061149a565b60006113ae7320e12a1f859b3feae5fb2a0a32c18f5a65555bbf610f2a565b1115611412577320e12a1f859b3feae5fb2a0a32c18f5a65555bbf600160006101000a81548173ffffffffffffffffffffffffffffffffffffffff021916908373ffffffffffffffffffffffffffffffffffffffff1602179055506001905061149a565b60006114317351efaf4c8b3c9afbd5ab9f4bbc82784ab6ef8faa610f2a565b1115611495577351efaf4c8b3c9afbd5ab9f4bbc82784ab6ef8faa600160006101000a81548173ffffffffffffffffffffffffffffffffffffffff021916908373ffffffffffffffffffffffffffffffffffffffff1602179055506001905061149a565b600090505b90565b80600290805190602001906114b392919061153d565b5050565b8280546114c390611ca5565b90600052602060002090601f0160209004810192826114e5576000855561152c565b82601f106114fe57805160ff191683800117855561152c565b8280016001018555821561152c579182015b8281111561152b578251825591602001919060010190611510565b5b50905061153991906115c3565b5090565b82805461154990611ca5565b90600052602060002090601f01602090048101928261156b57600085556115b2565b82601f1061158457805160ff19168380011785556115b2565b828001600101855582156115b2579182015b828111156115b1578251825591602001919060010190611596565b5b5090506115bf91906115c3565b5090565b5b808211156115dc5760008160009055506001016115c4565b5090565b60006115f36115ee84611ac3565b611a92565b90508281526020810184848401111561160b57600080fd5b611616848285611c63565b509392505050565b600061163161162c84611af3565b611a92565b90508281526020810184848401111561164957600080fd5b611654848285611c63565b509392505050565b60008151905061166b81611d75565b92915050565b60008135905061168081611d8c565b92915050565b60008151905061169581611d8c565b92915050565b600082601f8301126116ac57600080fd5b81356116bc8482602086016115e0565b91505092915050565b600082601f8301126116d657600080fd5b81356116e684826020860161161e565b91505092915050565b6000815190506116fe81611da3565b92915050565b60006020828403121561171657600080fd5b60006117248482850161165c565b91505092915050565b60006020828403121561173f57600080fd5b600061174d84828501611686565b91505092915050565b6000806040838503121561176957600080fd5b600061177785828601611671565b925050602083013567ffffffffffffffff81111561179457600080fd5b6117a0858286016116c5565b9150509250929050565b6000806000606084860312156117bf57600080fd5b60006117cd86828701611671565b935050602084013567ffffffffffffffff8111156117ea57600080fd5b6117f6868287016116c5565b925050604084013567ffffffffffffffff81111561181357600080fd5b61181f8682870161169b565b9150509250925092565b60006020828403121561183b57600080fd5b6000611849848285016116ef565b91505092915050565b600061185d82611b23565b6118678185611b39565b9350611877818560208601611c72565b61188081611d64565b840191505092915050565b61189481611c51565b82525050565b60006118a582611b2e565b6118af8185611b4a565b93506118bf818560208601611c72565b6118c881611d64565b840191505092915050565b60006118e0602e83611b4a565b91507f706c656173652061646420736f6d652045544820746f20636f76657220666f7260008301527f20746865207175657279206665650000000000000000000000000000000000006020830152604082019050919050565b6000611946602e83611b4a565b91507f436f6e747261637420696e7374616e63652068617320616c726561647920626560008301527f656e20696e697469616c697a65640000000000000000000000000000000000006020830152604082019050919050565b6119a881611c47565b82525050565b600060208201905081810360008301526119c88184611852565b905092915050565b60006060820190506119e5600083018661188b565b81810360208301526119f7818561189a565b90508181036040830152611a0b818461189a565b9050949350505050565b60006020820190508181036000830152611a2f818461189a565b905092915050565b60006020820190508181036000830152611a50816118d3565b9050919050565b60006020820190508181036000830152611a7081611939565b9050919050565b6000602082019050611a8c600083018461199f565b92915050565b6000604051905081810181811067ffffffffffffffff82111715611ab957611ab8611d35565b5b8060405250919050565b600067ffffffffffffffff821115611ade57611add611d35565b5b601f19601f8301169050602081019050919050565b600067ffffffffffffffff821115611b0e57611b0d611d35565b5b601f19601f8301169050602081019050919050565b600081519050919050565b600081519050919050565b600082825260208201905092915050565b600082825260208201905092915050565b6000611b6682611c47565b9150611b7183611c47565b9250827fffffffffffffffffffffffffffffffffffffffffffffffffffffffffffffffff03821115611ba657611ba5611cd7565b5b828201905092915050565b6000611bbc82611c47565b9150611bc783611c47565b9250817fffffffffffffffffffffffffffffffffffffffffffffffffffffffffffffffff0483118215151615611c0057611bff611cd7565b5b828202905092915050565b6000611c1682611c27565b9050919050565b6000819050919050565b600073ffffffffffffffffffffffffffffffffffffffff82169050919050565b6000819050919050565b6000611c5c82611c47565b9050919050565b82818337600083830152505050565b60005b83811015611c90578082015181840152602081019050611c75565b83811115611c9f576000848401525b50505050565b60006002820490506001821680611cbd57607f821691505b60208210811415611cd157611cd0611d06565b5b50919050565b7f4e487b7100000000000000000000000000000000000000000000000000000000600052601160045260246000fd5b7f4e487b7100000000000000000000000000000000000000000000000000000000600052602260045260246000fd5b7f4e487b7100000000000000000000000000000000000000000000000000000000600052604160045260246000fd5b6000601f19601f8301169050919050565b611d7e81611c0b565b8114611d8957600080fd5b50565b611d9581611c1d565b8114611da057600080fd5b50565b611dac81611c47565b8114611db757600080fd5b5056fe6a736f6e28687474703a2f2f776565726c6976652e6e6c2f6170692f6a736f6e2d646174612d31306d696e2e7068703f6b65793d30313436346364363235266c6f63617469653d48656c6c65766f6574736c756973292e6c697665776565725b305d2e74656d70a2646970667358221220518729a5236bbf594553cefb33dbc17775c70515ab5e0f73f39ecd2f0c84006264736f6c63430008000033546865206865726f20686173206265656e206465666561746564212054686520647261676f6e2077617320746f6f207374726f6e6721546865206865726f20616e6420647261676f6e2061726520657175616c20696e20737472656e6774682c207468657265206973206e6f20766963746f72214920616d20746865206f776e6572206f66207468697320636f6e74726163742120416e64206e6f206f6e6520656c736521a26469706673582212203b25adad80ba458018794713ea395a1aa449616af4748cc684e57def799c59e664736f6c63430008000033",
  "immutableReferences": {},
  "source": "// SPDX-License-Identifier: MIT\r\npragma solidity ^0.8.0;\r\npragma abicoder v2;\r\n\r\nimport \"./HeroFactory.sol\";\r\nimport \"./DragonFactory.sol\";\r\nimport \"./Dragon.sol\";\r\nimport \"./Hero.sol\";\r\nimport \"./OrmrOracle.sol\";\r\nimport './Initializable.sol';\r\n\r\n/// @title Ormr, Man vs. Dragon\r\n/// @author github@ToFat4Fun\r\n/// @notice Calling the Oracle might take a few seconds to minutes, depending on block processing speed.\r\n/// @dev Working with solidity v0.8.0\r\ncontract Ormr is Initializable {\r\n    /// @dev emits the result of the battle initiated by the user. shows in front-end\r\n    event encounterResult(string);\r\n\r\n    /// @dev HF herofactory we use to create heroes     \r\n    /// @dev DF dragonfactory we use to create dragons\r\n    /// @dev OO oracle we call for our random functions \r\n    HeroFactory HF;\r\n    DragonFactory DF;\r\n    OrmrOracle OO;\r\n    address public owner = msg.sender; // PD-9 Modifier\r\n\r\n    // PD-9 upgrades. Replace constructor with openzeppelin initialize.\r\n    function initialize() public initializer {\r\n        HF = new HeroFactory();\r\n        DF = new DragonFactory();\r\n        OO = new OrmrOracle();\r\n    }\r\n\r\n    // PD-9 Modifier\r\n    /// @dev modifier that specifies only the contract owner (address which deployed it) can access a function\r\n    /// More info: https://docs.soliditylang.org/en/v0.8.0/structure-of-a-contract.html?highlight=modifier#function-modifiers and\r\n    /// https://docs.soliditylang.org/en/develop/common-patterns.html#restricting-access \r\n    modifier onlyOwner\r\n    {\r\n        require(\r\n            msg.sender == owner,\r\n            \"Sender not authorized.\"\r\n        );\r\n        // Do not forget the \"_;\"! It will\r\n        // be replaced by the actual function\r\n        // body when the modifier is used.\r\n        _;\r\n    }\r\n\r\n    /// @dev function to demonstrate the modifier for PD-9\r\n    /// @return messageFromOwner our owner left a message reminding himself he's the boss\r\n    function ownerSays() public view onlyOwner returns (string memory messageFromOwner) {\r\n        return \"I am the owner of this contract! And no one else!\";\r\n    }\r\n\r\n    /// @dev PD-9 selfdestruct method. More info: https://docs.soliditylang.org/en/v0.8.0/contracts.html#modifiers \r\n    /// only the contract owner may call this method\r\n    function destroy() public onlyOwner {\r\n        selfdestruct(payable(owner));\r\n    }\r\n\r\n    /// @dev below follows the game logic of creating heroes and dragons, combat and handling Oracle requests\r\n    /// @param _name heroname given by the user\r\n    function createHero(string memory _name) public {\r\n        HF.createHero(_name, msg.sender);\r\n    }\r\n\r\n    /// @return return hero associated with the user requesting the address\r\n    function getHero() public view returns (Hero memory) {\r\n        return HF.getHero(msg.sender);\r\n    }\r\n\r\n    /// @return returns all heroes in array form\r\n    function getHeroes() public view returns (Hero[] memory) {\r\n        return HF.getHeroes();\r\n    }\r\n\r\n    /// @dev creates a dragon using dragonfactory\r\n    function createDragon() public {\r\n        DF.createDragon();\r\n    }\r\n\r\n    /// @return returns dragon object\r\n    function getDragon() public view returns (Dragon memory) {\r\n        return DF.getDragon();\r\n    }\r\n\r\n    /// @notice here you can initiate a battle! make sure there is both a dragon and hero\r\n    /// @dev This is the function our user sees when starting a battle.\r\n    function startEncounter() public {\r\n        // Calls internal function which handles the encounter\r\n        _encounter(HF.getHero(msg.sender), DF.getDragon());\r\n    }\r\n\r\n    /// @dev Lock in our Hero and the Dragon. Emits the result of the encounter.\r\n    /// @param _hero the user's hero\r\n    /// @param _dragon a dragon from within the contract\r\n    function _encounter(Hero memory _hero, Dragon memory _dragon) internal {\r\n        // Check if there are both a hero and a dragon. Require keyword and ternary operator. PD-3 Error Handling.\r\n        require(keccak256(abi.encodePacked(_hero.name)) != keccak256(abi.encodePacked(\"\")), \"Hero not found\");\r\n        require(keccak256(abi.encodePacked(_dragon.name)) !=keccak256(abi.encodePacked(\"\")), \"Dragon not found\");\r\n\r\n        // calls the method which decides a winner, emits the result afterwards\r\n        emit encounterResult(_battle(_hero.power, _dragon.power));\r\n    }\r\n\r\n    /// @dev here is decided who is stronger\r\n    /// @param heroPower hero power\r\n    /// @param dragonPower dragon power\r\n    /// @return the outcome of the battle as string format\r\n    function _battle(uint256 heroPower, uint256 dragonPower) private pure returns (string memory) {\r\n        if (heroPower > dragonPower) {\r\n            return \"The dragon has been slain!\";\r\n        } else if (heroPower < dragonPower) {\r\n            return \"The hero has been defeated! The dragon was too strong!\";\r\n        } else {\r\n            return\r\n                \"The hero and dragon are equal in strength, there is no victor!\";\r\n        }\r\n    }\r\n\r\n    /// @dev Let's do something with our Oracle here. Because we want to display uint to the user and our Oracle\r\n    /// returns bytes format, let's convert it here.\r\n    /// Web3examples convert to uint https://github.com/web3examples/ethereum/blob/master/solidity_examples/bytes2uint.sol\r\n    /// @param input the bytes we want to convert to uint\r\n    /// @return the converted bytes value as uint\r\n    function convertToUint(bytes memory input) public pure returns (uint256) {\r\n        uint256 res = 0;\r\n        for (uint256 i = 0; i < input.length; i++)\r\n            res = (res << 8) + uint256(uint8(input[i]));\r\n        return res;\r\n    }\r\n\r\n    /// @dev call the oracle using OrmrOracle instance, we need to send ETH as subsequent requests to provable are not free\r\n    /// hence the payable attribute and value: msg.value object\r\n    function callOracleRandom() public payable {\r\n        OO.requestTemp{value: msg.value}();\r\n    }\r\n\r\n    /// @dev only request AFTER the oracle has been called (and wait atleast 2 blocks for the result + callback)\r\n    /// otherwise it will return NULL and undefined. This method also converts the result to uint right away for display in the front-end\r\n    /// @return returns the result of the oracle call as uint\r\n    function getTempUint() public view returns (uint256) {\r\n        bytes memory res = OO.getTemp();\r\n        return convertToUint(res);\r\n    }\r\n\r\n    /// @dev only request AFTER the oracle has been called (and wait atleast 2 blocks for the result + callback)\r\n    /// otherwise it will return NULL and undefined. This method also converts the result to uint right away for display in the front-end\r\n    /// @return returns the result of the oracle call as bytes\r\n    function getTemp() public view returns (bytes memory) {\r\n        return OO.getTemp();\r\n    }\r\n}\r\n",
  "sourcePath": "D:/HHS/Jaar 4 Minor/IT Deel Minor/Assignments/PD-8/contracts/Ormr.sol",
  "compiler": {
    "name": "solc",
    "version": "0.8.0+commit.c7dfd78e.Emscripten.clang"
  },
  "schemaVersion": "3.3.2",
  "updatedAt": "2020-12-23T01:24:43.037Z",
  "devdoc": {
    "author": "github@ToFat4Fun",
    "details": "Working with solidity v0.8.0",
    "events": {
      "encounterResult(string)": {
        "details": "emits the result of the battle initiated by the user. shows in front-end"
      }
    },
    "kind": "dev",
    "methods": {
      "callOracleRandom()": {
        "details": "call the oracle using OrmrOracle instance, we need to send ETH as subsequent requests to provable are not free hence the payable attribute and value: msg.value object"
      },
      "convertToUint(bytes)": {
        "details": "Let's do something with our Oracle here. Because we want to display uint to the user and our Oracle returns bytes format, let's convert it here. Web3examples convert to uint https://github.com/web3examples/ethereum/blob/master/solidity_examples/bytes2uint.sol",
        "params": {
          "input": "the bytes we want to convert to uint"
        },
        "returns": {
          "_0": "the converted bytes value as uint"
        }
      },
      "createDragon()": {
        "details": "creates a dragon using dragonfactory"
      },
      "createHero(string)": {
        "details": "below follows the game logic of creating heroes and dragons, combat and handling Oracle requests",
        "params": {
          "_name": "heroname given by the user"
        }
      },
      "destroy()": {
        "details": "PD-9 selfdestruct method. More info: https://docs.soliditylang.org/en/v0.8.0/contracts.html#modifiers  only the contract owner may call this method"
      },
      "getDragon()": {
        "returns": {
          "_0": "returns dragon object"
        }
      },
      "getHero()": {
        "returns": {
          "_0": "return hero associated with the user requesting the address"
        }
      },
      "getHeroes()": {
        "returns": {
          "_0": "returns all heroes in array form"
        }
      },
      "getTemp()": {
        "details": "only request AFTER the oracle has been called (and wait atleast 2 blocks for the result + callback) otherwise it will return NULL and undefined. This method also converts the result to uint right away for display in the front-end",
        "returns": {
          "_0": "returns the result of the oracle call as bytes"
        }
      },
      "getTempUint()": {
        "details": "only request AFTER the oracle has been called (and wait atleast 2 blocks for the result + callback) otherwise it will return NULL and undefined. This method also converts the result to uint right away for display in the front-end",
        "returns": {
          "_0": "returns the result of the oracle call as uint"
        }
      },
      "ownerSays()": {
        "details": "function to demonstrate the modifier for PD-9",
        "returns": {
          "messageFromOwner": "our owner left a message reminding himself he's the boss"
        }
      },
      "startEncounter()": {
        "details": "This is the function our user sees when starting a battle."
      }
    },
    "stateVariables": {
      "HF": {
        "details": "HF herofactory we use to create heroes     DF dragonfactory we use to create dragonsOO oracle we call for our random functions "
      }
    },
    "title": "Ormr, Man vs. Dragon",
    "version": 1
  },
  "userdoc": {
    "kind": "user",
    "methods": {
      "startEncounter()": {
        "notice": "here you can initiate a battle! make sure there is both a dragon and hero"
      }
    },
    "notice": "Calling the Oracle might take a few seconds to minutes, depending on block processing speed.",
    "version": 1
  }
}