{
  "contractName": "Ormr",
  "abi": [
    {
      "anonymous": false,
      "inputs": [
        {
          "indexed": false,
          "internalType": "string",
          "name": "",
          "type": "string"
        }
      ],
      "name": "encounterResult",
      "type": "event"
    },
    {
      "inputs": [],
      "name": "owner",
      "outputs": [
        {
          "internalType": "address",
          "name": "",
          "type": "address"
        }
      ],
      "stateMutability": "view",
      "type": "function",
      "constant": true
    },
    {
      "inputs": [],
      "name": "initialize",
      "outputs": [],
      "stateMutability": "nonpayable",
      "type": "function"
    },
    {
      "inputs": [],
      "name": "ownerSays",
      "outputs": [
        {
          "internalType": "string",
          "name": "messageFromOwner",
          "type": "string"
        }
      ],
      "stateMutability": "view",
      "type": "function",
      "constant": true
    },
    {
      "inputs": [
        {
          "internalType": "string",
          "name": "_name",
          "type": "string"
        }
      ],
      "name": "createHero",
      "outputs": [],
      "stateMutability": "nonpayable",
      "type": "function"
    },
    {
      "inputs": [],
      "name": "getHero",
      "outputs": [
        {
          "components": [
            {
              "internalType": "string",
              "name": "name",
              "type": "string"
            },
            {
              "internalType": "uint256",
              "name": "power",
              "type": "uint256"
            },
            {
              "internalType": "uint256",
              "name": "health",
              "type": "uint256"
            },
            {
              "internalType": "uint256",
              "name": "bank",
              "type": "uint256"
            }
          ],
          "internalType": "struct Hero",
          "name": "",
          "type": "tuple"
        }
      ],
      "stateMutability": "view",
      "type": "function",
      "constant": true
    },
    {
      "inputs": [],
      "name": "getHeroes",
      "outputs": [
        {
          "components": [
            {
              "internalType": "string",
              "name": "name",
              "type": "string"
            },
            {
              "internalType": "uint256",
              "name": "power",
              "type": "uint256"
            },
            {
              "internalType": "uint256",
              "name": "health",
              "type": "uint256"
            },
            {
              "internalType": "uint256",
              "name": "bank",
              "type": "uint256"
            }
          ],
          "internalType": "struct Hero[]",
          "name": "",
          "type": "tuple[]"
        }
      ],
      "stateMutability": "view",
      "type": "function",
      "constant": true
    },
    {
      "inputs": [],
      "name": "createDragon",
      "outputs": [],
      "stateMutability": "nonpayable",
      "type": "function"
    },
    {
      "inputs": [],
      "name": "getDragon",
      "outputs": [
        {
          "components": [
            {
              "internalType": "string",
              "name": "name",
              "type": "string"
            },
            {
              "internalType": "address",
              "name": "id",
              "type": "address"
            },
            {
              "internalType": "uint256",
              "name": "power",
              "type": "uint256"
            },
            {
              "internalType": "uint256",
              "name": "health",
              "type": "uint256"
            },
            {
              "internalType": "uint256",
              "name": "goldReward",
              "type": "uint256"
            }
          ],
          "internalType": "struct Dragon",
          "name": "",
          "type": "tuple"
        }
      ],
      "stateMutability": "view",
      "type": "function",
      "constant": true
    },
    {
      "inputs": [],
      "name": "startEncounter",
      "outputs": [],
      "stateMutability": "nonpayable",
      "type": "function"
    },
    {
      "inputs": [
        {
          "internalType": "bytes",
          "name": "input",
          "type": "bytes"
        }
      ],
      "name": "convertToUint",
      "outputs": [
        {
          "internalType": "uint256",
          "name": "",
          "type": "uint256"
        }
      ],
      "stateMutability": "pure",
      "type": "function",
      "constant": true
    },
    {
      "inputs": [],
      "name": "callOracleRandom",
      "outputs": [],
      "stateMutability": "payable",
      "type": "function",
      "payable": true
    },
    {
      "inputs": [],
      "name": "getTempUint",
      "outputs": [
        {
          "internalType": "uint256",
          "name": "",
          "type": "uint256"
        }
      ],
      "stateMutability": "view",
      "type": "function",
      "constant": true
    },
    {
      "inputs": [],
      "name": "getTemp",
      "outputs": [
        {
          "internalType": "bytes",
          "name": "",
          "type": "bytes"
        }
      ],
      "stateMutability": "view",
      "type": "function",
      "constant": true
    }
  ],
  "bytecode": "0x608060405234801561001057600080fd5b50615e4a806100206000396000f3fe6080604052600436106100c25760003560e01c80638129fc1c1161007f5780639a8d2882116100595780639a8d2882146102255780639e01b85314610250578063b118524414610267578063b7ed99d614610292576100c2565b80638129fc1c146101b85780638da5cb5b146101cf57806395252560146101fa576100c2565b806307b8163c146100c7578063581bee2f146100f25780636865856c1461011d5780636919b8f21461015a5780636a9444351461018557806378242aaf1461018f575b600080fd5b3480156100d357600080fd5b506100dc6102a9565b6040516100e99190611a53565b60405180910390f35b3480156100fe57600080fd5b50610107610362565b6040516101149190611a31565b60405180910390f35b34801561012957600080fd5b50610144600480360381019061013f9190611350565b61041f565b6040516101519190611a53565b60405180910390f35b34801561016657600080fd5b5061016f6104aa565b60405161017c919061193d565b60405180910390f35b61018d61055a565b005b34801561019b57600080fd5b506101b660048036038101906101b191906113d2565b6105df565b005b3480156101c457600080fd5b506101cd610671565b005b3480156101db57600080fd5b506101e46108d5565b6040516101f191906118de565b60405180910390f35b34801561020657600080fd5b5061020f6108fb565b60405161021c919061191b565b60405180910390f35b34801561023157600080fd5b5061023a6109a7565b60405161024791906118f9565b60405180910390f35b34801561025c57600080fd5b50610265610a53565b005b34801561027357600080fd5b5061027c610bb2565b6040516102899190611a0f565b60405180910390f35b34801561029e57600080fd5b506102a7610c64565b005b600080603560009054906101000a900473ffffffffffffffffffffffffffffffffffffffff1673ffffffffffffffffffffffffffffffffffffffff1663952525606040518163ffffffff1660e01b815260040160006040518083038186803b15801561031457600080fd5b505afa158015610328573d6000803e3d6000fd5b505050506040513d6000823e3d601f19601f820116820180604052508101906103519190611391565b905061035c8161041f565b91505090565b61036a610efe565b603360009054906101000a900473ffffffffffffffffffffffffffffffffffffffff1673ffffffffffffffffffffffffffffffffffffffff166327df259a336040518263ffffffff1660e01b81526004016103c591906118de565b60006040518083038186803b1580156103dd57600080fd5b505afa1580156103f1573d6000803e3d6000fd5b505050506040513d6000823e3d601f19601f8201168201806040525081019061041a9190611454565b905090565b6000806000905060005b83518110156104a05783818151811061046b577f4e487b7100000000000000000000000000000000000000000000000000000000600052603260045260246000fd5b602001015160f81c60f81b60f81c60ff16600883901b61048b9190611bb8565b9150808061049890611c8c565b915050610429565b5080915050919050565b6060603660009054906101000a900473ffffffffffffffffffffffffffffffffffffffff1673ffffffffffffffffffffffffffffffffffffffff163373ffffffffffffffffffffffffffffffffffffffff161461053c576040517f08c379a0000000000000000000000000000000000000000000000000000000008152600401610533906119ef565b60405180910390fd5b604051806060016040528060318152602001615de460319139905090565b603560009054906101000a900473ffffffffffffffffffffffffffffffffffffffff1673ffffffffffffffffffffffffffffffffffffffff166313fdba3c346040518263ffffffff1660e01b81526004016000604051808303818588803b1580156105c457600080fd5b505af11580156105d8573d6000803e3d6000fd5b5050505050565b603360009054906101000a900473ffffffffffffffffffffffffffffffffffffffff1673ffffffffffffffffffffffffffffffffffffffff1663deb786c482336040518363ffffffff1660e01b815260040161063c92919061195f565b600060405180830381600087803b15801561065657600080fd5b505af115801561066a573d6000803e3d6000fd5b5050505050565b600060019054906101000a900460ff1680610690575061068f610ce8565b5b806106a6575060008054906101000a900460ff16155b6106e5576040517f08c379a00000000000000000000000000000000000000000000000000000000081526004016106dc9061198f565b60405180910390fd5b60008060019054906101000a900460ff161590508015610735576001600060016101000a81548160ff02191690831515021790555060016000806101000a81548160ff0219169083151502179055505b60405161074190610f26565b604051809103906000f08015801561075d573d6000803e3d6000fd5b50603360006101000a81548173ffffffffffffffffffffffffffffffffffffffff021916908373ffffffffffffffffffffffffffffffffffffffff1602179055506040516107aa90610f33565b604051809103906000f0801580156107c6573d6000803e3d6000fd5b50603460006101000a81548173ffffffffffffffffffffffffffffffffffffffff021916908373ffffffffffffffffffffffffffffffffffffffff16021790555060405161081390610f40565b604051809103906000f08015801561082f573d6000803e3d6000fd5b50603560006101000a81548173ffffffffffffffffffffffffffffffffffffffff021916908373ffffffffffffffffffffffffffffffffffffffff16021790555033603660006101000a81548173ffffffffffffffffffffffffffffffffffffffff021916908373ffffffffffffffffffffffffffffffffffffffff16021790555080156108d25760008060016101000a81548160ff0219169083151502179055505b50565b603660009054906101000a900473ffffffffffffffffffffffffffffffffffffffff1681565b6060603560009054906101000a900473ffffffffffffffffffffffffffffffffffffffff1673ffffffffffffffffffffffffffffffffffffffff1663952525606040518163ffffffff1660e01b815260040160006040518083038186803b15801561096557600080fd5b505afa158015610979573d6000803e3d6000fd5b505050506040513d6000823e3d601f19601f820116820180604052508101906109a29190611391565b905090565b6060603360009054906101000a900473ffffffffffffffffffffffffffffffffffffffff1673ffffffffffffffffffffffffffffffffffffffff16639a8d28826040518163ffffffff1660e01b815260040160006040518083038186803b158015610a1157600080fd5b505afa158015610a25573d6000803e3d6000fd5b505050506040513d6000823e3d601f19601f82011682018060405250810190610a4e919061130f565b905090565b610bb0603360009054906101000a900473ffffffffffffffffffffffffffffffffffffffff1673ffffffffffffffffffffffffffffffffffffffff166327df259a336040518263ffffffff1660e01b8152600401610ab191906118de565b60006040518083038186803b158015610ac957600080fd5b505afa158015610add573d6000803e3d6000fd5b505050506040513d6000823e3d601f19601f82011682018060405250810190610b069190611454565b603460009054906101000a900473ffffffffffffffffffffffffffffffffffffffff1673ffffffffffffffffffffffffffffffffffffffff1663b11852446040518163ffffffff1660e01b815260040160006040518083038186803b158015610b6e57600080fd5b505afa158015610b82573d6000803e3d6000fd5b505050506040513d6000823e3d601f19601f82011682018060405250810190610bab9190611413565b610cff565b565b610bba610f4d565b603460009054906101000a900473ffffffffffffffffffffffffffffffffffffffff1673ffffffffffffffffffffffffffffffffffffffff1663b11852446040518163ffffffff1660e01b815260040160006040518083038186803b158015610c2257600080fd5b505afa158015610c36573d6000803e3d6000fd5b505050506040513d6000823e3d601f19601f82011682018060405250810190610c5f9190611413565b905090565b603460009054906101000a900473ffffffffffffffffffffffffffffffffffffffff1673ffffffffffffffffffffffffffffffffffffffff1663b7ed99d66040518163ffffffff1660e01b8152600401600060405180830381600087803b158015610cce57600080fd5b505af1158015610ce2573d6000803e3d6000fd5b50505050565b6000803090506000813b9050600081149250505090565b604051602001610d0e906118c9565b604051602081830303815290604052805190602001208260000151604051602001610d3991906118b2565b604051602081830303815290604052805190602001201415610d90576040517f08c379a0000000000000000000000000000000000000000000000000000000008152600401610d87906119cf565b60405180910390fd5b604051602001610d9f906118c9565b604051602081830303815290604052805190602001208160000151604051602001610dca91906118b2565b604051602081830303815290604052805190602001201415610e21576040517f08c379a0000000000000000000000000000000000000000000000000000000008152600401610e18906119af565b60405180910390fd5b7fdd4beaba995f8a41cdd2f0af8918a02603e1b887060a362f32b17b80b1af367a610e5483602001518360400151610e6d565b604051610e61919061193d565b60405180910390a15050565b606081831115610eb4576040518060400160405280601a81526020017f54686520647261676f6e20686173206265656e20736c61696e210000000000008152509050610ef8565b81831015610edc57604051806060016040528060368152602001615d70603691399050610ef8565b6040518060600160405280603e8152602001615da6603e913990505b92915050565b6040518060800160405280606081526020016000815260200160008152602001600081525090565b61112880611d7383390190565b61105e80612e9b83390190565b611e7780613ef983390190565b6040518060a0016040528060608152602001600073ffffffffffffffffffffffffffffffffffffffff1681526020016000815260200160008152602001600081525090565b6000610fa5610fa084611a9f565b611a6e565b9050808382526020820190508260005b85811015610fe55781518501610fcb888261126e565b845260208401935060208301925050600181019050610fb5565b5050509392505050565b6000611002610ffd84611acb565b611a6e565b90508281526020810184848401111561101a57600080fd5b611025848285611c4a565b509392505050565b600061104061103b84611acb565b611a6e565b90508281526020810184848401111561105857600080fd5b611063848285611c59565b509392505050565b600061107e61107984611afb565b611a6e565b90508281526020810184848401111561109657600080fd5b6110a1848285611c4a565b509392505050565b60006110bc6110b784611afb565b611a6e565b9050828152602081018484840111156110d457600080fd5b6110df848285611c59565b509392505050565b6000815190506110f681611d44565b92915050565b600082601f83011261110d57600080fd5b815161111d848260208601610f92565b91505092915050565b600082601f83011261113757600080fd5b8135611147848260208601610fef565b91505092915050565b600082601f83011261116157600080fd5b815161117184826020860161102d565b91505092915050565b600082601f83011261118b57600080fd5b813561119b84826020860161106b565b91505092915050565b600082601f8301126111b557600080fd5b81516111c58482602086016110a9565b91505092915050565b600060a082840312156111e057600080fd5b6111ea60a0611a6e565b9050600082015167ffffffffffffffff81111561120657600080fd5b611212848285016111a4565b6000830152506020611226848285016110e7565b602083015250604061123a848285016112fa565b604083015250606061124e848285016112fa565b6060830152506080611262848285016112fa565b60808301525092915050565b60006080828403121561128057600080fd5b61128a6080611a6e565b9050600082015167ffffffffffffffff8111156112a657600080fd5b6112b2848285016111a4565b60008301525060206112c6848285016112fa565b60208301525060406112da848285016112fa565b60408301525060606112ee848285016112fa565b60608301525092915050565b60008151905061130981611d5b565b92915050565b60006020828403121561132157600080fd5b600082015167ffffffffffffffff81111561133b57600080fd5b611347848285016110fc565b91505092915050565b60006020828403121561136257600080fd5b600082013567ffffffffffffffff81111561137c57600080fd5b61138884828501611126565b91505092915050565b6000602082840312156113a357600080fd5b600082015167ffffffffffffffff8111156113bd57600080fd5b6113c984828501611150565b91505092915050565b6000602082840312156113e457600080fd5b600082013567ffffffffffffffff8111156113fe57600080fd5b61140a8482850161117a565b91505092915050565b60006020828403121561142557600080fd5b600082015167ffffffffffffffff81111561143f57600080fd5b61144b848285016111ce565b91505092915050565b60006020828403121561146657600080fd5b600082015167ffffffffffffffff81111561148057600080fd5b61148c8482850161126e565b91505092915050565b60006114a183836117ce565b905092915050565b6114b281611c0e565b82525050565b6114c181611c0e565b82525050565b60006114d282611b3b565b6114dc8185611b69565b9350836020820285016114ee85611b2b565b8060005b8581101561152a578484038952815161150b8582611495565b945061151683611b5c565b925060208a019950506001810190506114f2565b50829750879550505050505092915050565b600061154782611b46565b6115518185611b7a565b9350611561818560208601611c59565b61156a81611d33565b840191505092915050565b600061158082611b51565b61158a8185611b8b565b935061159a818560208601611c59565b6115a381611d33565b840191505092915050565b60006115b982611b51565b6115c38185611b9c565b93506115d3818560208601611c59565b6115dc81611d33565b840191505092915050565b60006115f282611b51565b6115fc8185611bad565b935061160c818560208601611c59565b80840191505092915050565b6000611625602e83611b9c565b91507f436f6e747261637420696e7374616e63652068617320616c726561647920626560008301527f656e20696e697469616c697a65640000000000000000000000000000000000006020830152604082019050919050565b600061168b600083611bad565b9150600082019050919050565b60006116a5601083611b9c565b91507f447261676f6e206e6f7420666f756e64000000000000000000000000000000006000830152602082019050919050565b60006116e5600e83611b9c565b91507f4865726f206e6f7420666f756e640000000000000000000000000000000000006000830152602082019050919050565b6000611725601683611b9c565b91507f53656e646572206e6f7420617574686f72697a65642e000000000000000000006000830152602082019050919050565b600060a08301600083015184820360008601526117758282611575565b915050602083015161178a60208601826114a9565b50604083015161179d6040860182611894565b5060608301516117b06060860182611894565b5060808301516117c36080860182611894565b508091505092915050565b600060808301600083015184820360008601526117eb8282611575565b91505060208301516118006020860182611894565b5060408301516118136040860182611894565b5060608301516118266060860182611894565b508091505092915050565b6000608083016000830151848203600086015261184e8282611575565b91505060208301516118636020860182611894565b5060408301516118766040860182611894565b5060608301516118896060860182611894565b508091505092915050565b61189d81611c40565b82525050565b6118ac81611c40565b82525050565b60006118be82846115e7565b915081905092915050565b60006118d48261167e565b9150819050919050565b60006020820190506118f360008301846114b8565b92915050565b6000602082019050818103600083015261191381846114c7565b905092915050565b60006020820190508181036000830152611935818461153c565b905092915050565b6000602082019050818103600083015261195781846115ae565b905092915050565b6000604082019050818103600083015261197981856115ae565b905061198860208301846114b8565b9392505050565b600060208201905081810360008301526119a881611618565b9050919050565b600060208201905081810360008301526119c881611698565b9050919050565b600060208201905081810360008301526119e8816116d8565b9050919050565b60006020820190508181036000830152611a0881611718565b9050919050565b60006020820190508181036000830152611a298184611758565b905092915050565b60006020820190508181036000830152611a4b8184611831565b905092915050565b6000602082019050611a6860008301846118a3565b92915050565b6000604051905081810181811067ffffffffffffffff82111715611a9557611a94611d04565b5b8060405250919050565b600067ffffffffffffffff821115611aba57611ab9611d04565b5b602082029050602081019050919050565b600067ffffffffffffffff821115611ae657611ae5611d04565b5b601f19601f8301169050602081019050919050565b600067ffffffffffffffff821115611b1657611b15611d04565b5b601f19601f8301169050602081019050919050565b6000819050602082019050919050565b600081519050919050565b600081519050919050565b600081519050919050565b6000602082019050919050565b600082825260208201905092915050565b600082825260208201905092915050565b600082825260208201905092915050565b600082825260208201905092915050565b600081905092915050565b6000611bc382611c40565b9150611bce83611c40565b9250827fffffffffffffffffffffffffffffffffffffffffffffffffffffffffffffffff03821115611c0357611c02611cd5565b5b828201905092915050565b6000611c1982611c20565b9050919050565b600073ffffffffffffffffffffffffffffffffffffffff82169050919050565b6000819050919050565b82818337600083830152505050565b60005b83811015611c77578082015181840152602081019050611c5c565b83811115611c86576000848401525b50505050565b6000611c9782611c40565b91507fffffffffffffffffffffffffffffffffffffffffffffffffffffffffffffffff821415611cca57611cc9611cd5565b5b600182019050919050565b7f4e487b7100000000000000000000000000000000000000000000000000000000600052601160045260246000fd5b7f4e487b7100000000000000000000000000000000000000000000000000000000600052604160045260246000fd5b6000601f19601f8301169050919050565b611d4d81611c0e565b8114611d5857600080fd5b50565b611d6481611c40565b8114611d6f57600080fd5b5056fe608060405234801561001057600080fd5b50611108806100206000396000f3fe608060405234801561001057600080fd5b506004361061004c5760003560e01c806327df259a146100515780638129fc1c146100815780639a8d28821461008b578063deb786c4146100a9575b600080fd5b61006b600480360381019061006691906108fb565b6100c5565b6040516100789190610d2a565b60405180910390f35b61008961025e565b005b61009361035a565b6040516100a09190610ca8565b60405180910390f35b6100c360048036038101906100be9190610924565b6104b1565b005b6100cd6107b3565b6000603c8054905011610115576040517f08c379a000000000000000000000000000000000000000000000000000000000815260040161010c90610cca565b60405180910390fd5b603c603460008473ffffffffffffffffffffffffffffffffffffffff1673ffffffffffffffffffffffffffffffffffffffff168152602001908152602001600020548154811061018e577f4e487b7100000000000000000000000000000000000000000000000000000000600052603260045260246000fd5b90600052602060002090600402016040518060800160405290816000820180546101b790610f07565b80601f01602080910402602001604051908101604052809291908181526020018280546101e390610f07565b80156102305780601f1061020557610100808354040283529160200191610230565b820191906000526020600020905b81548152906001019060200180831161021357829003601f168201915b5050505050815260200160018201548152602001600282015481526020016003820154815250509050919050565b600060019054906101000a900460ff168061027d575061027c610541565b5b80610293575060008054906101000a900460ff16155b6102d2576040517f08c379a00000000000000000000000000000000000000000000000000000000081526004016102c990610cea565b60405180910390fd5b60008060019054906101000a900460ff161590508015610322576001600060016101000a81548160ff02191690831515021790555060016000806101000a81548160ff0219169083151502179055505b620186a06036819055506298968060378190555080156103575760008060016101000a81548160ff0219169083151502179055505b50565b60606000603c80549050116103a4576040517f08c379a000000000000000000000000000000000000000000000000000000000815260040161039b90610cca565b60405180910390fd5b603c805480602002602001604051908101604052809291908181526020016000905b828210156104a857838290600052602060002090600402016040518060800160405290816000820180546103f990610f07565b80601f016020809104026020016040519081016040528092919081815260200182805461042590610f07565b80156104725780601f1061044757610100808354040283529160200191610472565b820191906000526020600020905b81548152906001019060200180831161045557829003601f168201915b505050505081526020016001820154815260200160028201548152602001600382015481525050815260200190600101906103c6565b50505050905090565b6000603560008373ffffffffffffffffffffffffffffffffffffffff1673ffffffffffffffffffffffffffffffffffffffff1681526020019081526020016000205414610533576040517f08c379a000000000000000000000000000000000000000000000000000000000815260040161052a90610d0a565b60405180910390fd5b61053d8282610558565b5050565b6000803090506000813b9050600081149250505090565b603c604051806080016040528084815260200161057361072f565b8152602001610580610771565b81526020016000815250908060018154018082558091505060019003906000526020600020906004020160009091909190915060008201518160000190805190602001906105cf9291906107db565b50602082015181600101556040820151816002015560608201518160030155505060006001603c805490506106049190610e43565b9050816033600083815260200190815260200160002060006101000a81548173ffffffffffffffffffffffffffffffffffffffff021916908373ffffffffffffffffffffffffffffffffffffffff16021790555080603460008473ffffffffffffffffffffffffffffffffffffffff1673ffffffffffffffffffffffffffffffffffffffff16815260200190815260200160002081905550603560008373ffffffffffffffffffffffffffffffffffffffff1673ffffffffffffffffffffffffffffffffffffffff16815260200190815260200160002060008154809291906106ec90610f39565b91905055507fe091168a421f352d46fe9eafce51f4d2bce03324348c1d1d6f9bb1283d60bed68184604051610722929190610d4c565b60405180910390a1505050565b600060365442444160405160200161074993929190610c6b565b6040516020818303038152906040528051906020012060001c61076c9190610fb0565b905090565b600060375442444160405160200161078b93929190610c6b565b6040516020818303038152906040528051906020012060001c6107ae9190610fb0565b905090565b6040518060800160405280606081526020016000815260200160008152602001600081525090565b8280546107e790610f07565b90600052602060002090601f0160209004810192826108095760008555610850565b82601f1061082257805160ff1916838001178555610850565b82800160010185558215610850579182015b8281111561084f578251825591602001919060010190610834565b5b50905061085d9190610861565b5090565b5b8082111561087a576000816000905550600101610862565b5090565b600061089161088c84610dad565b610d7c565b9050828152602081018484840111156108a957600080fd5b6108b4848285610ec5565b509392505050565b6000813590506108cb816110bb565b92915050565b600082601f8301126108e257600080fd5b81356108f284826020860161087e565b91505092915050565b60006020828403121561090d57600080fd5b600061091b848285016108bc565b91505092915050565b6000806040838503121561093757600080fd5b600083013567ffffffffffffffff81111561095157600080fd5b61095d858286016108d1565b925050602061096e858286016108bc565b9150509250929050565b60006109848383610b70565b905092915050565b61099d61099882610e89565b610f82565b82525050565b60006109ae82610ded565b6109b88185610e10565b9350836020820285016109ca85610ddd565b8060005b85811015610a0657848403895281516109e78582610978565b94506109f283610e03565b925060208a019950506001810190506109ce565b50829750879550505050505092915050565b6000610a2382610df8565b610a2d8185610e21565b9350610a3d818560208601610ed4565b610a468161109d565b840191505092915050565b6000610a5c82610df8565b610a668185610e32565b9350610a76818560208601610ed4565b610a7f8161109d565b840191505092915050565b6000610a97601f83610e32565b91507f4e6f206865726f657320617661696c61626c6520666f72206c6f6f6b75702e006000830152602082019050919050565b6000610ad7602e83610e32565b91507f436f6e747261637420696e7374616e63652068617320616c726561647920626560008301527f656e20696e697469616c697a65640000000000000000000000000000000000006020830152604082019050919050565b6000610b3d601b83610e32565b91507f596f7520616c726561647920637265617465642061206865726f2100000000006000830152602082019050919050565b60006080830160008301518482036000860152610b8d8282610a18565b9150506020830151610ba26020860182610c36565b506040830151610bb56040860182610c36565b506060830151610bc86060860182610c36565b508091505092915050565b60006080830160008301518482036000860152610bf08282610a18565b9150506020830151610c056020860182610c36565b506040830151610c186040860182610c36565b506060830151610c2b6060860182610c36565b508091505092915050565b610c3f81610ebb565b82525050565b610c4e81610ebb565b82525050565b610c65610c6082610ebb565b610fa6565b82525050565b6000610c778286610c54565b602082019150610c878285610c54565b602082019150610c97828461098c565b601482019150819050949350505050565b60006020820190508181036000830152610cc281846109a3565b905092915050565b60006020820190508181036000830152610ce381610a8a565b9050919050565b60006020820190508181036000830152610d0381610aca565b9050919050565b60006020820190508181036000830152610d2381610b30565b9050919050565b60006020820190508181036000830152610d448184610bd3565b905092915050565b6000604082019050610d616000830185610c45565b8181036020830152610d738184610a51565b90509392505050565b6000604051905081810181811067ffffffffffffffff82111715610da357610da261106e565b5b8060405250919050565b600067ffffffffffffffff821115610dc857610dc761106e565b5b601f19601f8301169050602081019050919050565b6000819050602082019050919050565b600081519050919050565b600081519050919050565b6000602082019050919050565b600082825260208201905092915050565b600082825260208201905092915050565b600082825260208201905092915050565b6000610e4e82610ebb565b9150610e5983610ebb565b925082821015610e6c57610e6b610fe1565b5b828203905092915050565b6000610e8282610e9b565b9050919050565b6000610e9482610e9b565b9050919050565b600073ffffffffffffffffffffffffffffffffffffffff82169050919050565b6000819050919050565b82818337600083830152505050565b60005b83811015610ef2578082015181840152602081019050610ed7565b83811115610f01576000848401525b50505050565b60006002820490506001821680610f1f57607f821691505b60208210811415610f3357610f3261103f565b5b50919050565b6000610f4482610ebb565b91507fffffffffffffffffffffffffffffffffffffffffffffffffffffffffffffffff821415610f7757610f76610fe1565b5b600182019050919050565b6000610f8d82610f94565b9050919050565b6000610f9f826110ae565b9050919050565b6000819050919050565b6000610fbb82610ebb565b9150610fc683610ebb565b925082610fd657610fd5611010565b5b828206905092915050565b7f4e487b7100000000000000000000000000000000000000000000000000000000600052601160045260246000fd5b7f4e487b7100000000000000000000000000000000000000000000000000000000600052601260045260246000fd5b7f4e487b7100000000000000000000000000000000000000000000000000000000600052602260045260246000fd5b7f4e487b7100000000000000000000000000000000000000000000000000000000600052604160045260246000fd5b6000601f19601f8301169050919050565b60008160601b9050919050565b6110c481610e77565b81146110cf57600080fd5b5056fea26469706673582212204b0725f2ac838423470d96b11adda115b656a3df2cf015cfdce99510359fa20864736f6c63430008000033608060405234801561001057600080fd5b5061103e806100206000396000f3fe608060405234801561001057600080fd5b506004361061004c5760003560e01c80638129fc1c14610051578063b11852441461005b578063b7ed99d614610079578063f8caf6c714610083575b600080fd5b6100596100a1565b005b61006361019d565b6040516100709190610ced565b60405180910390f35b61008161038a565b005b61008b610394565b6040516100989190610c8b565b60405180910390f35b600060019054906101000a900460ff16806100c057506100bf610541565b5b806100d6575060008054906101000a900460ff16155b610115576040517f08c379a000000000000000000000000000000000000000000000000000000000815260040161010c90610ccd565b60405180910390fd5b60008060019054906101000a900460ff161590508015610165576001600060016101000a81548160ff02191690831515021790555060016000806101000a81548160ff0219169083151502179055505b620186a060348190555062989680603581905550801561019a5760008060016101000a81548160ff0219169083151502179055505b50565b6101a56107a3565b6000603b80549050116101ed576040517f08c379a00000000000000000000000000000000000000000000000000000000081526004016101e490610cad565b60405180910390fd5b603b603360003073ffffffffffffffffffffffffffffffffffffffff1673ffffffffffffffffffffffffffffffffffffffff1681526020019081526020016000205481548110610266577f4e487b7100000000000000000000000000000000000000000000000000000000600052603260045260246000fd5b90600052602060002090600502016040518060a001604052908160008201805461028f90610e8b565b80601f01602080910402602001604051908101604052809291908181526020018280546102bb90610e8b565b80156103085780601f106102dd57610100808354040283529160200191610308565b820191906000526020600020905b8154815290600101906020018083116102eb57829003601f168201915b505050505081526020016001820160009054906101000a900473ffffffffffffffffffffffffffffffffffffffff1673ffffffffffffffffffffffffffffffffffffffff1673ffffffffffffffffffffffffffffffffffffffff1681526020016002820154815260200160038201548152602001600482015481525050905090565b610392610558565b565b60606000603b80549050116103de576040517f08c379a00000000000000000000000000000000000000000000000000000000081526004016103d590610cad565b60405180910390fd5b603b805480602002602001604051908101604052809291908181526020016000905b8282101561053857838290600052602060002090600502016040518060a001604052908160008201805461043390610e8b565b80601f016020809104026020016040519081016040528092919081815260200182805461045f90610e8b565b80156104ac5780601f10610481576101008083540402835291602001916104ac565b820191906000526020600020905b81548152906001019060200180831161048f57829003601f168201915b505050505081526020016001820160009054906101000a900473ffffffffffffffffffffffffffffffffffffffff1673ffffffffffffffffffffffffffffffffffffffff1673ffffffffffffffffffffffffffffffffffffffff168152602001600282015481526020016003820154815260200160048201548152505081526020019060010190610400565b50505050905090565b6000803090506000813b9050600081149250505090565b603b6040518060a001604052806040518060400160405280600e81526020017f44656661756c745f447261676f6e00000000000000000000000000000000000081525081526020013073ffffffffffffffffffffffffffffffffffffffff1681526020016105c461071f565b81526020016105d1610761565b8152602001600a815250908060018154018082558091505060019003906000526020600020906005020160009091909190915060008201518160000190805190602001906106209291906107e8565b5060208201518160010160006101000a81548173ffffffffffffffffffffffffffffffffffffffff021916908373ffffffffffffffffffffffffffffffffffffffff160217905550604082015181600201556060820151816003015560808201518160040155505060006001603b8054905061069c9190610dac565b90507fa8d5c415ae4486d0b0ca47d57931522bcf32daa16432a434fd9d4c57050e94da603b82815481106106f9577f4e487b7100000000000000000000000000000000000000000000000000000000600052603260045260246000fd5b90600052602060002090600502016040516107149190610d0f565b60405180910390a150565b600060345442444160405160200161073993929190610c4e565b6040516020818303038152906040528051906020012060001c61075c9190610f1f565b905090565b600060355442444160405160200161077b93929190610c4e565b6040516020818303038152906040528051906020012060001c61079e9190610f1f565b905090565b6040518060a0016040528060608152602001600073ffffffffffffffffffffffffffffffffffffffff1681526020016000815260200160008152602001600081525090565b8280546107f490610e8b565b90600052602060002090601f016020900481019282610816576000855561085d565b82601f1061082f57805160ff191683800117855561085d565b8280016001018555821561085d579182015b8281111561085c578251825591602001919060010190610841565b5b50905061086a919061086e565b5090565b5b8082111561088757600081600090555060010161086f565b5090565b60006108978383610a99565b905092915050565b6108b06108ab82610e1c565b610ef1565b82525050565b6108bf81610e0a565b82525050565b60006108d082610d56565b6108da8185610d79565b9350836020820285016108ec85610d31565b8060005b858110156109285784840389528151610909858261088b565b945061091483610d6c565b925060208a019950506001810190506108f0565b50829750879550505050505092915050565b600061094582610d61565b61094f8185610d8a565b935061095f818560208601610e58565b61096881610fdd565b840191505092915050565b6000815461098081610e8b565b61098a8186610d8a565b945060018216600081146109a557600181146109b7576109ea565b60ff19831686526020860193506109ea565b6109c085610d41565b60005b838110156109e2578154818901526001820191506020810190506109c3565b808801955050505b50505092915050565b6000610a00602083610d9b565b91507f4e6f20647261676f6e7320617661696c61626c6520666f72206c6f6f6b75702e6000830152602082019050919050565b6000610a40602e83610d9b565b91507f436f6e747261637420696e7374616e63652068617320616c726561647920626560008301527f656e20696e697469616c697a65640000000000000000000000000000000000006020830152604082019050919050565b600060a0830160008301518482036000860152610ab6828261093a565b9150506020830151610acb60208601826108b6565b506040830151610ade6040860182610c28565b506060830151610af16060860182610c28565b506080830151610b046080860182610c28565b508091505092915050565b600060a0830160008301518482036000860152610b2c828261093a565b9150506020830151610b4160208601826108b6565b506040830151610b546040860182610c28565b506060830151610b676060860182610c28565b506080830151610b7a6080860182610c28565b508091505092915050565b600060a0830160008084018583036000870152610ba28382610973565b92505060018401549050610bb581610ebd565b610bc260208701826108b6565b5060028401549050610bd381610ed7565b610be06040870182610c28565b5060038401549050610bf181610ed7565b610bfe6060870182610c28565b5060048401549050610c0f81610ed7565b610c1c6080870182610c28565b50819250505092915050565b610c3181610e4e565b82525050565b610c48610c4382610e4e565b610f15565b82525050565b6000610c5a8286610c37565b602082019150610c6a8285610c37565b602082019150610c7a828461089f565b601482019150819050949350505050565b60006020820190508181036000830152610ca581846108c5565b905092915050565b60006020820190508181036000830152610cc6816109f3565b9050919050565b60006020820190508181036000830152610ce681610a33565b9050919050565b60006020820190508181036000830152610d078184610b0f565b905092915050565b60006020820190508181036000830152610d298184610b85565b905092915050565b6000819050602082019050919050565b60008190508160005260206000209050919050565b600081519050919050565b600081519050919050565b6000602082019050919050565b600082825260208201905092915050565b600082825260208201905092915050565b600082825260208201905092915050565b6000610db782610e4e565b9150610dc283610e4e565b925082821015610dd557610dd4610f50565b5b828203905092915050565b600073ffffffffffffffffffffffffffffffffffffffff82169050919050565b6000819050919050565b6000610e1582610e2e565b9050919050565b6000610e2782610e2e565b9050919050565b600073ffffffffffffffffffffffffffffffffffffffff82169050919050565b6000819050919050565b60005b83811015610e76578082015181840152602081019050610e5b565b83811115610e85576000848401525b50505050565b60006002820490506001821680610ea357607f821691505b60208210811415610eb757610eb6610fae565b5b50919050565b6000610ed0610ecb83610ffb565b610de0565b9050919050565b6000610eea610ee583610ffb565b610e00565b9050919050565b6000610efc82610f03565b9050919050565b6000610f0e82610fee565b9050919050565b6000819050919050565b6000610f2a82610e4e565b9150610f3583610e4e565b925082610f4557610f44610f7f565b5b828206905092915050565b7f4e487b7100000000000000000000000000000000000000000000000000000000600052601160045260246000fd5b7f4e487b7100000000000000000000000000000000000000000000000000000000600052601260045260246000fd5b7f4e487b7100000000000000000000000000000000000000000000000000000000600052602260045260246000fd5b6000601f19601f8301169050919050565b60008160601b9050919050565b60008160001c905091905056fea26469706673582212201fda41d06ca6c39be86db518f0e2689752f7fa0b41891d644a49aa383125056f64736f6c63430008000033608060405234801561001057600080fd5b50611e57806100206000396000f3fe6080604052600436106100705760003560e01c806343d3b1be1161004e57806343d3b1be146100d1578063673402e5146100fc5780638129fc1c14610127578063952525601461013157610070565b806313fdba3c1461007557806327dc297e1461007f57806338bbfa50146100a8575b600080fd5b61007d61015c565b005b34801561008b57600080fd5b506100a660048036038101906100a19190611756565b61023f565b005b3480156100b457600080fd5b506100cf60048036038101906100ca91906117aa565b610299565b005b3480156100dd57600080fd5b506100e66102bc565b6040516100f39190611a77565b60405180910390f35b34801561010857600080fd5b506101116102c2565b60405161011e91906119ae565b60405180910390f35b61012f610350565b005b34801561013d57600080fd5b5061014661043d565b60405161015391906119ae565b60405180910390f35b61019a6040518060400160405280600381526020017f55524c00000000000000000000000000000000000000000000000000000000008152506104cf565b6039819055506039544710156101e5576040517f08c379a00000000000000000000000000000000000000000000000000000000081526004016101dc90611a37565b60405180910390fd5b61023c6040518060400160405280600381526020017f55524c00000000000000000000000000000000000000000000000000000000008152506040518060a0016040528060678152602001611dbb606791396107f0565b50565b610247610bff565b73ffffffffffffffffffffffffffffffffffffffff163373ffffffffffffffffffffffffffffffffffffffff161461027e57600080fd5b80603890805190602001906102949291906114b7565b505050565b6000801b600360008060001b815260200190815260200160002081905550505050565b60395481565b603880546102cf90611ca5565b80601f01602080910402602001604051908101604052809291908181526020018280546102fb90611ca5565b80156103485780601f1061031d57610100808354040283529160200191610348565b820191906000526020600020905b81548152906001019060200180831161032b57829003601f168201915b505050505081565b600560019054906101000a900460ff168061036f575061036e610f13565b5b806103875750600560009054906101000a900460ff16155b6103c6576040517f08c379a00000000000000000000000000000000000000000000000000000000081526004016103bd90611a57565b60405180910390fd5b6000600560019054906101000a900460ff161590508015610418576001600560016101000a81548160ff0219169083151502179055506001600560006101000a81548160ff0219169083151502179055505b801561043a576000600560016101000a81548160ff0219169083151502179055505b50565b60606038805461044c90611ca5565b80601f016020809104026020016040519081016040528092919081815260200182805461047890611ca5565b80156104c55780601f1061049a576101008083540402835291602001916104c5565b820191906000526020600020905b8154815290600101906020018083116104a857829003601f168201915b5050505050905090565b60008073ffffffffffffffffffffffffffffffffffffffff16600160009054906101000a900473ffffffffffffffffffffffffffffffffffffffff1673ffffffffffffffffffffffffffffffffffffffff16148061055757506000610555600160009054906101000a900473ffffffffffffffffffffffffffffffffffffffff16610f2a565b145b15610568576105666000610f35565b505b600160009054906101000a900473ffffffffffffffffffffffffffffffffffffffff1673ffffffffffffffffffffffffffffffffffffffff166338cc48316040518163ffffffff1660e01b8152600401602060405180830381600087803b1580156105d257600080fd5b505af11580156105e6573d6000803e3d6000fd5b505050506040513d601f19601f8201168201806040525081019061060a9190611704565b73ffffffffffffffffffffffffffffffffffffffff1660008054906101000a900473ffffffffffffffffffffffffffffffffffffffff1673ffffffffffffffffffffffffffffffffffffffff161461073e57600160009054906101000a900473ffffffffffffffffffffffffffffffffffffffff1673ffffffffffffffffffffffffffffffffffffffff166338cc48316040518163ffffffff1660e01b8152600401602060405180830381600087803b1580156106c657600080fd5b505af11580156106da573d6000803e3d6000fd5b505050506040513d601f19601f820116820180604052508101906106fe9190611704565b6000806101000a81548173ffffffffffffffffffffffffffffffffffffffff021916908373ffffffffffffffffffffffffffffffffffffffff1602179055505b60008054906101000a900473ffffffffffffffffffffffffffffffffffffffff1673ffffffffffffffffffffffffffffffffffffffff1663524f3889836040518263ffffffff1660e01b81526004016107979190611a15565b602060405180830381600087803b1580156107b157600080fd5b505af11580156107c5573d6000803e3d6000fd5b505050506040513d601f19601f820116820180604052508101906107e99190611829565b9050919050565b60008073ffffffffffffffffffffffffffffffffffffffff16600160009054906101000a900473ffffffffffffffffffffffffffffffffffffffff1673ffffffffffffffffffffffffffffffffffffffff16148061087857506000610876600160009054906101000a900473ffffffffffffffffffffffffffffffffffffffff16610f2a565b145b15610889576108876000610f35565b505b600160009054906101000a900473ffffffffffffffffffffffffffffffffffffffff1673ffffffffffffffffffffffffffffffffffffffff166338cc48316040518163ffffffff1660e01b8152600401602060405180830381600087803b1580156108f357600080fd5b505af1158015610907573d6000803e3d6000fd5b505050506040513d601f19601f8201168201806040525081019061092b9190611704565b73ffffffffffffffffffffffffffffffffffffffff1660008054906101000a900473ffffffffffffffffffffffffffffffffffffffff1673ffffffffffffffffffffffffffffffffffffffff1614610a5f57600160009054906101000a900473ffffffffffffffffffffffffffffffffffffffff1673ffffffffffffffffffffffffffffffffffffffff166338cc48316040518163ffffffff1660e01b8152600401602060405180830381600087803b1580156109e757600080fd5b505af11580156109fb573d6000803e3d6000fd5b505050506040513d601f19601f82011682018060405250810190610a1f9190611704565b6000806101000a81548173ffffffffffffffffffffffffffffffffffffffff021916908373ffffffffffffffffffffffffffffffffffffffff1602179055505b60008060009054906101000a900473ffffffffffffffffffffffffffffffffffffffff1673ffffffffffffffffffffffffffffffffffffffff1663524f3889856040518263ffffffff1660e01b8152600401610abb9190611a15565b602060405180830381600087803b158015610ad557600080fd5b505af1158015610ae9573d6000803e3d6000fd5b505050506040513d601f19601f82011682018060405250810190610b0d9190611829565b905062030d403a610b1e9190611bb1565b670de0b6b3a7640000610b319190611b5b565b811115610b44576000801b915050610bf9565b60008054906101000a900473ffffffffffffffffffffffffffffffffffffffff1673ffffffffffffffffffffffffffffffffffffffff1663adf59f9982600087876040518563ffffffff1660e01b8152600401610ba3939291906119d0565b6020604051808303818588803b158015610bbc57600080fd5b505af1158015610bd0573d6000803e3d6000fd5b50505050506040513d601f19601f82011682018060405250810190610bf5919061172d565b9150505b92915050565b60008073ffffffffffffffffffffffffffffffffffffffff16600160009054906101000a900473ffffffffffffffffffffffffffffffffffffffff1673ffffffffffffffffffffffffffffffffffffffff161480610c8757506000610c85600160009054906101000a900473ffffffffffffffffffffffffffffffffffffffff16610f2a565b145b15610c9857610c966000610f35565b505b600160009054906101000a900473ffffffffffffffffffffffffffffffffffffffff1673ffffffffffffffffffffffffffffffffffffffff166338cc48316040518163ffffffff1660e01b8152600401602060405180830381600087803b158015610d0257600080fd5b505af1158015610d16573d6000803e3d6000fd5b505050506040513d601f19601f82011682018060405250810190610d3a9190611704565b73ffffffffffffffffffffffffffffffffffffffff1660008054906101000a900473ffffffffffffffffffffffffffffffffffffffff1673ffffffffffffffffffffffffffffffffffffffff1614610e6e57600160009054906101000a900473ffffffffffffffffffffffffffffffffffffffff1673ffffffffffffffffffffffffffffffffffffffff166338cc48316040518163ffffffff1660e01b8152600401602060405180830381600087803b158015610df657600080fd5b505af1158015610e0a573d6000803e3d6000fd5b505050506040513d601f19601f82011682018060405250810190610e2e9190611704565b6000806101000a81548173ffffffffffffffffffffffffffffffffffffffff021916908373ffffffffffffffffffffffffffffffffffffffff1602179055505b60008054906101000a900473ffffffffffffffffffffffffffffffffffffffff1673ffffffffffffffffffffffffffffffffffffffff1663c281d19e6040518163ffffffff1660e01b8152600401602060405180830381600087803b158015610ed657600080fd5b505af1158015610eea573d6000803e3d6000fd5b505050506040513d601f19601f82011682018060405250810190610f0e9190611704565b905090565b6000803090506000813b9050600081149250505090565b6000813b9050919050565b6000610f3f610f46565b9050919050565b600080610f66731d3b2638a7cc9f2cb3d298a3da7a90b67e5506ed610f2a565b111561100857731d3b2638a7cc9f2cb3d298a3da7a90b67e5506ed600160006101000a81548173ffffffffffffffffffffffffffffffffffffffff021916908373ffffffffffffffffffffffffffffffffffffffff160217905550610fff6040518060400160405280600b81526020017f6574685f6d61696e6e657400000000000000000000000000000000000000000081525061149d565b6001905061149a565b600061102773c03a2615d5efaf5f49f60b7bb6583eaec212fdf1610f2a565b11156110c95773c03a2615d5efaf5f49f60b7bb6583eaec212fdf1600160006101000a81548173ffffffffffffffffffffffffffffffffffffffff021916908373ffffffffffffffffffffffffffffffffffffffff1602179055506110c06040518060400160405280600c81526020017f6574685f726f707374656e33000000000000000000000000000000000000000081525061149d565b6001905061149a565b60006110e873b7a07bcf2ba2f2703b24c0691b5278999c59ac7e610f2a565b111561118a5773b7a07bcf2ba2f2703b24c0691b5278999c59ac7e600160006101000a81548173ffffffffffffffffffffffffffffffffffffffff021916908373ffffffffffffffffffffffffffffffffffffffff1602179055506111816040518060400160405280600981526020017f6574685f6b6f76616e000000000000000000000000000000000000000000000081525061149d565b6001905061149a565b60006111a973146500cfd35b22e4a392fe0adc06de1a1368ed48610f2a565b111561124b5773146500cfd35b22e4a392fe0adc06de1a1368ed48600160006101000a81548173ffffffffffffffffffffffffffffffffffffffff021916908373ffffffffffffffffffffffffffffffffffffffff1602179055506112426040518060400160405280600b81526020017f6574685f72696e6b65627900000000000000000000000000000000000000000081525061149d565b6001905061149a565b600061126a73a2998efd205fb9d4b4963afb70778d6354ad3a41610f2a565b111561130c5773a2998efd205fb9d4b4963afb70778d6354ad3a41600160006101000a81548173ffffffffffffffffffffffffffffffffffffffff021916908373ffffffffffffffffffffffffffffffffffffffff1602179055506113036040518060400160405280600a81526020017f6574685f676f65726c690000000000000000000000000000000000000000000081525061149d565b6001905061149a565b600061132b736f485c8bf6fc43ea212e93bbf8ce046c7f1cb475610f2a565b111561138f57736f485c8bf6fc43ea212e93bbf8ce046c7f1cb475600160006101000a81548173ffffffffffffffffffffffffffffffffffffffff021916908373ffffffffffffffffffffffffffffffffffffffff1602179055506001905061149a565b60006113ae7320e12a1f859b3feae5fb2a0a32c18f5a65555bbf610f2a565b1115611412577320e12a1f859b3feae5fb2a0a32c18f5a65555bbf600160006101000a81548173ffffffffffffffffffffffffffffffffffffffff021916908373ffffffffffffffffffffffffffffffffffffffff1602179055506001905061149a565b60006114317351efaf4c8b3c9afbd5ab9f4bbc82784ab6ef8faa610f2a565b1115611495577351efaf4c8b3c9afbd5ab9f4bbc82784ab6ef8faa600160006101000a81548173ffffffffffffffffffffffffffffffffffffffff021916908373ffffffffffffffffffffffffffffffffffffffff1602179055506001905061149a565b600090505b90565b80600290805190602001906114b392919061153d565b5050565b8280546114c390611ca5565b90600052602060002090601f0160209004810192826114e5576000855561152c565b82601f106114fe57805160ff191683800117855561152c565b8280016001018555821561152c579182015b8281111561152b578251825591602001919060010190611510565b5b50905061153991906115c3565b5090565b82805461154990611ca5565b90600052602060002090601f01602090048101928261156b57600085556115b2565b82601f1061158457805160ff19168380011785556115b2565b828001600101855582156115b2579182015b828111156115b1578251825591602001919060010190611596565b5b5090506115bf91906115c3565b5090565b5b808211156115dc5760008160009055506001016115c4565b5090565b60006115f36115ee84611ac3565b611a92565b90508281526020810184848401111561160b57600080fd5b611616848285611c63565b509392505050565b600061163161162c84611af3565b611a92565b90508281526020810184848401111561164957600080fd5b611654848285611c63565b509392505050565b60008151905061166b81611d75565b92915050565b60008135905061168081611d8c565b92915050565b60008151905061169581611d8c565b92915050565b600082601f8301126116ac57600080fd5b81356116bc8482602086016115e0565b91505092915050565b600082601f8301126116d657600080fd5b81356116e684826020860161161e565b91505092915050565b6000815190506116fe81611da3565b92915050565b60006020828403121561171657600080fd5b60006117248482850161165c565b91505092915050565b60006020828403121561173f57600080fd5b600061174d84828501611686565b91505092915050565b6000806040838503121561176957600080fd5b600061177785828601611671565b925050602083013567ffffffffffffffff81111561179457600080fd5b6117a0858286016116c5565b9150509250929050565b6000806000606084860312156117bf57600080fd5b60006117cd86828701611671565b935050602084013567ffffffffffffffff8111156117ea57600080fd5b6117f6868287016116c5565b925050604084013567ffffffffffffffff81111561181357600080fd5b61181f8682870161169b565b9150509250925092565b60006020828403121561183b57600080fd5b6000611849848285016116ef565b91505092915050565b600061185d82611b23565b6118678185611b39565b9350611877818560208601611c72565b61188081611d64565b840191505092915050565b61189481611c51565b82525050565b60006118a582611b2e565b6118af8185611b4a565b93506118bf818560208601611c72565b6118c881611d64565b840191505092915050565b60006118e0602e83611b4a565b91507f706c656173652061646420736f6d652045544820746f20636f76657220666f7260008301527f20746865207175657279206665650000000000000000000000000000000000006020830152604082019050919050565b6000611946602e83611b4a565b91507f436f6e747261637420696e7374616e63652068617320616c726561647920626560008301527f656e20696e697469616c697a65640000000000000000000000000000000000006020830152604082019050919050565b6119a881611c47565b82525050565b600060208201905081810360008301526119c88184611852565b905092915050565b60006060820190506119e5600083018661188b565b81810360208301526119f7818561189a565b90508181036040830152611a0b818461189a565b9050949350505050565b60006020820190508181036000830152611a2f818461189a565b905092915050565b60006020820190508181036000830152611a50816118d3565b9050919050565b60006020820190508181036000830152611a7081611939565b9050919050565b6000602082019050611a8c600083018461199f565b92915050565b6000604051905081810181811067ffffffffffffffff82111715611ab957611ab8611d35565b5b8060405250919050565b600067ffffffffffffffff821115611ade57611add611d35565b5b601f19601f8301169050602081019050919050565b600067ffffffffffffffff821115611b0e57611b0d611d35565b5b601f19601f8301169050602081019050919050565b600081519050919050565b600081519050919050565b600082825260208201905092915050565b600082825260208201905092915050565b6000611b6682611c47565b9150611b7183611c47565b9250827fffffffffffffffffffffffffffffffffffffffffffffffffffffffffffffffff03821115611ba657611ba5611cd7565b5b828201905092915050565b6000611bbc82611c47565b9150611bc783611c47565b9250817fffffffffffffffffffffffffffffffffffffffffffffffffffffffffffffffff0483118215151615611c0057611bff611cd7565b5b828202905092915050565b6000611c1682611c27565b9050919050565b6000819050919050565b600073ffffffffffffffffffffffffffffffffffffffff82169050919050565b6000819050919050565b6000611c5c82611c47565b9050919050565b82818337600083830152505050565b60005b83811015611c90578082015181840152602081019050611c75565b83811115611c9f576000848401525b50505050565b60006002820490506001821680611cbd57607f821691505b60208210811415611cd157611cd0611d06565b5b50919050565b7f4e487b7100000000000000000000000000000000000000000000000000000000600052601160045260246000fd5b7f4e487b7100000000000000000000000000000000000000000000000000000000600052602260045260246000fd5b7f4e487b7100000000000000000000000000000000000000000000000000000000600052604160045260246000fd5b6000601f19601f8301169050919050565b611d7e81611c0b565b8114611d8957600080fd5b50565b611d9581611c1d565b8114611da057600080fd5b50565b611dac81611c47565b8114611db757600080fd5b5056fe6a736f6e28687474703a2f2f776565726c6976652e6e6c2f6170692f6a736f6e2d646174612d31306d696e2e7068703f6b65793d30313436346364363235266c6f63617469653d48656c6c65766f6574736c756973292e6c697665776565725b305d2e74656d70a2646970667358221220518729a5236bbf594553cefb33dbc17775c70515ab5e0f73f39ecd2f0c84006264736f6c63430008000033546865206865726f20686173206265656e206465666561746564212054686520647261676f6e2077617320746f6f207374726f6e6721546865206865726f20616e6420647261676f6e2061726520657175616c20696e20737472656e6774682c207468657265206973206e6f20766963746f72214920616d20746865206f776e6572206f66207468697320636f6e74726163742120416e64206e6f206f6e6520656c736521a2646970667358221220a815dd99215542a54c47b467bf04d3a844bff84d01ad60c90e93193a6903979464736f6c63430008000033",
  "immutableReferences": {},
  "source": "// SPDX-License-Identifier: MIT\r\npragma solidity ^0.8.0;\r\npragma abicoder v2;\r\n\r\nimport \"./HeroFactory.sol\";\r\nimport \"./DragonFactory.sol\";\r\n// import './Hero.sol';\r\n// import './Dragon.sol';\r\nimport \"./OrmrOracle.sol\";\r\nimport './Initializable.sol';\r\n\r\n/// @title Ormr, Man vs. Dragon\r\n/// @author github@ToFat4Fun\r\n/// @notice Calling the Oracle might take a few seconds to minutes, depending on block processing speed.\r\n/// @dev Working with solidity v0.8.0\r\ncontract Ormr is Initializable {\r\n    /// @dev emits the result of the battle initiated by the user. shows in front-end\r\n    event encounterResult(string);\r\n\r\n    /// @dev HF herofactory we use to create heroes     \r\n    /// @dev DF dragonfactory we use to create dragons\r\n    /// @dev OO oracle we call for our random functions \r\n    HeroFactory HF;\r\n    DragonFactory DF;\r\n    OrmrOracle OO;\r\n    address public owner; // PD-9 Modifier\r\n\r\n    // PD-9 upgrades. Replace constructor with openzeppelin initialize.\r\n    function initialize() public initializer {\r\n        HF = new HeroFactory();\r\n        DF = new DragonFactory();\r\n        OO = new OrmrOracle();\r\n        owner = msg.sender;\r\n    }\r\n\r\n    // PD-9 Modifier\r\n    /// @dev modifier that specifies only the contract owner (address which deployed it) can access a function\r\n    /// More info: https://docs.soliditylang.org/en/v0.8.0/structure-of-a-contract.html?highlight=modifier#function-modifiers and\r\n    /// https://docs.soliditylang.org/en/develop/common-patterns.html#restricting-access \r\n    modifier onlyOwner\r\n    {\r\n        require(\r\n            msg.sender == owner,\r\n            \"Sender not authorized.\"\r\n        );\r\n        // Do not forget the \"_;\"! It will\r\n        // be replaced by the actual function\r\n        // body when the modifier is used.\r\n        _;\r\n    }\r\n\r\n    /// @dev function to demonstrate the modifier for PD-9\r\n    /// @return messageFromOwner our owner left a message reminding himself he's the boss\r\n    function ownerSays() public view onlyOwner returns (string memory messageFromOwner) {\r\n        return \"I am the owner of this contract! And no one else!\";\r\n    }\r\n\r\n    /// @dev PD-9 selfdestruct method. More info: https://docs.soliditylang.org/en/v0.8.0/contracts.html#modifiers \r\n    /// only the contract owner may call this method\r\n    /// Not allowed when using OpenZeppelin, see: https://zpl.in/upgrades/error-003 \r\n    // function destroy() public onlyOwner {\r\n    //     selfdestruct(payable(owner));\r\n    // }\r\n\r\n    /// @dev below follows the game logic of creating heroes and dragons, combat and handling Oracle requests\r\n    /// @param _name heroname given by the user\r\n    function createHero(string memory _name) public {\r\n        HF.createHero(_name, msg.sender);\r\n    }\r\n\r\n    /// @return return hero associated with the user requesting the address\r\n    function getHero() public view returns (Hero memory) {\r\n        return HF.getHero(msg.sender);\r\n    }\r\n\r\n    /// @return returns all heroes in array form\r\n    function getHeroes() public view returns (Hero[] memory) {\r\n        return HF.getHeroes();\r\n    }\r\n\r\n    /// @dev creates a dragon using dragonfactory\r\n    function createDragon() public {\r\n        DF.createDragon();\r\n    }\r\n\r\n    /// @return returns dragon object\r\n    function getDragon() public view returns (Dragon memory) {\r\n        return DF.getDragon();\r\n    }\r\n\r\n    /// @notice here you can initiate a battle! make sure there is both a dragon and hero\r\n    /// @dev This is the function our user sees when starting a battle.\r\n    function startEncounter() public {\r\n        // Calls internal function which handles the encounter\r\n        _encounter(HF.getHero(msg.sender), DF.getDragon());\r\n    }\r\n\r\n    /// @dev Lock in our Hero and the Dragon. Emits the result of the encounter.\r\n    /// @param _hero the user's hero\r\n    /// @param _dragon a dragon from within the contract\r\n    function _encounter(Hero memory _hero, Dragon memory _dragon) internal {\r\n        // Check if there are both a hero and a dragon. Require keyword and ternary operator. PD-3 Error Handling.\r\n        require(keccak256(abi.encodePacked(_hero.name)) != keccak256(abi.encodePacked(\"\")), \"Hero not found\");\r\n        require(keccak256(abi.encodePacked(_dragon.name)) !=keccak256(abi.encodePacked(\"\")), \"Dragon not found\");\r\n\r\n        // calls the method which decides a winner, emits the result afterwards\r\n        emit encounterResult(_battle(_hero.power, _dragon.power));\r\n    }\r\n\r\n    /// @dev here is decided who is stronger\r\n    /// @param heroPower hero power\r\n    /// @param dragonPower dragon power\r\n    /// @return the outcome of the battle as string format\r\n    function _battle(uint256 heroPower, uint256 dragonPower) private pure returns (string memory) {\r\n        if (heroPower > dragonPower) {\r\n            return \"The dragon has been slain!\";\r\n        } else if (heroPower < dragonPower) {\r\n            return \"The hero has been defeated! The dragon was too strong!\";\r\n        } else {\r\n            return\r\n                \"The hero and dragon are equal in strength, there is no victor!\";\r\n        }\r\n    }\r\n\r\n    /// @dev Let's do something with our Oracle here. Because we want to display uint to the user and our Oracle\r\n    /// returns bytes format, let's convert it here.\r\n    /// Web3examples convert to uint https://github.com/web3examples/ethereum/blob/master/solidity_examples/bytes2uint.sol\r\n    /// @param input the bytes we want to convert to uint\r\n    /// @return the converted bytes value as uint\r\n    function convertToUint(bytes memory input) public pure returns (uint256) {\r\n        uint256 res = 0;\r\n        for (uint256 i = 0; i < input.length; i++)\r\n            res = (res << 8) + uint256(uint8(input[i]));\r\n        return res;\r\n    }\r\n\r\n    /// @dev call the oracle using OrmrOracle instance, we need to send ETH as subsequent requests to provable are not free\r\n    /// hence the payable attribute and value: msg.value object\r\n    function callOracleRandom() public payable {\r\n        OO.requestTemp{value: msg.value}();\r\n    }\r\n\r\n    /// @dev only request AFTER the oracle has been called (and wait atleast 2 blocks for the result + callback)\r\n    /// otherwise it will return NULL and undefined. This method also converts the result to uint right away for display in the front-end\r\n    /// @return returns the result of the oracle call as uint\r\n    function getTempUint() public view returns (uint256) {\r\n        bytes memory res = OO.getTemp();\r\n        return convertToUint(res);\r\n    }\r\n\r\n    /// @dev only request AFTER the oracle has been called (and wait atleast 2 blocks for the result + callback)\r\n    /// otherwise it will return NULL and undefined. This method also converts the result to uint right away for display in the front-end\r\n    /// @return returns the result of the oracle call as bytes\r\n    function getTemp() public view returns (bytes memory) {\r\n        return OO.getTemp();\r\n    }\r\n}\r\n",
  "sourcePath": "D:/HHS/Jaar 4 Minor/IT Deel Minor/Assignments/PD-8/contracts/Ormr.sol",
  "compiler": {
    "name": "solc",
    "version": "0.8.0+commit.c7dfd78e.Emscripten.clang"
  },
  "schemaVersion": "3.3.2",
  "updatedAt": "2020-12-23T20:30:27.072Z",
  "networkType": "ethereum",
  "devdoc": {
    "author": "github@ToFat4Fun",
    "details": "Working with solidity v0.8.0",
    "events": {
      "encounterResult(string)": {
        "details": "emits the result of the battle initiated by the user. shows in front-end"
      }
    },
    "kind": "dev",
    "methods": {
      "callOracleRandom()": {
        "details": "call the oracle using OrmrOracle instance, we need to send ETH as subsequent requests to provable are not free hence the payable attribute and value: msg.value object"
      },
      "convertToUint(bytes)": {
        "details": "Let's do something with our Oracle here. Because we want to display uint to the user and our Oracle returns bytes format, let's convert it here. Web3examples convert to uint https://github.com/web3examples/ethereum/blob/master/solidity_examples/bytes2uint.sol",
        "params": {
          "input": "the bytes we want to convert to uint"
        },
        "returns": {
          "_0": "the converted bytes value as uint"
        }
      },
      "createDragon()": {
        "details": "creates a dragon using dragonfactory"
      },
      "createHero(string)": {
        "details": "below follows the game logic of creating heroes and dragons, combat and handling Oracle requests",
        "params": {
          "_name": "heroname given by the user"
        }
      },
      "getDragon()": {
        "returns": {
          "_0": "returns dragon object"
        }
      },
      "getHero()": {
        "returns": {
          "_0": "return hero associated with the user requesting the address"
        }
      },
      "getHeroes()": {
        "returns": {
          "_0": "returns all heroes in array form"
        }
      },
      "getTemp()": {
        "details": "only request AFTER the oracle has been called (and wait atleast 2 blocks for the result + callback) otherwise it will return NULL and undefined. This method also converts the result to uint right away for display in the front-end",
        "returns": {
          "_0": "returns the result of the oracle call as bytes"
        }
      },
      "getTempUint()": {
        "details": "only request AFTER the oracle has been called (and wait atleast 2 blocks for the result + callback) otherwise it will return NULL and undefined. This method also converts the result to uint right away for display in the front-end",
        "returns": {
          "_0": "returns the result of the oracle call as uint"
        }
      },
      "ownerSays()": {
        "details": "function to demonstrate the modifier for PD-9",
        "returns": {
          "messageFromOwner": "our owner left a message reminding himself he's the boss"
        }
      },
      "startEncounter()": {
        "details": "This is the function our user sees when starting a battle."
      }
    },
    "stateVariables": {
      "HF": {
        "details": "HF herofactory we use to create heroes     DF dragonfactory we use to create dragonsOO oracle we call for our random functions "
      }
    },
    "title": "Ormr, Man vs. Dragon",
    "version": 1
  },
  "userdoc": {
    "kind": "user",
    "methods": {
      "startEncounter()": {
        "notice": "here you can initiate a battle! make sure there is both a dragon and hero"
      }
    },
    "notice": "Calling the Oracle might take a few seconds to minutes, depending on block processing speed.",
    "version": 1
  }
}