{
  "contractName": "DragonFactory",
  "abi": [
    {
      "anonymous": false,
      "inputs": [
        {
          "components": [
            {
              "internalType": "string",
              "name": "name",
              "type": "string"
            },
            {
              "internalType": "address",
              "name": "id",
              "type": "address"
            },
            {
              "internalType": "uint256",
              "name": "power",
              "type": "uint256"
            },
            {
              "internalType": "uint256",
              "name": "health",
              "type": "uint256"
            },
            {
              "internalType": "uint256",
              "name": "goldReward",
              "type": "uint256"
            }
          ],
          "indexed": false,
          "internalType": "struct Dragon",
          "name": "",
          "type": "tuple"
        }
      ],
      "name": "newDragon",
      "type": "event"
    },
    {
      "inputs": [],
      "name": "getDragon",
      "outputs": [
        {
          "components": [
            {
              "internalType": "string",
              "name": "name",
              "type": "string"
            },
            {
              "internalType": "address",
              "name": "id",
              "type": "address"
            },
            {
              "internalType": "uint256",
              "name": "power",
              "type": "uint256"
            },
            {
              "internalType": "uint256",
              "name": "health",
              "type": "uint256"
            },
            {
              "internalType": "uint256",
              "name": "goldReward",
              "type": "uint256"
            }
          ],
          "internalType": "struct Dragon",
          "name": "",
          "type": "tuple"
        }
      ],
      "stateMutability": "view",
      "type": "function"
    },
    {
      "inputs": [],
      "name": "getDragons",
      "outputs": [
        {
          "components": [
            {
              "internalType": "string",
              "name": "name",
              "type": "string"
            },
            {
              "internalType": "address",
              "name": "id",
              "type": "address"
            },
            {
              "internalType": "uint256",
              "name": "power",
              "type": "uint256"
            },
            {
              "internalType": "uint256",
              "name": "health",
              "type": "uint256"
            },
            {
              "internalType": "uint256",
              "name": "goldReward",
              "type": "uint256"
            }
          ],
          "internalType": "struct Dragon[]",
          "name": "",
          "type": "tuple[]"
        }
      ],
      "stateMutability": "view",
      "type": "function"
    },
    {
      "inputs": [],
      "name": "createDragon",
      "outputs": [],
      "stateMutability": "nonpayable",
      "type": "function"
    }
  ],
  "bytecode": "0x6080604052620186a06001556298968060025534801561001e57600080fd5b50610d2d8061002e6000396000f3fe608060405234801561001057600080fd5b50600436106100415760003560e01c8063b118524414610046578063b7ed99d614610064578063f8caf6c71461006e575b600080fd5b61004e61008c565b60405161005b9190610b00565b60405180910390f35b61006c61025b565b005b610076610265565b6040516100839190610abe565b60405180910390f35b610094610633565b6000600880549050116100dc576040517f08c379a00000000000000000000000000000000000000000000000000000000081526004016100d390610ae0565b60405180910390fd5b60086000803073ffffffffffffffffffffffffffffffffffffffff1673ffffffffffffffffffffffffffffffffffffffff168152602001908152602001600020548154811061012757fe5b90600052602060002090600502016040518060a0016040529081600082018054600181600116156101000203166002900480601f0160208091040260200160405190810160405280929190818152602001828054600181600116156101000203166002900480156101d95780601f106101ae576101008083540402835291602001916101d9565b820191906000526020600020905b8154815290600101906020018083116101bc57829003601f168201915b505050505081526020016001820160009054906101000a900473ffffffffffffffffffffffffffffffffffffffff1673ffffffffffffffffffffffffffffffffffffffff1673ffffffffffffffffffffffffffffffffffffffff1681526020016002820154815260200160038201548152602001600482015481525050905090565b610263610422565b565b60606000600880549050116102af576040517f08c379a00000000000000000000000000000000000000000000000000000000081526004016102a690610ae0565b60405180910390fd5b6008805480602002602001604051908101604052809291908181526020016000905b8282101561041957838290600052602060002090600502016040518060a0016040529081600082018054600181600116156101000203166002900480601f01602080910402602001604051908101604052809291908181526020018280546001816001161561010002031660029004801561038d5780601f106103625761010080835404028352916020019161038d565b820191906000526020600020905b81548152906001019060200180831161037057829003601f168201915b505050505081526020016001820160009054906101000a900473ffffffffffffffffffffffffffffffffffffffff1673ffffffffffffffffffffffffffffffffffffffff1673ffffffffffffffffffffffffffffffffffffffff1681526020016002820154815260200160038201548152602001600482015481525050815260200190600101906102d1565b50505050905090565b60086040518060a001604052806040518060400160405280600e81526020017f44656661756c745f447261676f6e00000000000000000000000000000000000081525081526020013073ffffffffffffffffffffffffffffffffffffffff16815260200161048e6105b3565b815260200161049b6105f3565b8152602001600a815250908060018154018082558091505060019003906000526020600020906005020160009091909190915060008201518160000190805190602001906104ea929190610678565b5060208201518160010160006101000a81548173ffffffffffffffffffffffffffffffffffffffff021916908373ffffffffffffffffffffffffffffffffffffffff1602179055506040820151816002015560608201518160030155608082015181600401555050600060016008805490500390507fa8d5c415ae4486d0b0ca47d57931522bcf32daa16432a434fd9d4c57050e94da6008828154811061058d57fe5b90600052602060002090600502016040516105a89190610b22565b60405180910390a150565b60006001544244416040516020016105cd93929190610a81565b6040516020818303038152906040528051906020012060001c816105ed57fe5b06905090565b600060025442444160405160200161060d93929190610a81565b6040516020818303038152906040528051906020012060001c8161062d57fe5b06905090565b6040518060a0016040528060608152602001600073ffffffffffffffffffffffffffffffffffffffff1681526020016000815260200160008152602001600081525090565b828054600181600116156101000203166002900490600052602060002090601f016020900481019282601f106106b957805160ff19168380011785556106e7565b828001600101855582156106e7579182015b828111156106e65782518255916020019190600101906106cb565b5b5090506106f491906106f8565b5090565b5b808211156107115760008160009055506001016106f9565b5090565b600061072183836108cc565b905092915050565b61073a61073582610bfb565b610c9e565b82525050565b61074981610be9565b82525050565b600061075a82610b69565b6107648185610b8c565b93508360208202850161077685610b44565b8060005b858110156107b257848403895281516107938582610715565b945061079e83610b7f565b925060208a0199505060018101905061077a565b50829750879550505050505092915050565b60006107cf82610b74565b6107d98185610b9d565b93506107e9818560208601610c37565b6107f281610ccc565b840191505092915050565b60008154600181166000811461081a576001811461084057610884565b607f600283041661082b8187610b9d565b955060ff198316865260208601935050610884565b6002820461084e8187610b9d565b955061085985610b54565b60005b8281101561087b5781548189015260018201915060208101905061085c565b80880195505050505b505092915050565b6000610899602083610bae565b91507f4e6f20647261676f6e7320617661696c61626c6520666f72206c6f6f6b75702e6000830152602082019050919050565b600060a08301600083015184820360008601526108e982826107c4565b91505060208301516108fe6020860182610740565b5060408301516109116040860182610a5b565b5060608301516109246060860182610a5b565b5060808301516109376080860182610a5b565b508091505092915050565b600060a083016000830151848203600086015261095f82826107c4565b91505060208301516109746020860182610740565b5060408301516109876040860182610a5b565b50606083015161099a6060860182610a5b565b5060808301516109ad6080860182610a5b565b508091505092915050565b600060a08301600080840185830360008701526109d583826107fd565b925050600184015490506109e881610c6a565b6109f56020870182610740565b5060028401549050610a0681610c84565b610a136040870182610a5b565b5060038401549050610a2481610c84565b610a316060870182610a5b565b5060048401549050610a4281610c84565b610a4f6080870182610a5b565b50819250505092915050565b610a6481610c2d565b82525050565b610a7b610a7682610c2d565b610cc2565b82525050565b6000610a8d8286610a6a565b602082019150610a9d8285610a6a565b602082019150610aad8284610729565b601482019150819050949350505050565b60006020820190508181036000830152610ad8818461074f565b905092915050565b60006020820190508181036000830152610af98161088c565b9050919050565b60006020820190508181036000830152610b1a8184610942565b905092915050565b60006020820190508181036000830152610b3c81846109b8565b905092915050565b6000819050602082019050919050565b60008190508160005260206000209050919050565b600081519050919050565b600081519050919050565b6000602082019050919050565b600082825260208201905092915050565b600082825260208201905092915050565b600082825260208201905092915050565b600073ffffffffffffffffffffffffffffffffffffffff82169050919050565b6000819050919050565b6000610bf482610c0d565b9050919050565b6000610c0682610c0d565b9050919050565b600073ffffffffffffffffffffffffffffffffffffffff82169050919050565b6000819050919050565b60005b83811015610c55578082015181840152602081019050610c3a565b83811115610c64576000848401525b50505050565b6000610c7d610c7883610cea565b610bbf565b9050919050565b6000610c97610c9283610cea565b610bdf565b9050919050565b6000610ca982610cb0565b9050919050565b6000610cbb82610cdd565b9050919050565b6000819050919050565b6000601f19601f8301169050919050565b60008160601b9050919050565b60008160001c905091905056fea2646970667358221220b7463b0b435b5eac3dabb3745feca11eea1167c62c352601b4e9f1f92117e0b764736f6c63430007000033",
  "immutableReferences": {},
  "source": "// SPDX-License-Identifier: MIT\r\npragma solidity ^0.7.0;\r\npragma experimental ABIEncoderV2;\r\n\r\nimport './SimpleFactory.sol';\r\nimport './Dragon.sol';\r\n\r\n// Responsible for creating the dragons our hero can slay!\r\ncontract DragonFactory is SimpleFactory {\r\n    \r\n    // Events\r\n    event newDragon (Dragon);\r\n    \r\n    // Mappings\r\n    mapping (address => uint) dragonLookup;\r\n    \r\n    // Variables\r\n    uint dragonPowerModulus = 10 ** 5; // Max 5 digits.\r\n    uint dragonHealthModulus = 10 ** 7; // Max 7 digits.\r\n    Dragon dragon;\r\n    \r\n    // Keep a list of all existing dragons.\r\n    Dragon[] dragons;\r\n    \r\n    // Getters and Setters\r\n    function getDragon() public view returns (Dragon memory) {\r\n        require((dragons.length > 0), \"No dragons available for lookup.\"); // Check if there are dragons.\r\n        return dragons[dragonLookup[address(this)]];\r\n    }\r\n    \r\n    function getDragons() public view returns (Dragon[] memory) {\r\n        require((dragons.length > 0), \"No dragons available for lookup.\"); // Check if there are dragons.\r\n        return dragons;\r\n    }\r\n    \r\n    function _createDragon() internal {\r\n        dragons.push(Dragon({name: \"Default_Dragon\", id : address(this), power : randomPower(), health : randomHealth(), goldReward : 10}));\r\n        uint id = dragons.length - 1;\r\n        emit newDragon(dragons[id]);\r\n    }\r\n    \r\n    // For ease of testing, this remains public for now..\r\n    function createDragon() public {\r\n        _createDragon();\r\n    }\r\n    \r\n    // The override keyword has to be present since v0.6.0: https://docs.soliditylang.org/en/v0.6.0/060-breaking-changes.html \r\n    // Semi-Random number generator. W.I.P\r\n    // Determines dragon power.\r\n    function randomPower() internal view override returns (uint _power) {\r\n        return uint(keccak256(abi.encodePacked(block.timestamp, block.difficulty, block.coinbase)))%dragonPowerModulus;\r\n    }\r\n    \r\n    // Semi-Random number generator. W.I.P\r\n    // Determines dragon health.\r\n    function randomHealth() internal view override returns (uint _health) {\r\n        return uint(keccak256(abi.encodePacked(block.timestamp, block.difficulty, block.coinbase)))%dragonHealthModulus;\r\n    }\r\n    \r\n}\r\n",
  "sourcePath": "D:\\HHS\\Jaar 4 Minor\\IT Deel Minor\\Assignments\\PD-8\\contracts\\DragonFactory.sol",
  "compiler": {
    "name": "solc",
    "version": "0.7.0+commit.9e61f92b.Emscripten.clang"
  },
  "schemaVersion": "3.3.2",
  "updatedAt": "2020-12-14T23:02:33.550Z",
  "devdoc": {
    "kind": "dev",
    "methods": {},
    "version": 1
  },
  "userdoc": {
    "kind": "user",
    "methods": {},
    "version": 1
  }
}