{
  "contractName": "OrmrOracle",
  "abi": [
    {
      "inputs": [],
      "stateMutability": "nonpayable",
      "type": "constructor"
    },
    {
      "inputs": [],
      "name": "queryId",
      "outputs": [
        {
          "internalType": "bytes32",
          "name": "",
          "type": "bytes32"
        }
      ],
      "stateMutability": "view",
      "type": "function"
    },
    {
      "inputs": [],
      "name": "result",
      "outputs": [
        {
          "internalType": "bytes",
          "name": "",
          "type": "bytes"
        }
      ],
      "stateMutability": "view",
      "type": "function"
    },
    {
      "inputs": [
        {
          "internalType": "bytes32",
          "name": "_myid",
          "type": "bytes32"
        },
        {
          "internalType": "string",
          "name": "_result",
          "type": "string"
        }
      ],
      "name": "__callback",
      "outputs": [],
      "stateMutability": "nonpayable",
      "type": "function"
    },
    {
      "inputs": [
        {
          "internalType": "bytes32",
          "name": "_queryId",
          "type": "bytes32"
        },
        {
          "internalType": "string",
          "name": "_result",
          "type": "string"
        },
        {
          "internalType": "bytes",
          "name": "_proof",
          "type": "bytes"
        }
      ],
      "name": "__callback",
      "outputs": [],
      "stateMutability": "nonpayable",
      "type": "function"
    },
    {
      "inputs": [
        {
          "internalType": "uint8",
          "name": "nrbytes",
          "type": "uint8"
        }
      ],
      "name": "GetRandom",
      "outputs": [],
      "stateMutability": "payable",
      "type": "function"
    },
    {
      "inputs": [],
      "name": "GetResult",
      "outputs": [
        {
          "internalType": "bytes",
          "name": "",
          "type": "bytes"
        }
      ],
      "stateMutability": "view",
      "type": "function"
    }
  ],
  "bytecode": "0x60806040523480156200001157600080fd5b5062000027603060f81b6200002d60201b60201c565b62000a21565b600073ffffffffffffffffffffffffffffffffffffffff16600160009054906101000a900473ffffffffffffffffffffffffffffffffffffffff1673ffffffffffffffffffffffffffffffffffffffff161480620000bd57506000620000bb600160009054906101000a900473ffffffffffffffffffffffffffffffffffffffff166200036c60201b60201c565b145b15620000d757620000d560006200037760201b60201c565b505b600160009054906101000a900473ffffffffffffffffffffffffffffffffffffffff1673ffffffffffffffffffffffffffffffffffffffff166338cc48316040518163ffffffff1660e01b8152600401602060405180830381600087803b1580156200014257600080fd5b505af115801562000157573d6000803e3d6000fd5b505050506040513d60208110156200016e57600080fd5b810190808051906020019092919050505073ffffffffffffffffffffffffffffffffffffffff1660008054906101000a900473ffffffffffffffffffffffffffffffffffffffff1673ffffffffffffffffffffffffffffffffffffffff1614620002ba57600160009054906101000a900473ffffffffffffffffffffffffffffffffffffffff1673ffffffffffffffffffffffffffffffffffffffff166338cc48316040518163ffffffff1660e01b8152600401602060405180830381600087803b1580156200023d57600080fd5b505af115801562000252573d6000803e3d6000fd5b505050506040513d60208110156200026957600080fd5b81019080805190602001909291905050506000806101000a81548173ffffffffffffffffffffffffffffffffffffffff021916908373ffffffffffffffffffffffffffffffffffffffff1602179055505b60008054906101000a900473ffffffffffffffffffffffffffffffffffffffff1673ffffffffffffffffffffffffffffffffffffffff1663688dcfd7826040518263ffffffff1660e01b815260040180827effffffffffffffffffffffffffffffffffffffffffffffffffffffffffffff19168152602001915050600060405180830381600087803b1580156200035057600080fd5b505af115801562000365573d6000803e3d6000fd5b5050505050565b6000813b9050919050565b6000620003896200039060201b60201c565b9050919050565b600080620003b8731d3b2638a7cc9f2cb3d298a3da7a90b67e5506ed6200036c60201b60201c565b11156200046457731d3b2638a7cc9f2cb3d298a3da7a90b67e5506ed600160006101000a81548173ffffffffffffffffffffffffffffffffffffffff021916908373ffffffffffffffffffffffffffffffffffffffff1602179055506200045a6040518060400160405280600b81526020017f6574685f6d61696e6e65740000000000000000000000000000000000000000008152506200095f60201b60201c565b600190506200095c565b60006200048b73c03a2615d5efaf5f49f60b7bb6583eaec212fdf16200036c60201b60201c565b1115620005375773c03a2615d5efaf5f49f60b7bb6583eaec212fdf1600160006101000a81548173ffffffffffffffffffffffffffffffffffffffff021916908373ffffffffffffffffffffffffffffffffffffffff1602179055506200052d6040518060400160405280600c81526020017f6574685f726f707374656e3300000000000000000000000000000000000000008152506200095f60201b60201c565b600190506200095c565b60006200055e73b7a07bcf2ba2f2703b24c0691b5278999c59ac7e6200036c60201b60201c565b11156200060a5773b7a07bcf2ba2f2703b24c0691b5278999c59ac7e600160006101000a81548173ffffffffffffffffffffffffffffffffffffffff021916908373ffffffffffffffffffffffffffffffffffffffff160217905550620006006040518060400160405280600981526020017f6574685f6b6f76616e00000000000000000000000000000000000000000000008152506200095f60201b60201c565b600190506200095c565b60006200063173146500cfd35b22e4a392fe0adc06de1a1368ed486200036c60201b60201c565b1115620006dd5773146500cfd35b22e4a392fe0adc06de1a1368ed48600160006101000a81548173ffffffffffffffffffffffffffffffffffffffff021916908373ffffffffffffffffffffffffffffffffffffffff160217905550620006d36040518060400160405280600b81526020017f6574685f72696e6b6562790000000000000000000000000000000000000000008152506200095f60201b60201c565b600190506200095c565b60006200070473a2998efd205fb9d4b4963afb70778d6354ad3a416200036c60201b60201c565b1115620007b05773a2998efd205fb9d4b4963afb70778d6354ad3a41600160006101000a81548173ffffffffffffffffffffffffffffffffffffffff021916908373ffffffffffffffffffffffffffffffffffffffff160217905550620007a66040518060400160405280600a81526020017f6574685f676f65726c69000000000000000000000000000000000000000000008152506200095f60201b60201c565b600190506200095c565b6000620007d7736f485c8bf6fc43ea212e93bbf8ce046c7f1cb4756200036c60201b60201c565b11156200083d57736f485c8bf6fc43ea212e93bbf8ce046c7f1cb475600160006101000a81548173ffffffffffffffffffffffffffffffffffffffff021916908373ffffffffffffffffffffffffffffffffffffffff160217905550600190506200095c565b6000620008647320e12a1f859b3feae5fb2a0a32c18f5a65555bbf6200036c60201b60201c565b1115620008ca577320e12a1f859b3feae5fb2a0a32c18f5a65555bbf600160006101000a81548173ffffffffffffffffffffffffffffffffffffffff021916908373ffffffffffffffffffffffffffffffffffffffff160217905550600190506200095c565b6000620008f17351efaf4c8b3c9afbd5ab9f4bbc82784ab6ef8faa6200036c60201b60201c565b111562000957577351efaf4c8b3c9afbd5ab9f4bbc82784ab6ef8faa600160006101000a81548173ffffffffffffffffffffffffffffffffffffffff021916908373ffffffffffffffffffffffffffffffffffffffff160217905550600190506200095c565b600090505b90565b8060029080519060200190620009779291906200097b565b5050565b828054600181600116156101000203166002900490600052602060002090601f016020900481019282601f10620009be57805160ff1916838001178555620009ef565b82800160010185558215620009ef579182015b82811115620009ee578251825591602001919060010190620009d1565b5b509050620009fe919062000a02565b5090565b5b8082111562000a1d57600081600090555060010162000a03565b5090565b61388b8062000a316000396000f3fe6080604052600436106100555760003560e01c806327dc297e1461005a57806338bbfa501461012c5780633f1be4d414610295578063446dd971146102c057806365372147146102f15780639a7d9af114610381575b600080fd5b34801561006657600080fd5b5061012a6004803603604081101561007d57600080fd5b8101908080359060200190929190803590602001906401000000008111156100a457600080fd5b8201836020820111156100b657600080fd5b803590602001918460018302840111640100000000831117156100d857600080fd5b91908080601f016020809104026020016040519081016040528093929190818152602001838380828437600081840152601f19601f820116905080830192505050505050509192919290505050610411565b005b34801561013857600080fd5b506102936004803603606081101561014f57600080fd5b81019080803590602001909291908035906020019064010000000081111561017657600080fd5b82018360208201111561018857600080fd5b803590602001918460018302840111640100000000831117156101aa57600080fd5b91908080601f016020809104026020016040519081016040528093929190818152602001838380828437600081840152601f19601f8201169050808301925050505050505091929192908035906020019064010000000081111561020d57600080fd5b82018360208201111561021f57600080fd5b8035906020019184600183028401116401000000008311171561024157600080fd5b91908080601f016020809104026020016040519081016040528093929190818152602001838380828437600081840152601f19601f82011690508083019250505050505050919291929050505061046b565b005b3480156102a157600080fd5b506102aa61052e565b6040518082815260200191505060405180910390f35b6102ef600480360360208110156102d657600080fd5b81019080803560ff169060200190929190505050610534565b005b3480156102fd57600080fd5b5061030661054f565b6040518080602001828103825283818151815260200191508051906020019080838360005b8381101561034657808201518184015260208101905061032b565b50505050905090810190601f1680156103735780820380516001836020036101000a031916815260200191505b509250505060405180910390f35b34801561038d57600080fd5b506103966105ed565b6040518080602001828103825283818151815260200191508051906020019080838360005b838110156103d65780820151818401526020810190506103bb565b50505050905090810190601f1680156104035780820380516001836020036101000a031916815260200191505b509250505060405180910390f35b6104678282600067ffffffffffffffff8111801561042e57600080fd5b506040519080825280601f01601f1916602001820160405280156104615781602001600182028036833780820191505090505b5061046b565b5050565b61047361068f565b73ffffffffffffffffffffffffffffffffffffffff163373ffffffffffffffffffffffffffffffffffffffff16146104aa57600080fd5b60006104b78484846109ac565b60ff1614156104dc5781600590805190602001906104d6929190613637565b50610529565b6040518060400160405280600581526020017f4572726f72000000000000000000000000000000000000000000000000000000815250600590805190602001906105279291906136b7565b505b505050565b60065481565b61054660008260ff1662030d40610adc565b60068190555050565b60058054600181600116156101000203166002900480601f0160208091040260200160405190810160405280929190818152602001828054600181600116156101000203166002900480156105e55780601f106105ba576101008083540402835291602001916105e5565b820191906000526020600020905b8154815290600101906020018083116105c857829003601f168201915b505050505081565b606060058054600181600116156101000203166002900480601f0160208091040260200160405190810160405280929190818152602001828054600181600116156101000203166002900480156106855780601f1061065a57610100808354040283529160200191610685565b820191906000526020600020905b81548152906001019060200180831161066857829003601f168201915b5050505050905090565b60008073ffffffffffffffffffffffffffffffffffffffff16600160009054906101000a900473ffffffffffffffffffffffffffffffffffffffff1673ffffffffffffffffffffffffffffffffffffffff16148061071757506000610715600160009054906101000a900473ffffffffffffffffffffffffffffffffffffffff16611101565b145b1561072857610726600061110c565b505b600160009054906101000a900473ffffffffffffffffffffffffffffffffffffffff1673ffffffffffffffffffffffffffffffffffffffff166338cc48316040518163ffffffff1660e01b8152600401602060405180830381600087803b15801561079257600080fd5b505af11580156107a6573d6000803e3d6000fd5b505050506040513d60208110156107bc57600080fd5b810190808051906020019092919050505073ffffffffffffffffffffffffffffffffffffffff1660008054906101000a900473ffffffffffffffffffffffffffffffffffffffff1673ffffffffffffffffffffffffffffffffffffffff161461090457600160009054906101000a900473ffffffffffffffffffffffffffffffffffffffff1673ffffffffffffffffffffffffffffffffffffffff166338cc48316040518163ffffffff1660e01b8152600401602060405180830381600087803b15801561088957600080fd5b505af115801561089d573d6000803e3d6000fd5b505050506040513d60208110156108b357600080fd5b81019080805190602001909291905050506000806101000a81548173ffffffffffffffffffffffffffffffffffffffff021916908373ffffffffffffffffffffffffffffffffffffffff1602179055505b60008054906101000a900473ffffffffffffffffffffffffffffffffffffffff1673ffffffffffffffffffffffffffffffffffffffff1663c281d19e6040518163ffffffff1660e01b8152600401602060405180830381600087803b15801561096c57600080fd5b505af1158015610980573d6000803e3d6000fd5b505050506040513d602081101561099657600080fd5b8101908080519060200190929190505050905090565b60007f4c00000000000000000000000000000000000000000000000000000000000000826000815181106109dc57fe5b602001015160f81c60f81b7effffffffffffffffffffffffffffffffffffffffffffffffffffffffffffff1916141580610a6f57507f500000000000000000000000000000000000000000000000000000000000000082600181518110610a3f57fe5b602001015160f81c60f81b7effffffffffffffffffffffffffffffffffffffffffffffffffffffffffffff191614155b80610a9b5750600160ff1682600281518110610a8757fe5b602001015160f81c60f81b60f81c60ff1614155b15610aa95760019050610ad5565b6000610abe838686610ab961111d565b6111bf565b905080610acf576002915050610ad5565b60009150505b9392505050565b60008083118015610aee575060208311155b610af757600080fd5b600a840293506060600167ffffffffffffffff81118015610b1757600080fd5b506040519080825280601f01601f191660200182016040528015610b4a5781602001600182028036833780820191505090505b5090508360f81b81600081518110610b5e57fe5b60200101907effffffffffffffffffffffffffffffffffffffffffffffffffffffffffffff1916908160001a9053506060602067ffffffffffffffff81118015610ba757600080fd5b506040519080825280601f01601f191660200182016040528015610bda5781602001600182028036833780820191505090505b5090506060602067ffffffffffffffff81118015610bf757600080fd5b506040519080825280601f01601f191660200182016040528015610c2a5781602001600182028036833780820191505090505b5090506000610c376118de565b9050602083524241186001430340186020840152602082528060208301526060602067ffffffffffffffff81118015610c6f57600080fd5b506040519080825280601f01601f191660200182016040528015610ca25781602001600182028036833780820191505090505b5090508860208201526060600867ffffffffffffffff81118015610cc557600080fd5b506040519080825280601f01601f191660200182016040528015610cf85781602001600182028036833780820191505090505b509050610d0b8260186008846000611bf9565b50610d14613737565b60405180608001604052808781526020018881526020018681526020018481525090506000610d796040518060400160405280600681526020017f72616e646f6d0000000000000000000000000000000000000000000000000000815250838c611c58565b90506060600867ffffffffffffffff81118015610d9557600080fd5b506040519080825280601f01601f191660200182016040528015610dc85781602001600182028036833780820191505090505b50905060208401517f0100000000000000000000000000000000000000000000000000000000000000810460278301537e01000000000000000000000000000000000000000000000000000000000000810460268301537d010000000000000000000000000000000000000000000000000000000000810460258301537c0100000000000000000000000000000000000000000000000000000000810460248301537b01000000000000000000000000000000000000000000000000000000810460238301537a0100000000000000000000000000000000000000000000000000008104602283015379010000000000000000000000000000000000000000000000000081046021830153780100000000000000000000000000000000000000000000000081046020830153506110ee828285600160048110610f0757fe5b6020020151600287600060048110610f1b57fe5b60200201516040518082805190602001908083835b60208310610f535780518252602082019150602081019050602083039250610f30565b6001836020036101000a038019825116818451168082178552505050505050905001915050602060405180830381855afa158015610f95573d6000803e3d6000fd5b5050506040513d6020811015610faa57600080fd5b810190808051906020019092919050505087600260048110610fc857fe5b60200201516040516020018085805190602001908083835b602083106110035780518252602082019150602081019050602083039250610fe0565b6001836020036101000a03801982511681845116808217855250505050505090500184805190602001908083835b602083106110545780518252602082019150602081019050602083039250611031565b6001836020036101000a03801982511681845116808217855250505050505090500183815260200182805190602001908083835b602083106110ab5780518252602082019150602081019050602083039250611088565b6001836020036101000a03801982511681845116808217855250505050505090500194505050505060405160208183030381529060405280519060200120611fdb565b8199505050505050505050509392505050565b6000813b9050919050565b6000611116611ff7565b9050919050565b606060028054600181600116156101000203166002900480601f0160208091040260200160405190810160405280929190818152602001828054600181600116156101000203166002900480156111b55780601f1061118a576101008083540402835291602001916111b5565b820191906000526020600020905b81548152906001019060200180831161119857829003601f168201915b5050505050905090565b60008060206002876045815181106111d357fe5b602001015160f81c60f81b60f81c60ff16016044010190506060602067ffffffffffffffff8111801561120557600080fd5b506040519080825280601f01601f1916602001820160405280156112385781602001600182028036833780820191505090505b50905061124a87836020846000611bf9565b50600284876040516020018083805190602001908083835b602083106112855780518252602082019150602081019050602083039250611262565b6001836020036101000a038019825116818451168082178552505050505050905001828152602001925050506040516020818303038152906040526040518082805190602001908083835b602083106112f357805182526020820191506020810190506020830392506112d0565b6001836020036101000a038019825116818451168082178552505050505050905001915050602060405180830381855afa158015611335573d6000803e3d6000fd5b5050506040513d602081101561134a57600080fd5b81019080805190602001909291905050506040516020018082815260200191505060405160208183030381529060405280519060200120818051906020012014611399576000925050506118d6565b606060028860016049860101815181106113af57fe5b602001015160f81c60f81b60f81c60ff160167ffffffffffffffff811180156113d757600080fd5b506040519080825280601f01601f19166020018201604052801561140a5781602001600182028036833780820191505090505b50905061141f88604985018351846000611bf9565b506114ea6002826040518082805190602001908083835b602083106114595780518252602082019150602081019050602083039250611436565b6001836020036101000a038019825116818451168082178552505050505050905001915050602060405180830381855afa15801561149b573d6000803e3d6000fd5b5050506040513d60208110156114b057600080fd5b8101908080519060200190929190505050878a60086020880101815181106114d457fe5b602001015160f81c60f81b60f81c60ff1661254e565b6114fa57600093505050506118d6565b6060602967ffffffffffffffff8111801561151457600080fd5b506040519080825280601f01601f1916602001820160405280156115475781602001600182028036833780820191505090505b50905061155c89602086016029846000611bf9565b506060604067ffffffffffffffff8111801561157757600080fd5b506040519080825280601f01601f1916602001820160405280156115aa5781602001600182028036833780820191505090505b50905060006041845160296020890101010190506115d08b604083036040856000611bf9565b5060006002836040518082805190602001908083835b6020831061160957805182526020820191506020810190506020830392506115e6565b6001836020036101000a038019825116818451168082178552505050505050905001915050602060405180830381855afa15801561164b573d6000803e3d6000fd5b5050506040513d602081101561166057600080fd5b8101908080519060200190929190505050905083816040516020018083805190602001908083835b602083106116ab5780518252602082019150602081019050602083039250611688565b6001836020036101000a0380198251168184511680821785525050505050509050018281526020019250505060405160208183030381529060405280519060200120600360008d815260200190815260200160002054141561172357600360008c815260200190815260200160002060009055611733565b60009750505050505050506118d6565b6060604967ffffffffffffffff8111801561174d57600080fd5b506040519080825280601f01601f1916602001820160405280156117805781602001600182028036833780820191505090505b5090506117928d896049846000611bf9565b5061183b6002826040518082805190602001908083835b602083106117cc57805182526020820191506020810190506020830392506117a9565b6001836020036101000a038019825116818451168082178552505050505050905001915050602060405180830381855afa15801561180e573d6000803e3d6000fd5b5050506040513d602081101561182357600080fd5b810190808051906020019092919050505087866125fb565b611850576000985050505050505050506118d6565b6004600083815260200190815260200160002060009054906101000a900460ff166118aa5761187f8d846127e7565b6004600084815260200190815260200160002060006101000a81548160ff0219169083151502179055505b6004600083815260200190815260200160002060009054906101000a900460ff16985050505050505050505b949350505050565b60008073ffffffffffffffffffffffffffffffffffffffff16600160009054906101000a900473ffffffffffffffffffffffffffffffffffffffff1673ffffffffffffffffffffffffffffffffffffffff16148061196657506000611964600160009054906101000a900473ffffffffffffffffffffffffffffffffffffffff16611101565b145b1561197757611975600061110c565b505b600160009054906101000a900473ffffffffffffffffffffffffffffffffffffffff1673ffffffffffffffffffffffffffffffffffffffff166338cc48316040518163ffffffff1660e01b8152600401602060405180830381600087803b1580156119e157600080fd5b505af11580156119f5573d6000803e3d6000fd5b505050506040513d6020811015611a0b57600080fd5b810190808051906020019092919050505073ffffffffffffffffffffffffffffffffffffffff1660008054906101000a900473ffffffffffffffffffffffffffffffffffffffff1673ffffffffffffffffffffffffffffffffffffffff1614611b5357600160009054906101000a900473ffffffffffffffffffffffffffffffffffffffff1673ffffffffffffffffffffffffffffffffffffffff166338cc48316040518163ffffffff1660e01b8152600401602060405180830381600087803b158015611ad857600080fd5b505af1158015611aec573d6000803e3d6000fd5b505050506040513d6020811015611b0257600080fd5b81019080805190602001909291905050506000806101000a81548173ffffffffffffffffffffffffffffffffffffffff021916908373ffffffffffffffffffffffffffffffffffffffff1602179055505b60008054906101000a900473ffffffffffffffffffffffffffffffffffffffff1673ffffffffffffffffffffffffffffffffffffffff1663abaa5f3e6040518163ffffffff1660e01b815260040160206040518083038186803b158015611bb957600080fd5b505afa158015611bcd573d6000803e3d6000fd5b505050506040513d6020811015611be357600080fd5b8101908080519060200190929190505050905090565b6060600082850190508084511015611c1057600080fd5b600086602001905060008460200190505b868860200101821015611c495781890151808288015250602082019150602081019050611c21565b85935050505095945050505050565b60008073ffffffffffffffffffffffffffffffffffffffff16600160009054906101000a900473ffffffffffffffffffffffffffffffffffffffff1673ffffffffffffffffffffffffffffffffffffffff161480611ce057506000611cde600160009054906101000a900473ffffffffffffffffffffffffffffffffffffffff16611101565b145b15611cf157611cef600061110c565b505b600160009054906101000a900473ffffffffffffffffffffffffffffffffffffffff1673ffffffffffffffffffffffffffffffffffffffff166338cc48316040518163ffffffff1660e01b8152600401602060405180830381600087803b158015611d5b57600080fd5b505af1158015611d6f573d6000803e3d6000fd5b505050506040513d6020811015611d8557600080fd5b810190808051906020019092919050505073ffffffffffffffffffffffffffffffffffffffff1660008054906101000a900473ffffffffffffffffffffffffffffffffffffffff1673ffffffffffffffffffffffffffffffffffffffff1614611ecd57600160009054906101000a900473ffffffffffffffffffffffffffffffffffffffff1673ffffffffffffffffffffffffffffffffffffffff166338cc48316040518163ffffffff1660e01b8152600401602060405180830381600087803b158015611e5257600080fd5b505af1158015611e66573d6000803e3d6000fd5b505050506040513d6020811015611e7c57600080fd5b81019080805190602001909291905050506000806101000a81548173ffffffffffffffffffffffffffffffffffffffff021916908373ffffffffffffffffffffffffffffffffffffffff1602179055505b6060600467ffffffffffffffff81118015611ee757600080fd5b50604051908082528060200260200182016040528015611f1b57816020015b6060815260200190600190039081611f065790505b50905083600060048110611f2b57fe5b602002015181600081518110611f3d57fe5b602002602001018190525083600160048110611f5557fe5b602002015181600181518110611f6757fe5b602002602001018190525083600260048110611f7f57fe5b602002015181600281518110611f9157fe5b602002602001018190525083600360048110611fa957fe5b602002015181600381518110611fbb57fe5b6020026020010181905250611fd1858285612c73565b9150509392505050565b8060036000848152602001908152602001600020819055505050565b600080612017731d3b2638a7cc9f2cb3d298a3da7a90b67e5506ed611101565b11156120b957731d3b2638a7cc9f2cb3d298a3da7a90b67e5506ed600160006101000a81548173ffffffffffffffffffffffffffffffffffffffff021916908373ffffffffffffffffffffffffffffffffffffffff1602179055506120b06040518060400160405280600b81526020017f6574685f6d61696e6e65740000000000000000000000000000000000000000008152506131d3565b6001905061254b565b60006120d873c03a2615d5efaf5f49f60b7bb6583eaec212fdf1611101565b111561217a5773c03a2615d5efaf5f49f60b7bb6583eaec212fdf1600160006101000a81548173ffffffffffffffffffffffffffffffffffffffff021916908373ffffffffffffffffffffffffffffffffffffffff1602179055506121716040518060400160405280600c81526020017f6574685f726f707374656e3300000000000000000000000000000000000000008152506131d3565b6001905061254b565b600061219973b7a07bcf2ba2f2703b24c0691b5278999c59ac7e611101565b111561223b5773b7a07bcf2ba2f2703b24c0691b5278999c59ac7e600160006101000a81548173ffffffffffffffffffffffffffffffffffffffff021916908373ffffffffffffffffffffffffffffffffffffffff1602179055506122326040518060400160405280600981526020017f6574685f6b6f76616e00000000000000000000000000000000000000000000008152506131d3565b6001905061254b565b600061225a73146500cfd35b22e4a392fe0adc06de1a1368ed48611101565b11156122fc5773146500cfd35b22e4a392fe0adc06de1a1368ed48600160006101000a81548173ffffffffffffffffffffffffffffffffffffffff021916908373ffffffffffffffffffffffffffffffffffffffff1602179055506122f36040518060400160405280600b81526020017f6574685f72696e6b6562790000000000000000000000000000000000000000008152506131d3565b6001905061254b565b600061231b73a2998efd205fb9d4b4963afb70778d6354ad3a41611101565b11156123bd5773a2998efd205fb9d4b4963afb70778d6354ad3a41600160006101000a81548173ffffffffffffffffffffffffffffffffffffffff021916908373ffffffffffffffffffffffffffffffffffffffff1602179055506123b46040518060400160405280600a81526020017f6574685f676f65726c69000000000000000000000000000000000000000000008152506131d3565b6001905061254b565b60006123dc736f485c8bf6fc43ea212e93bbf8ce046c7f1cb475611101565b111561244057736f485c8bf6fc43ea212e93bbf8ce046c7f1cb475600160006101000a81548173ffffffffffffffffffffffffffffffffffffffff021916908373ffffffffffffffffffffffffffffffffffffffff1602179055506001905061254b565b600061245f7320e12a1f859b3feae5fb2a0a32c18f5a65555bbf611101565b11156124c3577320e12a1f859b3feae5fb2a0a32c18f5a65555bbf600160006101000a81548173ffffffffffffffffffffffffffffffffffffffff021916908373ffffffffffffffffffffffffffffffffffffffff1602179055506001905061254b565b60006124e27351efaf4c8b3c9afbd5ab9f4bbc82784ab6ef8faa611101565b1115612546577351efaf4c8b3c9afbd5ab9f4bbc82784ab6ef8faa600160006101000a81548173ffffffffffffffffffffffffffffffffffffffff021916908373ffffffffffffffffffffffffffffffffffffffff1602179055506001905061254b565b600090505b90565b600080600190508284511461256257600080fd5b60005b838110156125ef5784818151811061257957fe5b602001015160f81c60f81b7effffffffffffffffffffffffffffffffffffffffffffffffffffffffffffff19168682602081106125b257fe5b1a60f81b7effffffffffffffffffffffffffffffffffffffffffffffffffffffffffffff1916146125e257600091505b8080600101915050612565565b50809150509392505050565b60008060008060006060602067ffffffffffffffff8111801561261d57600080fd5b506040519080825280601f01601f1916602001820160405280156126505781602001600182028036833780820191505090505b509050600060208960038151811061266457fe5b602001015160f81c60f81b60f81c60ff1603600401905061268a89826020856000611bf9565b91506060602067ffffffffffffffff811180156126a657600080fd5b506040519080825280601f01601f1916602001820160405280156126d95781602001600182028036833780820191505090505b5090506022820191506127158a60208c60018603815181106126f757fe5b602001015160f81c60f81b60f81c60ff160384016020846000611bf9565b905060208301519450602081015193506127328b601b87876131ed565b80975081985050508573ffffffffffffffffffffffffffffffffffffffff16898051906020012060001c73ffffffffffffffffffffffffffffffffffffffff1614156127885760019750505050505050506127e0565b6127958b601c87876131ed565b80975081985050508573ffffffffffffffffffffffffffffffffffffffff16898051906020012060001c73ffffffffffffffffffffffffffffffffffffffff16149750505050505050505b9392505050565b600080606060028560018601815181106127fd57fe5b602001015160f81c60f81b60f81c60ff160167ffffffffffffffff8111801561282557600080fd5b506040519080825280601f01601f1916602001820160405280156128585781602001600182028036833780820191505090505b50905061286a85858351846000611bf9565b506060604067ffffffffffffffff8111801561288557600080fd5b506040519080825280601f01601f1916602001820160405280156128b85781602001600182028036833780820191505090505b5090506128cb8660046040846000611bf9565b506060606267ffffffffffffffff811180156128e657600080fd5b506040519080825280601f01601f1916602001820160405280156129195781602001600182028036833780820191505090505b509050600160f81b8160008151811061292e57fe5b60200101907effffffffffffffffffffffffffffffffffffffffffffffffffffffffffffff1916908160001a90535061296f87604188036041846001611bf9565b5060606040518060400160405280602081526020017ffd94fa71bc0ba10d39d464d0d8f465efeef0a2764e3887fcc9df41ded20f505c81525090506129ba8160006020856042611bf9565b50612a636002836040518082805190602001908083835b602083106129f457805182526020820191506020810190506020830392506129d1565b6001836020036101000a038019825116818451168082178552505050505050905001915050602060405180830381855afa158015612a36573d6000803e3d6000fd5b5050506040513d6020811015612a4b57600080fd5b810190808051906020019092919050505085856125fb565b945084612a7857600095505050505050612c6d565b60606040518060600160405280604081526020016138166040913990506060604267ffffffffffffffff81118015612aaf57600080fd5b506040519080825280601f01601f191660200182016040528015612ae25781602001600182028036833780820191505090505b50905060fe60f81b81600081518110612af757fe5b60200101907effffffffffffffffffffffffffffffffffffffffffffffffffffffffffffff1916908160001a905350612b368a60036041846001611bf9565b50606060028b604581518110612b4857fe5b602001015160f81c60f81b60f81c60ff160167ffffffffffffffff81118015612b7057600080fd5b506040519080825280601f01601f191660200182016040528015612ba35781602001600182028036833780820191505090505b509050612bb68b60448351846000611bf9565b50612c5f6002836040518082805190602001908083835b60208310612bf05780518252602082019150602081019050602083039250612bcd565b6001836020036101000a038019825116818451168082178552505050505050905001915050602060405180830381855afa158015612c32573d6000803e3d6000fd5b5050506040513d6020811015612c4757600080fd5b810190808051906020019092919050505082856125fb565b975087985050505050505050505b92915050565b60008073ffffffffffffffffffffffffffffffffffffffff16600160009054906101000a900473ffffffffffffffffffffffffffffffffffffffff1673ffffffffffffffffffffffffffffffffffffffff161480612cfb57506000612cf9600160009054906101000a900473ffffffffffffffffffffffffffffffffffffffff16611101565b145b15612d0c57612d0a600061110c565b505b600160009054906101000a900473ffffffffffffffffffffffffffffffffffffffff1673ffffffffffffffffffffffffffffffffffffffff166338cc48316040518163ffffffff1660e01b8152600401602060405180830381600087803b158015612d7657600080fd5b505af1158015612d8a573d6000803e3d6000fd5b505050506040513d6020811015612da057600080fd5b810190808051906020019092919050505073ffffffffffffffffffffffffffffffffffffffff1660008054906101000a900473ffffffffffffffffffffffffffffffffffffffff1673ffffffffffffffffffffffffffffffffffffffff1614612ee857600160009054906101000a900473ffffffffffffffffffffffffffffffffffffffff1673ffffffffffffffffffffffffffffffffffffffff166338cc48316040518163ffffffff1660e01b8152600401602060405180830381600087803b158015612e6d57600080fd5b505af1158015612e81573d6000803e3d6000fd5b505050506040513d6020811015612e9757600080fd5b81019080805190602001909291905050506000806101000a81548173ffffffffffffffffffffffffffffffffffffffff021916908373ffffffffffffffffffffffffffffffffffffffff1602179055505b60008060009054906101000a900473ffffffffffffffffffffffffffffffffffffffff1673ffffffffffffffffffffffffffffffffffffffff16632ef3accc86856040518363ffffffff1660e01b81526004018080602001838152602001828103825284818151815260200191508051906020019080838360005b83811015612f7e578082015181840152602081019050612f63565b50505050905090810190601f168015612fab5780820380516001836020036101000a031916815260200191505b509350505050602060405180830381600087803b158015612fcb57600080fd5b505af1158015612fdf573d6000803e3d6000fd5b505050506040513d6020811015612ff557600080fd5b81019080805190602001909291905050509050823a02670de0b6b3a764000001811115613028576000801b9150506131cc565b606061303385613231565b905060008054906101000a900473ffffffffffffffffffffffffffffffffffffffff1673ffffffffffffffffffffffffffffffffffffffff1663c55c1cb68360008985896040518663ffffffff1660e01b8152600401808581526020018060200180602001848152602001838103835286818151815260200191508051906020019080838360005b838110156130d65780820151818401526020810190506130bb565b50505050905090810190601f1680156131035780820380516001836020036101000a031916815260200191505b50838103825285818151815260200191508051906020019080838360005b8381101561313c578082015181840152602081019050613121565b50505050905090810190601f1680156131695780820380516001836020036101000a031916815260200191505b5096505050505050506020604051808303818588803b15801561318b57600080fd5b505af115801561319f573d6000803e3d6000fd5b50505050506040513d60208110156131b657600080fd5b8101908080519060200190929190505050925050505b9392505050565b80600290805190602001906131e992919061375e565b5050565b60008060008060405188815287602082015286604082015285606082015260208160808360006001610bb8f192508051915050818193509350505094509492505050565b606061323b6132ae565b6132436137de565b61324f816104006132ba565b61325881613304565b60005b83518110156132975761328a84828151811061327357fe5b60200260200101518361331290919063ffffffff16565b808060010191505061325b565b506132a181613337565b8060000151915050919050565b60405180590338823950565b60008190506000602082816132cb57fe5b06146132e457602081816132db57fe5b06602003810190505b808360200181815250506040518084526000815281810160405250505050565b61330f816004613345565b50565b61331f8260028351613366565b61333281836134a690919063ffffffff16565b505050565b613342816007613345565b50565b613362601f60058360ff16901b178361355190919063ffffffff16565b5050565b601781116133925761338d8160058460ff16901b60ff16178461355190919063ffffffff16565b6134a1565b60ff81116133d3576133b7601860058460ff16901b178461355190919063ffffffff16565b6133cd816001856135919092919063ffffffff16565b506134a0565b61ffff8111613415576133f9601960058460ff16901b178461355190919063ffffffff16565b61340f816002856135919092919063ffffffff16565b5061349f565b63ffffffff81116134595761343d601a60058460ff16901b178461355190919063ffffffff16565b613453816004856135919092919063ffffffff16565b5061349e565b67ffffffffffffffff811161349d57613485601b60058460ff16901b178461355190919063ffffffff16565b61349b816008856135919092919063ffffffff16565b505b5b5b5b5b505050565b6134ae6137de565b826020015183600001515183510111156134de576134dd8360026134d7866020015186516135f8565b02613614565b5b60008060008451905085518051602081830101945086518101825260208701935050505b602081106135255781518352602083019250602082019150602081039050613502565b60006001826020036101000a039050801983511681855116818117865250508694505050505092915050565b8160200151600183600001515101111561357757613576826002846020015102613614565b5b815180516020818301018381536001820183525050505050565b6135996137de565b8360200151846000015151830111156135c7576135c68460026135c08760200151866135f8565b02613614565b5b60006001836101000a0390508451805184818301018684198251161781528582018352505050849150509392505050565b60008183111561360a5782905061360e565b8190505b92915050565b60608260000151905061362783836132ba565b61363183826134a6565b50505050565b828054600181600116156101000203166002900490600052602060002090601f016020900481019282601f1061367857805160ff19168380011785556136a6565b828001600101855582156136a6579182015b828111156136a557825182559160200191906001019061368a565b5b5090506136b391906137f8565b5090565b828054600181600116156101000203166002900490600052602060002090601f016020900481019282601f106136f857805160ff1916838001178555613726565b82800160010185558215613726579182015b8281111561372557825182559160200191906001019061370a565b5b50905061373391906137f8565b5090565b60405180608001604052806004905b60608152602001906001900390816137465790505090565b828054600181600116156101000203166002900490600052602060002090601f016020900481019282601f1061379f57805160ff19168380011785556137cd565b828001600101855582156137cd579182015b828111156137cc5782518255916020019190600101906137b1565b5b5090506137da91906137f8565b5090565b604051806040016040528060608152602001600081525090565b5b808211156138115760008160009055506001016137f9565b509056fe7fb956469c5c9b89840d55b43537e66a98dd4811ea0a27224272c2e5622911e8537a2f8e86a46baec82864e98dd01e9ccc2f8bc5dfc9cbe5a91a290498dd96e4a26469706673582212203a29e5db79f922ad7cb42509ff53f1621040fa7b8d57c0939243f3853724bb7a64736f6c63430007000033",
  "immutableReferences": {},
  "source": "// SPDX-License-Identifier: MIT\r\npragma solidity ^0.7.0;\r\n\r\nimport './provableAPI.sol';\r\n\r\n// Template from web3examples github: https://github.com/web3examples/ethereum/blob/master/oracle_examples/provable_random.sol\r\ncontract OrmrOracle is usingProvable {\r\n    bytes public result;\r\n    bytes32 public queryId;\r\n        \r\n    constructor() { \r\n        provable_setProof(proofType_Ledger); \r\n    }\r\n    \r\n    function __callback(bytes32  _queryId,string memory _result,bytes memory _proof ) override public {\r\n        require(msg.sender == provable_cbAddress());\r\n        if (provable_randomDS_proofVerify__returnCode(_queryId,_result,_proof)== 0) {\r\n            result = bytes(_result); \r\n        }\r\n        else\r\n            result=\"Error\";\r\n    }\r\n    \r\n    function GetRandom(uint8 nrbytes) public payable { // not supported in remix\r\n        queryId=provable_newRandomDSQuery(\r\n            0,          // QUERY_EXECUTION_DELAY\r\n            nrbytes,    // NUM_RANDOM_BYTES_REQUESTED\r\n            200000      // GAS_FOR_CALLBACK\r\n        );\r\n    }\r\n\r\n    // create a way to access the result of the oracle query from outside the contract\r\n    function GetResult() public view returns (bytes memory){\r\n        return result;\r\n    }\r\n    \r\n}\r\n\r\n// More examples (with truffle as well!): https://github.com/provable-things/ethereum-examples/tree/master/solidity\r\n// Docs: https://docs.provable.xyz/#ethereum\r\n// Query Tester: https://app.provable.xyz/home/ ",
  "sourcePath": "D:\\HHS\\Jaar 4 Minor\\IT Deel Minor\\Assignments\\PD-8\\contracts\\OrmrOracle.sol",
  "compiler": {
    "name": "solc",
    "version": "0.7.0+commit.9e61f92b.Emscripten.clang"
  },
  "schemaVersion": "3.3.2",
  "updatedAt": "2020-12-14T23:02:33.563Z",
  "devdoc": {
    "kind": "dev",
    "methods": {
      "__callback(bytes32,string)": {
        "details": "The following `__callback` functions are just placeholders ideally      meant to be defined in child contract when proofs are used.      The function bodies simply silence compiler warnings."
      }
    },
    "version": 1
  },
  "userdoc": {
    "kind": "user",
    "methods": {},
    "version": 1
  }
}