{
  "contractName": "Ormr",
  "abi": [
    {
      "inputs": [],
      "stateMutability": "nonpayable",
      "type": "constructor"
    },
    {
      "anonymous": false,
      "inputs": [
        {
          "indexed": false,
          "internalType": "string",
          "name": "",
          "type": "string"
        }
      ],
      "name": "encounterResult",
      "type": "event"
    },
    {
      "inputs": [
        {
          "internalType": "string",
          "name": "_name",
          "type": "string"
        }
      ],
      "name": "createHero",
      "outputs": [],
      "stateMutability": "nonpayable",
      "type": "function"
    },
    {
      "inputs": [],
      "name": "getHero",
      "outputs": [
        {
          "components": [
            {
              "internalType": "string",
              "name": "name",
              "type": "string"
            },
            {
              "internalType": "uint256",
              "name": "power",
              "type": "uint256"
            },
            {
              "internalType": "uint256",
              "name": "health",
              "type": "uint256"
            },
            {
              "internalType": "uint256",
              "name": "bank",
              "type": "uint256"
            }
          ],
          "internalType": "struct Hero",
          "name": "",
          "type": "tuple"
        }
      ],
      "stateMutability": "view",
      "type": "function"
    },
    {
      "inputs": [],
      "name": "getHeroes",
      "outputs": [
        {
          "components": [
            {
              "internalType": "string",
              "name": "name",
              "type": "string"
            },
            {
              "internalType": "uint256",
              "name": "power",
              "type": "uint256"
            },
            {
              "internalType": "uint256",
              "name": "health",
              "type": "uint256"
            },
            {
              "internalType": "uint256",
              "name": "bank",
              "type": "uint256"
            }
          ],
          "internalType": "struct Hero[]",
          "name": "",
          "type": "tuple[]"
        }
      ],
      "stateMutability": "view",
      "type": "function"
    },
    {
      "inputs": [],
      "name": "createDragon",
      "outputs": [],
      "stateMutability": "nonpayable",
      "type": "function"
    },
    {
      "inputs": [],
      "name": "getDragon",
      "outputs": [
        {
          "components": [
            {
              "internalType": "string",
              "name": "name",
              "type": "string"
            },
            {
              "internalType": "address",
              "name": "id",
              "type": "address"
            },
            {
              "internalType": "uint256",
              "name": "power",
              "type": "uint256"
            },
            {
              "internalType": "uint256",
              "name": "health",
              "type": "uint256"
            },
            {
              "internalType": "uint256",
              "name": "goldReward",
              "type": "uint256"
            }
          ],
          "internalType": "struct Dragon",
          "name": "",
          "type": "tuple"
        }
      ],
      "stateMutability": "view",
      "type": "function"
    },
    {
      "inputs": [],
      "name": "startEncounter",
      "outputs": [],
      "stateMutability": "nonpayable",
      "type": "function"
    },
    {
      "inputs": [
        {
          "internalType": "bytes",
          "name": "input",
          "type": "bytes"
        }
      ],
      "name": "convertToUint",
      "outputs": [
        {
          "internalType": "uint256",
          "name": "",
          "type": "uint256"
        }
      ],
      "stateMutability": "pure",
      "type": "function"
    },
    {
      "inputs": [],
      "name": "callOracleRandom",
      "outputs": [],
      "stateMutability": "nonpayable",
      "type": "function"
    },
    {
      "inputs": [],
      "name": "getTempUint",
      "outputs": [
        {
          "internalType": "uint256",
          "name": "",
          "type": "uint256"
        }
      ],
      "stateMutability": "view",
      "type": "function"
    },
    {
      "inputs": [],
      "name": "getTemp",
      "outputs": [
        {
          "internalType": "bytes",
          "name": "",
          "type": "bytes"
        }
      ],
      "stateMutability": "view",
      "type": "function"
    }
  ],
  "bytecode": "0x60806040523480156200001157600080fd5b5060405162000020906200015b565b604051809103906000f0801580156200003d573d6000803e3d6000fd5b506000806101000a81548173ffffffffffffffffffffffffffffffffffffffff021916908373ffffffffffffffffffffffffffffffffffffffff1602179055506040516200008b9062000169565b604051809103906000f080158015620000a8573d6000803e3d6000fd5b50600160006101000a81548173ffffffffffffffffffffffffffffffffffffffff021916908373ffffffffffffffffffffffffffffffffffffffff160217905550604051620000f79062000177565b604051809103906000f08015801562000114573d6000803e3d6000fd5b50600260006101000a81548173ffffffffffffffffffffffffffffffffffffffff021916908373ffffffffffffffffffffffffffffffffffffffff16021790555062000185565b610da980620018cf83390190565b610d5b806200267883390190565b611a1e80620033d383390190565b61173a80620001956000396000f3fe608060405234801561001057600080fd5b506004361061009e5760003560e01c8063952525601161006657806395252560146101355780639a8d2882146101535780639e01b85314610171578063b11852441461017b578063b7ed99d6146101995761009e565b806307b8163c146100a3578063581bee2f146100c15780636865856c146100df5780636a9444351461010f57806378242aaf14610119575b600080fd5b6100ab6101a3565b6040516100b89190611448565b60405180910390f35b6100c961025d565b6040516100d69190611426565b60405180910390f35b6100f960048036038101906100f49190610e2b565b610318565b6040516101069190611448565b60405180910390f35b610117610367565b005b610133600480360381019061012e9190610ead565b6103eb565b005b61013d61047b565b60405161014a9190611350565b60405180910390f35b61015b610527565b604051610168919061132e565b60405180910390f35b6101796105d1565b005b61018361072e565b6040516101909190611404565b60405180910390f35b6101a16107e0565b005b60006060600260009054906101000a900473ffffffffffffffffffffffffffffffffffffffff1673ffffffffffffffffffffffffffffffffffffffff1663952525606040518163ffffffff1660e01b815260040160006040518083038186803b15801561020f57600080fd5b505afa158015610223573d6000803e3d6000fd5b505050506040513d6000823e3d601f19601f8201168201806040525081019061024c9190610e6c565b905061025781610318565b91505090565b610265610a63565b60008054906101000a900473ffffffffffffffffffffffffffffffffffffffff1673ffffffffffffffffffffffffffffffffffffffff166327df259a336040518263ffffffff1660e01b81526004016102be9190611313565b60006040518083038186803b1580156102d657600080fd5b505afa1580156102ea573d6000803e3d6000fd5b505050506040513d6000823e3d601f19601f820116820180604052508101906103139190610f2f565b905090565b6000806000905060005b835181101561035d5783818151811061033757fe5b602001015160f81c60f81b60f81c60ff16600883901b0191508080600101915050610322565b5080915050919050565b600260009054906101000a900473ffffffffffffffffffffffffffffffffffffffff1673ffffffffffffffffffffffffffffffffffffffff166313fdba3c6040518163ffffffff1660e01b8152600401600060405180830381600087803b1580156103d157600080fd5b505af11580156103e5573d6000803e3d6000fd5b50505050565b60008054906101000a900473ffffffffffffffffffffffffffffffffffffffff1673ffffffffffffffffffffffffffffffffffffffff1663deb786c482336040518363ffffffff1660e01b8152600401610446929190611394565b600060405180830381600087803b15801561046057600080fd5b505af1158015610474573d6000803e3d6000fd5b5050505050565b6060600260009054906101000a900473ffffffffffffffffffffffffffffffffffffffff1673ffffffffffffffffffffffffffffffffffffffff1663952525606040518163ffffffff1660e01b815260040160006040518083038186803b1580156104e557600080fd5b505afa1580156104f9573d6000803e3d6000fd5b505050506040513d6000823e3d601f19601f820116820180604052508101906105229190610e6c565b905090565b606060008054906101000a900473ffffffffffffffffffffffffffffffffffffffff1673ffffffffffffffffffffffffffffffffffffffff16639a8d28826040518163ffffffff1660e01b815260040160006040518083038186803b15801561058f57600080fd5b505afa1580156105a3573d6000803e3d6000fd5b505050506040513d6000823e3d601f19601f820116820180604052508101906105cc9190610dea565b905090565b61072c60008054906101000a900473ffffffffffffffffffffffffffffffffffffffff1673ffffffffffffffffffffffffffffffffffffffff166327df259a336040518263ffffffff1660e01b815260040161062d9190611313565b60006040518083038186803b15801561064557600080fd5b505afa158015610659573d6000803e3d6000fd5b505050506040513d6000823e3d601f19601f820116820180604052508101906106829190610f2f565b600160009054906101000a900473ffffffffffffffffffffffffffffffffffffffff1673ffffffffffffffffffffffffffffffffffffffff1663b11852446040518163ffffffff1660e01b815260040160006040518083038186803b1580156106ea57600080fd5b505afa1580156106fe573d6000803e3d6000fd5b505050506040513d6000823e3d601f19601f820116820180604052508101906107279190610eee565b610864565b565b610736610a8b565b600160009054906101000a900473ffffffffffffffffffffffffffffffffffffffff1673ffffffffffffffffffffffffffffffffffffffff1663b11852446040518163ffffffff1660e01b815260040160006040518083038186803b15801561079e57600080fd5b505afa1580156107b2573d6000803e3d6000fd5b505050506040513d6000823e3d601f19601f820116820180604052508101906107db9190610eee565b905090565b600160009054906101000a900473ffffffffffffffffffffffffffffffffffffffff1673ffffffffffffffffffffffffffffffffffffffff1663b7ed99d66040518163ffffffff1660e01b8152600401600060405180830381600087803b15801561084a57600080fd5b505af115801561085e573d6000803e3d6000fd5b50505050565b604051602001610873906112fe565b60405160208183030381529060405280519060200120826000015160405160200161089e91906112e7565b6040516020818303038152906040528051906020012014156108f5576040517f08c379a00000000000000000000000000000000000000000000000000000000081526004016108ec906113e4565b60405180910390fd5b604051602001610904906112fe565b60405160208183030381529060405280519060200120816000015160405160200161092f91906112e7565b604051602081830303815290604052805190602001201415610986576040517f08c379a000000000000000000000000000000000000000000000000000000000815260040161097d906113c4565b60405180910390fd5b7fdd4beaba995f8a41cdd2f0af8918a02603e1b887060a362f32b17b80b1af367a6109b9836020015183604001516109d2565b6040516109c69190611372565b60405180910390a15050565b606081831115610a19576040518060400160405280601a81526020017f54686520647261676f6e20686173206265656e20736c61696e210000000000008152509050610a5d565b81831015610a4157604051806060016040528060368152602001611691603691399050610a5d565b6040518060600160405280603e81526020016116c7603e913990505b92915050565b6040518060800160405280606081526020016000815260200160008152602001600081525090565b6040518060a0016040528060608152602001600073ffffffffffffffffffffffffffffffffffffffff1681526020016000815260200160008152602001600081525090565b600081519050610adf81611662565b92915050565b600082601f830112610af657600080fd5b8151610b09610b0482611490565b611463565b9150818183526020840193506020810190508360005b83811015610b4f5781518601610b358882610d49565b845260208401935060208301925050600181019050610b1f565b5050505092915050565b600082601f830112610b6a57600080fd5b8135610b7d610b78826114b8565b611463565b91508082526020830160208301858383011115610b9957600080fd5b610ba483828461160f565b50505092915050565b600082601f830112610bbe57600080fd5b8151610bd1610bcc826114b8565b611463565b91508082526020830160208301858383011115610bed57600080fd5b610bf883828461161e565b50505092915050565b600082601f830112610c1257600080fd5b8135610c25610c20826114e4565b611463565b91508082526020830160208301858383011115610c4157600080fd5b610c4c83828461160f565b50505092915050565b600082601f830112610c6657600080fd5b8151610c79610c74826114e4565b611463565b91508082526020830160208301858383011115610c9557600080fd5b610ca083828461161e565b50505092915050565b600060a08284031215610cbb57600080fd5b610cc560a0611463565b9050600082015167ffffffffffffffff811115610ce157600080fd5b610ced84828501610c55565b6000830152506020610d0184828501610ad0565b6020830152506040610d1584828501610dd5565b6040830152506060610d2984828501610dd5565b6060830152506080610d3d84828501610dd5565b60808301525092915050565b600060808284031215610d5b57600080fd5b610d656080611463565b9050600082015167ffffffffffffffff811115610d8157600080fd5b610d8d84828501610c55565b6000830152506020610da184828501610dd5565b6020830152506040610db584828501610dd5565b6040830152506060610dc984828501610dd5565b60608301525092915050565b600081519050610de481611679565b92915050565b600060208284031215610dfc57600080fd5b600082015167ffffffffffffffff811115610e1657600080fd5b610e2284828501610ae5565b91505092915050565b600060208284031215610e3d57600080fd5b600082013567ffffffffffffffff811115610e5757600080fd5b610e6384828501610b59565b91505092915050565b600060208284031215610e7e57600080fd5b600082015167ffffffffffffffff811115610e9857600080fd5b610ea484828501610bad565b91505092915050565b600060208284031215610ebf57600080fd5b600082013567ffffffffffffffff811115610ed957600080fd5b610ee584828501610c01565b91505092915050565b600060208284031215610f0057600080fd5b600082015167ffffffffffffffff811115610f1a57600080fd5b610f2684828501610ca9565b91505092915050565b600060208284031215610f4157600080fd5b600082015167ffffffffffffffff811115610f5b57600080fd5b610f6784828501610d49565b91505092915050565b6000610f7c8383611203565b905092915050565b610f8d816115d9565b82525050565b610f9c8161159d565b82525050565b6000610fad82611520565b610fb7818561154e565b935083602082028501610fc985611510565b8060005b858110156110055784840389528151610fe68582610f70565b9450610ff183611541565b925060208a01995050600181019050610fcd565b50829750879550505050505092915050565b60006110228261152b565b61102c818561155f565b935061103c81856020860161161e565b61104581611651565b840191505092915050565b600061105b82611536565b6110658185611570565b935061107581856020860161161e565b61107e81611651565b840191505092915050565b600061109482611536565b61109e8185611581565b93506110ae81856020860161161e565b6110b781611651565b840191505092915050565b60006110cd82611536565b6110d78185611592565b93506110e781856020860161161e565b80840191505092915050565b6000611100600083611592565b9150600082019050919050565b600061111a601083611581565b91507f447261676f6e206e6f7420666f756e64000000000000000000000000000000006000830152602082019050919050565b600061115a600e83611581565b91507f4865726f206e6f7420666f756e640000000000000000000000000000000000006000830152602082019050919050565b600060a08301600083015184820360008601526111aa8282611050565b91505060208301516111bf6020860182610f93565b5060408301516111d260408601826112c9565b5060608301516111e560608601826112c9565b5060808301516111f860808601826112c9565b508091505092915050565b600060808301600083015184820360008601526112208282611050565b915050602083015161123560208601826112c9565b50604083015161124860408601826112c9565b50606083015161125b60608601826112c9565b508091505092915050565b600060808301600083015184820360008601526112838282611050565b915050602083015161129860208601826112c9565b5060408301516112ab60408601826112c9565b5060608301516112be60608601826112c9565b508091505092915050565b6112d2816115cf565b82525050565b6112e1816115cf565b82525050565b60006112f382846110c2565b915081905092915050565b6000611309826110f3565b9150819050919050565b60006020820190506113286000830184610f84565b92915050565b600060208201905081810360008301526113488184610fa2565b905092915050565b6000602082019050818103600083015261136a8184611017565b905092915050565b6000602082019050818103600083015261138c8184611089565b905092915050565b600060408201905081810360008301526113ae8185611089565b90506113bd6020830184610f84565b9392505050565b600060208201905081810360008301526113dd8161110d565b9050919050565b600060208201905081810360008301526113fd8161114d565b9050919050565b6000602082019050818103600083015261141e818461118d565b905092915050565b600060208201905081810360008301526114408184611266565b905092915050565b600060208201905061145d60008301846112d8565b92915050565b6000604051905081810181811067ffffffffffffffff8211171561148657600080fd5b8060405250919050565b600067ffffffffffffffff8211156114a757600080fd5b602082029050602081019050919050565b600067ffffffffffffffff8211156114cf57600080fd5b601f19601f8301169050602081019050919050565b600067ffffffffffffffff8211156114fb57600080fd5b601f19601f8301169050602081019050919050565b6000819050602082019050919050565b600081519050919050565b600081519050919050565b600081519050919050565b6000602082019050919050565b600082825260208201905092915050565b600082825260208201905092915050565b600082825260208201905092915050565b600082825260208201905092915050565b600081905092915050565b60006115a8826115af565b9050919050565b600073ffffffffffffffffffffffffffffffffffffffff82169050919050565b6000819050919050565b60006115e4826115eb565b9050919050565b60006115f6826115fd565b9050919050565b6000611608826115af565b9050919050565b82818337600083830152505050565b60005b8381101561163c578082015181840152602081019050611621565b8381111561164b576000848401525b50505050565b6000601f19601f8301169050919050565b61166b8161159d565b811461167657600080fd5b50565b611682816115cf565b811461168d57600080fd5b5056fe546865206865726f20686173206265656e206465666561746564212054686520647261676f6e2077617320746f6f207374726f6e6721546865206865726f20616e6420647261676f6e2061726520657175616c20696e20737472656e6774682c207468657265206973206e6f20766963746f7221a2646970667358221220faef6186b953174fa6ef854863f4c524b27c17876c43b58e9c9c7321c15b73e864736f6c634300070000336080604052620186a06003556298968060045534801561001e57600080fd5b50610d7b8061002e6000396000f3fe608060405234801561001057600080fd5b50600436106100415760003560e01c806327df259a146100465780639a8d288214610076578063deb786c414610094575b600080fd5b610060600480360381019061005b9190610798565b6100b0565b60405161006d9190610b41565b60405180910390f35b61007e61022c565b60405161008b9190610adf565b60405180910390f35b6100ae60048036038101906100a991906107c1565b610393565b005b6100b861066a565b600060098054905011610100576040517f08c379a00000000000000000000000000000000000000000000000000000000081526004016100f790610b01565b60405180910390fd5b6009600160008473ffffffffffffffffffffffffffffffffffffffff1673ffffffffffffffffffffffffffffffffffffffff168152602001908152602001600020548154811061014c57fe5b9060005260206000209060040201604051806080016040529081600082018054600181600116156101000203166002900480601f0160208091040260200160405190810160405280929190818152602001828054600181600116156101000203166002900480156101fe5780601f106101d3576101008083540402835291602001916101fe565b820191906000526020600020905b8154815290600101906020018083116101e157829003601f168201915b5050505050815260200160018201548152602001600282015481526020016003820154815250509050919050565b6060600060098054905011610276576040517f08c379a000000000000000000000000000000000000000000000000000000000815260040161026d90610b01565b60405180910390fd5b6009805480602002602001604051908101604052809291908181526020016000905b8282101561038a5783829060005260206000209060040201604051806080016040529081600082018054600181600116156101000203166002900480601f0160208091040260200160405190810160405280929190818152602001828054600181600116156101000203166002900480156103545780601f1061032957610100808354040283529160200191610354565b820191906000526020600020905b81548152906001019060200180831161033757829003601f168201915b50505050508152602001600182015481526020016002820154815260200160038201548152505081526020019060010190610298565b50505050905090565b6000600260008373ffffffffffffffffffffffffffffffffffffffff1673ffffffffffffffffffffffffffffffffffffffff1681526020019081526020016000205414610415576040517f08c379a000000000000000000000000000000000000000000000000000000000815260040161040c90610b21565b60405180910390fd5b61041f8282610423565b5050565b6009604051806080016040528084815260200161043e6105ea565b815260200161044b61062a565b815260200160008152509080600181540180825580915050600190039060005260206000209060040201600090919091909150600082015181600001908051906020019061049a929190610692565b506020820151816001015560408201518160020155606082015181600301555050600060016009805490500390508160008083815260200190815260200160002060006101000a81548173ffffffffffffffffffffffffffffffffffffffff021916908373ffffffffffffffffffffffffffffffffffffffff16021790555080600160008473ffffffffffffffffffffffffffffffffffffffff1673ffffffffffffffffffffffffffffffffffffffff16815260200190815260200160002081905550600260008373ffffffffffffffffffffffffffffffffffffffff1673ffffffffffffffffffffffffffffffffffffffff168152602001908152602001600020600081548092919060010191905055507fe091168a421f352d46fe9eafce51f4d2bce03324348c1d1d6f9bb1283d60bed681846040516105dd929190610b63565b60405180910390a1505050565b600060035442444160405160200161060493929190610aa2565b6040516020818303038152906040528051906020012060001c8161062457fe5b06905090565b600060045442444160405160200161064493929190610aa2565b6040516020818303038152906040528051906020012060001c8161066457fe5b06905090565b6040518060800160405280606081526020016000815260200160008152602001600081525090565b828054600181600116156101000203166002900490600052602060002090601f016020900481019282601f106106d357805160ff1916838001178555610701565b82800160010185558215610701579182015b828111156107005782518255916020019190600101906106e5565b5b50905061070e9190610712565b5090565b5b8082111561072b576000816000905550600101610713565b5090565b60008135905061073e81610d2e565b92915050565b600082601f83011261075557600080fd5b813561076861076382610bc0565b610b93565b9150808252602083016020830185838301111561078457600080fd5b61078f838284610ca0565b50505092915050565b6000602082840312156107aa57600080fd5b60006107b88482850161072f565b91505092915050565b600080604083850312156107d457600080fd5b600083013567ffffffffffffffff8111156107ee57600080fd5b6107fa85828601610744565b925050602061080b8582860161072f565b9150509250929050565b600061082183836109a7565b905092915050565b61083a61083582610c64565b610ce2565b82525050565b600061084b82610bfc565b6108558185610c1f565b93508360208202850161086785610bec565b8060005b858110156108a357848403895281516108848582610815565b945061088f83610c12565b925060208a0199505060018101905061086b565b50829750879550505050505092915050565b60006108c082610c07565b6108ca8185610c30565b93506108da818560208601610caf565b6108e381610d10565b840191505092915050565b60006108f982610c07565b6109038185610c41565b9350610913818560208601610caf565b61091c81610d10565b840191505092915050565b6000610934601f83610c41565b91507f4e6f206865726f657320617661696c61626c6520666f72206c6f6f6b75702e006000830152602082019050919050565b6000610974601b83610c41565b91507f596f7520616c726561647920637265617465642061206865726f2100000000006000830152602082019050919050565b600060808301600083015184820360008601526109c482826108b5565b91505060208301516109d96020860182610a6d565b5060408301516109ec6040860182610a6d565b5060608301516109ff6060860182610a6d565b508091505092915050565b60006080830160008301518482036000860152610a2782826108b5565b9150506020830151610a3c6020860182610a6d565b506040830151610a4f6040860182610a6d565b506060830151610a626060860182610a6d565b508091505092915050565b610a7681610c96565b82525050565b610a8581610c96565b82525050565b610a9c610a9782610c96565b610d06565b82525050565b6000610aae8286610a8b565b602082019150610abe8285610a8b565b602082019150610ace8284610829565b601482019150819050949350505050565b60006020820190508181036000830152610af98184610840565b905092915050565b60006020820190508181036000830152610b1a81610927565b9050919050565b60006020820190508181036000830152610b3a81610967565b9050919050565b60006020820190508181036000830152610b5b8184610a0a565b905092915050565b6000604082019050610b786000830185610a7c565b8181036020830152610b8a81846108ee565b90509392505050565b6000604051905081810181811067ffffffffffffffff82111715610bb657600080fd5b8060405250919050565b600067ffffffffffffffff821115610bd757600080fd5b601f19601f8301169050602081019050919050565b6000819050602082019050919050565b600081519050919050565b600081519050919050565b6000602082019050919050565b600082825260208201905092915050565b600082825260208201905092915050565b600082825260208201905092915050565b6000610c5d82610c76565b9050919050565b6000610c6f82610c76565b9050919050565b600073ffffffffffffffffffffffffffffffffffffffff82169050919050565b6000819050919050565b82818337600083830152505050565b60005b83811015610ccd578082015181840152602081019050610cb2565b83811115610cdc576000848401525b50505050565b6000610ced82610cf4565b9050919050565b6000610cff82610d21565b9050919050565b6000819050919050565b6000601f19601f8301169050919050565b60008160601b9050919050565b610d3781610c52565b8114610d4257600080fd5b5056fea264697066735822122096837d83812a8b5bd994e8efe332a8dbb4c64a20d4166ce6947460ea695d0d3064736f6c634300070000336080604052620186a06001556298968060025534801561001e57600080fd5b50610d2d8061002e6000396000f3fe608060405234801561001057600080fd5b50600436106100415760003560e01c8063b118524414610046578063b7ed99d614610064578063f8caf6c71461006e575b600080fd5b61004e61008c565b60405161005b9190610b00565b60405180910390f35b61006c61025b565b005b610076610265565b6040516100839190610abe565b60405180910390f35b610094610633565b6000600880549050116100dc576040517f08c379a00000000000000000000000000000000000000000000000000000000081526004016100d390610ae0565b60405180910390fd5b60086000803073ffffffffffffffffffffffffffffffffffffffff1673ffffffffffffffffffffffffffffffffffffffff168152602001908152602001600020548154811061012757fe5b90600052602060002090600502016040518060a0016040529081600082018054600181600116156101000203166002900480601f0160208091040260200160405190810160405280929190818152602001828054600181600116156101000203166002900480156101d95780601f106101ae576101008083540402835291602001916101d9565b820191906000526020600020905b8154815290600101906020018083116101bc57829003601f168201915b505050505081526020016001820160009054906101000a900473ffffffffffffffffffffffffffffffffffffffff1673ffffffffffffffffffffffffffffffffffffffff1673ffffffffffffffffffffffffffffffffffffffff1681526020016002820154815260200160038201548152602001600482015481525050905090565b610263610422565b565b60606000600880549050116102af576040517f08c379a00000000000000000000000000000000000000000000000000000000081526004016102a690610ae0565b60405180910390fd5b6008805480602002602001604051908101604052809291908181526020016000905b8282101561041957838290600052602060002090600502016040518060a0016040529081600082018054600181600116156101000203166002900480601f01602080910402602001604051908101604052809291908181526020018280546001816001161561010002031660029004801561038d5780601f106103625761010080835404028352916020019161038d565b820191906000526020600020905b81548152906001019060200180831161037057829003601f168201915b505050505081526020016001820160009054906101000a900473ffffffffffffffffffffffffffffffffffffffff1673ffffffffffffffffffffffffffffffffffffffff1673ffffffffffffffffffffffffffffffffffffffff1681526020016002820154815260200160038201548152602001600482015481525050815260200190600101906102d1565b50505050905090565b60086040518060a001604052806040518060400160405280600e81526020017f44656661756c745f447261676f6e00000000000000000000000000000000000081525081526020013073ffffffffffffffffffffffffffffffffffffffff16815260200161048e6105b3565b815260200161049b6105f3565b8152602001600a815250908060018154018082558091505060019003906000526020600020906005020160009091909190915060008201518160000190805190602001906104ea929190610678565b5060208201518160010160006101000a81548173ffffffffffffffffffffffffffffffffffffffff021916908373ffffffffffffffffffffffffffffffffffffffff1602179055506040820151816002015560608201518160030155608082015181600401555050600060016008805490500390507fa8d5c415ae4486d0b0ca47d57931522bcf32daa16432a434fd9d4c57050e94da6008828154811061058d57fe5b90600052602060002090600502016040516105a89190610b22565b60405180910390a150565b60006001544244416040516020016105cd93929190610a81565b6040516020818303038152906040528051906020012060001c816105ed57fe5b06905090565b600060025442444160405160200161060d93929190610a81565b6040516020818303038152906040528051906020012060001c8161062d57fe5b06905090565b6040518060a0016040528060608152602001600073ffffffffffffffffffffffffffffffffffffffff1681526020016000815260200160008152602001600081525090565b828054600181600116156101000203166002900490600052602060002090601f016020900481019282601f106106b957805160ff19168380011785556106e7565b828001600101855582156106e7579182015b828111156106e65782518255916020019190600101906106cb565b5b5090506106f491906106f8565b5090565b5b808211156107115760008160009055506001016106f9565b5090565b600061072183836108cc565b905092915050565b61073a61073582610bfb565b610c9e565b82525050565b61074981610be9565b82525050565b600061075a82610b69565b6107648185610b8c565b93508360208202850161077685610b44565b8060005b858110156107b257848403895281516107938582610715565b945061079e83610b7f565b925060208a0199505060018101905061077a565b50829750879550505050505092915050565b60006107cf82610b74565b6107d98185610b9d565b93506107e9818560208601610c37565b6107f281610ccc565b840191505092915050565b60008154600181166000811461081a576001811461084057610884565b607f600283041661082b8187610b9d565b955060ff198316865260208601935050610884565b6002820461084e8187610b9d565b955061085985610b54565b60005b8281101561087b5781548189015260018201915060208101905061085c565b80880195505050505b505092915050565b6000610899602083610bae565b91507f4e6f20647261676f6e7320617661696c61626c6520666f72206c6f6f6b75702e6000830152602082019050919050565b600060a08301600083015184820360008601526108e982826107c4565b91505060208301516108fe6020860182610740565b5060408301516109116040860182610a5b565b5060608301516109246060860182610a5b565b5060808301516109376080860182610a5b565b508091505092915050565b600060a083016000830151848203600086015261095f82826107c4565b91505060208301516109746020860182610740565b5060408301516109876040860182610a5b565b50606083015161099a6060860182610a5b565b5060808301516109ad6080860182610a5b565b508091505092915050565b600060a08301600080840185830360008701526109d583826107fd565b925050600184015490506109e881610c6a565b6109f56020870182610740565b5060028401549050610a0681610c84565b610a136040870182610a5b565b5060038401549050610a2481610c84565b610a316060870182610a5b565b5060048401549050610a4281610c84565b610a4f6080870182610a5b565b50819250505092915050565b610a6481610c2d565b82525050565b610a7b610a7682610c2d565b610cc2565b82525050565b6000610a8d8286610a6a565b602082019150610a9d8285610a6a565b602082019150610aad8284610729565b601482019150819050949350505050565b60006020820190508181036000830152610ad8818461074f565b905092915050565b60006020820190508181036000830152610af98161088c565b9050919050565b60006020820190508181036000830152610b1a8184610942565b905092915050565b60006020820190508181036000830152610b3c81846109b8565b905092915050565b6000819050602082019050919050565b60008190508160005260206000209050919050565b600081519050919050565b600081519050919050565b6000602082019050919050565b600082825260208201905092915050565b600082825260208201905092915050565b600082825260208201905092915050565b600073ffffffffffffffffffffffffffffffffffffffff82169050919050565b6000819050919050565b6000610bf482610c0d565b9050919050565b6000610c0682610c0d565b9050919050565b600073ffffffffffffffffffffffffffffffffffffffff82169050919050565b6000819050919050565b60005b83811015610c55578082015181840152602081019050610c3a565b83811115610c64576000848401525b50505050565b6000610c7d610c7883610cea565b610bbf565b9050919050565b6000610c97610c9283610cea565b610bdf565b9050919050565b6000610ca982610cb0565b9050919050565b6000610cbb82610cdd565b9050919050565b6000819050919050565b6000601f19601f8301169050919050565b60008160601b9050919050565b60008160001c905091905056fea2646970667358221220dce2d6cc47004657f8f5455fc2448817b592f8bb988ab31e0c9be361d93ad0ff64736f6c634300070000336080604052611a0b806100136000396000f3fe6080604052600436106100555760003560e01c806313fdba3c1461005a57806327dc297e1461006457806338bbfa501461013657806343d3b1be1461029f578063673402e5146102ca578063952525601461035a575b600080fd5b6100626103ea565b005b34801561007057600080fd5b506101346004803603604081101561008757600080fd5b8101908080359060200190929190803590602001906401000000008111156100ae57600080fd5b8201836020820111156100c057600080fd5b803590602001918460018302840111640100000000831117156100e257600080fd5b91908080601f016020809104026020016040519081016040528093929190818152602001838380828437600081840152601f19601f8201169050808301925050505050505091929192905050506104e3565b005b34801561014257600080fd5b5061029d6004803603606081101561015957600080fd5b81019080803590602001909291908035906020019064010000000081111561018057600080fd5b82018360208201111561019257600080fd5b803590602001918460018302840111640100000000831117156101b457600080fd5b91908080601f016020809104026020016040519081016040528093929190818152602001838380828437600081840152601f19601f8201169050808301925050505050505091929192908035906020019064010000000081111561021757600080fd5b82018360208201111561022957600080fd5b8035906020019184600183028401116401000000008311171561024b57600080fd5b91908080601f016020809104026020016040519081016040528093929190818152602001838380828437600081840152601f19601f82011690508083019250505050505050919291929050505061053d565b005b3480156102ab57600080fd5b506102b4610560565b6040518082815260200191505060405180910390f35b3480156102d657600080fd5b506102df610566565b6040518080602001828103825283818151815260200191508051906020019080838360005b8381101561031f578082015181840152602081019050610304565b50505050905090810190601f16801561034c5780820380516001836020036101000a031916815260200191505b509250505060405180910390f35b34801561036657600080fd5b5061036f610604565b6040518080602001828103825283818151815260200191508051906020019080838360005b838110156103af578082015181840152602081019050610394565b50505050905090810190601f1680156103dc5780820380516001836020036101000a031916815260200191505b509250505060405180910390f35b6104286040518060400160405280600381526020017f55524c00000000000000000000000000000000000000000000000000000000008152506106a6565b600681905550600654471015610489576040517f08c379a000000000000000000000000000000000000000000000000000000000815260040180806020018281038252602e815260200180611941602e913960400191505060405180910390fd5b6104e06040518060400160405280600381526020017f55524c00000000000000000000000000000000000000000000000000000000008152506040518060a001604052806067815260200161196f60679139610a35565b50565b6104eb610f79565b73ffffffffffffffffffffffffffffffffffffffff163373ffffffffffffffffffffffffffffffffffffffff161461052257600080fd5b8060059080519060200190610538929190611823565b505050565b6000801b600360008060001b815260200190815260200160002081905550505050565b60065481565b60058054600181600116156101000203166002900480601f0160208091040260200160405190810160405280929190818152602001828054600181600116156101000203166002900480156105fc5780601f106105d1576101008083540402835291602001916105fc565b820191906000526020600020905b8154815290600101906020018083116105df57829003601f168201915b505050505081565b606060058054600181600116156101000203166002900480601f01602080910402602001604051908101604052809291908181526020018280546001816001161561010002031660029004801561069c5780601f106106715761010080835404028352916020019161069c565b820191906000526020600020905b81548152906001019060200180831161067f57829003601f168201915b5050505050905090565b60008073ffffffffffffffffffffffffffffffffffffffff16600160009054906101000a900473ffffffffffffffffffffffffffffffffffffffff1673ffffffffffffffffffffffffffffffffffffffff16148061072e5750600061072c600160009054906101000a900473ffffffffffffffffffffffffffffffffffffffff16611296565b145b1561073f5761073d60006112a1565b505b600160009054906101000a900473ffffffffffffffffffffffffffffffffffffffff1673ffffffffffffffffffffffffffffffffffffffff166338cc48316040518163ffffffff1660e01b8152600401602060405180830381600087803b1580156107a957600080fd5b505af11580156107bd573d6000803e3d6000fd5b505050506040513d60208110156107d357600080fd5b810190808051906020019092919050505073ffffffffffffffffffffffffffffffffffffffff1660008054906101000a900473ffffffffffffffffffffffffffffffffffffffff1673ffffffffffffffffffffffffffffffffffffffff161461091b57600160009054906101000a900473ffffffffffffffffffffffffffffffffffffffff1673ffffffffffffffffffffffffffffffffffffffff166338cc48316040518163ffffffff1660e01b8152600401602060405180830381600087803b1580156108a057600080fd5b505af11580156108b4573d6000803e3d6000fd5b505050506040513d60208110156108ca57600080fd5b81019080805190602001909291905050506000806101000a81548173ffffffffffffffffffffffffffffffffffffffff021916908373ffffffffffffffffffffffffffffffffffffffff1602179055505b60008054906101000a900473ffffffffffffffffffffffffffffffffffffffff1673ffffffffffffffffffffffffffffffffffffffff1663524f3889836040518263ffffffff1660e01b81526004018080602001828103825283818151815260200191508051906020019080838360005b838110156109a757808201518184015260208101905061098c565b50505050905090810190601f1680156109d45780820380516001836020036101000a031916815260200191505b5092505050602060405180830381600087803b1580156109f357600080fd5b505af1158015610a07573d6000803e3d6000fd5b505050506040513d6020811015610a1d57600080fd5b81019080805190602001909291905050509050919050565b60008073ffffffffffffffffffffffffffffffffffffffff16600160009054906101000a900473ffffffffffffffffffffffffffffffffffffffff1673ffffffffffffffffffffffffffffffffffffffff161480610abd57506000610abb600160009054906101000a900473ffffffffffffffffffffffffffffffffffffffff16611296565b145b15610ace57610acc60006112a1565b505b600160009054906101000a900473ffffffffffffffffffffffffffffffffffffffff1673ffffffffffffffffffffffffffffffffffffffff166338cc48316040518163ffffffff1660e01b8152600401602060405180830381600087803b158015610b3857600080fd5b505af1158015610b4c573d6000803e3d6000fd5b505050506040513d6020811015610b6257600080fd5b810190808051906020019092919050505073ffffffffffffffffffffffffffffffffffffffff1660008054906101000a900473ffffffffffffffffffffffffffffffffffffffff1673ffffffffffffffffffffffffffffffffffffffff1614610caa57600160009054906101000a900473ffffffffffffffffffffffffffffffffffffffff1673ffffffffffffffffffffffffffffffffffffffff166338cc48316040518163ffffffff1660e01b8152600401602060405180830381600087803b158015610c2f57600080fd5b505af1158015610c43573d6000803e3d6000fd5b505050506040513d6020811015610c5957600080fd5b81019080805190602001909291905050506000806101000a81548173ffffffffffffffffffffffffffffffffffffffff021916908373ffffffffffffffffffffffffffffffffffffffff1602179055505b60008060009054906101000a900473ffffffffffffffffffffffffffffffffffffffff1673ffffffffffffffffffffffffffffffffffffffff1663524f3889856040518263ffffffff1660e01b81526004018080602001828103825283818151815260200191508051906020019080838360005b83811015610d39578082015181840152602081019050610d1e565b50505050905090810190601f168015610d665780820380516001836020036101000a031916815260200191505b5092505050602060405180830381600087803b158015610d8557600080fd5b505af1158015610d99573d6000803e3d6000fd5b505050506040513d6020811015610daf57600080fd5b8101908080519060200190929190505050905062030d403a02670de0b6b3a764000001811115610de5576000801b915050610f73565b60008054906101000a900473ffffffffffffffffffffffffffffffffffffffff1673ffffffffffffffffffffffffffffffffffffffff1663adf59f9982600087876040518563ffffffff1660e01b8152600401808481526020018060200180602001838103835285818151815260200191508051906020019080838360005b83811015610e7f578082015181840152602081019050610e64565b50505050905090810190601f168015610eac5780820380516001836020036101000a031916815260200191505b50838103825284818151815260200191508051906020019080838360005b83811015610ee5578082015181840152602081019050610eca565b50505050905090810190601f168015610f125780820380516001836020036101000a031916815260200191505b50955050505050506020604051808303818588803b158015610f3357600080fd5b505af1158015610f47573d6000803e3d6000fd5b50505050506040513d6020811015610f5e57600080fd5b81019080805190602001909291905050509150505b92915050565b60008073ffffffffffffffffffffffffffffffffffffffff16600160009054906101000a900473ffffffffffffffffffffffffffffffffffffffff1673ffffffffffffffffffffffffffffffffffffffff16148061100157506000610fff600160009054906101000a900473ffffffffffffffffffffffffffffffffffffffff16611296565b145b156110125761101060006112a1565b505b600160009054906101000a900473ffffffffffffffffffffffffffffffffffffffff1673ffffffffffffffffffffffffffffffffffffffff166338cc48316040518163ffffffff1660e01b8152600401602060405180830381600087803b15801561107c57600080fd5b505af1158015611090573d6000803e3d6000fd5b505050506040513d60208110156110a657600080fd5b810190808051906020019092919050505073ffffffffffffffffffffffffffffffffffffffff1660008054906101000a900473ffffffffffffffffffffffffffffffffffffffff1673ffffffffffffffffffffffffffffffffffffffff16146111ee57600160009054906101000a900473ffffffffffffffffffffffffffffffffffffffff1673ffffffffffffffffffffffffffffffffffffffff166338cc48316040518163ffffffff1660e01b8152600401602060405180830381600087803b15801561117357600080fd5b505af1158015611187573d6000803e3d6000fd5b505050506040513d602081101561119d57600080fd5b81019080805190602001909291905050506000806101000a81548173ffffffffffffffffffffffffffffffffffffffff021916908373ffffffffffffffffffffffffffffffffffffffff1602179055505b60008054906101000a900473ffffffffffffffffffffffffffffffffffffffff1673ffffffffffffffffffffffffffffffffffffffff1663c281d19e6040518163ffffffff1660e01b8152600401602060405180830381600087803b15801561125657600080fd5b505af115801561126a573d6000803e3d6000fd5b505050506040513d602081101561128057600080fd5b8101908080519060200190929190505050905090565b6000813b9050919050565b60006112ab6112b2565b9050919050565b6000806112d2731d3b2638a7cc9f2cb3d298a3da7a90b67e5506ed611296565b111561137457731d3b2638a7cc9f2cb3d298a3da7a90b67e5506ed600160006101000a81548173ffffffffffffffffffffffffffffffffffffffff021916908373ffffffffffffffffffffffffffffffffffffffff16021790555061136b6040518060400160405280600b81526020017f6574685f6d61696e6e6574000000000000000000000000000000000000000000815250611809565b60019050611806565b600061139373c03a2615d5efaf5f49f60b7bb6583eaec212fdf1611296565b11156114355773c03a2615d5efaf5f49f60b7bb6583eaec212fdf1600160006101000a81548173ffffffffffffffffffffffffffffffffffffffff021916908373ffffffffffffffffffffffffffffffffffffffff16021790555061142c6040518060400160405280600c81526020017f6574685f726f707374656e330000000000000000000000000000000000000000815250611809565b60019050611806565b600061145473b7a07bcf2ba2f2703b24c0691b5278999c59ac7e611296565b11156114f65773b7a07bcf2ba2f2703b24c0691b5278999c59ac7e600160006101000a81548173ffffffffffffffffffffffffffffffffffffffff021916908373ffffffffffffffffffffffffffffffffffffffff1602179055506114ed6040518060400160405280600981526020017f6574685f6b6f76616e0000000000000000000000000000000000000000000000815250611809565b60019050611806565b600061151573146500cfd35b22e4a392fe0adc06de1a1368ed48611296565b11156115b75773146500cfd35b22e4a392fe0adc06de1a1368ed48600160006101000a81548173ffffffffffffffffffffffffffffffffffffffff021916908373ffffffffffffffffffffffffffffffffffffffff1602179055506115ae6040518060400160405280600b81526020017f6574685f72696e6b656279000000000000000000000000000000000000000000815250611809565b60019050611806565b60006115d673a2998efd205fb9d4b4963afb70778d6354ad3a41611296565b11156116785773a2998efd205fb9d4b4963afb70778d6354ad3a41600160006101000a81548173ffffffffffffffffffffffffffffffffffffffff021916908373ffffffffffffffffffffffffffffffffffffffff16021790555061166f6040518060400160405280600a81526020017f6574685f676f65726c6900000000000000000000000000000000000000000000815250611809565b60019050611806565b6000611697736f485c8bf6fc43ea212e93bbf8ce046c7f1cb475611296565b11156116fb57736f485c8bf6fc43ea212e93bbf8ce046c7f1cb475600160006101000a81548173ffffffffffffffffffffffffffffffffffffffff021916908373ffffffffffffffffffffffffffffffffffffffff16021790555060019050611806565b600061171a7320e12a1f859b3feae5fb2a0a32c18f5a65555bbf611296565b111561177e577320e12a1f859b3feae5fb2a0a32c18f5a65555bbf600160006101000a81548173ffffffffffffffffffffffffffffffffffffffff021916908373ffffffffffffffffffffffffffffffffffffffff16021790555060019050611806565b600061179d7351efaf4c8b3c9afbd5ab9f4bbc82784ab6ef8faa611296565b1115611801577351efaf4c8b3c9afbd5ab9f4bbc82784ab6ef8faa600160006101000a81548173ffffffffffffffffffffffffffffffffffffffff021916908373ffffffffffffffffffffffffffffffffffffffff16021790555060019050611806565b600090505b90565b806002908051906020019061181f9291906118a3565b5050565b828054600181600116156101000203166002900490600052602060002090601f016020900481019282601f1061186457805160ff1916838001178555611892565b82800160010185558215611892579182015b82811115611891578251825591602001919060010190611876565b5b50905061189f9190611923565b5090565b828054600181600116156101000203166002900490600052602060002090601f016020900481019282601f106118e457805160ff1916838001178555611912565b82800160010185558215611912579182015b828111156119115782518255916020019190600101906118f6565b5b50905061191f9190611923565b5090565b5b8082111561193c576000816000905550600101611924565b509056fe706c656173652061646420736f6d652045544820746f20636f76657220666f7220746865207175657279206665656a736f6e28687474703a2f2f776565726c6976652e6e6c2f6170692f6a736f6e2d646174612d31306d696e2e7068703f6b65793d30313436346364363235266c6f63617469653d48656c6c65766f6574736c756973292e6c697665776565725b305d2e74656d70a26469706673582212207f2651dd366774a60be26ea5ac42bae3196967c2424d965e6f98b07c4ccbe68d64736f6c63430007000033",
  "immutableReferences": {},
  "source": "// SPDX-License-Identifier: MIT\r\npragma solidity ^0.7.0;\r\npragma experimental ABIEncoderV2; // To fix a type-error we need to enable this.\r\n\r\nimport './HeroFactory.sol';\r\nimport './DragonFactory.sol';\r\nimport './Dragon.sol';\r\nimport './Hero.sol';\r\nimport './OrmrOracle.sol';\r\n\r\n// This Contract is supposed to become a game where our hero is fighting dragons.\r\ncontract Ormr {\r\n    \r\n    //Events. PD-3 Events.\r\n    event encounterResult(string); // Emit the result of a battle.\r\n    \r\n    // Variables\r\n    HeroFactory HF;\r\n    DragonFactory DF;\r\n    OrmrOracle OO;\r\n    \r\n    // Called once at deployment of the contract.\r\n    constructor() {\r\n        HF = new HeroFactory();\r\n        DF = new DragonFactory();\r\n        OO = new OrmrOracle();\r\n    }\r\n    \r\n    // Hero logic\r\n    function createHero (string memory _name) public {\r\n        HF.createHero(_name, msg.sender);\r\n    }\r\n    \r\n    function getHero() public view returns (Hero memory) {\r\n        return HF.getHero(msg.sender);\r\n    }\r\n    \r\n    function getHeroes() public view returns (Hero[] memory){\r\n        return HF.getHeroes();\r\n    }\r\n    \r\n    //Dragon logic\r\n    function createDragon () public {\r\n        DF.createDragon();\r\n    }\r\n    \r\n    function getDragon () public view returns (Dragon memory) {\r\n        return DF.getDragon();\r\n    }\r\n    \r\n    // This is the function our user sees when starting a battle.\r\n    function startEncounter() public {\r\n        // Create checks to check whether a hero and dragon are available.\r\n        _encounter(HF.getHero(msg.sender), DF.getDragon()); // Increase gas limit in remix.\r\n    }\r\n    \r\n    // Lock in our Hero and the Dragon. Emits the result of the encounter.\r\n    function _encounter(Hero memory _hero, Dragon memory _dragon) internal {\r\n        // Check if there are both a hero and a dragon. Require keyword and ternary operator. PD-3 Error Handling.\r\n        require(keccak256(abi.encodePacked(_hero.name)) != keccak256(abi.encodePacked('')), \"Hero not found\");\r\n        require(keccak256(abi.encodePacked(_dragon.name))!= keccak256(abi.encodePacked('')), \"Dragon not found\");\r\n        \r\n        // Fight!\r\n        emit encounterResult(_battle(_hero.power, _dragon.power)); // Emit our event containing result of battle..\r\n    }\r\n    \r\n    // Determine who wins the fight.\r\n    function _battle(uint heroPower, uint dragonPower) private pure returns (string memory) {\r\n        if (heroPower > dragonPower) {\r\n            return \"The dragon has been slain!\";\r\n        }\r\n        else if (heroPower < dragonPower) {\r\n            return \"The hero has been defeated! The dragon was too strong!\";\r\n        }\r\n        else {\r\n            return \"The hero and dragon are equal in strength, there is no victor!\";\r\n        }\r\n    }\r\n\r\n    // Let's do something with our Oracle here.\r\n\r\n    // Web3examples convert to uint https://github.com/web3examples/ethereum/blob/master/solidity_examples/bytes2uint.sol\r\n    // Because we need a uint for our hero and dragon creation and our Oracle returns bytes, let's convert it here.\r\n    function convertToUint(bytes memory input) public pure returns (uint) { \r\n        uint res=0;\r\n        for (uint i=0;i<input.length;i++) \r\n            res = (res<<8) + uint(uint8(input[i]));\r\n        return res;\r\n    }\r\n\r\n    // Check oracle output\r\n    function callOracleRandom() public {\r\n        OO.requestTemp();\r\n    }\r\n\r\n    function getTempUint() public view returns (uint) {\r\n        bytes memory res = OO.getTemp();\r\n        return convertToUint(res);\r\n    }\r\n\r\n    function getTemp() public view returns (bytes memory) {\r\n        return OO.getTemp();\r\n    }\r\n    \r\n}\r\n",
  "sourcePath": "C:/Users/juria/Documents/GitHub/BC3_Jurian/PD-08/contracts/Ormr.sol",
  "compiler": {
    "name": "solc",
    "version": "0.7.0+commit.9e61f92b.Emscripten.clang"
  },
  "schemaVersion": "3.3.2",
  "updatedAt": "2020-12-15T15:36:16.976Z",
  "devdoc": {
    "kind": "dev",
    "methods": {},
    "version": 1
  },
  "userdoc": {
    "kind": "user",
    "methods": {},
    "version": 1
  }
}