{
  "contractName": "OrmrOracle",
  "abi": [
    {
      "inputs": [],
      "stateMutability": "payable",
      "type": "constructor"
    },
    {
      "inputs": [],
      "name": "priceOfUrl",
      "outputs": [
        {
          "internalType": "uint256",
          "name": "",
          "type": "uint256"
        }
      ],
      "stateMutability": "view",
      "type": "function"
    },
    {
      "inputs": [],
      "name": "temp",
      "outputs": [
        {
          "internalType": "bytes",
          "name": "",
          "type": "bytes"
        }
      ],
      "stateMutability": "view",
      "type": "function"
    },
    {
      "inputs": [
        {
          "internalType": "bytes32",
          "name": "",
          "type": "bytes32"
        },
        {
          "internalType": "string",
          "name": "result",
          "type": "string"
        }
      ],
      "name": "__callback",
      "outputs": [],
      "stateMutability": "nonpayable",
      "type": "function"
    },
    {
      "inputs": [
        {
          "internalType": "bytes32",
          "name": "_myid",
          "type": "bytes32"
        },
        {
          "internalType": "string",
          "name": "_result",
          "type": "string"
        },
        {
          "internalType": "bytes",
          "name": "_proof",
          "type": "bytes"
        }
      ],
      "name": "__callback",
      "outputs": [],
      "stateMutability": "nonpayable",
      "type": "function"
    },
    {
      "inputs": [],
      "name": "requestTemp",
      "outputs": [],
      "stateMutability": "payable",
      "type": "function"
    },
    {
      "inputs": [],
      "name": "getTemp",
      "outputs": [
        {
          "internalType": "bytes",
          "name": "",
          "type": "bytes"
        }
      ],
      "stateMutability": "view",
      "type": "function"
    }
  ],
  "bytecode": "0x6080604052611a0b806100136000396000f3fe6080604052600436106100555760003560e01c806313fdba3c1461005a57806327dc297e1461006457806338bbfa501461013657806343d3b1be1461029f578063673402e5146102ca578063952525601461035a575b600080fd5b6100626103ea565b005b34801561007057600080fd5b506101346004803603604081101561008757600080fd5b8101908080359060200190929190803590602001906401000000008111156100ae57600080fd5b8201836020820111156100c057600080fd5b803590602001918460018302840111640100000000831117156100e257600080fd5b91908080601f016020809104026020016040519081016040528093929190818152602001838380828437600081840152601f19601f8201169050808301925050505050505091929192905050506104e3565b005b34801561014257600080fd5b5061029d6004803603606081101561015957600080fd5b81019080803590602001909291908035906020019064010000000081111561018057600080fd5b82018360208201111561019257600080fd5b803590602001918460018302840111640100000000831117156101b457600080fd5b91908080601f016020809104026020016040519081016040528093929190818152602001838380828437600081840152601f19601f8201169050808301925050505050505091929192908035906020019064010000000081111561021757600080fd5b82018360208201111561022957600080fd5b8035906020019184600183028401116401000000008311171561024b57600080fd5b91908080601f016020809104026020016040519081016040528093929190818152602001838380828437600081840152601f19601f82011690508083019250505050505050919291929050505061053d565b005b3480156102ab57600080fd5b506102b4610560565b6040518082815260200191505060405180910390f35b3480156102d657600080fd5b506102df610566565b6040518080602001828103825283818151815260200191508051906020019080838360005b8381101561031f578082015181840152602081019050610304565b50505050905090810190601f16801561034c5780820380516001836020036101000a031916815260200191505b509250505060405180910390f35b34801561036657600080fd5b5061036f610604565b6040518080602001828103825283818151815260200191508051906020019080838360005b838110156103af578082015181840152602081019050610394565b50505050905090810190601f1680156103dc5780820380516001836020036101000a031916815260200191505b509250505060405180910390f35b6104286040518060400160405280600381526020017f55524c00000000000000000000000000000000000000000000000000000000008152506106a6565b600681905550600654471015610489576040517f08c379a000000000000000000000000000000000000000000000000000000000815260040180806020018281038252602e815260200180611941602e913960400191505060405180910390fd5b6104e06040518060400160405280600381526020017f55524c00000000000000000000000000000000000000000000000000000000008152506040518060a001604052806067815260200161196f60679139610a35565b50565b6104eb610f79565b73ffffffffffffffffffffffffffffffffffffffff163373ffffffffffffffffffffffffffffffffffffffff161461052257600080fd5b8060059080519060200190610538929190611823565b505050565b6000801b600360008060001b815260200190815260200160002081905550505050565b60065481565b60058054600181600116156101000203166002900480601f0160208091040260200160405190810160405280929190818152602001828054600181600116156101000203166002900480156105fc5780601f106105d1576101008083540402835291602001916105fc565b820191906000526020600020905b8154815290600101906020018083116105df57829003601f168201915b505050505081565b606060058054600181600116156101000203166002900480601f01602080910402602001604051908101604052809291908181526020018280546001816001161561010002031660029004801561069c5780601f106106715761010080835404028352916020019161069c565b820191906000526020600020905b81548152906001019060200180831161067f57829003601f168201915b5050505050905090565b60008073ffffffffffffffffffffffffffffffffffffffff16600160009054906101000a900473ffffffffffffffffffffffffffffffffffffffff1673ffffffffffffffffffffffffffffffffffffffff16148061072e5750600061072c600160009054906101000a900473ffffffffffffffffffffffffffffffffffffffff16611296565b145b1561073f5761073d60006112a1565b505b600160009054906101000a900473ffffffffffffffffffffffffffffffffffffffff1673ffffffffffffffffffffffffffffffffffffffff166338cc48316040518163ffffffff1660e01b8152600401602060405180830381600087803b1580156107a957600080fd5b505af11580156107bd573d6000803e3d6000fd5b505050506040513d60208110156107d357600080fd5b810190808051906020019092919050505073ffffffffffffffffffffffffffffffffffffffff1660008054906101000a900473ffffffffffffffffffffffffffffffffffffffff1673ffffffffffffffffffffffffffffffffffffffff161461091b57600160009054906101000a900473ffffffffffffffffffffffffffffffffffffffff1673ffffffffffffffffffffffffffffffffffffffff166338cc48316040518163ffffffff1660e01b8152600401602060405180830381600087803b1580156108a057600080fd5b505af11580156108b4573d6000803e3d6000fd5b505050506040513d60208110156108ca57600080fd5b81019080805190602001909291905050506000806101000a81548173ffffffffffffffffffffffffffffffffffffffff021916908373ffffffffffffffffffffffffffffffffffffffff1602179055505b60008054906101000a900473ffffffffffffffffffffffffffffffffffffffff1673ffffffffffffffffffffffffffffffffffffffff1663524f3889836040518263ffffffff1660e01b81526004018080602001828103825283818151815260200191508051906020019080838360005b838110156109a757808201518184015260208101905061098c565b50505050905090810190601f1680156109d45780820380516001836020036101000a031916815260200191505b5092505050602060405180830381600087803b1580156109f357600080fd5b505af1158015610a07573d6000803e3d6000fd5b505050506040513d6020811015610a1d57600080fd5b81019080805190602001909291905050509050919050565b60008073ffffffffffffffffffffffffffffffffffffffff16600160009054906101000a900473ffffffffffffffffffffffffffffffffffffffff1673ffffffffffffffffffffffffffffffffffffffff161480610abd57506000610abb600160009054906101000a900473ffffffffffffffffffffffffffffffffffffffff16611296565b145b15610ace57610acc60006112a1565b505b600160009054906101000a900473ffffffffffffffffffffffffffffffffffffffff1673ffffffffffffffffffffffffffffffffffffffff166338cc48316040518163ffffffff1660e01b8152600401602060405180830381600087803b158015610b3857600080fd5b505af1158015610b4c573d6000803e3d6000fd5b505050506040513d6020811015610b6257600080fd5b810190808051906020019092919050505073ffffffffffffffffffffffffffffffffffffffff1660008054906101000a900473ffffffffffffffffffffffffffffffffffffffff1673ffffffffffffffffffffffffffffffffffffffff1614610caa57600160009054906101000a900473ffffffffffffffffffffffffffffffffffffffff1673ffffffffffffffffffffffffffffffffffffffff166338cc48316040518163ffffffff1660e01b8152600401602060405180830381600087803b158015610c2f57600080fd5b505af1158015610c43573d6000803e3d6000fd5b505050506040513d6020811015610c5957600080fd5b81019080805190602001909291905050506000806101000a81548173ffffffffffffffffffffffffffffffffffffffff021916908373ffffffffffffffffffffffffffffffffffffffff1602179055505b60008060009054906101000a900473ffffffffffffffffffffffffffffffffffffffff1673ffffffffffffffffffffffffffffffffffffffff1663524f3889856040518263ffffffff1660e01b81526004018080602001828103825283818151815260200191508051906020019080838360005b83811015610d39578082015181840152602081019050610d1e565b50505050905090810190601f168015610d665780820380516001836020036101000a031916815260200191505b5092505050602060405180830381600087803b158015610d8557600080fd5b505af1158015610d99573d6000803e3d6000fd5b505050506040513d6020811015610daf57600080fd5b8101908080519060200190929190505050905062030d403a02670de0b6b3a764000001811115610de5576000801b915050610f73565b60008054906101000a900473ffffffffffffffffffffffffffffffffffffffff1673ffffffffffffffffffffffffffffffffffffffff1663adf59f9982600087876040518563ffffffff1660e01b8152600401808481526020018060200180602001838103835285818151815260200191508051906020019080838360005b83811015610e7f578082015181840152602081019050610e64565b50505050905090810190601f168015610eac5780820380516001836020036101000a031916815260200191505b50838103825284818151815260200191508051906020019080838360005b83811015610ee5578082015181840152602081019050610eca565b50505050905090810190601f168015610f125780820380516001836020036101000a031916815260200191505b50955050505050506020604051808303818588803b158015610f3357600080fd5b505af1158015610f47573d6000803e3d6000fd5b50505050506040513d6020811015610f5e57600080fd5b81019080805190602001909291905050509150505b92915050565b60008073ffffffffffffffffffffffffffffffffffffffff16600160009054906101000a900473ffffffffffffffffffffffffffffffffffffffff1673ffffffffffffffffffffffffffffffffffffffff16148061100157506000610fff600160009054906101000a900473ffffffffffffffffffffffffffffffffffffffff16611296565b145b156110125761101060006112a1565b505b600160009054906101000a900473ffffffffffffffffffffffffffffffffffffffff1673ffffffffffffffffffffffffffffffffffffffff166338cc48316040518163ffffffff1660e01b8152600401602060405180830381600087803b15801561107c57600080fd5b505af1158015611090573d6000803e3d6000fd5b505050506040513d60208110156110a657600080fd5b810190808051906020019092919050505073ffffffffffffffffffffffffffffffffffffffff1660008054906101000a900473ffffffffffffffffffffffffffffffffffffffff1673ffffffffffffffffffffffffffffffffffffffff16146111ee57600160009054906101000a900473ffffffffffffffffffffffffffffffffffffffff1673ffffffffffffffffffffffffffffffffffffffff166338cc48316040518163ffffffff1660e01b8152600401602060405180830381600087803b15801561117357600080fd5b505af1158015611187573d6000803e3d6000fd5b505050506040513d602081101561119d57600080fd5b81019080805190602001909291905050506000806101000a81548173ffffffffffffffffffffffffffffffffffffffff021916908373ffffffffffffffffffffffffffffffffffffffff1602179055505b60008054906101000a900473ffffffffffffffffffffffffffffffffffffffff1673ffffffffffffffffffffffffffffffffffffffff1663c281d19e6040518163ffffffff1660e01b8152600401602060405180830381600087803b15801561125657600080fd5b505af115801561126a573d6000803e3d6000fd5b505050506040513d602081101561128057600080fd5b8101908080519060200190929190505050905090565b6000813b9050919050565b60006112ab6112b2565b9050919050565b6000806112d2731d3b2638a7cc9f2cb3d298a3da7a90b67e5506ed611296565b111561137457731d3b2638a7cc9f2cb3d298a3da7a90b67e5506ed600160006101000a81548173ffffffffffffffffffffffffffffffffffffffff021916908373ffffffffffffffffffffffffffffffffffffffff16021790555061136b6040518060400160405280600b81526020017f6574685f6d61696e6e6574000000000000000000000000000000000000000000815250611809565b60019050611806565b600061139373c03a2615d5efaf5f49f60b7bb6583eaec212fdf1611296565b11156114355773c03a2615d5efaf5f49f60b7bb6583eaec212fdf1600160006101000a81548173ffffffffffffffffffffffffffffffffffffffff021916908373ffffffffffffffffffffffffffffffffffffffff16021790555061142c6040518060400160405280600c81526020017f6574685f726f707374656e330000000000000000000000000000000000000000815250611809565b60019050611806565b600061145473b7a07bcf2ba2f2703b24c0691b5278999c59ac7e611296565b11156114f65773b7a07bcf2ba2f2703b24c0691b5278999c59ac7e600160006101000a81548173ffffffffffffffffffffffffffffffffffffffff021916908373ffffffffffffffffffffffffffffffffffffffff1602179055506114ed6040518060400160405280600981526020017f6574685f6b6f76616e0000000000000000000000000000000000000000000000815250611809565b60019050611806565b600061151573146500cfd35b22e4a392fe0adc06de1a1368ed48611296565b11156115b75773146500cfd35b22e4a392fe0adc06de1a1368ed48600160006101000a81548173ffffffffffffffffffffffffffffffffffffffff021916908373ffffffffffffffffffffffffffffffffffffffff1602179055506115ae6040518060400160405280600b81526020017f6574685f72696e6b656279000000000000000000000000000000000000000000815250611809565b60019050611806565b60006115d673a2998efd205fb9d4b4963afb70778d6354ad3a41611296565b11156116785773a2998efd205fb9d4b4963afb70778d6354ad3a41600160006101000a81548173ffffffffffffffffffffffffffffffffffffffff021916908373ffffffffffffffffffffffffffffffffffffffff16021790555061166f6040518060400160405280600a81526020017f6574685f676f65726c6900000000000000000000000000000000000000000000815250611809565b60019050611806565b6000611697736f485c8bf6fc43ea212e93bbf8ce046c7f1cb475611296565b11156116fb57736f485c8bf6fc43ea212e93bbf8ce046c7f1cb475600160006101000a81548173ffffffffffffffffffffffffffffffffffffffff021916908373ffffffffffffffffffffffffffffffffffffffff16021790555060019050611806565b600061171a7320e12a1f859b3feae5fb2a0a32c18f5a65555bbf611296565b111561177e577320e12a1f859b3feae5fb2a0a32c18f5a65555bbf600160006101000a81548173ffffffffffffffffffffffffffffffffffffffff021916908373ffffffffffffffffffffffffffffffffffffffff16021790555060019050611806565b600061179d7351efaf4c8b3c9afbd5ab9f4bbc82784ab6ef8faa611296565b1115611801577351efaf4c8b3c9afbd5ab9f4bbc82784ab6ef8faa600160006101000a81548173ffffffffffffffffffffffffffffffffffffffff021916908373ffffffffffffffffffffffffffffffffffffffff16021790555060019050611806565b600090505b90565b806002908051906020019061181f9291906118a3565b5050565b828054600181600116156101000203166002900490600052602060002090601f016020900481019282601f1061186457805160ff1916838001178555611892565b82800160010185558215611892579182015b82811115611891578251825591602001919060010190611876565b5b50905061189f9190611923565b5090565b828054600181600116156101000203166002900490600052602060002090601f016020900481019282601f106118e457805160ff1916838001178555611912565b82800160010185558215611912579182015b828111156119115782518255916020019190600101906118f6565b5b50905061191f9190611923565b5090565b5b8082111561193c576000816000905550600101611924565b509056fe706c656173652061646420736f6d652045544820746f20636f76657220666f7220746865207175657279206665656a736f6e28687474703a2f2f776565726c6976652e6e6c2f6170692f6a736f6e2d646174612d31306d696e2e7068703f6b65793d30313436346364363235266c6f63617469653d48656c6c65766f6574736c756973292e6c697665776565725b305d2e74656d70a26469706673582212207f2651dd366774a60be26ea5ac42bae3196967c2424d965e6f98b07c4ccbe68d64736f6c63430007000033",
  "immutableReferences": {},
  "source": "// SPDX-License-Identifier: MIT\r\npragma solidity ^0.7.0;\r\n\r\nimport './provableAPI.sol';\r\n\r\n// Template from web3examples github: https://github.com/web3examples/ethereum/blob/master/oracle_examples/provable_temperature.sol\r\ncontract OrmrOracle is usingProvable {\r\n   bytes public temp;\r\n   uint256 public priceOfUrl;\r\n   constructor() payable {}\r\n    \r\n   function __callback(bytes32 /* myid prevent warning*/ , string memory result ) override public {\r\n       if (msg.sender != provable_cbAddress()) revert();\r\n       temp = bytes(result);\r\n   }\r\n\r\n   function requestTemp() public payable {\r\n       priceOfUrl = provable_getPrice(\"URL\");\r\n       require (address(this).balance >= priceOfUrl,\r\n            \"please add some ETH to cover for the query fee\");\r\n       provable_query(\"URL\", \r\n            \"json(http://weerlive.nl/api/json-data-10min.php?key=01464cd625&locatie=Hellevoetsluis).liveweer[0].temp\");\r\n   }\r\n\r\n   function getTemp() public view returns (bytes memory) {\r\n       return temp;\r\n   }\r\n    \r\n}\r\n",
  "sourcePath": "C:\\Users\\juria\\Documents\\GitHub\\BC3_Jurian\\PD-08\\contracts\\OrmrOracle.sol",
  "compiler": {
    "name": "solc",
    "version": "0.7.0+commit.9e61f92b.Emscripten.clang"
  },
  "schemaVersion": "3.3.2",
  "updatedAt": "2020-12-15T15:36:16.979Z",
  "devdoc": {
    "kind": "dev",
    "methods": {},
    "version": 1
  },
  "userdoc": {
    "kind": "user",
    "methods": {},
    "version": 1
  }
}