{
  "contractName": "Ormr",
  "abi": [
    {
      "inputs": [],
      "stateMutability": "nonpayable",
      "type": "constructor"
    },
    {
      "anonymous": false,
      "inputs": [
        {
          "indexed": false,
          "internalType": "string",
          "name": "",
          "type": "string"
        }
      ],
      "name": "encounterResult",
      "type": "event"
    },
    {
      "inputs": [
        {
          "internalType": "string",
          "name": "_name",
          "type": "string"
        }
      ],
      "name": "createHero",
      "outputs": [],
      "stateMutability": "nonpayable",
      "type": "function"
    },
    {
      "inputs": [],
      "name": "getHero",
      "outputs": [
        {
          "components": [
            {
              "internalType": "string",
              "name": "name",
              "type": "string"
            },
            {
              "internalType": "uint256",
              "name": "power",
              "type": "uint256"
            },
            {
              "internalType": "uint256",
              "name": "health",
              "type": "uint256"
            },
            {
              "internalType": "uint256",
              "name": "bank",
              "type": "uint256"
            }
          ],
          "internalType": "struct Hero",
          "name": "",
          "type": "tuple"
        }
      ],
      "stateMutability": "view",
      "type": "function"
    },
    {
      "inputs": [],
      "name": "getHeroes",
      "outputs": [
        {
          "components": [
            {
              "internalType": "string",
              "name": "name",
              "type": "string"
            },
            {
              "internalType": "uint256",
              "name": "power",
              "type": "uint256"
            },
            {
              "internalType": "uint256",
              "name": "health",
              "type": "uint256"
            },
            {
              "internalType": "uint256",
              "name": "bank",
              "type": "uint256"
            }
          ],
          "internalType": "struct Hero[]",
          "name": "",
          "type": "tuple[]"
        }
      ],
      "stateMutability": "view",
      "type": "function"
    },
    {
      "inputs": [],
      "name": "createDragon",
      "outputs": [],
      "stateMutability": "nonpayable",
      "type": "function"
    },
    {
      "inputs": [],
      "name": "getDragon",
      "outputs": [
        {
          "components": [
            {
              "internalType": "string",
              "name": "name",
              "type": "string"
            },
            {
              "internalType": "address",
              "name": "id",
              "type": "address"
            },
            {
              "internalType": "uint256",
              "name": "power",
              "type": "uint256"
            },
            {
              "internalType": "uint256",
              "name": "health",
              "type": "uint256"
            },
            {
              "internalType": "uint256",
              "name": "goldReward",
              "type": "uint256"
            }
          ],
          "internalType": "struct Dragon",
          "name": "",
          "type": "tuple"
        }
      ],
      "stateMutability": "view",
      "type": "function"
    },
    {
      "inputs": [],
      "name": "startEncounter",
      "outputs": [],
      "stateMutability": "nonpayable",
      "type": "function"
    },
    {
      "inputs": [
        {
          "internalType": "bytes",
          "name": "input",
          "type": "bytes"
        }
      ],
      "name": "convertToUint",
      "outputs": [
        {
          "internalType": "uint256",
          "name": "",
          "type": "uint256"
        }
      ],
      "stateMutability": "pure",
      "type": "function"
    },
    {
      "inputs": [],
      "name": "callOracleRandom",
      "outputs": [
        {
          "internalType": "bytes",
          "name": "",
          "type": "bytes"
        }
      ],
      "stateMutability": "nonpayable",
      "type": "function"
    },
    {
      "inputs": [],
      "name": "callOracleRandomUint",
      "outputs": [
        {
          "internalType": "uint256",
          "name": "",
          "type": "uint256"
        }
      ],
      "stateMutability": "nonpayable",
      "type": "function"
    }
  ],
  "bytecode": "0x60806040523480156200001157600080fd5b5060405162000020906200015b565b604051809103906000f0801580156200003d573d6000803e3d6000fd5b506000806101000a81548173ffffffffffffffffffffffffffffffffffffffff021916908373ffffffffffffffffffffffffffffffffffffffff1602179055506040516200008b9062000169565b604051809103906000f080158015620000a8573d6000803e3d6000fd5b50600160006101000a81548173ffffffffffffffffffffffffffffffffffffffff021916908373ffffffffffffffffffffffffffffffffffffffff160217905550604051620000f79062000177565b604051809103906000f08015801562000114573d6000803e3d6000fd5b50600260006101000a81548173ffffffffffffffffffffffffffffffffffffffff021916908373ffffffffffffffffffffffffffffffffffffffff16021790555062000185565b610da9806200199583390190565b610d5b806200273e83390190565b6142bc806200349983390190565b61180080620001956000396000f3fe608060405234801561001057600080fd5b50600436106100935760003560e01c806378242aaf1161006657806378242aaf146101225780639a8d28821461013e5780639e01b8531461015c578063b118524414610166578063b7ed99d61461018457610093565b8063581bee2f146100985780635de43cb2146100b65780636865856c146100d45780636a94443514610104575b600080fd5b6100a061018e565b6040516100ad91906114cd565b60405180910390f35b6100be610249565b6040516100cb91906114ef565b60405180910390f35b6100ee60048036038101906100e99190610ea8565b61038b565b6040516100fb91906114ef565b60405180910390f35b61010c6103da565b60405161011991906113dc565b60405180910390f35b61013c60048036038101906101379190610f2a565b610514565b005b6101466105a4565b60405161015391906113ba565b60405180910390f35b61016461064e565b005b61016e6107ab565b60405161017b91906114ab565b60405180910390f35b61018c61085d565b005b610196610ae0565b60008054906101000a900473ffffffffffffffffffffffffffffffffffffffff1673ffffffffffffffffffffffffffffffffffffffff166327df259a336040518263ffffffff1660e01b81526004016101ef919061139f565b60006040518083038186803b15801561020757600080fd5b505afa15801561021b573d6000803e3d6000fd5b505050506040513d6000823e3d601f19601f820116820180604052508101906102449190610fac565b905090565b6000600260009054906101000a900473ffffffffffffffffffffffffffffffffffffffff1673ffffffffffffffffffffffffffffffffffffffff1663446dd97160056040518263ffffffff1660e01b81526004016102a791906113fe565b600060405180830381600087803b1580156102c157600080fd5b505af11580156102d5573d6000803e3d6000fd5b50505050610386600260009054906101000a900473ffffffffffffffffffffffffffffffffffffffff1673ffffffffffffffffffffffffffffffffffffffff16639a7d9af16040518163ffffffff1660e01b815260040160006040518083038186803b15801561034457600080fd5b505afa158015610358573d6000803e3d6000fd5b505050506040513d6000823e3d601f19601f820116820180604052508101906103819190610ee9565b61038b565b905090565b6000806000905060005b83518110156103d0578381815181106103aa57fe5b602001015160f81c60f81b60f81c60ff16600883901b0191508080600101915050610395565b5080915050919050565b6060600260009054906101000a900473ffffffffffffffffffffffffffffffffffffffff1673ffffffffffffffffffffffffffffffffffffffff1663446dd97160056040518263ffffffff1660e01b815260040161043891906113fe565b600060405180830381600087803b15801561045257600080fd5b505af1158015610466573d6000803e3d6000fd5b50505050600260009054906101000a900473ffffffffffffffffffffffffffffffffffffffff1673ffffffffffffffffffffffffffffffffffffffff16639a7d9af16040518163ffffffff1660e01b815260040160006040518083038186803b1580156104d257600080fd5b505afa1580156104e6573d6000803e3d6000fd5b505050506040513d6000823e3d601f19601f8201168201806040525081019061050f9190610ee9565b905090565b60008054906101000a900473ffffffffffffffffffffffffffffffffffffffff1673ffffffffffffffffffffffffffffffffffffffff1663deb786c482336040518363ffffffff1660e01b815260040161056f92919061143b565b600060405180830381600087803b15801561058957600080fd5b505af115801561059d573d6000803e3d6000fd5b5050505050565b606060008054906101000a900473ffffffffffffffffffffffffffffffffffffffff1673ffffffffffffffffffffffffffffffffffffffff16639a8d28826040518163ffffffff1660e01b815260040160006040518083038186803b15801561060c57600080fd5b505afa158015610620573d6000803e3d6000fd5b505050506040513d6000823e3d601f19601f820116820180604052508101906106499190610e67565b905090565b6107a960008054906101000a900473ffffffffffffffffffffffffffffffffffffffff1673ffffffffffffffffffffffffffffffffffffffff166327df259a336040518263ffffffff1660e01b81526004016106aa919061139f565b60006040518083038186803b1580156106c257600080fd5b505afa1580156106d6573d6000803e3d6000fd5b505050506040513d6000823e3d601f19601f820116820180604052508101906106ff9190610fac565b600160009054906101000a900473ffffffffffffffffffffffffffffffffffffffff1673ffffffffffffffffffffffffffffffffffffffff1663b11852446040518163ffffffff1660e01b815260040160006040518083038186803b15801561076757600080fd5b505afa15801561077b573d6000803e3d6000fd5b505050506040513d6000823e3d601f19601f820116820180604052508101906107a49190610f6b565b6108e1565b565b6107b3610b08565b600160009054906101000a900473ffffffffffffffffffffffffffffffffffffffff1673ffffffffffffffffffffffffffffffffffffffff1663b11852446040518163ffffffff1660e01b815260040160006040518083038186803b15801561081b57600080fd5b505afa15801561082f573d6000803e3d6000fd5b505050506040513d6000823e3d601f19601f820116820180604052508101906108589190610f6b565b905090565b600160009054906101000a900473ffffffffffffffffffffffffffffffffffffffff1673ffffffffffffffffffffffffffffffffffffffff1663b7ed99d66040518163ffffffff1660e01b8152600401600060405180830381600087803b1580156108c757600080fd5b505af11580156108db573d6000803e3d6000fd5b50505050565b6040516020016108f09061138a565b60405160208183030381529060405280519060200120826000015160405160200161091b9190611373565b604051602081830303815290604052805190602001201415610972576040517f08c379a00000000000000000000000000000000000000000000000000000000081526004016109699061148b565b60405180910390fd5b6040516020016109819061138a565b6040516020818303038152906040528051906020012081600001516040516020016109ac9190611373565b604051602081830303815290604052805190602001201415610a03576040517f08c379a00000000000000000000000000000000000000000000000000000000081526004016109fa9061146b565b60405180910390fd5b7fdd4beaba995f8a41cdd2f0af8918a02603e1b887060a362f32b17b80b1af367a610a3683602001518360400151610a4f565b604051610a439190611419565b60405180910390a15050565b606081831115610a96576040518060400160405280601a81526020017f54686520647261676f6e20686173206265656e20736c61696e210000000000008152509050610ada565b81831015610abe57604051806060016040528060368152602001611757603691399050610ada565b6040518060600160405280603e815260200161178d603e913990505b92915050565b6040518060800160405280606081526020016000815260200160008152602001600081525090565b6040518060a0016040528060608152602001600073ffffffffffffffffffffffffffffffffffffffff1681526020016000815260200160008152602001600081525090565b600081519050610b5c81611728565b92915050565b600082601f830112610b7357600080fd5b8151610b86610b8182611537565b61150a565b9150818183526020840193506020810190508360005b83811015610bcc5781518601610bb28882610dc6565b845260208401935060208301925050600181019050610b9c565b5050505092915050565b600082601f830112610be757600080fd5b8135610bfa610bf58261155f565b61150a565b91508082526020830160208301858383011115610c1657600080fd5b610c218382846116d5565b50505092915050565b600082601f830112610c3b57600080fd5b8151610c4e610c498261155f565b61150a565b91508082526020830160208301858383011115610c6a57600080fd5b610c758382846116e4565b50505092915050565b600082601f830112610c8f57600080fd5b8135610ca2610c9d8261158b565b61150a565b91508082526020830160208301858383011115610cbe57600080fd5b610cc98382846116d5565b50505092915050565b600082601f830112610ce357600080fd5b8151610cf6610cf18261158b565b61150a565b91508082526020830160208301858383011115610d1257600080fd5b610d1d8382846116e4565b50505092915050565b600060a08284031215610d3857600080fd5b610d4260a061150a565b9050600082015167ffffffffffffffff811115610d5e57600080fd5b610d6a84828501610cd2565b6000830152506020610d7e84828501610b4d565b6020830152506040610d9284828501610e52565b6040830152506060610da684828501610e52565b6060830152506080610dba84828501610e52565b60808301525092915050565b600060808284031215610dd857600080fd5b610de2608061150a565b9050600082015167ffffffffffffffff811115610dfe57600080fd5b610e0a84828501610cd2565b6000830152506020610e1e84828501610e52565b6020830152506040610e3284828501610e52565b6040830152506060610e4684828501610e52565b60608301525092915050565b600081519050610e618161173f565b92915050565b600060208284031215610e7957600080fd5b600082015167ffffffffffffffff811115610e9357600080fd5b610e9f84828501610b62565b91505092915050565b600060208284031215610eba57600080fd5b600082013567ffffffffffffffff811115610ed457600080fd5b610ee084828501610bd6565b91505092915050565b600060208284031215610efb57600080fd5b600082015167ffffffffffffffff811115610f1557600080fd5b610f2184828501610c2a565b91505092915050565b600060208284031215610f3c57600080fd5b600082013567ffffffffffffffff811115610f5657600080fd5b610f6284828501610c7e565b91505092915050565b600060208284031215610f7d57600080fd5b600082015167ffffffffffffffff811115610f9757600080fd5b610fa384828501610d26565b91505092915050565b600060208284031215610fbe57600080fd5b600082015167ffffffffffffffff811115610fd857600080fd5b610fe484828501610dc6565b91505092915050565b6000610ff9838361128f565b905092915050565b61100a8161168d565b82525050565b61101981611644565b82525050565b600061102a826115c7565b61103481856115f5565b935083602082028501611046856115b7565b8060005b8581101561108257848403895281516110638582610fed565b945061106e836115e8565b925060208a0199505060018101905061104a565b50829750879550505050505092915050565b600061109f826115d2565b6110a98185611606565b93506110b98185602086016116e4565b6110c281611717565b840191505092915050565b6110d68161169f565b82525050565b60006110e7826115dd565b6110f18185611617565b93506111018185602086016116e4565b61110a81611717565b840191505092915050565b6000611120826115dd565b61112a8185611628565b935061113a8185602086016116e4565b61114381611717565b840191505092915050565b6000611159826115dd565b6111638185611639565b93506111738185602086016116e4565b80840191505092915050565b600061118c600083611639565b9150600082019050919050565b60006111a6601083611628565b91507f447261676f6e206e6f7420666f756e64000000000000000000000000000000006000830152602082019050919050565b60006111e6600e83611628565b91507f4865726f206e6f7420666f756e640000000000000000000000000000000000006000830152602082019050919050565b600060a083016000830151848203600086015261123682826110dc565b915050602083015161124b6020860182611010565b50604083015161125e6040860182611355565b5060608301516112716060860182611355565b5060808301516112846080860182611355565b508091505092915050565b600060808301600083015184820360008601526112ac82826110dc565b91505060208301516112c16020860182611355565b5060408301516112d46040860182611355565b5060608301516112e76060860182611355565b508091505092915050565b6000608083016000830151848203600086015261130f82826110dc565b91505060208301516113246020860182611355565b5060408301516113376040860182611355565b50606083015161134a6060860182611355565b508091505092915050565b61135e81611676565b82525050565b61136d81611676565b82525050565b600061137f828461114e565b915081905092915050565b60006113958261117f565b9150819050919050565b60006020820190506113b46000830184611001565b92915050565b600060208201905081810360008301526113d4818461101f565b905092915050565b600060208201905081810360008301526113f68184611094565b905092915050565b600060208201905061141360008301846110cd565b92915050565b600060208201905081810360008301526114338184611115565b905092915050565b600060408201905081810360008301526114558185611115565b90506114646020830184611001565b9392505050565b6000602082019050818103600083015261148481611199565b9050919050565b600060208201905081810360008301526114a4816111d9565b9050919050565b600060208201905081810360008301526114c58184611219565b905092915050565b600060208201905081810360008301526114e781846112f2565b905092915050565b60006020820190506115046000830184611364565b92915050565b6000604051905081810181811067ffffffffffffffff8211171561152d57600080fd5b8060405250919050565b600067ffffffffffffffff82111561154e57600080fd5b602082029050602081019050919050565b600067ffffffffffffffff82111561157657600080fd5b601f19601f8301169050602081019050919050565b600067ffffffffffffffff8211156115a257600080fd5b601f19601f8301169050602081019050919050565b6000819050602082019050919050565b600081519050919050565b600081519050919050565b600081519050919050565b6000602082019050919050565b600082825260208201905092915050565b600082825260208201905092915050565b600082825260208201905092915050565b600082825260208201905092915050565b600081905092915050565b600061164f82611656565b9050919050565b600073ffffffffffffffffffffffffffffffffffffffff82169050919050565b6000819050919050565b600060ff82169050919050565b6000611698826116b1565b9050919050565b60006116aa82611680565b9050919050565b60006116bc826116c3565b9050919050565b60006116ce82611656565b9050919050565b82818337600083830152505050565b60005b838110156117025780820151818401526020810190506116e7565b83811115611711576000848401525b50505050565b6000601f19601f8301169050919050565b61173181611644565b811461173c57600080fd5b50565b61174881611676565b811461175357600080fd5b5056fe546865206865726f20686173206265656e206465666561746564212054686520647261676f6e2077617320746f6f207374726f6e6721546865206865726f20616e6420647261676f6e2061726520657175616c20696e20737472656e6774682c207468657265206973206e6f20766963746f7221a2646970667358221220508b26d289290e59908e5767887e21f026e9656fd470ca75b2b72a6bfb6d444764736f6c634300070000336080604052620186a06003556298968060045534801561001e57600080fd5b50610d7b8061002e6000396000f3fe608060405234801561001057600080fd5b50600436106100415760003560e01c806327df259a146100465780639a8d288214610076578063deb786c414610094575b600080fd5b610060600480360381019061005b9190610798565b6100b0565b60405161006d9190610b41565b60405180910390f35b61007e61022c565b60405161008b9190610adf565b60405180910390f35b6100ae60048036038101906100a991906107c1565b610393565b005b6100b861066a565b600060098054905011610100576040517f08c379a00000000000000000000000000000000000000000000000000000000081526004016100f790610b01565b60405180910390fd5b6009600160008473ffffffffffffffffffffffffffffffffffffffff1673ffffffffffffffffffffffffffffffffffffffff168152602001908152602001600020548154811061014c57fe5b9060005260206000209060040201604051806080016040529081600082018054600181600116156101000203166002900480601f0160208091040260200160405190810160405280929190818152602001828054600181600116156101000203166002900480156101fe5780601f106101d3576101008083540402835291602001916101fe565b820191906000526020600020905b8154815290600101906020018083116101e157829003601f168201915b5050505050815260200160018201548152602001600282015481526020016003820154815250509050919050565b6060600060098054905011610276576040517f08c379a000000000000000000000000000000000000000000000000000000000815260040161026d90610b01565b60405180910390fd5b6009805480602002602001604051908101604052809291908181526020016000905b8282101561038a5783829060005260206000209060040201604051806080016040529081600082018054600181600116156101000203166002900480601f0160208091040260200160405190810160405280929190818152602001828054600181600116156101000203166002900480156103545780601f1061032957610100808354040283529160200191610354565b820191906000526020600020905b81548152906001019060200180831161033757829003601f168201915b50505050508152602001600182015481526020016002820154815260200160038201548152505081526020019060010190610298565b50505050905090565b6000600260008373ffffffffffffffffffffffffffffffffffffffff1673ffffffffffffffffffffffffffffffffffffffff1681526020019081526020016000205414610415576040517f08c379a000000000000000000000000000000000000000000000000000000000815260040161040c90610b21565b60405180910390fd5b61041f8282610423565b5050565b6009604051806080016040528084815260200161043e6105ea565b815260200161044b61062a565b815260200160008152509080600181540180825580915050600190039060005260206000209060040201600090919091909150600082015181600001908051906020019061049a929190610692565b506020820151816001015560408201518160020155606082015181600301555050600060016009805490500390508160008083815260200190815260200160002060006101000a81548173ffffffffffffffffffffffffffffffffffffffff021916908373ffffffffffffffffffffffffffffffffffffffff16021790555080600160008473ffffffffffffffffffffffffffffffffffffffff1673ffffffffffffffffffffffffffffffffffffffff16815260200190815260200160002081905550600260008373ffffffffffffffffffffffffffffffffffffffff1673ffffffffffffffffffffffffffffffffffffffff168152602001908152602001600020600081548092919060010191905055507fe091168a421f352d46fe9eafce51f4d2bce03324348c1d1d6f9bb1283d60bed681846040516105dd929190610b63565b60405180910390a1505050565b600060035442444160405160200161060493929190610aa2565b6040516020818303038152906040528051906020012060001c8161062457fe5b06905090565b600060045442444160405160200161064493929190610aa2565b6040516020818303038152906040528051906020012060001c8161066457fe5b06905090565b6040518060800160405280606081526020016000815260200160008152602001600081525090565b828054600181600116156101000203166002900490600052602060002090601f016020900481019282601f106106d357805160ff1916838001178555610701565b82800160010185558215610701579182015b828111156107005782518255916020019190600101906106e5565b5b50905061070e9190610712565b5090565b5b8082111561072b576000816000905550600101610713565b5090565b60008135905061073e81610d2e565b92915050565b600082601f83011261075557600080fd5b813561076861076382610bc0565b610b93565b9150808252602083016020830185838301111561078457600080fd5b61078f838284610ca0565b50505092915050565b6000602082840312156107aa57600080fd5b60006107b88482850161072f565b91505092915050565b600080604083850312156107d457600080fd5b600083013567ffffffffffffffff8111156107ee57600080fd5b6107fa85828601610744565b925050602061080b8582860161072f565b9150509250929050565b600061082183836109a7565b905092915050565b61083a61083582610c64565b610ce2565b82525050565b600061084b82610bfc565b6108558185610c1f565b93508360208202850161086785610bec565b8060005b858110156108a357848403895281516108848582610815565b945061088f83610c12565b925060208a0199505060018101905061086b565b50829750879550505050505092915050565b60006108c082610c07565b6108ca8185610c30565b93506108da818560208601610caf565b6108e381610d10565b840191505092915050565b60006108f982610c07565b6109038185610c41565b9350610913818560208601610caf565b61091c81610d10565b840191505092915050565b6000610934601f83610c41565b91507f4e6f206865726f657320617661696c61626c6520666f72206c6f6f6b75702e006000830152602082019050919050565b6000610974601b83610c41565b91507f596f7520616c726561647920637265617465642061206865726f2100000000006000830152602082019050919050565b600060808301600083015184820360008601526109c482826108b5565b91505060208301516109d96020860182610a6d565b5060408301516109ec6040860182610a6d565b5060608301516109ff6060860182610a6d565b508091505092915050565b60006080830160008301518482036000860152610a2782826108b5565b9150506020830151610a3c6020860182610a6d565b506040830151610a4f6040860182610a6d565b506060830151610a626060860182610a6d565b508091505092915050565b610a7681610c96565b82525050565b610a8581610c96565b82525050565b610a9c610a9782610c96565b610d06565b82525050565b6000610aae8286610a8b565b602082019150610abe8285610a8b565b602082019150610ace8284610829565b601482019150819050949350505050565b60006020820190508181036000830152610af98184610840565b905092915050565b60006020820190508181036000830152610b1a81610927565b9050919050565b60006020820190508181036000830152610b3a81610967565b9050919050565b60006020820190508181036000830152610b5b8184610a0a565b905092915050565b6000604082019050610b786000830185610a7c565b8181036020830152610b8a81846108ee565b90509392505050565b6000604051905081810181811067ffffffffffffffff82111715610bb657600080fd5b8060405250919050565b600067ffffffffffffffff821115610bd757600080fd5b601f19601f8301169050602081019050919050565b6000819050602082019050919050565b600081519050919050565b600081519050919050565b6000602082019050919050565b600082825260208201905092915050565b600082825260208201905092915050565b600082825260208201905092915050565b6000610c5d82610c76565b9050919050565b6000610c6f82610c76565b9050919050565b600073ffffffffffffffffffffffffffffffffffffffff82169050919050565b6000819050919050565b82818337600083830152505050565b60005b83811015610ccd578082015181840152602081019050610cb2565b83811115610cdc576000848401525b50505050565b6000610ced82610cf4565b9050919050565b6000610cff82610d21565b9050919050565b6000819050919050565b6000601f19601f8301169050919050565b60008160601b9050919050565b610d3781610c52565b8114610d4257600080fd5b5056fea264697066735822122061cb9f6ba9fca1a009fe29efcecc61abb6fdf7745a3bfbb06ffc90d24570c58d64736f6c634300070000336080604052620186a06001556298968060025534801561001e57600080fd5b50610d2d8061002e6000396000f3fe608060405234801561001057600080fd5b50600436106100415760003560e01c8063b118524414610046578063b7ed99d614610064578063f8caf6c71461006e575b600080fd5b61004e61008c565b60405161005b9190610b00565b60405180910390f35b61006c61025b565b005b610076610265565b6040516100839190610abe565b60405180910390f35b610094610633565b6000600880549050116100dc576040517f08c379a00000000000000000000000000000000000000000000000000000000081526004016100d390610ae0565b60405180910390fd5b60086000803073ffffffffffffffffffffffffffffffffffffffff1673ffffffffffffffffffffffffffffffffffffffff168152602001908152602001600020548154811061012757fe5b90600052602060002090600502016040518060a0016040529081600082018054600181600116156101000203166002900480601f0160208091040260200160405190810160405280929190818152602001828054600181600116156101000203166002900480156101d95780601f106101ae576101008083540402835291602001916101d9565b820191906000526020600020905b8154815290600101906020018083116101bc57829003601f168201915b505050505081526020016001820160009054906101000a900473ffffffffffffffffffffffffffffffffffffffff1673ffffffffffffffffffffffffffffffffffffffff1673ffffffffffffffffffffffffffffffffffffffff1681526020016002820154815260200160038201548152602001600482015481525050905090565b610263610422565b565b60606000600880549050116102af576040517f08c379a00000000000000000000000000000000000000000000000000000000081526004016102a690610ae0565b60405180910390fd5b6008805480602002602001604051908101604052809291908181526020016000905b8282101561041957838290600052602060002090600502016040518060a0016040529081600082018054600181600116156101000203166002900480601f01602080910402602001604051908101604052809291908181526020018280546001816001161561010002031660029004801561038d5780601f106103625761010080835404028352916020019161038d565b820191906000526020600020905b81548152906001019060200180831161037057829003601f168201915b505050505081526020016001820160009054906101000a900473ffffffffffffffffffffffffffffffffffffffff1673ffffffffffffffffffffffffffffffffffffffff1673ffffffffffffffffffffffffffffffffffffffff1681526020016002820154815260200160038201548152602001600482015481525050815260200190600101906102d1565b50505050905090565b60086040518060a001604052806040518060400160405280600e81526020017f44656661756c745f447261676f6e00000000000000000000000000000000000081525081526020013073ffffffffffffffffffffffffffffffffffffffff16815260200161048e6105b3565b815260200161049b6105f3565b8152602001600a815250908060018154018082558091505060019003906000526020600020906005020160009091909190915060008201518160000190805190602001906104ea929190610678565b5060208201518160010160006101000a81548173ffffffffffffffffffffffffffffffffffffffff021916908373ffffffffffffffffffffffffffffffffffffffff1602179055506040820151816002015560608201518160030155608082015181600401555050600060016008805490500390507fa8d5c415ae4486d0b0ca47d57931522bcf32daa16432a434fd9d4c57050e94da6008828154811061058d57fe5b90600052602060002090600502016040516105a89190610b22565b60405180910390a150565b60006001544244416040516020016105cd93929190610a81565b6040516020818303038152906040528051906020012060001c816105ed57fe5b06905090565b600060025442444160405160200161060d93929190610a81565b6040516020818303038152906040528051906020012060001c8161062d57fe5b06905090565b6040518060a0016040528060608152602001600073ffffffffffffffffffffffffffffffffffffffff1681526020016000815260200160008152602001600081525090565b828054600181600116156101000203166002900490600052602060002090601f016020900481019282601f106106b957805160ff19168380011785556106e7565b828001600101855582156106e7579182015b828111156106e65782518255916020019190600101906106cb565b5b5090506106f491906106f8565b5090565b5b808211156107115760008160009055506001016106f9565b5090565b600061072183836108cc565b905092915050565b61073a61073582610bfb565b610c9e565b82525050565b61074981610be9565b82525050565b600061075a82610b69565b6107648185610b8c565b93508360208202850161077685610b44565b8060005b858110156107b257848403895281516107938582610715565b945061079e83610b7f565b925060208a0199505060018101905061077a565b50829750879550505050505092915050565b60006107cf82610b74565b6107d98185610b9d565b93506107e9818560208601610c37565b6107f281610ccc565b840191505092915050565b60008154600181166000811461081a576001811461084057610884565b607f600283041661082b8187610b9d565b955060ff198316865260208601935050610884565b6002820461084e8187610b9d565b955061085985610b54565b60005b8281101561087b5781548189015260018201915060208101905061085c565b80880195505050505b505092915050565b6000610899602083610bae565b91507f4e6f20647261676f6e7320617661696c61626c6520666f72206c6f6f6b75702e6000830152602082019050919050565b600060a08301600083015184820360008601526108e982826107c4565b91505060208301516108fe6020860182610740565b5060408301516109116040860182610a5b565b5060608301516109246060860182610a5b565b5060808301516109376080860182610a5b565b508091505092915050565b600060a083016000830151848203600086015261095f82826107c4565b91505060208301516109746020860182610740565b5060408301516109876040860182610a5b565b50606083015161099a6060860182610a5b565b5060808301516109ad6080860182610a5b565b508091505092915050565b600060a08301600080840185830360008701526109d583826107fd565b925050600184015490506109e881610c6a565b6109f56020870182610740565b5060028401549050610a0681610c84565b610a136040870182610a5b565b5060038401549050610a2481610c84565b610a316060870182610a5b565b5060048401549050610a4281610c84565b610a4f6080870182610a5b565b50819250505092915050565b610a6481610c2d565b82525050565b610a7b610a7682610c2d565b610cc2565b82525050565b6000610a8d8286610a6a565b602082019150610a9d8285610a6a565b602082019150610aad8284610729565b601482019150819050949350505050565b60006020820190508181036000830152610ad8818461074f565b905092915050565b60006020820190508181036000830152610af98161088c565b9050919050565b60006020820190508181036000830152610b1a8184610942565b905092915050565b60006020820190508181036000830152610b3c81846109b8565b905092915050565b6000819050602082019050919050565b60008190508160005260206000209050919050565b600081519050919050565b600081519050919050565b6000602082019050919050565b600082825260208201905092915050565b600082825260208201905092915050565b600082825260208201905092915050565b600073ffffffffffffffffffffffffffffffffffffffff82169050919050565b6000819050919050565b6000610bf482610c0d565b9050919050565b6000610c0682610c0d565b9050919050565b600073ffffffffffffffffffffffffffffffffffffffff82169050919050565b6000819050919050565b60005b83811015610c55578082015181840152602081019050610c3a565b83811115610c64576000848401525b50505050565b6000610c7d610c7883610cea565b610bbf565b9050919050565b6000610c97610c9283610cea565b610bdf565b9050919050565b6000610ca982610cb0565b9050919050565b6000610cbb82610cdd565b9050919050565b6000819050919050565b6000601f19601f8301169050919050565b60008160601b9050919050565b60008160001c905091905056fea2646970667358221220b7463b0b435b5eac3dabb3745feca11eea1167c62c352601b4e9f1f92117e0b764736f6c6343000700003360806040523480156200001157600080fd5b5062000027603060f81b6200002d60201b60201c565b62000a21565b600073ffffffffffffffffffffffffffffffffffffffff16600160009054906101000a900473ffffffffffffffffffffffffffffffffffffffff1673ffffffffffffffffffffffffffffffffffffffff161480620000bd57506000620000bb600160009054906101000a900473ffffffffffffffffffffffffffffffffffffffff166200036c60201b60201c565b145b15620000d757620000d560006200037760201b60201c565b505b600160009054906101000a900473ffffffffffffffffffffffffffffffffffffffff1673ffffffffffffffffffffffffffffffffffffffff166338cc48316040518163ffffffff1660e01b8152600401602060405180830381600087803b1580156200014257600080fd5b505af115801562000157573d6000803e3d6000fd5b505050506040513d60208110156200016e57600080fd5b810190808051906020019092919050505073ffffffffffffffffffffffffffffffffffffffff1660008054906101000a900473ffffffffffffffffffffffffffffffffffffffff1673ffffffffffffffffffffffffffffffffffffffff1614620002ba57600160009054906101000a900473ffffffffffffffffffffffffffffffffffffffff1673ffffffffffffffffffffffffffffffffffffffff166338cc48316040518163ffffffff1660e01b8152600401602060405180830381600087803b1580156200023d57600080fd5b505af115801562000252573d6000803e3d6000fd5b505050506040513d60208110156200026957600080fd5b81019080805190602001909291905050506000806101000a81548173ffffffffffffffffffffffffffffffffffffffff021916908373ffffffffffffffffffffffffffffffffffffffff1602179055505b60008054906101000a900473ffffffffffffffffffffffffffffffffffffffff1673ffffffffffffffffffffffffffffffffffffffff1663688dcfd7826040518263ffffffff1660e01b815260040180827effffffffffffffffffffffffffffffffffffffffffffffffffffffffffffff19168152602001915050600060405180830381600087803b1580156200035057600080fd5b505af115801562000365573d6000803e3d6000fd5b5050505050565b6000813b9050919050565b6000620003896200039060201b60201c565b9050919050565b600080620003b8731d3b2638a7cc9f2cb3d298a3da7a90b67e5506ed6200036c60201b60201c565b11156200046457731d3b2638a7cc9f2cb3d298a3da7a90b67e5506ed600160006101000a81548173ffffffffffffffffffffffffffffffffffffffff021916908373ffffffffffffffffffffffffffffffffffffffff1602179055506200045a6040518060400160405280600b81526020017f6574685f6d61696e6e65740000000000000000000000000000000000000000008152506200095f60201b60201c565b600190506200095c565b60006200048b73c03a2615d5efaf5f49f60b7bb6583eaec212fdf16200036c60201b60201c565b1115620005375773c03a2615d5efaf5f49f60b7bb6583eaec212fdf1600160006101000a81548173ffffffffffffffffffffffffffffffffffffffff021916908373ffffffffffffffffffffffffffffffffffffffff1602179055506200052d6040518060400160405280600c81526020017f6574685f726f707374656e3300000000000000000000000000000000000000008152506200095f60201b60201c565b600190506200095c565b60006200055e73b7a07bcf2ba2f2703b24c0691b5278999c59ac7e6200036c60201b60201c565b11156200060a5773b7a07bcf2ba2f2703b24c0691b5278999c59ac7e600160006101000a81548173ffffffffffffffffffffffffffffffffffffffff021916908373ffffffffffffffffffffffffffffffffffffffff160217905550620006006040518060400160405280600981526020017f6574685f6b6f76616e00000000000000000000000000000000000000000000008152506200095f60201b60201c565b600190506200095c565b60006200063173146500cfd35b22e4a392fe0adc06de1a1368ed486200036c60201b60201c565b1115620006dd5773146500cfd35b22e4a392fe0adc06de1a1368ed48600160006101000a81548173ffffffffffffffffffffffffffffffffffffffff021916908373ffffffffffffffffffffffffffffffffffffffff160217905550620006d36040518060400160405280600b81526020017f6574685f72696e6b6562790000000000000000000000000000000000000000008152506200095f60201b60201c565b600190506200095c565b60006200070473a2998efd205fb9d4b4963afb70778d6354ad3a416200036c60201b60201c565b1115620007b05773a2998efd205fb9d4b4963afb70778d6354ad3a41600160006101000a81548173ffffffffffffffffffffffffffffffffffffffff021916908373ffffffffffffffffffffffffffffffffffffffff160217905550620007a66040518060400160405280600a81526020017f6574685f676f65726c69000000000000000000000000000000000000000000008152506200095f60201b60201c565b600190506200095c565b6000620007d7736f485c8bf6fc43ea212e93bbf8ce046c7f1cb4756200036c60201b60201c565b11156200083d57736f485c8bf6fc43ea212e93bbf8ce046c7f1cb475600160006101000a81548173ffffffffffffffffffffffffffffffffffffffff021916908373ffffffffffffffffffffffffffffffffffffffff160217905550600190506200095c565b6000620008647320e12a1f859b3feae5fb2a0a32c18f5a65555bbf6200036c60201b60201c565b1115620008ca577320e12a1f859b3feae5fb2a0a32c18f5a65555bbf600160006101000a81548173ffffffffffffffffffffffffffffffffffffffff021916908373ffffffffffffffffffffffffffffffffffffffff160217905550600190506200095c565b6000620008f17351efaf4c8b3c9afbd5ab9f4bbc82784ab6ef8faa6200036c60201b60201c565b111562000957577351efaf4c8b3c9afbd5ab9f4bbc82784ab6ef8faa600160006101000a81548173ffffffffffffffffffffffffffffffffffffffff021916908373ffffffffffffffffffffffffffffffffffffffff160217905550600190506200095c565b600090505b90565b8060029080519060200190620009779291906200097b565b5050565b828054600181600116156101000203166002900490600052602060002090601f016020900481019282601f10620009be57805160ff1916838001178555620009ef565b82800160010185558215620009ef579182015b82811115620009ee578251825591602001919060010190620009d1565b5b509050620009fe919062000a02565b5090565b5b8082111562000a1d57600081600090555060010162000a03565b5090565b61388b8062000a316000396000f3fe6080604052600436106100555760003560e01c806327dc297e1461005a57806338bbfa501461012c5780633f1be4d414610295578063446dd971146102c057806365372147146102f15780639a7d9af114610381575b600080fd5b34801561006657600080fd5b5061012a6004803603604081101561007d57600080fd5b8101908080359060200190929190803590602001906401000000008111156100a457600080fd5b8201836020820111156100b657600080fd5b803590602001918460018302840111640100000000831117156100d857600080fd5b91908080601f016020809104026020016040519081016040528093929190818152602001838380828437600081840152601f19601f820116905080830192505050505050509192919290505050610411565b005b34801561013857600080fd5b506102936004803603606081101561014f57600080fd5b81019080803590602001909291908035906020019064010000000081111561017657600080fd5b82018360208201111561018857600080fd5b803590602001918460018302840111640100000000831117156101aa57600080fd5b91908080601f016020809104026020016040519081016040528093929190818152602001838380828437600081840152601f19601f8201169050808301925050505050505091929192908035906020019064010000000081111561020d57600080fd5b82018360208201111561021f57600080fd5b8035906020019184600183028401116401000000008311171561024157600080fd5b91908080601f016020809104026020016040519081016040528093929190818152602001838380828437600081840152601f19601f82011690508083019250505050505050919291929050505061046b565b005b3480156102a157600080fd5b506102aa61052e565b6040518082815260200191505060405180910390f35b6102ef600480360360208110156102d657600080fd5b81019080803560ff169060200190929190505050610534565b005b3480156102fd57600080fd5b5061030661054f565b6040518080602001828103825283818151815260200191508051906020019080838360005b8381101561034657808201518184015260208101905061032b565b50505050905090810190601f1680156103735780820380516001836020036101000a031916815260200191505b509250505060405180910390f35b34801561038d57600080fd5b506103966105ed565b6040518080602001828103825283818151815260200191508051906020019080838360005b838110156103d65780820151818401526020810190506103bb565b50505050905090810190601f1680156104035780820380516001836020036101000a031916815260200191505b509250505060405180910390f35b6104678282600067ffffffffffffffff8111801561042e57600080fd5b506040519080825280601f01601f1916602001820160405280156104615781602001600182028036833780820191505090505b5061046b565b5050565b61047361068f565b73ffffffffffffffffffffffffffffffffffffffff163373ffffffffffffffffffffffffffffffffffffffff16146104aa57600080fd5b60006104b78484846109ac565b60ff1614156104dc5781600590805190602001906104d6929190613637565b50610529565b6040518060400160405280600581526020017f4572726f72000000000000000000000000000000000000000000000000000000815250600590805190602001906105279291906136b7565b505b505050565b60065481565b61054660008260ff1662030d40610adc565b60068190555050565b60058054600181600116156101000203166002900480601f0160208091040260200160405190810160405280929190818152602001828054600181600116156101000203166002900480156105e55780601f106105ba576101008083540402835291602001916105e5565b820191906000526020600020905b8154815290600101906020018083116105c857829003601f168201915b505050505081565b606060058054600181600116156101000203166002900480601f0160208091040260200160405190810160405280929190818152602001828054600181600116156101000203166002900480156106855780601f1061065a57610100808354040283529160200191610685565b820191906000526020600020905b81548152906001019060200180831161066857829003601f168201915b5050505050905090565b60008073ffffffffffffffffffffffffffffffffffffffff16600160009054906101000a900473ffffffffffffffffffffffffffffffffffffffff1673ffffffffffffffffffffffffffffffffffffffff16148061071757506000610715600160009054906101000a900473ffffffffffffffffffffffffffffffffffffffff16611101565b145b1561072857610726600061110c565b505b600160009054906101000a900473ffffffffffffffffffffffffffffffffffffffff1673ffffffffffffffffffffffffffffffffffffffff166338cc48316040518163ffffffff1660e01b8152600401602060405180830381600087803b15801561079257600080fd5b505af11580156107a6573d6000803e3d6000fd5b505050506040513d60208110156107bc57600080fd5b810190808051906020019092919050505073ffffffffffffffffffffffffffffffffffffffff1660008054906101000a900473ffffffffffffffffffffffffffffffffffffffff1673ffffffffffffffffffffffffffffffffffffffff161461090457600160009054906101000a900473ffffffffffffffffffffffffffffffffffffffff1673ffffffffffffffffffffffffffffffffffffffff166338cc48316040518163ffffffff1660e01b8152600401602060405180830381600087803b15801561088957600080fd5b505af115801561089d573d6000803e3d6000fd5b505050506040513d60208110156108b357600080fd5b81019080805190602001909291905050506000806101000a81548173ffffffffffffffffffffffffffffffffffffffff021916908373ffffffffffffffffffffffffffffffffffffffff1602179055505b60008054906101000a900473ffffffffffffffffffffffffffffffffffffffff1673ffffffffffffffffffffffffffffffffffffffff1663c281d19e6040518163ffffffff1660e01b8152600401602060405180830381600087803b15801561096c57600080fd5b505af1158015610980573d6000803e3d6000fd5b505050506040513d602081101561099657600080fd5b8101908080519060200190929190505050905090565b60007f4c00000000000000000000000000000000000000000000000000000000000000826000815181106109dc57fe5b602001015160f81c60f81b7effffffffffffffffffffffffffffffffffffffffffffffffffffffffffffff1916141580610a6f57507f500000000000000000000000000000000000000000000000000000000000000082600181518110610a3f57fe5b602001015160f81c60f81b7effffffffffffffffffffffffffffffffffffffffffffffffffffffffffffff191614155b80610a9b5750600160ff1682600281518110610a8757fe5b602001015160f81c60f81b60f81c60ff1614155b15610aa95760019050610ad5565b6000610abe838686610ab961111d565b6111bf565b905080610acf576002915050610ad5565b60009150505b9392505050565b60008083118015610aee575060208311155b610af757600080fd5b600a840293506060600167ffffffffffffffff81118015610b1757600080fd5b506040519080825280601f01601f191660200182016040528015610b4a5781602001600182028036833780820191505090505b5090508360f81b81600081518110610b5e57fe5b60200101907effffffffffffffffffffffffffffffffffffffffffffffffffffffffffffff1916908160001a9053506060602067ffffffffffffffff81118015610ba757600080fd5b506040519080825280601f01601f191660200182016040528015610bda5781602001600182028036833780820191505090505b5090506060602067ffffffffffffffff81118015610bf757600080fd5b506040519080825280601f01601f191660200182016040528015610c2a5781602001600182028036833780820191505090505b5090506000610c376118de565b9050602083524241186001430340186020840152602082528060208301526060602067ffffffffffffffff81118015610c6f57600080fd5b506040519080825280601f01601f191660200182016040528015610ca25781602001600182028036833780820191505090505b5090508860208201526060600867ffffffffffffffff81118015610cc557600080fd5b506040519080825280601f01601f191660200182016040528015610cf85781602001600182028036833780820191505090505b509050610d0b8260186008846000611bf9565b50610d14613737565b60405180608001604052808781526020018881526020018681526020018481525090506000610d796040518060400160405280600681526020017f72616e646f6d0000000000000000000000000000000000000000000000000000815250838c611c58565b90506060600867ffffffffffffffff81118015610d9557600080fd5b506040519080825280601f01601f191660200182016040528015610dc85781602001600182028036833780820191505090505b50905060208401517f0100000000000000000000000000000000000000000000000000000000000000810460278301537e01000000000000000000000000000000000000000000000000000000000000810460268301537d010000000000000000000000000000000000000000000000000000000000810460258301537c0100000000000000000000000000000000000000000000000000000000810460248301537b01000000000000000000000000000000000000000000000000000000810460238301537a0100000000000000000000000000000000000000000000000000008104602283015379010000000000000000000000000000000000000000000000000081046021830153780100000000000000000000000000000000000000000000000081046020830153506110ee828285600160048110610f0757fe5b6020020151600287600060048110610f1b57fe5b60200201516040518082805190602001908083835b60208310610f535780518252602082019150602081019050602083039250610f30565b6001836020036101000a038019825116818451168082178552505050505050905001915050602060405180830381855afa158015610f95573d6000803e3d6000fd5b5050506040513d6020811015610faa57600080fd5b810190808051906020019092919050505087600260048110610fc857fe5b60200201516040516020018085805190602001908083835b602083106110035780518252602082019150602081019050602083039250610fe0565b6001836020036101000a03801982511681845116808217855250505050505090500184805190602001908083835b602083106110545780518252602082019150602081019050602083039250611031565b6001836020036101000a03801982511681845116808217855250505050505090500183815260200182805190602001908083835b602083106110ab5780518252602082019150602081019050602083039250611088565b6001836020036101000a03801982511681845116808217855250505050505090500194505050505060405160208183030381529060405280519060200120611fdb565b8199505050505050505050509392505050565b6000813b9050919050565b6000611116611ff7565b9050919050565b606060028054600181600116156101000203166002900480601f0160208091040260200160405190810160405280929190818152602001828054600181600116156101000203166002900480156111b55780601f1061118a576101008083540402835291602001916111b5565b820191906000526020600020905b81548152906001019060200180831161119857829003601f168201915b5050505050905090565b60008060206002876045815181106111d357fe5b602001015160f81c60f81b60f81c60ff16016044010190506060602067ffffffffffffffff8111801561120557600080fd5b506040519080825280601f01601f1916602001820160405280156112385781602001600182028036833780820191505090505b50905061124a87836020846000611bf9565b50600284876040516020018083805190602001908083835b602083106112855780518252602082019150602081019050602083039250611262565b6001836020036101000a038019825116818451168082178552505050505050905001828152602001925050506040516020818303038152906040526040518082805190602001908083835b602083106112f357805182526020820191506020810190506020830392506112d0565b6001836020036101000a038019825116818451168082178552505050505050905001915050602060405180830381855afa158015611335573d6000803e3d6000fd5b5050506040513d602081101561134a57600080fd5b81019080805190602001909291905050506040516020018082815260200191505060405160208183030381529060405280519060200120818051906020012014611399576000925050506118d6565b606060028860016049860101815181106113af57fe5b602001015160f81c60f81b60f81c60ff160167ffffffffffffffff811180156113d757600080fd5b506040519080825280601f01601f19166020018201604052801561140a5781602001600182028036833780820191505090505b50905061141f88604985018351846000611bf9565b506114ea6002826040518082805190602001908083835b602083106114595780518252602082019150602081019050602083039250611436565b6001836020036101000a038019825116818451168082178552505050505050905001915050602060405180830381855afa15801561149b573d6000803e3d6000fd5b5050506040513d60208110156114b057600080fd5b8101908080519060200190929190505050878a60086020880101815181106114d457fe5b602001015160f81c60f81b60f81c60ff1661254e565b6114fa57600093505050506118d6565b6060602967ffffffffffffffff8111801561151457600080fd5b506040519080825280601f01601f1916602001820160405280156115475781602001600182028036833780820191505090505b50905061155c89602086016029846000611bf9565b506060604067ffffffffffffffff8111801561157757600080fd5b506040519080825280601f01601f1916602001820160405280156115aa5781602001600182028036833780820191505090505b50905060006041845160296020890101010190506115d08b604083036040856000611bf9565b5060006002836040518082805190602001908083835b6020831061160957805182526020820191506020810190506020830392506115e6565b6001836020036101000a038019825116818451168082178552505050505050905001915050602060405180830381855afa15801561164b573d6000803e3d6000fd5b5050506040513d602081101561166057600080fd5b8101908080519060200190929190505050905083816040516020018083805190602001908083835b602083106116ab5780518252602082019150602081019050602083039250611688565b6001836020036101000a0380198251168184511680821785525050505050509050018281526020019250505060405160208183030381529060405280519060200120600360008d815260200190815260200160002054141561172357600360008c815260200190815260200160002060009055611733565b60009750505050505050506118d6565b6060604967ffffffffffffffff8111801561174d57600080fd5b506040519080825280601f01601f1916602001820160405280156117805781602001600182028036833780820191505090505b5090506117928d896049846000611bf9565b5061183b6002826040518082805190602001908083835b602083106117cc57805182526020820191506020810190506020830392506117a9565b6001836020036101000a038019825116818451168082178552505050505050905001915050602060405180830381855afa15801561180e573d6000803e3d6000fd5b5050506040513d602081101561182357600080fd5b810190808051906020019092919050505087866125fb565b611850576000985050505050505050506118d6565b6004600083815260200190815260200160002060009054906101000a900460ff166118aa5761187f8d846127e7565b6004600084815260200190815260200160002060006101000a81548160ff0219169083151502179055505b6004600083815260200190815260200160002060009054906101000a900460ff16985050505050505050505b949350505050565b60008073ffffffffffffffffffffffffffffffffffffffff16600160009054906101000a900473ffffffffffffffffffffffffffffffffffffffff1673ffffffffffffffffffffffffffffffffffffffff16148061196657506000611964600160009054906101000a900473ffffffffffffffffffffffffffffffffffffffff16611101565b145b1561197757611975600061110c565b505b600160009054906101000a900473ffffffffffffffffffffffffffffffffffffffff1673ffffffffffffffffffffffffffffffffffffffff166338cc48316040518163ffffffff1660e01b8152600401602060405180830381600087803b1580156119e157600080fd5b505af11580156119f5573d6000803e3d6000fd5b505050506040513d6020811015611a0b57600080fd5b810190808051906020019092919050505073ffffffffffffffffffffffffffffffffffffffff1660008054906101000a900473ffffffffffffffffffffffffffffffffffffffff1673ffffffffffffffffffffffffffffffffffffffff1614611b5357600160009054906101000a900473ffffffffffffffffffffffffffffffffffffffff1673ffffffffffffffffffffffffffffffffffffffff166338cc48316040518163ffffffff1660e01b8152600401602060405180830381600087803b158015611ad857600080fd5b505af1158015611aec573d6000803e3d6000fd5b505050506040513d6020811015611b0257600080fd5b81019080805190602001909291905050506000806101000a81548173ffffffffffffffffffffffffffffffffffffffff021916908373ffffffffffffffffffffffffffffffffffffffff1602179055505b60008054906101000a900473ffffffffffffffffffffffffffffffffffffffff1673ffffffffffffffffffffffffffffffffffffffff1663abaa5f3e6040518163ffffffff1660e01b815260040160206040518083038186803b158015611bb957600080fd5b505afa158015611bcd573d6000803e3d6000fd5b505050506040513d6020811015611be357600080fd5b8101908080519060200190929190505050905090565b6060600082850190508084511015611c1057600080fd5b600086602001905060008460200190505b868860200101821015611c495781890151808288015250602082019150602081019050611c21565b85935050505095945050505050565b60008073ffffffffffffffffffffffffffffffffffffffff16600160009054906101000a900473ffffffffffffffffffffffffffffffffffffffff1673ffffffffffffffffffffffffffffffffffffffff161480611ce057506000611cde600160009054906101000a900473ffffffffffffffffffffffffffffffffffffffff16611101565b145b15611cf157611cef600061110c565b505b600160009054906101000a900473ffffffffffffffffffffffffffffffffffffffff1673ffffffffffffffffffffffffffffffffffffffff166338cc48316040518163ffffffff1660e01b8152600401602060405180830381600087803b158015611d5b57600080fd5b505af1158015611d6f573d6000803e3d6000fd5b505050506040513d6020811015611d8557600080fd5b810190808051906020019092919050505073ffffffffffffffffffffffffffffffffffffffff1660008054906101000a900473ffffffffffffffffffffffffffffffffffffffff1673ffffffffffffffffffffffffffffffffffffffff1614611ecd57600160009054906101000a900473ffffffffffffffffffffffffffffffffffffffff1673ffffffffffffffffffffffffffffffffffffffff166338cc48316040518163ffffffff1660e01b8152600401602060405180830381600087803b158015611e5257600080fd5b505af1158015611e66573d6000803e3d6000fd5b505050506040513d6020811015611e7c57600080fd5b81019080805190602001909291905050506000806101000a81548173ffffffffffffffffffffffffffffffffffffffff021916908373ffffffffffffffffffffffffffffffffffffffff1602179055505b6060600467ffffffffffffffff81118015611ee757600080fd5b50604051908082528060200260200182016040528015611f1b57816020015b6060815260200190600190039081611f065790505b50905083600060048110611f2b57fe5b602002015181600081518110611f3d57fe5b602002602001018190525083600160048110611f5557fe5b602002015181600181518110611f6757fe5b602002602001018190525083600260048110611f7f57fe5b602002015181600281518110611f9157fe5b602002602001018190525083600360048110611fa957fe5b602002015181600381518110611fbb57fe5b6020026020010181905250611fd1858285612c73565b9150509392505050565b8060036000848152602001908152602001600020819055505050565b600080612017731d3b2638a7cc9f2cb3d298a3da7a90b67e5506ed611101565b11156120b957731d3b2638a7cc9f2cb3d298a3da7a90b67e5506ed600160006101000a81548173ffffffffffffffffffffffffffffffffffffffff021916908373ffffffffffffffffffffffffffffffffffffffff1602179055506120b06040518060400160405280600b81526020017f6574685f6d61696e6e65740000000000000000000000000000000000000000008152506131d3565b6001905061254b565b60006120d873c03a2615d5efaf5f49f60b7bb6583eaec212fdf1611101565b111561217a5773c03a2615d5efaf5f49f60b7bb6583eaec212fdf1600160006101000a81548173ffffffffffffffffffffffffffffffffffffffff021916908373ffffffffffffffffffffffffffffffffffffffff1602179055506121716040518060400160405280600c81526020017f6574685f726f707374656e3300000000000000000000000000000000000000008152506131d3565b6001905061254b565b600061219973b7a07bcf2ba2f2703b24c0691b5278999c59ac7e611101565b111561223b5773b7a07bcf2ba2f2703b24c0691b5278999c59ac7e600160006101000a81548173ffffffffffffffffffffffffffffffffffffffff021916908373ffffffffffffffffffffffffffffffffffffffff1602179055506122326040518060400160405280600981526020017f6574685f6b6f76616e00000000000000000000000000000000000000000000008152506131d3565b6001905061254b565b600061225a73146500cfd35b22e4a392fe0adc06de1a1368ed48611101565b11156122fc5773146500cfd35b22e4a392fe0adc06de1a1368ed48600160006101000a81548173ffffffffffffffffffffffffffffffffffffffff021916908373ffffffffffffffffffffffffffffffffffffffff1602179055506122f36040518060400160405280600b81526020017f6574685f72696e6b6562790000000000000000000000000000000000000000008152506131d3565b6001905061254b565b600061231b73a2998efd205fb9d4b4963afb70778d6354ad3a41611101565b11156123bd5773a2998efd205fb9d4b4963afb70778d6354ad3a41600160006101000a81548173ffffffffffffffffffffffffffffffffffffffff021916908373ffffffffffffffffffffffffffffffffffffffff1602179055506123b46040518060400160405280600a81526020017f6574685f676f65726c69000000000000000000000000000000000000000000008152506131d3565b6001905061254b565b60006123dc736f485c8bf6fc43ea212e93bbf8ce046c7f1cb475611101565b111561244057736f485c8bf6fc43ea212e93bbf8ce046c7f1cb475600160006101000a81548173ffffffffffffffffffffffffffffffffffffffff021916908373ffffffffffffffffffffffffffffffffffffffff1602179055506001905061254b565b600061245f7320e12a1f859b3feae5fb2a0a32c18f5a65555bbf611101565b11156124c3577320e12a1f859b3feae5fb2a0a32c18f5a65555bbf600160006101000a81548173ffffffffffffffffffffffffffffffffffffffff021916908373ffffffffffffffffffffffffffffffffffffffff1602179055506001905061254b565b60006124e27351efaf4c8b3c9afbd5ab9f4bbc82784ab6ef8faa611101565b1115612546577351efaf4c8b3c9afbd5ab9f4bbc82784ab6ef8faa600160006101000a81548173ffffffffffffffffffffffffffffffffffffffff021916908373ffffffffffffffffffffffffffffffffffffffff1602179055506001905061254b565b600090505b90565b600080600190508284511461256257600080fd5b60005b838110156125ef5784818151811061257957fe5b602001015160f81c60f81b7effffffffffffffffffffffffffffffffffffffffffffffffffffffffffffff19168682602081106125b257fe5b1a60f81b7effffffffffffffffffffffffffffffffffffffffffffffffffffffffffffff1916146125e257600091505b8080600101915050612565565b50809150509392505050565b60008060008060006060602067ffffffffffffffff8111801561261d57600080fd5b506040519080825280601f01601f1916602001820160405280156126505781602001600182028036833780820191505090505b509050600060208960038151811061266457fe5b602001015160f81c60f81b60f81c60ff1603600401905061268a89826020856000611bf9565b91506060602067ffffffffffffffff811180156126a657600080fd5b506040519080825280601f01601f1916602001820160405280156126d95781602001600182028036833780820191505090505b5090506022820191506127158a60208c60018603815181106126f757fe5b602001015160f81c60f81b60f81c60ff160384016020846000611bf9565b905060208301519450602081015193506127328b601b87876131ed565b80975081985050508573ffffffffffffffffffffffffffffffffffffffff16898051906020012060001c73ffffffffffffffffffffffffffffffffffffffff1614156127885760019750505050505050506127e0565b6127958b601c87876131ed565b80975081985050508573ffffffffffffffffffffffffffffffffffffffff16898051906020012060001c73ffffffffffffffffffffffffffffffffffffffff16149750505050505050505b9392505050565b600080606060028560018601815181106127fd57fe5b602001015160f81c60f81b60f81c60ff160167ffffffffffffffff8111801561282557600080fd5b506040519080825280601f01601f1916602001820160405280156128585781602001600182028036833780820191505090505b50905061286a85858351846000611bf9565b506060604067ffffffffffffffff8111801561288557600080fd5b506040519080825280601f01601f1916602001820160405280156128b85781602001600182028036833780820191505090505b5090506128cb8660046040846000611bf9565b506060606267ffffffffffffffff811180156128e657600080fd5b506040519080825280601f01601f1916602001820160405280156129195781602001600182028036833780820191505090505b509050600160f81b8160008151811061292e57fe5b60200101907effffffffffffffffffffffffffffffffffffffffffffffffffffffffffffff1916908160001a90535061296f87604188036041846001611bf9565b5060606040518060400160405280602081526020017ffd94fa71bc0ba10d39d464d0d8f465efeef0a2764e3887fcc9df41ded20f505c81525090506129ba8160006020856042611bf9565b50612a636002836040518082805190602001908083835b602083106129f457805182526020820191506020810190506020830392506129d1565b6001836020036101000a038019825116818451168082178552505050505050905001915050602060405180830381855afa158015612a36573d6000803e3d6000fd5b5050506040513d6020811015612a4b57600080fd5b810190808051906020019092919050505085856125fb565b945084612a7857600095505050505050612c6d565b60606040518060600160405280604081526020016138166040913990506060604267ffffffffffffffff81118015612aaf57600080fd5b506040519080825280601f01601f191660200182016040528015612ae25781602001600182028036833780820191505090505b50905060fe60f81b81600081518110612af757fe5b60200101907effffffffffffffffffffffffffffffffffffffffffffffffffffffffffffff1916908160001a905350612b368a60036041846001611bf9565b50606060028b604581518110612b4857fe5b602001015160f81c60f81b60f81c60ff160167ffffffffffffffff81118015612b7057600080fd5b506040519080825280601f01601f191660200182016040528015612ba35781602001600182028036833780820191505090505b509050612bb68b60448351846000611bf9565b50612c5f6002836040518082805190602001908083835b60208310612bf05780518252602082019150602081019050602083039250612bcd565b6001836020036101000a038019825116818451168082178552505050505050905001915050602060405180830381855afa158015612c32573d6000803e3d6000fd5b5050506040513d6020811015612c4757600080fd5b810190808051906020019092919050505082856125fb565b975087985050505050505050505b92915050565b60008073ffffffffffffffffffffffffffffffffffffffff16600160009054906101000a900473ffffffffffffffffffffffffffffffffffffffff1673ffffffffffffffffffffffffffffffffffffffff161480612cfb57506000612cf9600160009054906101000a900473ffffffffffffffffffffffffffffffffffffffff16611101565b145b15612d0c57612d0a600061110c565b505b600160009054906101000a900473ffffffffffffffffffffffffffffffffffffffff1673ffffffffffffffffffffffffffffffffffffffff166338cc48316040518163ffffffff1660e01b8152600401602060405180830381600087803b158015612d7657600080fd5b505af1158015612d8a573d6000803e3d6000fd5b505050506040513d6020811015612da057600080fd5b810190808051906020019092919050505073ffffffffffffffffffffffffffffffffffffffff1660008054906101000a900473ffffffffffffffffffffffffffffffffffffffff1673ffffffffffffffffffffffffffffffffffffffff1614612ee857600160009054906101000a900473ffffffffffffffffffffffffffffffffffffffff1673ffffffffffffffffffffffffffffffffffffffff166338cc48316040518163ffffffff1660e01b8152600401602060405180830381600087803b158015612e6d57600080fd5b505af1158015612e81573d6000803e3d6000fd5b505050506040513d6020811015612e9757600080fd5b81019080805190602001909291905050506000806101000a81548173ffffffffffffffffffffffffffffffffffffffff021916908373ffffffffffffffffffffffffffffffffffffffff1602179055505b60008060009054906101000a900473ffffffffffffffffffffffffffffffffffffffff1673ffffffffffffffffffffffffffffffffffffffff16632ef3accc86856040518363ffffffff1660e01b81526004018080602001838152602001828103825284818151815260200191508051906020019080838360005b83811015612f7e578082015181840152602081019050612f63565b50505050905090810190601f168015612fab5780820380516001836020036101000a031916815260200191505b509350505050602060405180830381600087803b158015612fcb57600080fd5b505af1158015612fdf573d6000803e3d6000fd5b505050506040513d6020811015612ff557600080fd5b81019080805190602001909291905050509050823a02670de0b6b3a764000001811115613028576000801b9150506131cc565b606061303385613231565b905060008054906101000a900473ffffffffffffffffffffffffffffffffffffffff1673ffffffffffffffffffffffffffffffffffffffff1663c55c1cb68360008985896040518663ffffffff1660e01b8152600401808581526020018060200180602001848152602001838103835286818151815260200191508051906020019080838360005b838110156130d65780820151818401526020810190506130bb565b50505050905090810190601f1680156131035780820380516001836020036101000a031916815260200191505b50838103825285818151815260200191508051906020019080838360005b8381101561313c578082015181840152602081019050613121565b50505050905090810190601f1680156131695780820380516001836020036101000a031916815260200191505b5096505050505050506020604051808303818588803b15801561318b57600080fd5b505af115801561319f573d6000803e3d6000fd5b50505050506040513d60208110156131b657600080fd5b8101908080519060200190929190505050925050505b9392505050565b80600290805190602001906131e992919061375e565b5050565b60008060008060405188815287602082015286604082015285606082015260208160808360006001610bb8f192508051915050818193509350505094509492505050565b606061323b6132ae565b6132436137de565b61324f816104006132ba565b61325881613304565b60005b83518110156132975761328a84828151811061327357fe5b60200260200101518361331290919063ffffffff16565b808060010191505061325b565b506132a181613337565b8060000151915050919050565b60405180590338823950565b60008190506000602082816132cb57fe5b06146132e457602081816132db57fe5b06602003810190505b808360200181815250506040518084526000815281810160405250505050565b61330f816004613345565b50565b61331f8260028351613366565b61333281836134a690919063ffffffff16565b505050565b613342816007613345565b50565b613362601f60058360ff16901b178361355190919063ffffffff16565b5050565b601781116133925761338d8160058460ff16901b60ff16178461355190919063ffffffff16565b6134a1565b60ff81116133d3576133b7601860058460ff16901b178461355190919063ffffffff16565b6133cd816001856135919092919063ffffffff16565b506134a0565b61ffff8111613415576133f9601960058460ff16901b178461355190919063ffffffff16565b61340f816002856135919092919063ffffffff16565b5061349f565b63ffffffff81116134595761343d601a60058460ff16901b178461355190919063ffffffff16565b613453816004856135919092919063ffffffff16565b5061349e565b67ffffffffffffffff811161349d57613485601b60058460ff16901b178461355190919063ffffffff16565b61349b816008856135919092919063ffffffff16565b505b5b5b5b5b505050565b6134ae6137de565b826020015183600001515183510111156134de576134dd8360026134d7866020015186516135f8565b02613614565b5b60008060008451905085518051602081830101945086518101825260208701935050505b602081106135255781518352602083019250602082019150602081039050613502565b60006001826020036101000a039050801983511681855116818117865250508694505050505092915050565b8160200151600183600001515101111561357757613576826002846020015102613614565b5b815180516020818301018381536001820183525050505050565b6135996137de565b8360200151846000015151830111156135c7576135c68460026135c08760200151866135f8565b02613614565b5b60006001836101000a0390508451805184818301018684198251161781528582018352505050849150509392505050565b60008183111561360a5782905061360e565b8190505b92915050565b60608260000151905061362783836132ba565b61363183826134a6565b50505050565b828054600181600116156101000203166002900490600052602060002090601f016020900481019282601f1061367857805160ff19168380011785556136a6565b828001600101855582156136a6579182015b828111156136a557825182559160200191906001019061368a565b5b5090506136b391906137f8565b5090565b828054600181600116156101000203166002900490600052602060002090601f016020900481019282601f106136f857805160ff1916838001178555613726565b82800160010185558215613726579182015b8281111561372557825182559160200191906001019061370a565b5b50905061373391906137f8565b5090565b60405180608001604052806004905b60608152602001906001900390816137465790505090565b828054600181600116156101000203166002900490600052602060002090601f016020900481019282601f1061379f57805160ff19168380011785556137cd565b828001600101855582156137cd579182015b828111156137cc5782518255916020019190600101906137b1565b5b5090506137da91906137f8565b5090565b604051806040016040528060608152602001600081525090565b5b808211156138115760008160009055506001016137f9565b509056fe7fb956469c5c9b89840d55b43537e66a98dd4811ea0a27224272c2e5622911e8537a2f8e86a46baec82864e98dd01e9ccc2f8bc5dfc9cbe5a91a290498dd96e4a26469706673582212203a29e5db79f922ad7cb42509ff53f1621040fa7b8d57c0939243f3853724bb7a64736f6c63430007000033",
  "immutableReferences": {},
  "source": "// SPDX-License-Identifier: MIT\r\npragma solidity ^0.7.0;\r\npragma experimental ABIEncoderV2; // To fix a type-error we need to enable this.\r\n\r\nimport './HeroFactory.sol';\r\nimport './DragonFactory.sol';\r\nimport './Dragon.sol';\r\nimport './Hero.sol';\r\nimport './OrmrOracle.sol';\r\n\r\n// This Contract is supposed to become a game where our hero is fighting dragons.\r\ncontract Ormr {\r\n    \r\n    //Events. PD-3 Events.\r\n    event encounterResult(string); // Emit the result of a battle.\r\n    \r\n    // Variables\r\n    HeroFactory HF;\r\n    DragonFactory DF;\r\n    OrmrOracle OO;\r\n    \r\n    // Called once at deployment of the contract.\r\n    constructor() {\r\n        HF = new HeroFactory();\r\n        DF = new DragonFactory();\r\n        OO = new OrmrOracle();\r\n    }\r\n    \r\n    // Hero logic\r\n    function createHero (string memory _name) public {\r\n        HF.createHero(_name, msg.sender);\r\n    }\r\n    \r\n    function getHero() public view returns (Hero memory) {\r\n        return HF.getHero(msg.sender);\r\n    }\r\n    \r\n    function getHeroes() public view returns (Hero[] memory){\r\n        return HF.getHeroes();\r\n    }\r\n    \r\n    //Dragon logic\r\n    function createDragon () public {\r\n        DF.createDragon();\r\n    }\r\n    \r\n    function getDragon () public view returns (Dragon memory) {\r\n        return DF.getDragon();\r\n    }\r\n    \r\n    // This is the function our user sees when starting a battle.\r\n    function startEncounter() public {\r\n        // Create checks to check whether a hero and dragon are available.\r\n        _encounter(HF.getHero(msg.sender), DF.getDragon()); // Increase gas limit in remix.\r\n    }\r\n    \r\n    // Lock in our Hero and the Dragon. Emits the result of the encounter.\r\n    function _encounter(Hero memory _hero, Dragon memory _dragon) internal {\r\n        // Check if there are both a hero and a dragon. Require keyword and ternary operator. PD-3 Error Handling.\r\n        require(keccak256(abi.encodePacked(_hero.name)) != keccak256(abi.encodePacked('')), \"Hero not found\");\r\n        require(keccak256(abi.encodePacked(_dragon.name))!= keccak256(abi.encodePacked('')), \"Dragon not found\");\r\n        \r\n        // Fight!\r\n        emit encounterResult(_battle(_hero.power, _dragon.power)); // Emit our event containing result of battle..\r\n    }\r\n    \r\n    // Determine who wins the fight.\r\n    function _battle(uint heroPower, uint dragonPower) private pure returns (string memory) {\r\n        if (heroPower > dragonPower) {\r\n            return \"The dragon has been slain!\";\r\n        }\r\n        else if (heroPower < dragonPower) {\r\n            return \"The hero has been defeated! The dragon was too strong!\";\r\n        }\r\n        else {\r\n            return \"The hero and dragon are equal in strength, there is no victor!\";\r\n        }\r\n    }\r\n\r\n    // Let's do something with our Oracle here.\r\n\r\n    // Web3examples convert to uint https://github.com/web3examples/ethereum/blob/master/solidity_examples/bytes2uint.sol\r\n    // Because we need a uint for our hero and dragon creation and our Oracle returns bytes, let's convert it here.\r\n    function convertToUint(bytes memory input) public pure returns (uint) { \r\n        uint res=0;\r\n        for (uint i=0;i<input.length;i++) \r\n            res = (res<<8) + uint(uint8(input[i]));\r\n        return res;\r\n    }\r\n\r\n    // Check oracle output\r\n    function callOracleRandom() public returns (bytes memory) {\r\n        OO.GetRandom(5); // call oracle \r\n        return OO.GetResult(); // return the result from oracle query\r\n    }\r\n    \r\n    // Convert oracle output to uint\r\n    function callOracleRandomUint() public returns (uint){\r\n        OO.GetRandom(5);\r\n        return convertToUint(OO.GetResult());\r\n    }\r\n    \r\n}\r\n",
  "sourcePath": "D:/HHS/Jaar 4 Minor/IT Deel Minor/Assignments/PD-8/contracts/Ormr.sol",
  "compiler": {
    "name": "solc",
    "version": "0.7.0+commit.9e61f92b.Emscripten.clang"
  },
  "schemaVersion": "3.3.2",
  "updatedAt": "2020-12-14T23:02:33.559Z",
  "devdoc": {
    "kind": "dev",
    "methods": {},
    "version": 1
  },
  "userdoc": {
    "kind": "user",
    "methods": {},
    "version": 1
  }
}