{
  "contractName": "Ormr",
  "abi": [
    {
      "inputs": [],
      "stateMutability": "nonpayable",
      "type": "constructor"
    },
    {
      "anonymous": false,
      "inputs": [
        {
          "indexed": false,
          "internalType": "string",
          "name": "",
          "type": "string"
        }
      ],
      "name": "encounterResult",
      "type": "event"
    },
    {
      "inputs": [
        {
          "internalType": "string",
          "name": "_name",
          "type": "string"
        }
      ],
      "name": "createHero",
      "outputs": [],
      "stateMutability": "nonpayable",
      "type": "function"
    },
    {
      "inputs": [],
      "name": "getHero",
      "outputs": [
        {
          "components": [
            {
              "internalType": "string",
              "name": "name",
              "type": "string"
            },
            {
              "internalType": "uint256",
              "name": "power",
              "type": "uint256"
            },
            {
              "internalType": "uint256",
              "name": "health",
              "type": "uint256"
            },
            {
              "internalType": "uint256",
              "name": "bank",
              "type": "uint256"
            }
          ],
          "internalType": "struct Hero",
          "name": "",
          "type": "tuple"
        }
      ],
      "stateMutability": "view",
      "type": "function",
      "constant": true
    },
    {
      "inputs": [],
      "name": "getHeroes",
      "outputs": [
        {
          "components": [
            {
              "internalType": "string",
              "name": "name",
              "type": "string"
            },
            {
              "internalType": "uint256",
              "name": "power",
              "type": "uint256"
            },
            {
              "internalType": "uint256",
              "name": "health",
              "type": "uint256"
            },
            {
              "internalType": "uint256",
              "name": "bank",
              "type": "uint256"
            }
          ],
          "internalType": "struct Hero[]",
          "name": "",
          "type": "tuple[]"
        }
      ],
      "stateMutability": "view",
      "type": "function",
      "constant": true
    },
    {
      "inputs": [],
      "name": "createDragon",
      "outputs": [],
      "stateMutability": "nonpayable",
      "type": "function"
    },
    {
      "inputs": [],
      "name": "getDragon",
      "outputs": [
        {
          "components": [
            {
              "internalType": "string",
              "name": "name",
              "type": "string"
            },
            {
              "internalType": "address",
              "name": "id",
              "type": "address"
            },
            {
              "internalType": "uint256",
              "name": "power",
              "type": "uint256"
            },
            {
              "internalType": "uint256",
              "name": "health",
              "type": "uint256"
            },
            {
              "internalType": "uint256",
              "name": "goldReward",
              "type": "uint256"
            }
          ],
          "internalType": "struct Dragon",
          "name": "",
          "type": "tuple"
        }
      ],
      "stateMutability": "view",
      "type": "function",
      "constant": true
    },
    {
      "inputs": [],
      "name": "startEncounter",
      "outputs": [],
      "stateMutability": "nonpayable",
      "type": "function"
    }
  ],
  "bytecode": "0x608060405234801561001057600080fd5b5060405161001d906100e7565b604051809103906000f080158015610039573d6000803e3d6000fd5b506000806101000a81548173ffffffffffffffffffffffffffffffffffffffff021916908373ffffffffffffffffffffffffffffffffffffffff160217905550604051610085906100f4565b604051809103906000f0801580156100a1573d6000803e3d6000fd5b50600160006101000a81548173ffffffffffffffffffffffffffffffffffffffff021916908373ffffffffffffffffffffffffffffffffffffffff160217905550610101565b610da98061136883390190565b610d5b8061211183390190565b611258806101106000396000f3fe608060405234801561001057600080fd5b50600436106100625760003560e01c8063581bee2f1461006757806378242aaf146100855780639a8d2882146100a15780639e01b853146100bf578063b1185244146100c9578063b7ed99d6146100e7575b600080fd5b61006f6100f1565b60405161007c9190610fa7565b60405180910390f35b61009f600480360381019061009a9190610a98565b6101ac565b005b6100a961023c565b6040516100b69190610ed1565b60405180910390f35b6100c76102e6565b005b6100d1610443565b6040516100de9190610f85565b60405180910390f35b6100ef6104f5565b005b6100f9610778565b60008054906101000a900473ffffffffffffffffffffffffffffffffffffffff1673ffffffffffffffffffffffffffffffffffffffff166327df259a336040518263ffffffff1660e01b81526004016101529190610eb6565b60006040518083038186803b15801561016a57600080fd5b505afa15801561017e573d6000803e3d6000fd5b505050506040513d6000823e3d601f19601f820116820180604052508101906101a79190610b1a565b905090565b60008054906101000a900473ffffffffffffffffffffffffffffffffffffffff1673ffffffffffffffffffffffffffffffffffffffff1663deb786c482336040518363ffffffff1660e01b8152600401610207929190610f15565b600060405180830381600087803b15801561022157600080fd5b505af1158015610235573d6000803e3d6000fd5b5050505050565b606060008054906101000a900473ffffffffffffffffffffffffffffffffffffffff1673ffffffffffffffffffffffffffffffffffffffff16639a8d28826040518163ffffffff1660e01b815260040160006040518083038186803b1580156102a457600080fd5b505afa1580156102b8573d6000803e3d6000fd5b505050506040513d6000823e3d601f19601f820116820180604052508101906102e19190610a57565b905090565b61044160008054906101000a900473ffffffffffffffffffffffffffffffffffffffff1673ffffffffffffffffffffffffffffffffffffffff166327df259a336040518263ffffffff1660e01b81526004016103429190610eb6565b60006040518083038186803b15801561035a57600080fd5b505afa15801561036e573d6000803e3d6000fd5b505050506040513d6000823e3d601f19601f820116820180604052508101906103979190610b1a565b600160009054906101000a900473ffffffffffffffffffffffffffffffffffffffff1673ffffffffffffffffffffffffffffffffffffffff1663b11852446040518163ffffffff1660e01b815260040160006040518083038186803b1580156103ff57600080fd5b505afa158015610413573d6000803e3d6000fd5b505050506040513d6000823e3d601f19601f8201168201806040525081019061043c9190610ad9565b610579565b565b61044b6107a0565b600160009054906101000a900473ffffffffffffffffffffffffffffffffffffffff1673ffffffffffffffffffffffffffffffffffffffff1663b11852446040518163ffffffff1660e01b815260040160006040518083038186803b1580156104b357600080fd5b505afa1580156104c7573d6000803e3d6000fd5b505050506040513d6000823e3d601f19601f820116820180604052508101906104f09190610ad9565b905090565b600160009054906101000a900473ffffffffffffffffffffffffffffffffffffffff1673ffffffffffffffffffffffffffffffffffffffff1663b7ed99d66040518163ffffffff1660e01b8152600401600060405180830381600087803b15801561055f57600080fd5b505af1158015610573573d6000803e3d6000fd5b50505050565b60405160200161058890610ea1565b6040516020818303038152906040528051906020012082600001516040516020016105b39190610e8a565b60405160208183030381529060405280519060200120141561060a576040517f08c379a000000000000000000000000000000000000000000000000000000000815260040161060190610f65565b60405180910390fd5b60405160200161061990610ea1565b6040516020818303038152906040528051906020012081600001516040516020016106449190610e8a565b60405160208183030381529060405280519060200120141561069b576040517f08c379a000000000000000000000000000000000000000000000000000000000815260040161069290610f45565b60405180910390fd5b7fdd4beaba995f8a41cdd2f0af8918a02603e1b887060a362f32b17b80b1af367a6106ce836020015183604001516106e7565b6040516106db9190610ef3565b60405180910390a15050565b60608183111561072e576040518060400160405280601a81526020017f54686520647261676f6e20686173206265656e20736c61696e210000000000008152509050610772565b81831015610756576040518060600160405280603681526020016111af603691399050610772565b6040518060600160405280603e81526020016111e5603e913990505b92915050565b6040518060800160405280606081526020016000815260200160008152602001600081525090565b6040518060a0016040528060608152602001600073ffffffffffffffffffffffffffffffffffffffff1681526020016000815260200160008152602001600081525090565b6000815190506107f481611180565b92915050565b600082601f83011261080b57600080fd5b815161081e61081982610ff6565b610fc9565b9150818183526020840193506020810190508360005b83811015610864578151860161084a88826109b6565b845260208401935060208301925050600181019050610834565b5050505092915050565b600082601f83011261087f57600080fd5b813561089261088d8261101e565b610fc9565b915080825260208301602083018583830111156108ae57600080fd5b6108b983828461112d565b50505092915050565b600082601f8301126108d357600080fd5b81516108e66108e18261101e565b610fc9565b9150808252602083016020830185838301111561090257600080fd5b61090d83828461113c565b50505092915050565b600060a0828403121561092857600080fd5b61093260a0610fc9565b9050600082015167ffffffffffffffff81111561094e57600080fd5b61095a848285016108c2565b600083015250602061096e848285016107e5565b602083015250604061098284828501610a42565b604083015250606061099684828501610a42565b60608301525060806109aa84828501610a42565b60808301525092915050565b6000608082840312156109c857600080fd5b6109d26080610fc9565b9050600082015167ffffffffffffffff8111156109ee57600080fd5b6109fa848285016108c2565b6000830152506020610a0e84828501610a42565b6020830152506040610a2284828501610a42565b6040830152506060610a3684828501610a42565b60608301525092915050565b600081519050610a5181611197565b92915050565b600060208284031215610a6957600080fd5b600082015167ffffffffffffffff811115610a8357600080fd5b610a8f848285016107fa565b91505092915050565b600060208284031215610aaa57600080fd5b600082013567ffffffffffffffff811115610ac457600080fd5b610ad08482850161086e565b91505092915050565b600060208284031215610aeb57600080fd5b600082015167ffffffffffffffff811115610b0557600080fd5b610b1184828501610916565b91505092915050565b600060208284031215610b2c57600080fd5b600082015167ffffffffffffffff811115610b4657600080fd5b610b52848285016109b6565b91505092915050565b6000610b678383610db5565b905092915050565b610b78816110f7565b82525050565b610b87816110bb565b82525050565b6000610b988261105a565b610ba2818561107d565b935083602082028501610bb48561104a565b8060005b85811015610bf05784840389528151610bd18582610b5b565b9450610bdc83611070565b925060208a01995050600181019050610bb8565b50829750879550505050505092915050565b6000610c0d82611065565b610c17818561108e565b9350610c2781856020860161113c565b610c308161116f565b840191505092915050565b6000610c4682611065565b610c50818561109f565b9350610c6081856020860161113c565b610c698161116f565b840191505092915050565b6000610c7f82611065565b610c8981856110b0565b9350610c9981856020860161113c565b80840191505092915050565b6000610cb26000836110b0565b9150600082019050919050565b6000610ccc60108361109f565b91507f447261676f6e206e6f7420666f756e64000000000000000000000000000000006000830152602082019050919050565b6000610d0c600e8361109f565b91507f4865726f206e6f7420666f756e640000000000000000000000000000000000006000830152602082019050919050565b600060a0830160008301518482036000860152610d5c8282610c02565b9150506020830151610d716020860182610b7e565b506040830151610d846040860182610e7b565b506060830151610d976060860182610e7b565b506080830151610daa6080860182610e7b565b508091505092915050565b60006080830160008301518482036000860152610dd28282610c02565b9150506020830151610de76020860182610e7b565b506040830151610dfa6040860182610e7b565b506060830151610e0d6060860182610e7b565b508091505092915050565b60006080830160008301518482036000860152610e358282610c02565b9150506020830151610e4a6020860182610e7b565b506040830151610e5d6040860182610e7b565b506060830151610e706060860182610e7b565b508091505092915050565b610e84816110ed565b82525050565b6000610e968284610c74565b915081905092915050565b6000610eac82610ca5565b9150819050919050565b6000602082019050610ecb6000830184610b6f565b92915050565b60006020820190508181036000830152610eeb8184610b8d565b905092915050565b60006020820190508181036000830152610f0d8184610c3b565b905092915050565b60006040820190508181036000830152610f2f8185610c3b565b9050610f3e6020830184610b6f565b9392505050565b60006020820190508181036000830152610f5e81610cbf565b9050919050565b60006020820190508181036000830152610f7e81610cff565b9050919050565b60006020820190508181036000830152610f9f8184610d3f565b905092915050565b60006020820190508181036000830152610fc18184610e18565b905092915050565b6000604051905081810181811067ffffffffffffffff82111715610fec57600080fd5b8060405250919050565b600067ffffffffffffffff82111561100d57600080fd5b602082029050602081019050919050565b600067ffffffffffffffff82111561103557600080fd5b601f19601f8301169050602081019050919050565b6000819050602082019050919050565b600081519050919050565b600081519050919050565b6000602082019050919050565b600082825260208201905092915050565b600082825260208201905092915050565b600082825260208201905092915050565b600081905092915050565b60006110c6826110cd565b9050919050565b600073ffffffffffffffffffffffffffffffffffffffff82169050919050565b6000819050919050565b600061110282611109565b9050919050565b60006111148261111b565b9050919050565b6000611126826110cd565b9050919050565b82818337600083830152505050565b60005b8381101561115a57808201518184015260208101905061113f565b83811115611169576000848401525b50505050565b6000601f19601f8301169050919050565b611189816110bb565b811461119457600080fd5b50565b6111a0816110ed565b81146111ab57600080fd5b5056fe546865206865726f20686173206265656e206465666561746564212054686520647261676f6e2077617320746f6f207374726f6e6721546865206865726f20616e6420647261676f6e2061726520657175616c20696e20737472656e6774682c207468657265206973206e6f20766963746f7221a26469706673582212204c74406efc66f13def21c7859049879bf2b9edf77bf8c5088b0005c272491b9b64736f6c634300070000336080604052620186a06003556298968060045534801561001e57600080fd5b50610d7b8061002e6000396000f3fe608060405234801561001057600080fd5b50600436106100415760003560e01c806327df259a146100465780639a8d288214610076578063deb786c414610094575b600080fd5b610060600480360381019061005b9190610798565b6100b0565b60405161006d9190610b41565b60405180910390f35b61007e61022c565b60405161008b9190610adf565b60405180910390f35b6100ae60048036038101906100a991906107c1565b610393565b005b6100b861066a565b600060098054905011610100576040517f08c379a00000000000000000000000000000000000000000000000000000000081526004016100f790610b01565b60405180910390fd5b6009600160008473ffffffffffffffffffffffffffffffffffffffff1673ffffffffffffffffffffffffffffffffffffffff168152602001908152602001600020548154811061014c57fe5b9060005260206000209060040201604051806080016040529081600082018054600181600116156101000203166002900480601f0160208091040260200160405190810160405280929190818152602001828054600181600116156101000203166002900480156101fe5780601f106101d3576101008083540402835291602001916101fe565b820191906000526020600020905b8154815290600101906020018083116101e157829003601f168201915b5050505050815260200160018201548152602001600282015481526020016003820154815250509050919050565b6060600060098054905011610276576040517f08c379a000000000000000000000000000000000000000000000000000000000815260040161026d90610b01565b60405180910390fd5b6009805480602002602001604051908101604052809291908181526020016000905b8282101561038a5783829060005260206000209060040201604051806080016040529081600082018054600181600116156101000203166002900480601f0160208091040260200160405190810160405280929190818152602001828054600181600116156101000203166002900480156103545780601f1061032957610100808354040283529160200191610354565b820191906000526020600020905b81548152906001019060200180831161033757829003601f168201915b50505050508152602001600182015481526020016002820154815260200160038201548152505081526020019060010190610298565b50505050905090565b6000600260008373ffffffffffffffffffffffffffffffffffffffff1673ffffffffffffffffffffffffffffffffffffffff1681526020019081526020016000205414610415576040517f08c379a000000000000000000000000000000000000000000000000000000000815260040161040c90610b21565b60405180910390fd5b61041f8282610423565b5050565b6009604051806080016040528084815260200161043e6105ea565b815260200161044b61062a565b815260200160008152509080600181540180825580915050600190039060005260206000209060040201600090919091909150600082015181600001908051906020019061049a929190610692565b506020820151816001015560408201518160020155606082015181600301555050600060016009805490500390508160008083815260200190815260200160002060006101000a81548173ffffffffffffffffffffffffffffffffffffffff021916908373ffffffffffffffffffffffffffffffffffffffff16021790555080600160008473ffffffffffffffffffffffffffffffffffffffff1673ffffffffffffffffffffffffffffffffffffffff16815260200190815260200160002081905550600260008373ffffffffffffffffffffffffffffffffffffffff1673ffffffffffffffffffffffffffffffffffffffff168152602001908152602001600020600081548092919060010191905055507fe091168a421f352d46fe9eafce51f4d2bce03324348c1d1d6f9bb1283d60bed681846040516105dd929190610b63565b60405180910390a1505050565b600060035442444160405160200161060493929190610aa2565b6040516020818303038152906040528051906020012060001c8161062457fe5b06905090565b600060045442444160405160200161064493929190610aa2565b6040516020818303038152906040528051906020012060001c8161066457fe5b06905090565b6040518060800160405280606081526020016000815260200160008152602001600081525090565b828054600181600116156101000203166002900490600052602060002090601f016020900481019282601f106106d357805160ff1916838001178555610701565b82800160010185558215610701579182015b828111156107005782518255916020019190600101906106e5565b5b50905061070e9190610712565b5090565b5b8082111561072b576000816000905550600101610713565b5090565b60008135905061073e81610d2e565b92915050565b600082601f83011261075557600080fd5b813561076861076382610bc0565b610b93565b9150808252602083016020830185838301111561078457600080fd5b61078f838284610ca0565b50505092915050565b6000602082840312156107aa57600080fd5b60006107b88482850161072f565b91505092915050565b600080604083850312156107d457600080fd5b600083013567ffffffffffffffff8111156107ee57600080fd5b6107fa85828601610744565b925050602061080b8582860161072f565b9150509250929050565b600061082183836109a7565b905092915050565b61083a61083582610c64565b610ce2565b82525050565b600061084b82610bfc565b6108558185610c1f565b93508360208202850161086785610bec565b8060005b858110156108a357848403895281516108848582610815565b945061088f83610c12565b925060208a0199505060018101905061086b565b50829750879550505050505092915050565b60006108c082610c07565b6108ca8185610c30565b93506108da818560208601610caf565b6108e381610d10565b840191505092915050565b60006108f982610c07565b6109038185610c41565b9350610913818560208601610caf565b61091c81610d10565b840191505092915050565b6000610934601f83610c41565b91507f4e6f206865726f657320617661696c61626c6520666f72206c6f6f6b75702e006000830152602082019050919050565b6000610974601b83610c41565b91507f596f7520616c726561647920637265617465642061206865726f2100000000006000830152602082019050919050565b600060808301600083015184820360008601526109c482826108b5565b91505060208301516109d96020860182610a6d565b5060408301516109ec6040860182610a6d565b5060608301516109ff6060860182610a6d565b508091505092915050565b60006080830160008301518482036000860152610a2782826108b5565b9150506020830151610a3c6020860182610a6d565b506040830151610a4f6040860182610a6d565b506060830151610a626060860182610a6d565b508091505092915050565b610a7681610c96565b82525050565b610a8581610c96565b82525050565b610a9c610a9782610c96565b610d06565b82525050565b6000610aae8286610a8b565b602082019150610abe8285610a8b565b602082019150610ace8284610829565b601482019150819050949350505050565b60006020820190508181036000830152610af98184610840565b905092915050565b60006020820190508181036000830152610b1a81610927565b9050919050565b60006020820190508181036000830152610b3a81610967565b9050919050565b60006020820190508181036000830152610b5b8184610a0a565b905092915050565b6000604082019050610b786000830185610a7c565b8181036020830152610b8a81846108ee565b90509392505050565b6000604051905081810181811067ffffffffffffffff82111715610bb657600080fd5b8060405250919050565b600067ffffffffffffffff821115610bd757600080fd5b601f19601f8301169050602081019050919050565b6000819050602082019050919050565b600081519050919050565b600081519050919050565b6000602082019050919050565b600082825260208201905092915050565b600082825260208201905092915050565b600082825260208201905092915050565b6000610c5d82610c76565b9050919050565b6000610c6f82610c76565b9050919050565b600073ffffffffffffffffffffffffffffffffffffffff82169050919050565b6000819050919050565b82818337600083830152505050565b60005b83811015610ccd578082015181840152602081019050610cb2565b83811115610cdc576000848401525b50505050565b6000610ced82610cf4565b9050919050565b6000610cff82610d21565b9050919050565b6000819050919050565b6000601f19601f8301169050919050565b60008160601b9050919050565b610d3781610c52565b8114610d4257600080fd5b5056fea2646970667358221220c4902ee5cb541009b5b38a6a58bbc26638d371d928ba8917279ce2249413cdbc64736f6c634300070000336080604052620186a06001556298968060025534801561001e57600080fd5b50610d2d8061002e6000396000f3fe608060405234801561001057600080fd5b50600436106100415760003560e01c8063b118524414610046578063b7ed99d614610064578063f8caf6c71461006e575b600080fd5b61004e61008c565b60405161005b9190610b00565b60405180910390f35b61006c61025b565b005b610076610265565b6040516100839190610abe565b60405180910390f35b610094610633565b6000600880549050116100dc576040517f08c379a00000000000000000000000000000000000000000000000000000000081526004016100d390610ae0565b60405180910390fd5b60086000803073ffffffffffffffffffffffffffffffffffffffff1673ffffffffffffffffffffffffffffffffffffffff168152602001908152602001600020548154811061012757fe5b90600052602060002090600502016040518060a0016040529081600082018054600181600116156101000203166002900480601f0160208091040260200160405190810160405280929190818152602001828054600181600116156101000203166002900480156101d95780601f106101ae576101008083540402835291602001916101d9565b820191906000526020600020905b8154815290600101906020018083116101bc57829003601f168201915b505050505081526020016001820160009054906101000a900473ffffffffffffffffffffffffffffffffffffffff1673ffffffffffffffffffffffffffffffffffffffff1673ffffffffffffffffffffffffffffffffffffffff1681526020016002820154815260200160038201548152602001600482015481525050905090565b610263610422565b565b60606000600880549050116102af576040517f08c379a00000000000000000000000000000000000000000000000000000000081526004016102a690610ae0565b60405180910390fd5b6008805480602002602001604051908101604052809291908181526020016000905b8282101561041957838290600052602060002090600502016040518060a0016040529081600082018054600181600116156101000203166002900480601f01602080910402602001604051908101604052809291908181526020018280546001816001161561010002031660029004801561038d5780601f106103625761010080835404028352916020019161038d565b820191906000526020600020905b81548152906001019060200180831161037057829003601f168201915b505050505081526020016001820160009054906101000a900473ffffffffffffffffffffffffffffffffffffffff1673ffffffffffffffffffffffffffffffffffffffff1673ffffffffffffffffffffffffffffffffffffffff1681526020016002820154815260200160038201548152602001600482015481525050815260200190600101906102d1565b50505050905090565b60086040518060a001604052806040518060400160405280600e81526020017f44656661756c745f447261676f6e00000000000000000000000000000000000081525081526020013073ffffffffffffffffffffffffffffffffffffffff16815260200161048e6105b3565b815260200161049b6105f3565b8152602001600a815250908060018154018082558091505060019003906000526020600020906005020160009091909190915060008201518160000190805190602001906104ea929190610678565b5060208201518160010160006101000a81548173ffffffffffffffffffffffffffffffffffffffff021916908373ffffffffffffffffffffffffffffffffffffffff1602179055506040820151816002015560608201518160030155608082015181600401555050600060016008805490500390507fa8d5c415ae4486d0b0ca47d57931522bcf32daa16432a434fd9d4c57050e94da6008828154811061058d57fe5b90600052602060002090600502016040516105a89190610b22565b60405180910390a150565b60006001544244416040516020016105cd93929190610a81565b6040516020818303038152906040528051906020012060001c816105ed57fe5b06905090565b600060025442444160405160200161060d93929190610a81565b6040516020818303038152906040528051906020012060001c8161062d57fe5b06905090565b6040518060a0016040528060608152602001600073ffffffffffffffffffffffffffffffffffffffff1681526020016000815260200160008152602001600081525090565b828054600181600116156101000203166002900490600052602060002090601f016020900481019282601f106106b957805160ff19168380011785556106e7565b828001600101855582156106e7579182015b828111156106e65782518255916020019190600101906106cb565b5b5090506106f491906106f8565b5090565b5b808211156107115760008160009055506001016106f9565b5090565b600061072183836108cc565b905092915050565b61073a61073582610bfb565b610c9e565b82525050565b61074981610be9565b82525050565b600061075a82610b69565b6107648185610b8c565b93508360208202850161077685610b44565b8060005b858110156107b257848403895281516107938582610715565b945061079e83610b7f565b925060208a0199505060018101905061077a565b50829750879550505050505092915050565b60006107cf82610b74565b6107d98185610b9d565b93506107e9818560208601610c37565b6107f281610ccc565b840191505092915050565b60008154600181166000811461081a576001811461084057610884565b607f600283041661082b8187610b9d565b955060ff198316865260208601935050610884565b6002820461084e8187610b9d565b955061085985610b54565b60005b8281101561087b5781548189015260018201915060208101905061085c565b80880195505050505b505092915050565b6000610899602083610bae565b91507f4e6f20647261676f6e7320617661696c61626c6520666f72206c6f6f6b75702e6000830152602082019050919050565b600060a08301600083015184820360008601526108e982826107c4565b91505060208301516108fe6020860182610740565b5060408301516109116040860182610a5b565b5060608301516109246060860182610a5b565b5060808301516109376080860182610a5b565b508091505092915050565b600060a083016000830151848203600086015261095f82826107c4565b91505060208301516109746020860182610740565b5060408301516109876040860182610a5b565b50606083015161099a6060860182610a5b565b5060808301516109ad6080860182610a5b565b508091505092915050565b600060a08301600080840185830360008701526109d583826107fd565b925050600184015490506109e881610c6a565b6109f56020870182610740565b5060028401549050610a0681610c84565b610a136040870182610a5b565b5060038401549050610a2481610c84565b610a316060870182610a5b565b5060048401549050610a4281610c84565b610a4f6080870182610a5b565b50819250505092915050565b610a6481610c2d565b82525050565b610a7b610a7682610c2d565b610cc2565b82525050565b6000610a8d8286610a6a565b602082019150610a9d8285610a6a565b602082019150610aad8284610729565b601482019150819050949350505050565b60006020820190508181036000830152610ad8818461074f565b905092915050565b60006020820190508181036000830152610af98161088c565b9050919050565b60006020820190508181036000830152610b1a8184610942565b905092915050565b60006020820190508181036000830152610b3c81846109b8565b905092915050565b6000819050602082019050919050565b60008190508160005260206000209050919050565b600081519050919050565b600081519050919050565b6000602082019050919050565b600082825260208201905092915050565b600082825260208201905092915050565b600082825260208201905092915050565b600073ffffffffffffffffffffffffffffffffffffffff82169050919050565b6000819050919050565b6000610bf482610c0d565b9050919050565b6000610c0682610c0d565b9050919050565b600073ffffffffffffffffffffffffffffffffffffffff82169050919050565b6000819050919050565b60005b83811015610c55578082015181840152602081019050610c3a565b83811115610c64576000848401525b50505050565b6000610c7d610c7883610cea565b610bbf565b9050919050565b6000610c97610c9283610cea565b610bdf565b9050919050565b6000610ca982610cb0565b9050919050565b6000610cbb82610cdd565b9050919050565b6000819050919050565b6000601f19601f8301169050919050565b60008160601b9050919050565b60008160001c905091905056fea264697066735822122079cb4d1929aa3f20c5e61a0d3cd1bfc4bce6b1f022f45a3b88c3aeb028974b6a64736f6c63430007000033",
  "immutableReferences": {},
  "source": "// SPDX-License-Identifier: MIT\r\npragma solidity ^0.7.0;\r\npragma experimental ABIEncoderV2; // To fix a type-error we need to enable this.\r\n\r\nimport './HeroFactory.sol';\r\nimport './DragonFactory.sol';\r\nimport './Dragon.sol';\r\nimport './Hero.sol';\r\n\r\n// This Contract is supposed to become a game where our hero is fighting dragons.\r\ncontract Ormr {\r\n    \r\n    //Events. PD-3 Events.\r\n    event encounterResult(string); // Emit the result of a battle.\r\n    \r\n    // Variables\r\n    HeroFactory HF;\r\n    DragonFactory DF;\r\n    \r\n    // Called once at deployment of the contract.\r\n    constructor() {\r\n        HF = new HeroFactory();\r\n        DF = new DragonFactory();\r\n    }\r\n    \r\n    // Hero logic\r\n    function createHero (string memory _name) public {\r\n        HF.createHero(_name, msg.sender);\r\n    }\r\n    \r\n    function getHero() public view returns (Hero memory) {\r\n        return HF.getHero(msg.sender);\r\n    }\r\n    \r\n    function getHeroes() public view returns (Hero[] memory){\r\n        return HF.getHeroes();\r\n    }\r\n    \r\n    //Dragon logic\r\n    function createDragon () public {\r\n        DF.createDragon();\r\n    }\r\n    \r\n    function getDragon () public view returns (Dragon memory) {\r\n        return DF.getDragon();\r\n    }\r\n    \r\n    // This is the function our user sees when starting a battle.\r\n    function startEncounter() public {\r\n        // Create checks to check whether a hero and dragon are available.\r\n        _encounter(HF.getHero(msg.sender), DF.getDragon()); // Increase gas limit in remix.\r\n    }\r\n    \r\n    // Lock in our Hero and the Dragon. Emits the result of the encounter.\r\n    function _encounter(Hero memory _hero, Dragon memory _dragon) internal {\r\n        // Check if there are both a hero and a dragon. Require keyword and ternary operator. PD-3 Error Handling.\r\n        require(keccak256(abi.encodePacked(_hero.name)) != keccak256(abi.encodePacked('')), \"Hero not found\");\r\n        require(keccak256(abi.encodePacked(_dragon.name))!= keccak256(abi.encodePacked('')), \"Dragon not found\");\r\n        \r\n        // Fight!\r\n        emit encounterResult(_battle(_hero.power, _dragon.power)); // Emit our event containing result of battle..\r\n    }\r\n    \r\n    // Determine who wins the fight.\r\n    function _battle(uint heroPower, uint dragonPower) private pure returns (string memory) {\r\n        if (heroPower > dragonPower) {\r\n            return \"The dragon has been slain!\";\r\n        }\r\n        else if (heroPower < dragonPower) {\r\n            return \"The hero has been defeated! The dragon was too strong!\";\r\n        }\r\n        else {\r\n            return \"The hero and dragon are equal in strength, there is no victor!\";\r\n        }\r\n    }\r\n    \r\n}\r\n",
  "sourcePath": "D:/HHS/Jaar 4 Minor/IT Deel Minor/Assignments/PD - 7/contracts/Ormr.sol",
  "compiler": {
    "name": "solc",
    "version": "0.7.0+commit.9e61f92b.Emscripten.clang"
  },
  "schemaVersion": "3.3.2",
  "updatedAt": "2020-12-08T16:13:29.520Z",
  "networkType": "ethereum",
  "devdoc": {
    "kind": "dev",
    "methods": {},
    "version": 1
  },
  "userdoc": {
    "kind": "user",
    "methods": {},
    "version": 1
  }
}