{
  "contractName": "EIP721",
  "abi": [
    {
      "inputs": [
        {
          "internalType": "string",
          "name": "_name",
          "type": "string"
        },
        {
          "internalType": "string",
          "name": "_symbol",
          "type": "string"
        }
      ],
      "stateMutability": "nonpayable",
      "type": "constructor"
    },
    {
      "anonymous": false,
      "inputs": [
        {
          "indexed": true,
          "internalType": "address",
          "name": "_from",
          "type": "address"
        },
        {
          "indexed": true,
          "internalType": "address",
          "name": "_to",
          "type": "address"
        },
        {
          "indexed": true,
          "internalType": "uint256",
          "name": "_tokenId",
          "type": "uint256"
        }
      ],
      "name": "Transfer",
      "type": "event"
    },
    {
      "inputs": [],
      "name": "admin",
      "outputs": [
        {
          "internalType": "address",
          "name": "",
          "type": "address"
        }
      ],
      "stateMutability": "view",
      "type": "function"
    },
    {
      "inputs": [],
      "name": "counter",
      "outputs": [
        {
          "internalType": "uint256",
          "name": "",
          "type": "uint256"
        }
      ],
      "stateMutability": "view",
      "type": "function"
    },
    {
      "inputs": [],
      "name": "name",
      "outputs": [
        {
          "internalType": "string",
          "name": "",
          "type": "string"
        }
      ],
      "stateMutability": "view",
      "type": "function"
    },
    {
      "inputs": [],
      "name": "receivedData",
      "outputs": [
        {
          "internalType": "bytes",
          "name": "",
          "type": "bytes"
        }
      ],
      "stateMutability": "view",
      "type": "function"
    },
    {
      "inputs": [],
      "name": "receivedFrom",
      "outputs": [
        {
          "internalType": "address",
          "name": "",
          "type": "address"
        }
      ],
      "stateMutability": "view",
      "type": "function"
    },
    {
      "inputs": [],
      "name": "receivedOperator",
      "outputs": [
        {
          "internalType": "address",
          "name": "",
          "type": "address"
        }
      ],
      "stateMutability": "view",
      "type": "function"
    },
    {
      "inputs": [],
      "name": "receivedTokenId",
      "outputs": [
        {
          "internalType": "uint256",
          "name": "",
          "type": "uint256"
        }
      ],
      "stateMutability": "view",
      "type": "function"
    },
    {
      "inputs": [],
      "name": "symbol",
      "outputs": [
        {
          "internalType": "string",
          "name": "",
          "type": "string"
        }
      ],
      "stateMutability": "view",
      "type": "function"
    },
    {
      "inputs": [
        {
          "internalType": "address",
          "name": "_operator",
          "type": "address"
        },
        {
          "internalType": "address",
          "name": "_from",
          "type": "address"
        },
        {
          "internalType": "uint256",
          "name": "_tokenId",
          "type": "uint256"
        },
        {
          "internalType": "bytes",
          "name": "_data",
          "type": "bytes"
        }
      ],
      "name": "onERC721Received",
      "outputs": [
        {
          "internalType": "bytes4",
          "name": "",
          "type": "bytes4"
        }
      ],
      "stateMutability": "nonpayable",
      "type": "function"
    },
    {
      "inputs": [
        {
          "internalType": "address",
          "name": "_from",
          "type": "address"
        },
        {
          "internalType": "address",
          "name": "_to",
          "type": "address"
        },
        {
          "internalType": "uint256",
          "name": "_tokenId",
          "type": "uint256"
        }
      ],
      "name": "transferFrom",
      "outputs": [],
      "stateMutability": "payable",
      "type": "function"
    },
    {
      "inputs": [
        {
          "internalType": "address",
          "name": "_from",
          "type": "address"
        },
        {
          "internalType": "address",
          "name": "_to",
          "type": "address"
        },
        {
          "internalType": "uint256",
          "name": "_tokenId",
          "type": "uint256"
        }
      ],
      "name": "safeTransferFrom",
      "outputs": [],
      "stateMutability": "payable",
      "type": "function"
    },
    {
      "inputs": [
        {
          "internalType": "address",
          "name": "_from",
          "type": "address"
        },
        {
          "internalType": "address",
          "name": "_to",
          "type": "address"
        },
        {
          "internalType": "uint256",
          "name": "_tokenId",
          "type": "uint256"
        },
        {
          "internalType": "bytes",
          "name": "data",
          "type": "bytes"
        }
      ],
      "name": "safeTransferFrom",
      "outputs": [],
      "stateMutability": "payable",
      "type": "function"
    },
    {
      "inputs": [],
      "name": "totalSupply",
      "outputs": [
        {
          "internalType": "uint256",
          "name": "",
          "type": "uint256"
        }
      ],
      "stateMutability": "view",
      "type": "function"
    },
    {
      "inputs": [
        {
          "internalType": "uint256",
          "name": "_tokenId",
          "type": "uint256"
        }
      ],
      "name": "ownerOf",
      "outputs": [
        {
          "internalType": "address",
          "name": "",
          "type": "address"
        }
      ],
      "stateMutability": "view",
      "type": "function"
    },
    {
      "inputs": [
        {
          "internalType": "uint256",
          "name": "_index",
          "type": "uint256"
        }
      ],
      "name": "tokenByIndex",
      "outputs": [
        {
          "internalType": "uint256",
          "name": "",
          "type": "uint256"
        }
      ],
      "stateMutability": "view",
      "type": "function"
    },
    {
      "inputs": [
        {
          "internalType": "address",
          "name": "_owner",
          "type": "address"
        },
        {
          "internalType": "uint256",
          "name": "_index",
          "type": "uint256"
        }
      ],
      "name": "tokenOfOwnerByIndex",
      "outputs": [
        {
          "internalType": "uint256",
          "name": "_tokenId",
          "type": "uint256"
        }
      ],
      "stateMutability": "view",
      "type": "function"
    },
    {
      "inputs": [
        {
          "internalType": "address",
          "name": "_owner",
          "type": "address"
        }
      ],
      "name": "balanceOf",
      "outputs": [
        {
          "internalType": "uint256",
          "name": "",
          "type": "uint256"
        }
      ],
      "stateMutability": "view",
      "type": "function"
    },
    {
      "inputs": [
        {
          "internalType": "uint256",
          "name": "_tokenId",
          "type": "uint256"
        }
      ],
      "name": "tokenURI",
      "outputs": [
        {
          "internalType": "string",
          "name": "",
          "type": "string"
        }
      ],
      "stateMutability": "view",
      "type": "function"
    },
    {
      "inputs": [
        {
          "internalType": "bytes4",
          "name": "interfaceID",
          "type": "bytes4"
        }
      ],
      "name": "supportsInterface",
      "outputs": [
        {
          "internalType": "bool",
          "name": "",
          "type": "bool"
        }
      ],
      "stateMutability": "pure",
      "type": "function"
    },
    {
      "inputs": [
        {
          "internalType": "address",
          "name": "_minter",
          "type": "address"
        }
      ],
      "name": "createToken",
      "outputs": [],
      "stateMutability": "nonpayable",
      "type": "function"
    },
    {
      "inputs": [
        {
          "internalType": "uint256",
          "name": "_tokenId",
          "type": "uint256"
        }
      ],
      "name": "burnToken",
      "outputs": [],
      "stateMutability": "nonpayable",
      "type": "function"
    },
    {
      "inputs": [
        {
          "internalType": "uint256",
          "name": "_tokenID",
          "type": "uint256"
        },
        {
          "internalType": "string",
          "name": "URI",
          "type": "string"
        }
      ],
      "name": "setTokenURI",
      "outputs": [],
      "stateMutability": "nonpayable",
      "type": "function"
    }
  ],
  "bytecode": "0x6080604052600a6003553480156200001657600080fd5b50604051620029503803806200295083398181016040528101906200003c9190620001d9565b33600260006101000a81548173ffffffffffffffffffffffffffffffffffffffff021916908373ffffffffffffffffffffffffffffffffffffffff160217905550816000908051906020019062000095929190620000b7565b508060019080519060200190620000ae929190620000b7565b5050506200037d565b828054620000c590620002e9565b90600052602060002090601f016020900481019282620000e9576000855562000135565b82601f106200010457805160ff191683800117855562000135565b8280016001018555821562000135579182015b828111156200013457825182559160200191906001019062000117565b5b50905062000144919062000148565b5090565b5b808211156200016357600081600090555060010162000149565b5090565b60006200017e620001788462000280565b6200024c565b9050828152602081018484840111156200019757600080fd5b620001a4848285620002b3565b509392505050565b600082601f830112620001be57600080fd5b8151620001d084826020860162000167565b91505092915050565b60008060408385031215620001ed57600080fd5b600083015167ffffffffffffffff8111156200020857600080fd5b6200021685828601620001ac565b925050602083015167ffffffffffffffff8111156200023457600080fd5b6200024285828601620001ac565b9150509250929050565b6000604051905081810181811067ffffffffffffffff821117156200027657620002756200034e565b5b8060405250919050565b600067ffffffffffffffff8211156200029e576200029d6200034e565b5b601f19601f8301169050602081019050919050565b60005b83811015620002d3578082015181840152602081019050620002b6565b83811115620002e3576000848401525b50505050565b600060028204905060018216806200030257607f821691505b602082108114156200031957620003186200031f565b5b50919050565b7f4e487b7100000000000000000000000000000000000000000000000000000000600052602260045260246000fd5b7f4e487b7100000000000000000000000000000000000000000000000000000000600052604160045260246000fd5b6125c3806200038d6000396000f3fe6080604052600436106101355760003560e01c806361bc221a116100ab57806395d89b411161006f57806395d89b4114610434578063b88d4fde1461045f578063c21ab7f91461047b578063c87b56dd146104a4578063f851a440146104e1578063f91108c81461050c57610135565b806361bc221a1461033b5780636352211e1461036657806370a08231146103a35780637b47ec1a146103e057806387d40a701461040957610135565b806323b872dd116100fd57806323b872dd146102335780632f745c591461024f57806338cc60711461028c57806342842e0e146102b757806344fd706a146102d35780634f6ccce7146102fe57610135565b806301ffc9a71461013a57806306fdde0314610177578063150b7a02146101a2578063162094c4146101df57806318160ddd14610208575b600080fd5b34801561014657600080fd5b50610161600480360381019061015c9190611ef5565b610537565b60405161016e919061219e565b60405180910390f35b34801561018357600080fd5b5061018c610637565b60405161019991906121f6565b60405180910390f35b3480156101ae57600080fd5b506101c960048036038101906101c49190611e3e565b6106c5565b6040516101d691906121b9565b60405180910390f35b3480156101eb57600080fd5b5061020660048036038101906102019190611f70565b610779565b005b34801561021457600080fd5b5061021d6107ff565b60405161022a9190612218565b60405180910390f35b61024d60048036038101906102489190611def565b61080c565b005b34801561025b57600080fd5b5061027660048036038101906102719190611eb9565b610970565b6040516102839190612218565b60405180910390f35b34801561029857600080fd5b506102a1610ad6565b6040516102ae9190612218565b60405180910390f35b6102d160048036038101906102cc9190611def565b610adc565b005b3480156102df57600080fd5b506102e8610d30565b6040516102f591906120ed565b60405180910390f35b34801561030a57600080fd5b5061032560048036038101906103209190611f47565b610d56565b6040516103329190612218565b60405180910390f35b34801561034757600080fd5b50610350610db5565b60405161035d9190612218565b60405180910390f35b34801561037257600080fd5b5061038d60048036038101906103889190611f47565b610dbb565b60405161039a91906120ed565b60405180910390f35b3480156103af57600080fd5b506103ca60048036038101906103c59190611dc6565b610e84565b6040516103d79190612218565b60405180910390f35b3480156103ec57600080fd5b5061040760048036038101906104029190611f47565b610f27565b005b34801561041557600080fd5b5061041e610ffb565b60405161042b91906121d4565b60405180910390f35b34801561044057600080fd5b50610449611089565b60405161045691906121f6565b60405180910390f35b61047960048036038101906104749190611e3e565b611117565b005b34801561048757600080fd5b506104a2600480360381019061049d9190611dc6565b61136e565b005b3480156104b057600080fd5b506104cb60048036038101906104c69190611f47565b61144f565b6040516104d891906121f6565b60405180910390f35b3480156104ed57600080fd5b506104f66114f4565b60405161050391906120ed565b60405180910390f35b34801561051857600080fd5b5061052161151a565b60405161052e91906120ed565b60405180910390f35b60006380ac58cd60e01b7bffffffffffffffffffffffffffffffffffffffffffffffffffffffff1916827bffffffffffffffffffffffffffffffffffffffffffffffffffffffff191614806105d05750635b5e139f60e01b7bffffffffffffffffffffffffffffffffffffffffffffffffffffffff1916827bffffffffffffffffffffffffffffffffffffffffffffffffffffffff1916145b8061061f575063780e9d6360e01b7bffffffffffffffffffffffffffffffffffffffffffffffffffffffff1916827bffffffffffffffffffffffffffffffffffffffffffffffffffffffff1916145b1561062d5760019050610632565b600090505b919050565b6000805461064490612447565b80601f016020809104026020016040519081016040528092919081815260200182805461067090612447565b80156106bd5780601f10610692576101008083540402835291602001916106bd565b820191906000526020600020905b8154815290600101906020018083116106a057829003601f168201915b505050505081565b600084600a60006101000a81548173ffffffffffffffffffffffffffffffffffffffff021916908373ffffffffffffffffffffffffffffffffffffffff16021790555083600b60006101000a81548173ffffffffffffffffffffffffffffffffffffffff021916908373ffffffffffffffffffffffffffffffffffffffff16021790555082600c8190555081600d9080519060200190610766929190611b79565b5063150b7a0260e01b9050949350505050565b600260009054906101000a900473ffffffffffffffffffffffffffffffffffffffff1673ffffffffffffffffffffffffffffffffffffffff163373ffffffffffffffffffffffffffffffffffffffff16146107d357600080fd5b806009600084815260200190815260200160002090805190602001906107fa929190611bff565b505050565b6000600480549050905090565b8060405160200161081c906120d8565b604051602081830303815290604052805190602001206008600083815260200190815260200160002060009054906101000a900473ffffffffffffffffffffffffffffffffffffffff1660405160200161087691906120bd565b60405160208183030381529060405280519060200120141561089757600080fd5b8383838273ffffffffffffffffffffffffffffffffffffffff166008600083815260200190815260200160002060009054906101000a900473ffffffffffffffffffffffffffffffffffffffff1673ffffffffffffffffffffffffffffffffffffffff161461090557600080fd5b604051602001610914906120d8565b604051602081830303815290604052805190602001208260405160200161093b91906120bd565b60405160208183030381529060405280519060200120141561095c57600080fd5b610967878787611540565b50505050505050565b600080604051602001610982906120d8565b604051602081830303815290604052805190602001206008600083815260200190815260200160002060009054906101000a900473ffffffffffffffffffffffffffffffffffffffff166040516020016109dc91906120bd565b6040516020818303038152906040528051906020012014156109fd57600080fd5b600660008573ffffffffffffffffffffffffffffffffffffffff1673ffffffffffffffffffffffffffffffffffffffff168152602001908152602001600020805490508310610a4b57600080fd5b600660008573ffffffffffffffffffffffffffffffffffffffff1673ffffffffffffffffffffffffffffffffffffffff1681526020019081526020016000208381548110610ac2577f4e487b7100000000000000000000000000000000000000000000000000000000600052603260045260246000fd5b906000526020600020015491505092915050565b600c5481565b80604051602001610aec906120d8565b604051602081830303815290604052805190602001206008600083815260200190815260200160002060009054906101000a900473ffffffffffffffffffffffffffffffffffffffff16604051602001610b4691906120bd565b604051602081830303815290604052805190602001201415610b6757600080fd5b8383838273ffffffffffffffffffffffffffffffffffffffff166008600083815260200190815260200160002060009054906101000a900473ffffffffffffffffffffffffffffffffffffffff1673ffffffffffffffffffffffffffffffffffffffff1614610bd557600080fd5b604051602001610be4906120d8565b6040516020818303038152906040528051906020012082604051602001610c0b91906120bd565b604051602081830303815290604052805190602001201415610c2c57600080fd5b610c37878787611540565b6000863b90506000811115610d265763150b7a0260e01b7bffffffffffffffffffffffffffffffffffffffffffffffffffffffff19168773ffffffffffffffffffffffffffffffffffffffff1663150b7a02338b8a6040518463ffffffff1660e01b8152600401610caa93929190612154565b602060405180830381600087803b158015610cc457600080fd5b505af1158015610cd8573d6000803e3d6000fd5b505050506040513d601f19601f82011682018060405250810190610cfc9190611f1e565b7bffffffffffffffffffffffffffffffffffffffffffffffffffffffff191614610d2557600080fd5b5b5050505050505050565b600a60009054906101000a900473ffffffffffffffffffffffffffffffffffffffff1681565b60006004805490508210610d6957600080fd5b60048281548110610da3577f4e487b7100000000000000000000000000000000000000000000000000000000600052603260045260246000fd5b90600052602060002001549050919050565b60035481565b600081604051602001610dcd906120d8565b604051602081830303815290604052805190602001206008600083815260200190815260200160002060009054906101000a900473ffffffffffffffffffffffffffffffffffffffff16604051602001610e2791906120bd565b604051602081830303815290604052805190602001201415610e4857600080fd5b6008600084815260200190815260200160002060009054906101000a900473ffffffffffffffffffffffffffffffffffffffff16915050919050565b6000604051602001610e95906120d8565b6040516020818303038152906040528051906020012082604051602001610ebc91906120bd565b604051602081830303815290604052805190602001201415610edd57600080fd5b600660008373ffffffffffffffffffffffffffffffffffffffff1673ffffffffffffffffffffffffffffffffffffffff168152602001908152602001600020805490509050919050565b3373ffffffffffffffffffffffffffffffffffffffff166008600083815260200190815260200160002060009054906101000a900473ffffffffffffffffffffffffffffffffffffffff1673ffffffffffffffffffffffffffffffffffffffff1614610f9257600080fd5b610f9c33826115b4565b80600073ffffffffffffffffffffffffffffffffffffffff163373ffffffffffffffffffffffffffffffffffffffff167fddf252ad1be2c89b69c2b068fc378daa952ba7f163c4a11628f55a4df523b3ef60405160405180910390a450565b600d805461100890612447565b80601f016020809104026020016040519081016040528092919081815260200182805461103490612447565b80156110815780601f1061105657610100808354040283529160200191611081565b820191906000526020600020905b81548152906001019060200180831161106457829003601f168201915b505050505081565b6001805461109690612447565b80601f01602080910402602001604051908101604052809291908181526020018280546110c290612447565b801561110f5780601f106110e45761010080835404028352916020019161110f565b820191906000526020600020905b8154815290600101906020018083116110f257829003601f168201915b505050505081565b81604051602001611127906120d8565b604051602081830303815290604052805190602001206008600083815260200190815260200160002060009054906101000a900473ffffffffffffffffffffffffffffffffffffffff1660405160200161118191906120bd565b6040516020818303038152906040528051906020012014156111a257600080fd5b8484848273ffffffffffffffffffffffffffffffffffffffff166008600083815260200190815260200160002060009054906101000a900473ffffffffffffffffffffffffffffffffffffffff1673ffffffffffffffffffffffffffffffffffffffff161461121057600080fd5b60405160200161121f906120d8565b604051602081830303815290604052805190602001208260405160200161124691906120bd565b60405160208183030381529060405280519060200120141561126757600080fd5b611272888888611540565b6000873b905060008111156113635763150b7a0260e01b7bffffffffffffffffffffffffffffffffffffffffffffffffffffffff19168873ffffffffffffffffffffffffffffffffffffffff1663150b7a02338c8b8b6040518563ffffffff1660e01b81526004016112e79493929190612108565b602060405180830381600087803b15801561130157600080fd5b505af1158015611315573d6000803e3d6000fd5b505050506040513d601f19601f820116820180604052508101906113399190611f1e565b7bffffffffffffffffffffffffffffffffffffffffffffffffffffffff19161461136257600080fd5b5b505050505050505050565b600260009054906101000a900473ffffffffffffffffffffffffffffffffffffffff1673ffffffffffffffffffffffffffffffffffffffff163373ffffffffffffffffffffffffffffffffffffffff16146113c857600080fd5b6113d481600354611a05565b6003548173ffffffffffffffffffffffffffffffffffffffff16600073ffffffffffffffffffffffffffffffffffffffff167fddf252ad1be2c89b69c2b068fc378daa952ba7f163c4a11628f55a4df523b3ef60405160405180910390a46001600360008282546114459190612307565b9250508190555050565b606060096000838152602001908152602001600020805461146f90612447565b80601f016020809104026020016040519081016040528092919081815260200182805461149b90612447565b80156114e85780601f106114bd576101008083540402835291602001916114e8565b820191906000526020600020905b8154815290600101906020018083116114cb57829003601f168201915b50505050509050919050565b600260009054906101000a900473ffffffffffffffffffffffffffffffffffffffff1681565b600b60009054906101000a900473ffffffffffffffffffffffffffffffffffffffff1681565b61154a83826115b4565b6115548282611a05565b808273ffffffffffffffffffffffffffffffffffffffff168473ffffffffffffffffffffffffffffffffffffffff167fddf252ad1be2c89b69c2b068fc378daa952ba7f163c4a11628f55a4df523b3ef60405160405180910390a4505050565b6000600560008381526020019081526020016000205490506000600480549050905060046001826115e5919061235d565b8154811061161c577f4e487b7100000000000000000000000000000000000000000000000000000000600052603260045260246000fd5b906000526020600020015460048381548110611661577f4e487b7100000000000000000000000000000000000000000000000000000000600052603260045260246000fd5b906000526020600020018190555081600560006004600185611683919061235d565b815481106116ba577f4e487b7100000000000000000000000000000000000000000000000000000000600052603260045260246000fd5b9060005260206000200154815260200190815260200160002081905550600480548061170f577f4e487b7100000000000000000000000000000000000000000000000000000000600052603160045260246000fd5b600190038181906000526020600020016000905590556000600760008581526020019081526020016000205490506000600660008773ffffffffffffffffffffffffffffffffffffffff1673ffffffffffffffffffffffffffffffffffffffff168152602001908152602001600020805490509050600660008773ffffffffffffffffffffffffffffffffffffffff1673ffffffffffffffffffffffffffffffffffffffff1681526020019081526020016000206001826117d0919061235d565b81548110611807577f4e487b7100000000000000000000000000000000000000000000000000000000600052603260045260246000fd5b9060005260206000200154600660008873ffffffffffffffffffffffffffffffffffffffff1673ffffffffffffffffffffffffffffffffffffffff1681526020019081526020016000208381548110611889577f4e487b7100000000000000000000000000000000000000000000000000000000600052603260045260246000fd5b90600052602060002001819055508160076000600660008a73ffffffffffffffffffffffffffffffffffffffff1673ffffffffffffffffffffffffffffffffffffffff1681526020019081526020016000206001856118e8919061235d565b8154811061191f577f4e487b7100000000000000000000000000000000000000000000000000000000600052603260045260246000fd5b9060005260206000200154815260200190815260200160002081905550600660008773ffffffffffffffffffffffffffffffffffffffff1673ffffffffffffffffffffffffffffffffffffffff1681526020019081526020016000208054806119b1577f4e487b7100000000000000000000000000000000000000000000000000000000600052603160045260246000fd5b600190038181906000526020600020016000905590556008600086815260200190815260200160002060006101000a81549073ffffffffffffffffffffffffffffffffffffffff0219169055505050505050565b60048190806001815401808255809150506001900390600052602060002001600090919091909150556001600480549050611a40919061235d565b6005600083815260200190815260200160002081905550816008600083815260200190815260200160002060006101000a81548173ffffffffffffffffffffffffffffffffffffffff021916908373ffffffffffffffffffffffffffffffffffffffff160217905550600660008373ffffffffffffffffffffffffffffffffffffffff1673ffffffffffffffffffffffffffffffffffffffff1681526020019081526020016000208190806001815401808255809150506001900390600052602060002001600090919091909150556001600660008473ffffffffffffffffffffffffffffffffffffffff1673ffffffffffffffffffffffffffffffffffffffff16815260200190815260200160002080549050611b5e919061235d565b60076000838152602001908152602001600020819055505050565b828054611b8590612447565b90600052602060002090601f016020900481019282611ba75760008555611bee565b82601f10611bc057805160ff1916838001178555611bee565b82800160010185558215611bee579182015b82811115611bed578251825591602001919060010190611bd2565b5b509050611bfb9190611c85565b5090565b828054611c0b90612447565b90600052602060002090601f016020900481019282611c2d5760008555611c74565b82601f10611c4657805160ff1916838001178555611c74565b82800160010185558215611c74579182015b82811115611c73578251825591602001919060010190611c58565b5b509050611c819190611c85565b5090565b5b80821115611c9e576000816000905550600101611c86565b5090565b6000611cb5611cb084612264565b612233565b905082815260208101848484011115611ccd57600080fd5b611cd8848285612405565b509392505050565b6000611cf3611cee84612294565b612233565b905082815260208101848484011115611d0b57600080fd5b611d16848285612405565b509392505050565b600081359050611d2d81612548565b92915050565b600081359050611d428161255f565b92915050565b600081519050611d578161255f565b92915050565b600082601f830112611d6e57600080fd5b8135611d7e848260208601611ca2565b91505092915050565b600082601f830112611d9857600080fd5b8135611da8848260208601611ce0565b91505092915050565b600081359050611dc081612576565b92915050565b600060208284031215611dd857600080fd5b6000611de684828501611d1e565b91505092915050565b600080600060608486031215611e0457600080fd5b6000611e1286828701611d1e565b9350506020611e2386828701611d1e565b9250506040611e3486828701611db1565b9150509250925092565b60008060008060808587031215611e5457600080fd5b6000611e6287828801611d1e565b9450506020611e7387828801611d1e565b9350506040611e8487828801611db1565b925050606085013567ffffffffffffffff811115611ea157600080fd5b611ead87828801611d5d565b91505092959194509250565b60008060408385031215611ecc57600080fd5b6000611eda85828601611d1e565b9250506020611eeb85828601611db1565b9150509250929050565b600060208284031215611f0757600080fd5b6000611f1584828501611d33565b91505092915050565b600060208284031215611f3057600080fd5b6000611f3e84828501611d48565b91505092915050565b600060208284031215611f5957600080fd5b6000611f6784828501611db1565b91505092915050565b60008060408385031215611f8357600080fd5b6000611f9185828601611db1565b925050602083013567ffffffffffffffff811115611fae57600080fd5b611fba85828601611d87565b9150509250929050565b611fcd81612391565b82525050565b611fe4611fdf82612391565b612479565b82525050565b611ff3816123a3565b82525050565b612002816123af565b82525050565b6000612013826122c4565b61201d81856122da565b935061202d818560208601612414565b6120368161252a565b840191505092915050565b600061204c826122cf565b61205681856122eb565b9350612066818560208601612414565b61206f8161252a565b840191505092915050565b60006120876000836122da565b9150600082019050919050565b60006120a16000836122fc565b9150600082019050919050565b6120b7816123fb565b82525050565b60006120c98284611fd3565b60148201915081905092915050565b60006120e382612094565b9150819050919050565b60006020820190506121026000830184611fc4565b92915050565b600060808201905061211d6000830187611fc4565b61212a6020830186611fc4565b61213760408301856120ae565b81810360608301526121498184612008565b905095945050505050565b60006080820190506121696000830186611fc4565b6121766020830185611fc4565b61218360408301846120ae565b81810360608301526121948161207a565b9050949350505050565b60006020820190506121b36000830184611fea565b92915050565b60006020820190506121ce6000830184611ff9565b92915050565b600060208201905081810360008301526121ee8184612008565b905092915050565b600060208201905081810360008301526122108184612041565b905092915050565b600060208201905061222d60008301846120ae565b92915050565b6000604051905081810181811067ffffffffffffffff8211171561225a576122596124fb565b5b8060405250919050565b600067ffffffffffffffff82111561227f5761227e6124fb565b5b601f19601f8301169050602081019050919050565b600067ffffffffffffffff8211156122af576122ae6124fb565b5b601f19601f8301169050602081019050919050565b600081519050919050565b600081519050919050565b600082825260208201905092915050565b600082825260208201905092915050565b600081905092915050565b6000612312826123fb565b915061231d836123fb565b9250827fffffffffffffffffffffffffffffffffffffffffffffffffffffffffffffffff038211156123525761235161249d565b5b828201905092915050565b6000612368826123fb565b9150612373836123fb565b9250828210156123865761238561249d565b5b828203905092915050565b600061239c826123db565b9050919050565b60008115159050919050565b60007fffffffff0000000000000000000000000000000000000000000000000000000082169050919050565b600073ffffffffffffffffffffffffffffffffffffffff82169050919050565b6000819050919050565b82818337600083830152505050565b60005b83811015612432578082015181840152602081019050612417565b83811115612441576000848401525b50505050565b6000600282049050600182168061245f57607f821691505b60208210811415612473576124726124cc565b5b50919050565b60006124848261248b565b9050919050565b60006124968261253b565b9050919050565b7f4e487b7100000000000000000000000000000000000000000000000000000000600052601160045260246000fd5b7f4e487b7100000000000000000000000000000000000000000000000000000000600052602260045260246000fd5b7f4e487b7100000000000000000000000000000000000000000000000000000000600052604160045260246000fd5b6000601f19601f8301169050919050565b60008160601b9050919050565b61255181612391565b811461255c57600080fd5b50565b612568816123af565b811461257357600080fd5b50565b61257f816123fb565b811461258a57600080fd5b5056fea2646970667358221220a09b213e116a13e3defe8f7beba71946ebdc7cbff64e6680009fe5043536bb3b64736f6c63430008000033",
  "immutableReferences": {},
  "source": "// SPDX-License-Identifier: MIT\r\n\r\n// based on https://github.com/ConsenSys/artifaqt/blob/master/contract/contracts/eip721\r\n// Use for educational purposes only // without approval functions\r\n\r\n// Source from Web3Examples: https://github.com/web3examples/ethereum/blob/master/token_examples/VeryBasicNFT_sol6.sol\r\n// Updated for Sol 0.8.0\r\npragma solidity ^0.8.0;\r\n\r\ncontract EIP721 {  \r\n    event Transfer(address indexed _from, address indexed _to, uint256 indexed _tokenId);\r\n\r\n    string public  name;\r\n    string public  symbol;\r\n    address public  admin;\r\n    uint256 public  counter = 10;\r\n    uint256[]                      internal allTokens; \r\n    mapping(uint256 => uint256)    internal allTokensIndex;      \r\n    mapping(address => uint256[])  internal ownedTokens;  \r\n    mapping(uint256 => uint256)    internal ownedTokensIndex;     \r\n    mapping(uint256 => address)    internal ownerOfToken;\r\n    mapping(uint256 => string)     internal tokenURIs; \r\n    \r\n    address public receivedOperator;    // public to easily check\r\n    address public receivedFrom;        // public to easily check\r\n    uint256 public receivedTokenId;     // public to easily check\r\n    bytes   public receivedData;        // public to easily check\r\n    bytes4 internal constant ERC721_BASE_INTERFACE_SIGNATURE = 0x80ac58cd;\r\n    bytes4 internal constant ERC721_METADATA_INTERFACE_SIGNATURE = 0x5b5e139f;\r\n    bytes4 internal constant ERC721_ENUMERABLE_INTERFACE_SIGNATURE = 0x780e9d63;\r\n    bytes4 internal constant ONERC721RECEIVED_FUNCTION_SIGNATURE = 0x150b7a02;\r\n\r\n    // Original code\r\n    // modifier tokenExists(uint256 _tokenId) {\r\n    //     require(uint256(ownerOfToken[_tokenId]) != 0);\r\n    //     _;\r\n    // }\r\n    \r\n    // Updated for Sol 0.8.0 https://docs.soliditylang.org/en/v0.8.0/080-breaking-changes.html#how-to-update-your-code \r\n    modifier tokenExists(uint256 _tokenId) {\r\n        require(keccak256(abi.encodePacked(ownerOfToken[_tokenId])) != keccak256(abi.encodePacked(\"\")));\r\n        _;\r\n    }\r\n    constructor (string memory _name, string memory _symbol) {\r\n        admin = msg.sender;\r\n        name = _name;\r\n        symbol = _symbol;\r\n    }\r\n    function onERC721Received(address _operator, address _from, uint256 _tokenId, bytes memory _data) public returns(bytes4) {\r\n        receivedOperator = _operator;\r\n        receivedFrom     = _from;\r\n        receivedTokenId  = _tokenId;\r\n        receivedData     = _data;\r\n        return ONERC721RECEIVED_FUNCTION_SIGNATURE;    \r\n    } \r\n    // Original code\r\n    // modifier allowedToTransfer(address _from, address _to, uint256 _tokenId) {\r\n    //     require(ownerOfToken[_tokenId] == _from);\r\n    //     require(uint256(_to) != 0); //not allowed to burn in transfer method\r\n    //     _;\r\n    // }\r\n    \r\n    // Updated for Sol 0.8.0\r\n    modifier allowedToTransfer(address _from, address _to, uint256 _tokenId) {\r\n        require(ownerOfToken[_tokenId] == _from);\r\n        require(keccak256(abi.encodePacked(_to)) != keccak256(abi.encodePacked(\"\"))); //not allowed to burn in transfer method\r\n        _;\r\n    }\r\n    function transferFrom(address _from, address _to, uint256 _tokenId) public payable\r\n    tokenExists(_tokenId)\r\n    allowedToTransfer(_from, _to, _tokenId) {       \r\n        settleTransfer(_from, _to, _tokenId);\r\n    }\r\n    function safeTransferFrom(address _from, address _to, uint256 _tokenId, bytes memory data) public payable\r\n    tokenExists(_tokenId)\r\n    allowedToTransfer(_from, _to, _tokenId) {\r\n        settleTransfer(_from, _to, _tokenId);\r\n        uint256 size;\r\n        assembly { size := extcodesize(_to) }  // solhint-disable-line no-inline-assembly\r\n        if (size > 0) {\r\n            require(EIP721(_to).onERC721Received(msg.sender, _from, _tokenId, data) == ONERC721RECEIVED_FUNCTION_SIGNATURE);\r\n        }\r\n    }\r\n    function safeTransferFrom(address _from, address _to, uint256 _tokenId) public payable\r\n    tokenExists(_tokenId)\r\n    allowedToTransfer(_from, _to, _tokenId) {\r\n        settleTransfer(_from, _to, _tokenId);\r\n        uint256 size;\r\n        assembly { size := extcodesize(_to) }  // solhint-disable-line no-inline-assembly\r\n        if (size > 0) {\r\n            require(EIP721(_to).onERC721Received(msg.sender, _from, _tokenId, \"\") == ONERC721RECEIVED_FUNCTION_SIGNATURE);\r\n        }\r\n    }\r\n    function totalSupply() public view returns (uint256) {\r\n        return allTokens.length;\r\n    }\r\n    function ownerOf(uint256 _tokenId) external view\r\n    tokenExists(_tokenId) returns (address) {\r\n        return ownerOfToken[_tokenId];\r\n    }\r\n    function tokenByIndex(uint256 _index) external view returns (uint256) {\r\n        require(_index < allTokens.length);\r\n        return allTokens[_index];\r\n    }\r\n    function tokenOfOwnerByIndex(address _owner, uint256 _index) external view\r\n    tokenExists(_tokenId) returns (uint256 _tokenId) {\r\n        require(_index < ownedTokens[_owner].length);\r\n        return ownedTokens[_owner][_index];\r\n    }\r\n    // Original code\r\n    // function balanceOf(address _owner) external view returns (uint256) {\r\n    //     require(uint256(_owner) != 0);\r\n    //     return ownedTokens[_owner].length;\r\n    // }\r\n    \r\n    // Updated for Sol 0.8.0\r\n    function balanceOf(address _owner) external view returns (uint256) {\r\n        require(keccak256(abi.encodePacked(_owner)) != keccak256(abi.encodePacked(\"\")));\r\n        return ownedTokens[_owner].length;\r\n    }\r\n    function tokenURI(uint256 _tokenId) external view returns (string memory) {\r\n        return tokenURIs[_tokenId];\r\n    }\r\n    function supportsInterface(bytes4 interfaceID) external pure returns (bool) {\r\n        if (interfaceID == ERC721_BASE_INTERFACE_SIGNATURE ||\r\n        interfaceID == ERC721_METADATA_INTERFACE_SIGNATURE ||\r\n        interfaceID == ERC721_ENUMERABLE_INTERFACE_SIGNATURE) {\r\n            return true;\r\n        } else { return false; }\r\n    }\r\n    function settleTransfer(address _from, address _to, uint256 _tokenId) internal {\r\n        removeToken(_from, _tokenId);\r\n        addToken(_to, _tokenId);\r\n        emit Transfer(_from, _to, _tokenId);\r\n    }\r\n    function addToken(address _to, uint256 _tokenId) internal {\r\n        allTokens.push(_tokenId);\r\n        allTokensIndex[_tokenId] = allTokens.length-1;\r\n        ownerOfToken[_tokenId] = _to;        \r\n        ownedTokens[_to].push(_tokenId);\r\n        ownedTokensIndex[_tokenId] = ownedTokens[_to].length-1;\r\n    }\r\n    function removeToken(address _from, uint256 _tokenId) internal {\r\n        uint256 allIndex = allTokensIndex[_tokenId];\r\n        uint256 allTokensLength = allTokens.length;\r\n        allTokens[allIndex] = allTokens[allTokensLength - 1];\r\n        allTokensIndex[allTokens[allTokensLength-1]] = allIndex;\r\n        \r\n        allTokens.pop();\r\n        \r\n        uint256 ownerIndex = ownedTokensIndex[_tokenId];\r\n        uint256 ownerLength = ownedTokens[_from].length;\r\n        ownedTokens[_from][ownerIndex] = ownedTokens[_from][ownerLength-1];\r\n        ownedTokensIndex[ownedTokens[_from][ownerLength-1]] = ownerIndex;\r\n        ownedTokens[_from].pop();\r\n        \r\n        delete ownerOfToken[_tokenId];\r\n    }\r\n    function createToken(address _minter) public {\r\n        require(msg.sender == admin);\r\n        addToken(_minter, counter);\r\n        emit Transfer(address(0), _minter, counter);\r\n        counter += 1; // every new token gets a new ID\r\n    }\r\n    function burnToken(uint256 _tokenId) public {\r\n        require(ownerOfToken[_tokenId] == msg.sender); //token should be in control of owner\r\n        removeToken(msg.sender, _tokenId);\r\n        emit Transfer(msg.sender, address(0), _tokenId);\r\n    }\r\n    function setTokenURI(uint256 _tokenID, string memory URI) public {\r\n        require(msg.sender == admin);\r\n        tokenURIs[_tokenID] = URI;\r\n    }\r\n}\r\n",
  "sourcePath": "D:/HHS/Jaar 4 Minor/IT Deel Minor/Assignments/PD-8/contracts/ERC721_BlueEyesWhiteDragonNFT.sol",
  "compiler": {
    "name": "solc",
    "version": "0.8.0+commit.c7dfd78e.Emscripten.clang"
  },
  "schemaVersion": "3.3.2",
  "updatedAt": "2021-01-04T20:41:49.584Z",
  "devdoc": {
    "kind": "dev",
    "methods": {},
    "version": 1
  },
  "userdoc": {
    "kind": "user",
    "methods": {},
    "version": 1
  }
}