{
  "contractName": "HeroFactory",
  "abi": [
    {
      "anonymous": false,
      "inputs": [
        {
          "indexed": false,
          "internalType": "uint256",
          "name": "heroId",
          "type": "uint256"
        },
        {
          "indexed": false,
          "internalType": "string",
          "name": "name",
          "type": "string"
        }
      ],
      "name": "newHero",
      "type": "event"
    },
    {
      "inputs": [
        {
          "internalType": "address",
          "name": "sender",
          "type": "address"
        }
      ],
      "name": "getHero",
      "outputs": [
        {
          "components": [
            {
              "internalType": "string",
              "name": "name",
              "type": "string"
            },
            {
              "internalType": "uint256",
              "name": "power",
              "type": "uint256"
            },
            {
              "internalType": "uint256",
              "name": "health",
              "type": "uint256"
            },
            {
              "internalType": "uint256",
              "name": "bank",
              "type": "uint256"
            }
          ],
          "internalType": "struct Hero",
          "name": "",
          "type": "tuple"
        }
      ],
      "stateMutability": "view",
      "type": "function",
      "constant": true
    },
    {
      "inputs": [],
      "name": "getHeroes",
      "outputs": [
        {
          "components": [
            {
              "internalType": "string",
              "name": "name",
              "type": "string"
            },
            {
              "internalType": "uint256",
              "name": "power",
              "type": "uint256"
            },
            {
              "internalType": "uint256",
              "name": "health",
              "type": "uint256"
            },
            {
              "internalType": "uint256",
              "name": "bank",
              "type": "uint256"
            }
          ],
          "internalType": "struct Hero[]",
          "name": "",
          "type": "tuple[]"
        }
      ],
      "stateMutability": "view",
      "type": "function",
      "constant": true
    },
    {
      "inputs": [
        {
          "internalType": "string",
          "name": "_name",
          "type": "string"
        },
        {
          "internalType": "address",
          "name": "sender",
          "type": "address"
        }
      ],
      "name": "createHero",
      "outputs": [],
      "stateMutability": "nonpayable",
      "type": "function"
    }
  ],
  "bytecode": "0x608060405234801561001057600080fd5b50610f5b806100206000396000f3fe608060405234801561001057600080fd5b50600436106100415760003560e01c806327df259a146100465780639a8d288214610076578063deb786c414610094575b600080fd5b610060600480360381019061005b91906107d4565b6100b0565b60405161006d9190610b7d565b60405180910390f35b61007e610249565b60405161008b9190610b1b565b60405180910390f35b6100ae60048036038101906100a991906107fd565b6103a0565b005b6100b861068c565b600060078054905011610100576040517f08c379a00000000000000000000000000000000000000000000000000000000081526004016100f790610b3d565b60405180910390fd5b6007600160008473ffffffffffffffffffffffffffffffffffffffff1673ffffffffffffffffffffffffffffffffffffffff1681526020019081526020016000205481548110610179577f4e487b7100000000000000000000000000000000000000000000000000000000600052603260045260246000fd5b90600052602060002090600402016040518060800160405290816000820180546101a290610d5a565b80601f01602080910402602001604051908101604052809291908181526020018280546101ce90610d5a565b801561021b5780601f106101f05761010080835404028352916020019161021b565b820191906000526020600020905b8154815290600101906020018083116101fe57829003601f168201915b5050505050815260200160018201548152602001600282015481526020016003820154815250509050919050565b6060600060078054905011610293576040517f08c379a000000000000000000000000000000000000000000000000000000000815260040161028a90610b3d565b60405180910390fd5b6007805480602002602001604051908101604052809291908181526020016000905b8282101561039757838290600052602060002090600402016040518060800160405290816000820180546102e890610d5a565b80601f016020809104026020016040519081016040528092919081815260200182805461031490610d5a565b80156103615780601f1061033657610100808354040283529160200191610361565b820191906000526020600020905b81548152906001019060200180831161034457829003601f168201915b505050505081526020016001820154815260200160028201548152602001600382015481525050815260200190600101906102b5565b50505050905090565b6000600260008373ffffffffffffffffffffffffffffffffffffffff1673ffffffffffffffffffffffffffffffffffffffff1681526020019081526020016000205414610422576040517f08c379a000000000000000000000000000000000000000000000000000000000815260040161041990610b5d565b60405180910390fd5b61042c8282610430565b5050565b6007604051806080016040528084815260200161044b610606565b8152602001610458610649565b81526020016000815250908060018154018082558091505060019003906000526020600020906004020160009091909190915060008201518160000190805190602001906104a79291906106b4565b506020820151816001015560408201518160020155606082015181600301555050600060016007805490506104dc9190610c96565b90508160008083815260200190815260200160002060006101000a81548173ffffffffffffffffffffffffffffffffffffffff021916908373ffffffffffffffffffffffffffffffffffffffff16021790555080600160008473ffffffffffffffffffffffffffffffffffffffff1673ffffffffffffffffffffffffffffffffffffffff16815260200190815260200160002081905550600260008373ffffffffffffffffffffffffffffffffffffffff1673ffffffffffffffffffffffffffffffffffffffff16815260200190815260200160002060008154809291906105c390610d8c565b91905055507fe091168a421f352d46fe9eafce51f4d2bce03324348c1d1d6f9bb1283d60bed681846040516105f9929190610b9f565b60405180910390a1505050565b6000620186a042444160405160200161062193929190610ade565b6040516020818303038152906040528051906020012060001c6106449190610e03565b905090565b60006298968042444160405160200161066493929190610ade565b6040516020818303038152906040528051906020012060001c6106879190610e03565b905090565b6040518060800160405280606081526020016000815260200160008152602001600081525090565b8280546106c090610d5a565b90600052602060002090601f0160209004810192826106e25760008555610729565b82601f106106fb57805160ff1916838001178555610729565b82800160010185558215610729579182015b8281111561072857825182559160200191906001019061070d565b5b509050610736919061073a565b5090565b5b8082111561075357600081600090555060010161073b565b5090565b600061076a61076584610c00565b610bcf565b90508281526020810184848401111561078257600080fd5b61078d848285610d18565b509392505050565b6000813590506107a481610f0e565b92915050565b600082601f8301126107bb57600080fd5b81356107cb848260208601610757565b91505092915050565b6000602082840312156107e657600080fd5b60006107f484828501610795565b91505092915050565b6000806040838503121561081057600080fd5b600083013567ffffffffffffffff81111561082a57600080fd5b610836858286016107aa565b925050602061084785828601610795565b9150509250929050565b600061085d83836109e3565b905092915050565b61087661087182610cdc565b610dd5565b82525050565b600061088782610c40565b6108918185610c63565b9350836020820285016108a385610c30565b8060005b858110156108df57848403895281516108c08582610851565b94506108cb83610c56565b925060208a019950506001810190506108a7565b50829750879550505050505092915050565b60006108fc82610c4b565b6109068185610c74565b9350610916818560208601610d27565b61091f81610ef0565b840191505092915050565b600061093582610c4b565b61093f8185610c85565b935061094f818560208601610d27565b61095881610ef0565b840191505092915050565b6000610970601f83610c85565b91507f4e6f206865726f657320617661696c61626c6520666f72206c6f6f6b75702e006000830152602082019050919050565b60006109b0601b83610c85565b91507f596f7520616c726561647920637265617465642061206865726f2100000000006000830152602082019050919050565b60006080830160008301518482036000860152610a0082826108f1565b9150506020830151610a156020860182610aa9565b506040830151610a286040860182610aa9565b506060830151610a3b6060860182610aa9565b508091505092915050565b60006080830160008301518482036000860152610a6382826108f1565b9150506020830151610a786020860182610aa9565b506040830151610a8b6040860182610aa9565b506060830151610a9e6060860182610aa9565b508091505092915050565b610ab281610d0e565b82525050565b610ac181610d0e565b82525050565b610ad8610ad382610d0e565b610df9565b82525050565b6000610aea8286610ac7565b602082019150610afa8285610ac7565b602082019150610b0a8284610865565b601482019150819050949350505050565b60006020820190508181036000830152610b35818461087c565b905092915050565b60006020820190508181036000830152610b5681610963565b9050919050565b60006020820190508181036000830152610b76816109a3565b9050919050565b60006020820190508181036000830152610b978184610a46565b905092915050565b6000604082019050610bb46000830185610ab8565b8181036020830152610bc6818461092a565b90509392505050565b6000604051905081810181811067ffffffffffffffff82111715610bf657610bf5610ec1565b5b8060405250919050565b600067ffffffffffffffff821115610c1b57610c1a610ec1565b5b601f19601f8301169050602081019050919050565b6000819050602082019050919050565b600081519050919050565b600081519050919050565b6000602082019050919050565b600082825260208201905092915050565b600082825260208201905092915050565b600082825260208201905092915050565b6000610ca182610d0e565b9150610cac83610d0e565b925082821015610cbf57610cbe610e34565b5b828203905092915050565b6000610cd582610cee565b9050919050565b6000610ce782610cee565b9050919050565b600073ffffffffffffffffffffffffffffffffffffffff82169050919050565b6000819050919050565b82818337600083830152505050565b60005b83811015610d45578082015181840152602081019050610d2a565b83811115610d54576000848401525b50505050565b60006002820490506001821680610d7257607f821691505b60208210811415610d8657610d85610e92565b5b50919050565b6000610d9782610d0e565b91507fffffffffffffffffffffffffffffffffffffffffffffffffffffffffffffffff821415610dca57610dc9610e34565b5b600182019050919050565b6000610de082610de7565b9050919050565b6000610df282610f01565b9050919050565b6000819050919050565b6000610e0e82610d0e565b9150610e1983610d0e565b925082610e2957610e28610e63565b5b828206905092915050565b7f4e487b7100000000000000000000000000000000000000000000000000000000600052601160045260246000fd5b7f4e487b7100000000000000000000000000000000000000000000000000000000600052601260045260246000fd5b7f4e487b7100000000000000000000000000000000000000000000000000000000600052602260045260246000fd5b7f4e487b7100000000000000000000000000000000000000000000000000000000600052604160045260246000fd5b6000601f19601f8301169050919050565b60008160601b9050919050565b610f1781610cca565b8114610f2257600080fd5b5056fea2646970667358221220b6768f0741a25fd576c70d81d28e9cf32948bb4341cd252798458a46f053b5d364736f6c63430008000033",
  "immutableReferences": {},
  "source": "// SPDX-License-Identifier: MIT\r\npragma solidity >=0.8.0;\r\n\r\nimport './SimpleFactory.sol';\r\n\r\n/// @dev struct defined here to allow code re-usage: https://docs.soliditylang.org/en/v0.8.0/types.html#structs \r\n/// this model will be used as hero throughout the app\r\nstruct Hero {\r\n    string name;\r\n    uint256 power;\r\n    uint256 health;\r\n    uint256 bank;\r\n}\r\n\r\n/// @title Ormr, Man vs. Dragon\r\n/// @author github@ToFat4Fun\r\n/// @notice Responsible for creating the hero our players can play with!\r\n/// @dev Working with solidity v0.8.0, creates heroes\r\ncontract HeroFactory is SimpleFactory {\r\n\r\n    /// @dev emits a newly created hero\r\n    event newHero(uint256 heroId, string name);\r\n\r\n    /// @dev these mappings allow linking and looking up heroes that are stored in the contract\r\n    /// with the address of users. OwnerToHeroCount enforces a maximum number of heroes per address\r\n    mapping(uint256 => address) heroToOwner;\r\n    mapping(address => uint256) heroLookup;\r\n    mapping(address => uint256) ownerHeroCount;\r\n\r\n    /// @dev determine the maximum length of power and health\r\n    uint256 constant heroPowerModulus = 10**5;\r\n    uint256 constant heroHealthModulus = 10**7;\r\n    Hero hero;\r\n\r\n    /// @dev keep a list of all existing heroes in the contract.\r\n    Hero[] heroes;\r\n    \r\n    /// @param sender address of the person interacting with the contract\r\n    /// @return hero object that corresponds with the given sender address\r\n    function getHero(address sender) public view returns (Hero memory) {\r\n        require((heroes.length > 0), \"No heroes available for lookup.\"); \r\n        return heroes[heroLookup[sender]];\r\n    }\r\n\r\n    /// @return array of all heroes in the contract\r\n    function getHeroes() public view returns (Hero[] memory) {\r\n        require((heroes.length > 0), \"No heroes available for lookup.\");\r\n        return heroes;\r\n    }\r\n\r\n    /// @dev Internal function which creates the hero.\r\n    /// @param _name the hero name submitted by the user\r\n    /// @param sender the user's address which we use to link the user and the hero\r\n    function _createHero(string memory _name, address sender) internal {\r\n        heroes.push(\r\n            Hero({\r\n                name: _name,\r\n                power: randomPower(),\r\n                health: randomHealth(),\r\n                bank: 0\r\n            })\r\n        ); // Default hero power, health and bank.\r\n        uint256 id = heroes.length - 1; // Different syntax because: https://docs.soliditylang.org/en/v0.6.0/060-breaking-changes.html#how-to-update-your-code\r\n        heroToOwner[id] = sender; // Assign the hero we just created to the owner's address using the mapping.\r\n        heroLookup[sender] = id; // Assign the address calling the method with the hero array index, enabling lookup from address.\r\n        ownerHeroCount[sender]++; // Increase the count which tracks how many heroes are owned by an address.\r\n        emit newHero(id, _name);\r\n    }\r\n\r\n    /// @dev The player interacts with the contract through this method to create a hero, which checks if they already have a hero.\r\n    /// @param _name name submitted by the user\r\n    /// @param sender the user's address which we use to check if a user already has a hero\r\n    function createHero(string memory _name, address sender) public {\r\n        require((ownerHeroCount[sender] == 0), \"You already created a hero!\");\r\n        _createHero(_name, sender);\r\n    }\r\n\r\n    /// @dev Semi-Random number generator.Determines heropower\r\n    /// @return returns hero power\r\n    function randomPower() internal view override returns (uint256) {\r\n        return uint256(keccak256(abi.encodePacked(block.timestamp, block.difficulty, block.coinbase))) % heroPowerModulus;\r\n    }\r\n\r\n    /// @dev Semi-Random number generator.Determines herohealth\r\n    /// @return returns hero health\r\n    function randomHealth() internal view override returns (uint256) {\r\n        return uint256(keccak256(abi.encodePacked(block.timestamp, block.difficulty, block.coinbase))) % heroHealthModulus;\r\n    }\r\n}\r\n",
  "sourcePath": "D:\\HHS\\Jaar 4 Minor\\IT Deel Minor\\Assignments\\PD-8\\contracts\\HeroFactory.sol",
  "compiler": {
    "name": "solc",
    "version": "0.8.0+commit.c7dfd78e.Emscripten.clang"
  },
  "schemaVersion": "3.3.2",
  "updatedAt": "2021-01-08T12:53:57.345Z",
  "networkType": "ethereum",
  "devdoc": {
    "author": "github@ToFat4Fun",
    "details": "Working with solidity v0.8.0, creates heroes",
    "events": {
      "newHero(uint256,string)": {
        "details": "emits a newly created hero"
      }
    },
    "kind": "dev",
    "methods": {
      "createHero(string,address)": {
        "details": "The player interacts with the contract through this method to create a hero, which checks if they already have a hero.",
        "params": {
          "_name": "name submitted by the user",
          "sender": "the user's address which we use to check if a user already has a hero"
        }
      },
      "getHero(address)": {
        "params": {
          "sender": "address of the person interacting with the contract"
        },
        "returns": {
          "_0": "hero object that corresponds with the given sender address"
        }
      },
      "getHeroes()": {
        "returns": {
          "_0": "array of all heroes in the contract"
        }
      }
    },
    "stateVariables": {
      "heroPowerModulus": {
        "details": "determine the maximum length of power and health"
      },
      "heroToOwner": {
        "details": "these mappings allow linking and looking up heroes that are stored in the contract with the address of users. OwnerToHeroCount enforces a maximum number of heroes per address"
      },
      "heroes": {
        "details": "keep a list of all existing heroes in the contract."
      }
    },
    "title": "Ormr, Man vs. Dragon",
    "version": 1
  },
  "userdoc": {
    "kind": "user",
    "methods": {},
    "notice": "Responsible for creating the hero our players can play with!",
    "version": 1
  }
}