{
  "contractName": "Ormr",
  "abi": [
    {
      "anonymous": false,
      "inputs": [
        {
          "indexed": false,
          "internalType": "string",
          "name": "",
          "type": "string"
        }
      ],
      "name": "encounterResult",
      "type": "event"
    },
    {
      "anonymous": false,
      "inputs": [
        {
          "indexed": false,
          "internalType": "string",
          "name": "",
          "type": "string"
        }
      ],
      "name": "ownerSaysResponse",
      "type": "event"
    },
    {
      "inputs": [],
      "name": "DF",
      "outputs": [
        {
          "internalType": "contract DragonFactory",
          "name": "",
          "type": "address"
        }
      ],
      "stateMutability": "view",
      "type": "function"
    },
    {
      "inputs": [],
      "name": "HF",
      "outputs": [
        {
          "internalType": "contract HeroFactory",
          "name": "",
          "type": "address"
        }
      ],
      "stateMutability": "view",
      "type": "function"
    },
    {
      "inputs": [],
      "name": "initialize",
      "outputs": [],
      "stateMutability": "nonpayable",
      "type": "function"
    },
    {
      "inputs": [],
      "name": "getOwner",
      "outputs": [
        {
          "internalType": "address",
          "name": "",
          "type": "address"
        }
      ],
      "stateMutability": "view",
      "type": "function"
    },
    {
      "inputs": [],
      "name": "ownerSays",
      "outputs": [],
      "stateMutability": "nonpayable",
      "type": "function"
    },
    {
      "inputs": [
        {
          "internalType": "string",
          "name": "_name",
          "type": "string"
        }
      ],
      "name": "createHero",
      "outputs": [],
      "stateMutability": "nonpayable",
      "type": "function"
    },
    {
      "inputs": [],
      "name": "getHero",
      "outputs": [
        {
          "components": [
            {
              "internalType": "string",
              "name": "name",
              "type": "string"
            },
            {
              "internalType": "uint256",
              "name": "power",
              "type": "uint256"
            },
            {
              "internalType": "uint256",
              "name": "health",
              "type": "uint256"
            },
            {
              "internalType": "uint256",
              "name": "bank",
              "type": "uint256"
            }
          ],
          "internalType": "struct Hero",
          "name": "",
          "type": "tuple"
        }
      ],
      "stateMutability": "view",
      "type": "function"
    },
    {
      "inputs": [],
      "name": "getHeroes",
      "outputs": [
        {
          "components": [
            {
              "internalType": "string",
              "name": "name",
              "type": "string"
            },
            {
              "internalType": "uint256",
              "name": "power",
              "type": "uint256"
            },
            {
              "internalType": "uint256",
              "name": "health",
              "type": "uint256"
            },
            {
              "internalType": "uint256",
              "name": "bank",
              "type": "uint256"
            }
          ],
          "internalType": "struct Hero[]",
          "name": "",
          "type": "tuple[]"
        }
      ],
      "stateMutability": "view",
      "type": "function"
    },
    {
      "inputs": [],
      "name": "createDragon",
      "outputs": [],
      "stateMutability": "nonpayable",
      "type": "function"
    },
    {
      "inputs": [],
      "name": "getDragon",
      "outputs": [
        {
          "components": [
            {
              "internalType": "string",
              "name": "name",
              "type": "string"
            },
            {
              "internalType": "address",
              "name": "id",
              "type": "address"
            },
            {
              "internalType": "uint256",
              "name": "power",
              "type": "uint256"
            },
            {
              "internalType": "uint256",
              "name": "health",
              "type": "uint256"
            },
            {
              "internalType": "uint256",
              "name": "goldReward",
              "type": "uint256"
            }
          ],
          "internalType": "struct Dragon",
          "name": "",
          "type": "tuple"
        }
      ],
      "stateMutability": "view",
      "type": "function"
    },
    {
      "inputs": [],
      "name": "startEncounter",
      "outputs": [],
      "stateMutability": "nonpayable",
      "type": "function"
    },
    {
      "inputs": [
        {
          "internalType": "bytes",
          "name": "input",
          "type": "bytes"
        }
      ],
      "name": "convertToUint",
      "outputs": [
        {
          "internalType": "uint256",
          "name": "",
          "type": "uint256"
        }
      ],
      "stateMutability": "pure",
      "type": "function"
    },
    {
      "inputs": [],
      "name": "callOracleRandom",
      "outputs": [],
      "stateMutability": "payable",
      "type": "function"
    },
    {
      "inputs": [],
      "name": "getTempUint",
      "outputs": [
        {
          "internalType": "uint256",
          "name": "",
          "type": "uint256"
        }
      ],
      "stateMutability": "view",
      "type": "function"
    },
    {
      "inputs": [],
      "name": "getTemp",
      "outputs": [
        {
          "internalType": "bytes",
          "name": "",
          "type": "bytes"
        }
      ],
      "stateMutability": "view",
      "type": "function"
    }
  ],
  "bytecode": "0x608060405234801561001057600080fd5b50615cc4806100206000396000f3fe6080604052600436106100e85760003560e01c806378242aaf1161008a5780639a8d2882116100595780639a8d28821461028d5780639e01b853146102b8578063b1185244146102cf578063b7ed99d6146102fa576100e8565b806378242aaf146101f75780638129fc1c14610220578063893d20e8146102375780639525256014610262576100e8565b80636823af76116100c65780636823af761461016e5780636865856c146101995780636919b8f2146101d65780636a944435146101ed576100e8565b806305a91f7b146100ed57806307b8163c14610118578063581bee2f14610143575b600080fd5b3480156100f957600080fd5b50610102610311565b60405161010f9190611aa4565b60405180910390f35b34801561012457600080fd5b5061012d610337565b60405161013a9190611c10565b60405180910390f35b34801561014f57600080fd5b506101586103f0565b6040516101659190611bee565b60405180910390f35b34801561017a57600080fd5b506101836104ad565b6040516101909190611abf565b60405180910390f35b3480156101a557600080fd5b506101c060048036038101906101bb9190611433565b6104d3565b6040516101cd9190611c10565b60405180910390f35b3480156101e257600080fd5b506101eb61055e565b005b6101f5610625565b005b34801561020357600080fd5b5061021e600480360381019061021991906114b5565b6106aa565b005b34801561022c57600080fd5b5061023561073c565b005b34801561024357600080fd5b5061024c6109b4565b6040516102599190611a45565b60405180910390f35b34801561026e57600080fd5b506102776109de565b6040516102849190611a82565b60405180910390f35b34801561029957600080fd5b506102a2610a8a565b6040516102af9190611a60565b60405180910390f35b3480156102c457600080fd5b506102cd610b36565b005b3480156102db57600080fd5b506102e4610c95565b6040516102f19190611bcc565b60405180910390f35b34801561030657600080fd5b5061030f610d47565b005b603460009054906101000a900473ffffffffffffffffffffffffffffffffffffffff1681565b600080603560009054906101000a900473ffffffffffffffffffffffffffffffffffffffff1673ffffffffffffffffffffffffffffffffffffffff1663952525606040518163ffffffff1660e01b815260040160006040518083038186803b1580156103a257600080fd5b505afa1580156103b6573d6000803e3d6000fd5b505050506040513d6000823e3d601f19601f820116820180604052508101906103df9190611474565b90506103ea816104d3565b91505090565b6103f8610fe1565b603360009054906101000a900473ffffffffffffffffffffffffffffffffffffffff1673ffffffffffffffffffffffffffffffffffffffff166327df259a336040518263ffffffff1660e01b81526004016104539190611a45565b60006040518083038186803b15801561046b57600080fd5b505afa15801561047f573d6000803e3d6000fd5b505050506040513d6000823e3d601f19601f820116820180604052508101906104a89190611537565b905090565b603360009054906101000a900473ffffffffffffffffffffffffffffffffffffffff1681565b6000806000905060005b83518110156105545783818151811061051f577f4e487b7100000000000000000000000000000000000000000000000000000000600052603260045260246000fd5b602001015160f81c60f81b60f81c60ff16600883901b61053f9190611d75565b9150808061054c90611e91565b9150506104dd565b5080915050919050565b603660009054906101000a900473ffffffffffffffffffffffffffffffffffffffff1673ffffffffffffffffffffffffffffffffffffffff163373ffffffffffffffffffffffffffffffffffffffff16146105ee576040517f08c379a00000000000000000000000000000000000000000000000000000000081526004016105e590611bac565b60405180910390fd5b7f1b3ee9d10bc43f5084c1fedd500eb67ec732a4fe06f503678c502d02f5192f5560405161061b90611b2c565b60405180910390a1565b603560009054906101000a900473ffffffffffffffffffffffffffffffffffffffff1673ffffffffffffffffffffffffffffffffffffffff166313fdba3c346040518263ffffffff1660e01b81526004016000604051808303818588803b15801561068f57600080fd5b505af11580156106a3573d6000803e3d6000fd5b5050505050565b603360009054906101000a900473ffffffffffffffffffffffffffffffffffffffff1673ffffffffffffffffffffffffffffffffffffffff1663deb786c482336040518363ffffffff1660e01b8152600401610707929190611afc565b600060405180830381600087803b15801561072157600080fd5b505af1158015610735573d6000803e3d6000fd5b5050505050565b600060019054906101000a900460ff168061075b575061075a610dcb565b5b80610771575060008054906101000a900460ff16155b6107b0576040517f08c379a00000000000000000000000000000000000000000000000000000000081526004016107a790611b4c565b60405180910390fd5b60008060019054906101000a900460ff161590508015610800576001600060016101000a81548160ff02191690831515021790555060016000806101000a81548160ff0219169083151502179055505b60405161080c90611009565b604051809103906000f080158015610828573d6000803e3d6000fd5b50603360006101000a81548173ffffffffffffffffffffffffffffffffffffffff021916908373ffffffffffffffffffffffffffffffffffffffff16021790555060405161087590611016565b604051809103906000f080158015610891573d6000803e3d6000fd5b50603460006101000a81548173ffffffffffffffffffffffffffffffffffffffff021916908373ffffffffffffffffffffffffffffffffffffffff1602179055506040516108de90611023565b604051809103906000f0801580156108fa573d6000803e3d6000fd5b50603560006101000a81548173ffffffffffffffffffffffffffffffffffffffff021916908373ffffffffffffffffffffffffffffffffffffffff1602179055507385e7ce82af8565d3d9583a75e063de8abbf98f64603660006101000a81548173ffffffffffffffffffffffffffffffffffffffff021916908373ffffffffffffffffffffffffffffffffffffffff16021790555080156109b15760008060016101000a81548160ff0219169083151502179055505b50565b6000603660009054906101000a900473ffffffffffffffffffffffffffffffffffffffff16905090565b6060603560009054906101000a900473ffffffffffffffffffffffffffffffffffffffff1673ffffffffffffffffffffffffffffffffffffffff1663952525606040518163ffffffff1660e01b815260040160006040518083038186803b158015610a4857600080fd5b505afa158015610a5c573d6000803e3d6000fd5b505050506040513d6000823e3d601f19601f82011682018060405250810190610a859190611474565b905090565b6060603360009054906101000a900473ffffffffffffffffffffffffffffffffffffffff1673ffffffffffffffffffffffffffffffffffffffff16639a8d28826040518163ffffffff1660e01b815260040160006040518083038186803b158015610af457600080fd5b505afa158015610b08573d6000803e3d6000fd5b505050506040513d6000823e3d601f19601f82011682018060405250810190610b3191906113f2565b905090565b610c93603360009054906101000a900473ffffffffffffffffffffffffffffffffffffffff1673ffffffffffffffffffffffffffffffffffffffff166327df259a336040518263ffffffff1660e01b8152600401610b949190611a45565b60006040518083038186803b158015610bac57600080fd5b505afa158015610bc0573d6000803e3d6000fd5b505050506040513d6000823e3d601f19601f82011682018060405250810190610be99190611537565b603460009054906101000a900473ffffffffffffffffffffffffffffffffffffffff1673ffffffffffffffffffffffffffffffffffffffff1663b11852446040518163ffffffff1660e01b815260040160006040518083038186803b158015610c5157600080fd5b505afa158015610c65573d6000803e3d6000fd5b505050506040513d6000823e3d601f19601f82011682018060405250810190610c8e91906114f6565b610de2565b565b610c9d611030565b603460009054906101000a900473ffffffffffffffffffffffffffffffffffffffff1673ffffffffffffffffffffffffffffffffffffffff1663b11852446040518163ffffffff1660e01b815260040160006040518083038186803b158015610d0557600080fd5b505afa158015610d19573d6000803e3d6000fd5b505050506040513d6000823e3d601f19601f82011682018060405250810190610d4291906114f6565b905090565b603460009054906101000a900473ffffffffffffffffffffffffffffffffffffffff1673ffffffffffffffffffffffffffffffffffffffff1663b7ed99d66040518163ffffffff1660e01b8152600401600060405180830381600087803b158015610db157600080fd5b505af1158015610dc5573d6000803e3d6000fd5b50505050565b6000803090506000813b9050600081149250505090565b604051602001610df190611a30565b604051602081830303815290604052805190602001208260000151604051602001610e1c9190611a19565b604051602081830303815290604052805190602001201415610e73576040517f08c379a0000000000000000000000000000000000000000000000000000000008152600401610e6a90611b8c565b60405180910390fd5b604051602001610e8290611a30565b604051602081830303815290604052805190602001208160000151604051602001610ead9190611a19565b604051602081830303815290604052805190602001201415610f04576040517f08c379a0000000000000000000000000000000000000000000000000000000008152600401610efb90611b6c565b60405180910390fd5b7fdd4beaba995f8a41cdd2f0af8918a02603e1b887060a362f32b17b80b1af367a610f3783602001518360400151610f50565b604051610f449190611ada565b60405180910390a15050565b606081831115610f97576040518060400160405280601a81526020017f54686520647261676f6e20686173206265656e20736c61696e210000000000008152509050610fdb565b81831015610fbf57604051806060016040528060368152602001615c1b603691399050610fdb565b6040518060600160405280603e8152602001615c51603e913990505b92915050565b6040518060800160405280606081526020016000815260200160008152602001600081525090565b610f7b80611f7883390190565b610eb180612ef383390190565b611e7780613da483390190565b6040518060a0016040528060608152602001600073ffffffffffffffffffffffffffffffffffffffff1681526020016000815260200160008152602001600081525090565b600061108861108384611c5c565b611c2b565b9050808382526020820190508260005b858110156110c857815185016110ae8882611351565b845260208401935060208301925050600181019050611098565b5050509392505050565b60006110e56110e084611c88565b611c2b565b9050828152602081018484840111156110fd57600080fd5b611108848285611e4f565b509392505050565b600061112361111e84611c88565b611c2b565b90508281526020810184848401111561113b57600080fd5b611146848285611e5e565b509392505050565b600061116161115c84611cb8565b611c2b565b90508281526020810184848401111561117957600080fd5b611184848285611e4f565b509392505050565b600061119f61119a84611cb8565b611c2b565b9050828152602081018484840111156111b757600080fd5b6111c2848285611e5e565b509392505050565b6000815190506111d981611f49565b92915050565b600082601f8301126111f057600080fd5b8151611200848260208601611075565b91505092915050565b600082601f83011261121a57600080fd5b813561122a8482602086016110d2565b91505092915050565b600082601f83011261124457600080fd5b8151611254848260208601611110565b91505092915050565b600082601f83011261126e57600080fd5b813561127e84826020860161114e565b91505092915050565b600082601f83011261129857600080fd5b81516112a884826020860161118c565b91505092915050565b600060a082840312156112c357600080fd5b6112cd60a0611c2b565b9050600082015167ffffffffffffffff8111156112e957600080fd5b6112f584828501611287565b6000830152506020611309848285016111ca565b602083015250604061131d848285016113dd565b6040830152506060611331848285016113dd565b6060830152506080611345848285016113dd565b60808301525092915050565b60006080828403121561136357600080fd5b61136d6080611c2b565b9050600082015167ffffffffffffffff81111561138957600080fd5b61139584828501611287565b60008301525060206113a9848285016113dd565b60208301525060406113bd848285016113dd565b60408301525060606113d1848285016113dd565b60608301525092915050565b6000815190506113ec81611f60565b92915050565b60006020828403121561140457600080fd5b600082015167ffffffffffffffff81111561141e57600080fd5b61142a848285016111df565b91505092915050565b60006020828403121561144557600080fd5b600082013567ffffffffffffffff81111561145f57600080fd5b61146b84828501611209565b91505092915050565b60006020828403121561148657600080fd5b600082015167ffffffffffffffff8111156114a057600080fd5b6114ac84828501611233565b91505092915050565b6000602082840312156114c757600080fd5b600082013567ffffffffffffffff8111156114e157600080fd5b6114ed8482850161125d565b91505092915050565b60006020828403121561150857600080fd5b600082015167ffffffffffffffff81111561152257600080fd5b61152e848285016112b1565b91505092915050565b60006020828403121561154957600080fd5b600082015167ffffffffffffffff81111561156357600080fd5b61156f84828501611351565b91505092915050565b60006115848383611935565b905092915050565b61159581611dcb565b82525050565b6115a481611dcb565b82525050565b60006115b582611cf8565b6115bf8185611d26565b9350836020820285016115d185611ce8565b8060005b8581101561160d57848403895281516115ee8582611578565b94506115f983611d19565b925060208a019950506001810190506115d5565b50829750879550505050505092915050565b600061162a82611d03565b6116348185611d37565b9350611644818560208601611e5e565b61164d81611f38565b840191505092915050565b61166181611e07565b82525050565b61167081611e2b565b82525050565b600061168182611d0e565b61168b8185611d48565b935061169b818560208601611e5e565b6116a481611f38565b840191505092915050565b60006116ba82611d0e565b6116c48185611d59565b93506116d4818560208601611e5e565b6116dd81611f38565b840191505092915050565b60006116f382611d0e565b6116fd8185611d6a565b935061170d818560208601611e5e565b80840191505092915050565b6000611726603183611d59565b91507f4920616d20746865206f776e6572206f66207468697320636f6e74726163742160008301527f20416e64206e6f206f6e6520656c7365210000000000000000000000000000006020830152604082019050919050565b600061178c602e83611d59565b91507f436f6e747261637420696e7374616e63652068617320616c726561647920626560008301527f656e20696e697469616c697a65640000000000000000000000000000000000006020830152604082019050919050565b60006117f2600083611d6a565b9150600082019050919050565b600061180c601083611d59565b91507f447261676f6e206e6f7420666f756e64000000000000000000000000000000006000830152602082019050919050565b600061184c600e83611d59565b91507f4865726f206e6f7420666f756e640000000000000000000000000000000000006000830152602082019050919050565b600061188c601683611d59565b91507f53656e646572206e6f7420617574686f72697a65642e000000000000000000006000830152602082019050919050565b600060a08301600083015184820360008601526118dc8282611676565b91505060208301516118f1602086018261158c565b50604083015161190460408601826119fb565b50606083015161191760608601826119fb565b50608083015161192a60808601826119fb565b508091505092915050565b600060808301600083015184820360008601526119528282611676565b915050602083015161196760208601826119fb565b50604083015161197a60408601826119fb565b50606083015161198d60608601826119fb565b508091505092915050565b600060808301600083015184820360008601526119b58282611676565b91505060208301516119ca60208601826119fb565b5060408301516119dd60408601826119fb565b5060608301516119f060608601826119fb565b508091505092915050565b611a0481611dfd565b82525050565b611a1381611dfd565b82525050565b6000611a2582846116e8565b915081905092915050565b6000611a3b826117e5565b9150819050919050565b6000602082019050611a5a600083018461159b565b92915050565b60006020820190508181036000830152611a7a81846115aa565b905092915050565b60006020820190508181036000830152611a9c818461161f565b905092915050565b6000602082019050611ab96000830184611658565b92915050565b6000602082019050611ad46000830184611667565b92915050565b60006020820190508181036000830152611af481846116af565b905092915050565b60006040820190508181036000830152611b1681856116af565b9050611b25602083018461159b565b9392505050565b60006020820190508181036000830152611b4581611719565b9050919050565b60006020820190508181036000830152611b658161177f565b9050919050565b60006020820190508181036000830152611b85816117ff565b9050919050565b60006020820190508181036000830152611ba58161183f565b9050919050565b60006020820190508181036000830152611bc58161187f565b9050919050565b60006020820190508181036000830152611be681846118bf565b905092915050565b60006020820190508181036000830152611c088184611998565b905092915050565b6000602082019050611c256000830184611a0a565b92915050565b6000604051905081810181811067ffffffffffffffff82111715611c5257611c51611f09565b5b8060405250919050565b600067ffffffffffffffff821115611c7757611c76611f09565b5b602082029050602081019050919050565b600067ffffffffffffffff821115611ca357611ca2611f09565b5b601f19601f8301169050602081019050919050565b600067ffffffffffffffff821115611cd357611cd2611f09565b5b601f19601f8301169050602081019050919050565b6000819050602082019050919050565b600081519050919050565b600081519050919050565b600081519050919050565b6000602082019050919050565b600082825260208201905092915050565b600082825260208201905092915050565b600082825260208201905092915050565b600082825260208201905092915050565b600081905092915050565b6000611d8082611dfd565b9150611d8b83611dfd565b9250827fffffffffffffffffffffffffffffffffffffffffffffffffffffffffffffffff03821115611dc057611dbf611eda565b5b828201905092915050565b6000611dd682611ddd565b9050919050565b600073ffffffffffffffffffffffffffffffffffffffff82169050919050565b6000819050919050565b6000611e1282611e19565b9050919050565b6000611e2482611ddd565b9050919050565b6000611e3682611e3d565b9050919050565b6000611e4882611ddd565b9050919050565b82818337600083830152505050565b60005b83811015611e7c578082015181840152602081019050611e61565b83811115611e8b576000848401525b50505050565b6000611e9c82611dfd565b91507fffffffffffffffffffffffffffffffffffffffffffffffffffffffffffffffff821415611ecf57611ece611eda565b5b600182019050919050565b7f4e487b7100000000000000000000000000000000000000000000000000000000600052601160045260246000fd5b7f4e487b7100000000000000000000000000000000000000000000000000000000600052604160045260246000fd5b6000601f19601f8301169050919050565b611f5281611dcb565b8114611f5d57600080fd5b50565b611f6981611dfd565b8114611f7457600080fd5b5056fe608060405234801561001057600080fd5b50610f5b806100206000396000f3fe608060405234801561001057600080fd5b50600436106100415760003560e01c806327df259a146100465780639a8d288214610076578063deb786c414610094575b600080fd5b610060600480360381019061005b91906107d4565b6100b0565b60405161006d9190610b7d565b60405180910390f35b61007e610249565b60405161008b9190610b1b565b60405180910390f35b6100ae60048036038101906100a991906107fd565b6103a0565b005b6100b861068c565b600060078054905011610100576040517f08c379a00000000000000000000000000000000000000000000000000000000081526004016100f790610b3d565b60405180910390fd5b6007600160008473ffffffffffffffffffffffffffffffffffffffff1673ffffffffffffffffffffffffffffffffffffffff1681526020019081526020016000205481548110610179577f4e487b7100000000000000000000000000000000000000000000000000000000600052603260045260246000fd5b90600052602060002090600402016040518060800160405290816000820180546101a290610d5a565b80601f01602080910402602001604051908101604052809291908181526020018280546101ce90610d5a565b801561021b5780601f106101f05761010080835404028352916020019161021b565b820191906000526020600020905b8154815290600101906020018083116101fe57829003601f168201915b5050505050815260200160018201548152602001600282015481526020016003820154815250509050919050565b6060600060078054905011610293576040517f08c379a000000000000000000000000000000000000000000000000000000000815260040161028a90610b3d565b60405180910390fd5b6007805480602002602001604051908101604052809291908181526020016000905b8282101561039757838290600052602060002090600402016040518060800160405290816000820180546102e890610d5a565b80601f016020809104026020016040519081016040528092919081815260200182805461031490610d5a565b80156103615780601f1061033657610100808354040283529160200191610361565b820191906000526020600020905b81548152906001019060200180831161034457829003601f168201915b505050505081526020016001820154815260200160028201548152602001600382015481525050815260200190600101906102b5565b50505050905090565b6000600260008373ffffffffffffffffffffffffffffffffffffffff1673ffffffffffffffffffffffffffffffffffffffff1681526020019081526020016000205414610422576040517f08c379a000000000000000000000000000000000000000000000000000000000815260040161041990610b5d565b60405180910390fd5b61042c8282610430565b5050565b6007604051806080016040528084815260200161044b610606565b8152602001610458610649565b81526020016000815250908060018154018082558091505060019003906000526020600020906004020160009091909190915060008201518160000190805190602001906104a79291906106b4565b506020820151816001015560408201518160020155606082015181600301555050600060016007805490506104dc9190610c96565b90508160008083815260200190815260200160002060006101000a81548173ffffffffffffffffffffffffffffffffffffffff021916908373ffffffffffffffffffffffffffffffffffffffff16021790555080600160008473ffffffffffffffffffffffffffffffffffffffff1673ffffffffffffffffffffffffffffffffffffffff16815260200190815260200160002081905550600260008373ffffffffffffffffffffffffffffffffffffffff1673ffffffffffffffffffffffffffffffffffffffff16815260200190815260200160002060008154809291906105c390610d8c565b91905055507fe091168a421f352d46fe9eafce51f4d2bce03324348c1d1d6f9bb1283d60bed681846040516105f9929190610b9f565b60405180910390a1505050565b6000620186a042444160405160200161062193929190610ade565b6040516020818303038152906040528051906020012060001c6106449190610e03565b905090565b60006298968042444160405160200161066493929190610ade565b6040516020818303038152906040528051906020012060001c6106879190610e03565b905090565b6040518060800160405280606081526020016000815260200160008152602001600081525090565b8280546106c090610d5a565b90600052602060002090601f0160209004810192826106e25760008555610729565b82601f106106fb57805160ff1916838001178555610729565b82800160010185558215610729579182015b8281111561072857825182559160200191906001019061070d565b5b509050610736919061073a565b5090565b5b8082111561075357600081600090555060010161073b565b5090565b600061076a61076584610c00565b610bcf565b90508281526020810184848401111561078257600080fd5b61078d848285610d18565b509392505050565b6000813590506107a481610f0e565b92915050565b600082601f8301126107bb57600080fd5b81356107cb848260208601610757565b91505092915050565b6000602082840312156107e657600080fd5b60006107f484828501610795565b91505092915050565b6000806040838503121561081057600080fd5b600083013567ffffffffffffffff81111561082a57600080fd5b610836858286016107aa565b925050602061084785828601610795565b9150509250929050565b600061085d83836109e3565b905092915050565b61087661087182610cdc565b610dd5565b82525050565b600061088782610c40565b6108918185610c63565b9350836020820285016108a385610c30565b8060005b858110156108df57848403895281516108c08582610851565b94506108cb83610c56565b925060208a019950506001810190506108a7565b50829750879550505050505092915050565b60006108fc82610c4b565b6109068185610c74565b9350610916818560208601610d27565b61091f81610ef0565b840191505092915050565b600061093582610c4b565b61093f8185610c85565b935061094f818560208601610d27565b61095881610ef0565b840191505092915050565b6000610970601f83610c85565b91507f4e6f206865726f657320617661696c61626c6520666f72206c6f6f6b75702e006000830152602082019050919050565b60006109b0601b83610c85565b91507f596f7520616c726561647920637265617465642061206865726f2100000000006000830152602082019050919050565b60006080830160008301518482036000860152610a0082826108f1565b9150506020830151610a156020860182610aa9565b506040830151610a286040860182610aa9565b506060830151610a3b6060860182610aa9565b508091505092915050565b60006080830160008301518482036000860152610a6382826108f1565b9150506020830151610a786020860182610aa9565b506040830151610a8b6040860182610aa9565b506060830151610a9e6060860182610aa9565b508091505092915050565b610ab281610d0e565b82525050565b610ac181610d0e565b82525050565b610ad8610ad382610d0e565b610df9565b82525050565b6000610aea8286610ac7565b602082019150610afa8285610ac7565b602082019150610b0a8284610865565b601482019150819050949350505050565b60006020820190508181036000830152610b35818461087c565b905092915050565b60006020820190508181036000830152610b5681610963565b9050919050565b60006020820190508181036000830152610b76816109a3565b9050919050565b60006020820190508181036000830152610b978184610a46565b905092915050565b6000604082019050610bb46000830185610ab8565b8181036020830152610bc6818461092a565b90509392505050565b6000604051905081810181811067ffffffffffffffff82111715610bf657610bf5610ec1565b5b8060405250919050565b600067ffffffffffffffff821115610c1b57610c1a610ec1565b5b601f19601f8301169050602081019050919050565b6000819050602082019050919050565b600081519050919050565b600081519050919050565b6000602082019050919050565b600082825260208201905092915050565b600082825260208201905092915050565b600082825260208201905092915050565b6000610ca182610d0e565b9150610cac83610d0e565b925082821015610cbf57610cbe610e34565b5b828203905092915050565b6000610cd582610cee565b9050919050565b6000610ce782610cee565b9050919050565b600073ffffffffffffffffffffffffffffffffffffffff82169050919050565b6000819050919050565b82818337600083830152505050565b60005b83811015610d45578082015181840152602081019050610d2a565b83811115610d54576000848401525b50505050565b60006002820490506001821680610d7257607f821691505b60208210811415610d8657610d85610e92565b5b50919050565b6000610d9782610d0e565b91507fffffffffffffffffffffffffffffffffffffffffffffffffffffffffffffffff821415610dca57610dc9610e34565b5b600182019050919050565b6000610de082610de7565b9050919050565b6000610df282610f01565b9050919050565b6000819050919050565b6000610e0e82610d0e565b9150610e1983610d0e565b925082610e2957610e28610e63565b5b828206905092915050565b7f4e487b7100000000000000000000000000000000000000000000000000000000600052601160045260246000fd5b7f4e487b7100000000000000000000000000000000000000000000000000000000600052601260045260246000fd5b7f4e487b7100000000000000000000000000000000000000000000000000000000600052602260045260246000fd5b7f4e487b7100000000000000000000000000000000000000000000000000000000600052604160045260246000fd5b6000601f19601f8301169050919050565b60008160601b9050919050565b610f1781610cca565b8114610f2257600080fd5b5056fea2646970667358221220b6768f0741a25fd576c70d81d28e9cf32948bb4341cd252798458a46f053b5d364736f6c63430008000033608060405234801561001057600080fd5b50610e91806100206000396000f3fe608060405234801561001057600080fd5b50600436106100415760003560e01c8063b118524414610046578063b7ed99d614610064578063f8caf6c71461006e575b600080fd5b61004e61008c565b60405161005b9190610b40565b60405180910390f35b61006c610278565b005b610076610282565b6040516100839190610afe565b60405180910390f35b61009461067c565b6000600680549050116100dc576040517f08c379a00000000000000000000000000000000000000000000000000000000081526004016100d390610b20565b60405180910390fd5b60066000803073ffffffffffffffffffffffffffffffffffffffff1673ffffffffffffffffffffffffffffffffffffffff1681526020019081526020016000205481548110610154577f4e487b7100000000000000000000000000000000000000000000000000000000600052603260045260246000fd5b90600052602060002090600502016040518060a001604052908160008201805461017d90610cde565b80601f01602080910402602001604051908101604052809291908181526020018280546101a990610cde565b80156101f65780601f106101cb576101008083540402835291602001916101f6565b820191906000526020600020905b8154815290600101906020018083116101d957829003601f168201915b505050505081526020016001820160009054906101000a900473ffffffffffffffffffffffffffffffffffffffff1673ffffffffffffffffffffffffffffffffffffffff1673ffffffffffffffffffffffffffffffffffffffff1681526020016002820154815260200160038201548152602001600482015481525050905090565b61028061042f565b565b60606000600680549050116102cc576040517f08c379a00000000000000000000000000000000000000000000000000000000081526004016102c390610b20565b60405180910390fd5b6006805480602002602001604051908101604052809291908181526020016000905b8282101561042657838290600052602060002090600502016040518060a001604052908160008201805461032190610cde565b80601f016020809104026020016040519081016040528092919081815260200182805461034d90610cde565b801561039a5780601f1061036f5761010080835404028352916020019161039a565b820191906000526020600020905b81548152906001019060200180831161037d57829003601f168201915b505050505081526020016001820160009054906101000a900473ffffffffffffffffffffffffffffffffffffffff1673ffffffffffffffffffffffffffffffffffffffff1673ffffffffffffffffffffffffffffffffffffffff1681526020016002820154815260200160038201548152602001600482015481525050815260200190600101906102ee565b50505050905090565b60066040518060a001604052806040518060400160405280600e81526020017f44656661756c745f447261676f6e00000000000000000000000000000000000081525081526020013073ffffffffffffffffffffffffffffffffffffffff16815260200161049b6105f6565b81526020016104a8610639565b8152602001600a815250908060018154018082558091505060019003906000526020600020906005020160009091909190915060008201518160000190805190602001906104f79291906106c1565b5060208201518160010160006101000a81548173ffffffffffffffffffffffffffffffffffffffff021916908373ffffffffffffffffffffffffffffffffffffffff1602179055506040820151816002015560608201518160030155608082015181600401555050600060016006805490506105739190610bff565b90507fa8d5c415ae4486d0b0ca47d57931522bcf32daa16432a434fd9d4c57050e94da600682815481106105d0577f4e487b7100000000000000000000000000000000000000000000000000000000600052603260045260246000fd5b90600052602060002090600502016040516105eb9190610b62565b60405180910390a150565b6000620186a042444160405160200161061193929190610ac1565b6040516020818303038152906040528051906020012060001c6106349190610d72565b905090565b60006298968042444160405160200161065493929190610ac1565b6040516020818303038152906040528051906020012060001c6106779190610d72565b905090565b6040518060a0016040528060608152602001600073ffffffffffffffffffffffffffffffffffffffff1681526020016000815260200160008152602001600081525090565b8280546106cd90610cde565b90600052602060002090601f0160209004810192826106ef5760008555610736565b82601f1061070857805160ff1916838001178555610736565b82800160010185558215610736579182015b8281111561073557825182559160200191906001019061071a565b5b5090506107439190610747565b5090565b5b80821115610760576000816000905550600101610748565b5090565b6000610770838361090c565b905092915050565b61078961078482610c6f565b610d44565b82525050565b61079881610c5d565b82525050565b60006107a982610ba9565b6107b38185610bcc565b9350836020820285016107c585610b84565b8060005b8581101561080157848403895281516107e28582610764565b94506107ed83610bbf565b925060208a019950506001810190506107c9565b50829750879550505050505092915050565b600061081e82610bb4565b6108288185610bdd565b9350610838818560208601610cab565b61084181610e30565b840191505092915050565b6000815461085981610cde565b6108638186610bdd565b9450600182166000811461087e5760018114610890576108c3565b60ff19831686526020860193506108c3565b61089985610b94565b60005b838110156108bb5781548189015260018201915060208101905061089c565b808801955050505b50505092915050565b60006108d9602083610bee565b91507f4e6f20647261676f6e7320617661696c61626c6520666f72206c6f6f6b75702e6000830152602082019050919050565b600060a08301600083015184820360008601526109298282610813565b915050602083015161093e602086018261078f565b5060408301516109516040860182610a9b565b5060608301516109646060860182610a9b565b5060808301516109776080860182610a9b565b508091505092915050565b600060a083016000830151848203600086015261099f8282610813565b91505060208301516109b4602086018261078f565b5060408301516109c76040860182610a9b565b5060608301516109da6060860182610a9b565b5060808301516109ed6080860182610a9b565b508091505092915050565b600060a0830160008084018583036000870152610a15838261084c565b92505060018401549050610a2881610d10565b610a35602087018261078f565b5060028401549050610a4681610d2a565b610a536040870182610a9b565b5060038401549050610a6481610d2a565b610a716060870182610a9b565b5060048401549050610a8281610d2a565b610a8f6080870182610a9b565b50819250505092915050565b610aa481610ca1565b82525050565b610abb610ab682610ca1565b610d68565b82525050565b6000610acd8286610aaa565b602082019150610add8285610aaa565b602082019150610aed8284610778565b601482019150819050949350505050565b60006020820190508181036000830152610b18818461079e565b905092915050565b60006020820190508181036000830152610b39816108cc565b9050919050565b60006020820190508181036000830152610b5a8184610982565b905092915050565b60006020820190508181036000830152610b7c81846109f8565b905092915050565b6000819050602082019050919050565b60008190508160005260206000209050919050565b600081519050919050565b600081519050919050565b6000602082019050919050565b600082825260208201905092915050565b600082825260208201905092915050565b600082825260208201905092915050565b6000610c0a82610ca1565b9150610c1583610ca1565b925082821015610c2857610c27610da3565b5b828203905092915050565b600073ffffffffffffffffffffffffffffffffffffffff82169050919050565b6000819050919050565b6000610c6882610c81565b9050919050565b6000610c7a82610c81565b9050919050565b600073ffffffffffffffffffffffffffffffffffffffff82169050919050565b6000819050919050565b60005b83811015610cc9578082015181840152602081019050610cae565b83811115610cd8576000848401525b50505050565b60006002820490506001821680610cf657607f821691505b60208210811415610d0a57610d09610e01565b5b50919050565b6000610d23610d1e83610e4e565b610c33565b9050919050565b6000610d3d610d3883610e4e565b610c53565b9050919050565b6000610d4f82610d56565b9050919050565b6000610d6182610e41565b9050919050565b6000819050919050565b6000610d7d82610ca1565b9150610d8883610ca1565b925082610d9857610d97610dd2565b5b828206905092915050565b7f4e487b7100000000000000000000000000000000000000000000000000000000600052601160045260246000fd5b7f4e487b7100000000000000000000000000000000000000000000000000000000600052601260045260246000fd5b7f4e487b7100000000000000000000000000000000000000000000000000000000600052602260045260246000fd5b6000601f19601f8301169050919050565b60008160601b9050919050565b60008160001c905091905056fea2646970667358221220c065f949a54344d3141420e94c2456a26681a8a6d3072f508dbd11253b53090c64736f6c63430008000033608060405234801561001057600080fd5b50611e57806100206000396000f3fe6080604052600436106100705760003560e01c806343d3b1be1161004e57806343d3b1be146100d1578063673402e5146100fc5780638129fc1c14610127578063952525601461013157610070565b806313fdba3c1461007557806327dc297e1461007f57806338bbfa50146100a8575b600080fd5b61007d61015c565b005b34801561008b57600080fd5b506100a660048036038101906100a19190611756565b61023f565b005b3480156100b457600080fd5b506100cf60048036038101906100ca91906117aa565b610299565b005b3480156100dd57600080fd5b506100e66102bc565b6040516100f39190611a77565b60405180910390f35b34801561010857600080fd5b506101116102c2565b60405161011e91906119ae565b60405180910390f35b61012f610350565b005b34801561013d57600080fd5b5061014661043d565b60405161015391906119ae565b60405180910390f35b61019a6040518060400160405280600381526020017f55524c00000000000000000000000000000000000000000000000000000000008152506104cf565b6039819055506039544710156101e5576040517f08c379a00000000000000000000000000000000000000000000000000000000081526004016101dc90611a37565b60405180910390fd5b61023c6040518060400160405280600381526020017f55524c00000000000000000000000000000000000000000000000000000000008152506040518060a0016040528060678152602001611dbb606791396107f0565b50565b610247610bff565b73ffffffffffffffffffffffffffffffffffffffff163373ffffffffffffffffffffffffffffffffffffffff161461027e57600080fd5b80603890805190602001906102949291906114b7565b505050565b6000801b600360008060001b815260200190815260200160002081905550505050565b60395481565b603880546102cf90611ca5565b80601f01602080910402602001604051908101604052809291908181526020018280546102fb90611ca5565b80156103485780601f1061031d57610100808354040283529160200191610348565b820191906000526020600020905b81548152906001019060200180831161032b57829003601f168201915b505050505081565b600560019054906101000a900460ff168061036f575061036e610f13565b5b806103875750600560009054906101000a900460ff16155b6103c6576040517f08c379a00000000000000000000000000000000000000000000000000000000081526004016103bd90611a57565b60405180910390fd5b6000600560019054906101000a900460ff161590508015610418576001600560016101000a81548160ff0219169083151502179055506001600560006101000a81548160ff0219169083151502179055505b801561043a576000600560016101000a81548160ff0219169083151502179055505b50565b60606038805461044c90611ca5565b80601f016020809104026020016040519081016040528092919081815260200182805461047890611ca5565b80156104c55780601f1061049a576101008083540402835291602001916104c5565b820191906000526020600020905b8154815290600101906020018083116104a857829003601f168201915b5050505050905090565b60008073ffffffffffffffffffffffffffffffffffffffff16600160009054906101000a900473ffffffffffffffffffffffffffffffffffffffff1673ffffffffffffffffffffffffffffffffffffffff16148061055757506000610555600160009054906101000a900473ffffffffffffffffffffffffffffffffffffffff16610f2a565b145b15610568576105666000610f35565b505b600160009054906101000a900473ffffffffffffffffffffffffffffffffffffffff1673ffffffffffffffffffffffffffffffffffffffff166338cc48316040518163ffffffff1660e01b8152600401602060405180830381600087803b1580156105d257600080fd5b505af11580156105e6573d6000803e3d6000fd5b505050506040513d601f19601f8201168201806040525081019061060a9190611704565b73ffffffffffffffffffffffffffffffffffffffff1660008054906101000a900473ffffffffffffffffffffffffffffffffffffffff1673ffffffffffffffffffffffffffffffffffffffff161461073e57600160009054906101000a900473ffffffffffffffffffffffffffffffffffffffff1673ffffffffffffffffffffffffffffffffffffffff166338cc48316040518163ffffffff1660e01b8152600401602060405180830381600087803b1580156106c657600080fd5b505af11580156106da573d6000803e3d6000fd5b505050506040513d601f19601f820116820180604052508101906106fe9190611704565b6000806101000a81548173ffffffffffffffffffffffffffffffffffffffff021916908373ffffffffffffffffffffffffffffffffffffffff1602179055505b60008054906101000a900473ffffffffffffffffffffffffffffffffffffffff1673ffffffffffffffffffffffffffffffffffffffff1663524f3889836040518263ffffffff1660e01b81526004016107979190611a15565b602060405180830381600087803b1580156107b157600080fd5b505af11580156107c5573d6000803e3d6000fd5b505050506040513d601f19601f820116820180604052508101906107e99190611829565b9050919050565b60008073ffffffffffffffffffffffffffffffffffffffff16600160009054906101000a900473ffffffffffffffffffffffffffffffffffffffff1673ffffffffffffffffffffffffffffffffffffffff16148061087857506000610876600160009054906101000a900473ffffffffffffffffffffffffffffffffffffffff16610f2a565b145b15610889576108876000610f35565b505b600160009054906101000a900473ffffffffffffffffffffffffffffffffffffffff1673ffffffffffffffffffffffffffffffffffffffff166338cc48316040518163ffffffff1660e01b8152600401602060405180830381600087803b1580156108f357600080fd5b505af1158015610907573d6000803e3d6000fd5b505050506040513d601f19601f8201168201806040525081019061092b9190611704565b73ffffffffffffffffffffffffffffffffffffffff1660008054906101000a900473ffffffffffffffffffffffffffffffffffffffff1673ffffffffffffffffffffffffffffffffffffffff1614610a5f57600160009054906101000a900473ffffffffffffffffffffffffffffffffffffffff1673ffffffffffffffffffffffffffffffffffffffff166338cc48316040518163ffffffff1660e01b8152600401602060405180830381600087803b1580156109e757600080fd5b505af11580156109fb573d6000803e3d6000fd5b505050506040513d601f19601f82011682018060405250810190610a1f9190611704565b6000806101000a81548173ffffffffffffffffffffffffffffffffffffffff021916908373ffffffffffffffffffffffffffffffffffffffff1602179055505b60008060009054906101000a900473ffffffffffffffffffffffffffffffffffffffff1673ffffffffffffffffffffffffffffffffffffffff1663524f3889856040518263ffffffff1660e01b8152600401610abb9190611a15565b602060405180830381600087803b158015610ad557600080fd5b505af1158015610ae9573d6000803e3d6000fd5b505050506040513d601f19601f82011682018060405250810190610b0d9190611829565b905062030d403a610b1e9190611bb1565b670de0b6b3a7640000610b319190611b5b565b811115610b44576000801b915050610bf9565b60008054906101000a900473ffffffffffffffffffffffffffffffffffffffff1673ffffffffffffffffffffffffffffffffffffffff1663adf59f9982600087876040518563ffffffff1660e01b8152600401610ba3939291906119d0565b6020604051808303818588803b158015610bbc57600080fd5b505af1158015610bd0573d6000803e3d6000fd5b50505050506040513d601f19601f82011682018060405250810190610bf5919061172d565b9150505b92915050565b60008073ffffffffffffffffffffffffffffffffffffffff16600160009054906101000a900473ffffffffffffffffffffffffffffffffffffffff1673ffffffffffffffffffffffffffffffffffffffff161480610c8757506000610c85600160009054906101000a900473ffffffffffffffffffffffffffffffffffffffff16610f2a565b145b15610c9857610c966000610f35565b505b600160009054906101000a900473ffffffffffffffffffffffffffffffffffffffff1673ffffffffffffffffffffffffffffffffffffffff166338cc48316040518163ffffffff1660e01b8152600401602060405180830381600087803b158015610d0257600080fd5b505af1158015610d16573d6000803e3d6000fd5b505050506040513d601f19601f82011682018060405250810190610d3a9190611704565b73ffffffffffffffffffffffffffffffffffffffff1660008054906101000a900473ffffffffffffffffffffffffffffffffffffffff1673ffffffffffffffffffffffffffffffffffffffff1614610e6e57600160009054906101000a900473ffffffffffffffffffffffffffffffffffffffff1673ffffffffffffffffffffffffffffffffffffffff166338cc48316040518163ffffffff1660e01b8152600401602060405180830381600087803b158015610df657600080fd5b505af1158015610e0a573d6000803e3d6000fd5b505050506040513d601f19601f82011682018060405250810190610e2e9190611704565b6000806101000a81548173ffffffffffffffffffffffffffffffffffffffff021916908373ffffffffffffffffffffffffffffffffffffffff1602179055505b60008054906101000a900473ffffffffffffffffffffffffffffffffffffffff1673ffffffffffffffffffffffffffffffffffffffff1663c281d19e6040518163ffffffff1660e01b8152600401602060405180830381600087803b158015610ed657600080fd5b505af1158015610eea573d6000803e3d6000fd5b505050506040513d601f19601f82011682018060405250810190610f0e9190611704565b905090565b6000803090506000813b9050600081149250505090565b6000813b9050919050565b6000610f3f610f46565b9050919050565b600080610f66731d3b2638a7cc9f2cb3d298a3da7a90b67e5506ed610f2a565b111561100857731d3b2638a7cc9f2cb3d298a3da7a90b67e5506ed600160006101000a81548173ffffffffffffffffffffffffffffffffffffffff021916908373ffffffffffffffffffffffffffffffffffffffff160217905550610fff6040518060400160405280600b81526020017f6574685f6d61696e6e657400000000000000000000000000000000000000000081525061149d565b6001905061149a565b600061102773c03a2615d5efaf5f49f60b7bb6583eaec212fdf1610f2a565b11156110c95773c03a2615d5efaf5f49f60b7bb6583eaec212fdf1600160006101000a81548173ffffffffffffffffffffffffffffffffffffffff021916908373ffffffffffffffffffffffffffffffffffffffff1602179055506110c06040518060400160405280600c81526020017f6574685f726f707374656e33000000000000000000000000000000000000000081525061149d565b6001905061149a565b60006110e873b7a07bcf2ba2f2703b24c0691b5278999c59ac7e610f2a565b111561118a5773b7a07bcf2ba2f2703b24c0691b5278999c59ac7e600160006101000a81548173ffffffffffffffffffffffffffffffffffffffff021916908373ffffffffffffffffffffffffffffffffffffffff1602179055506111816040518060400160405280600981526020017f6574685f6b6f76616e000000000000000000000000000000000000000000000081525061149d565b6001905061149a565b60006111a973146500cfd35b22e4a392fe0adc06de1a1368ed48610f2a565b111561124b5773146500cfd35b22e4a392fe0adc06de1a1368ed48600160006101000a81548173ffffffffffffffffffffffffffffffffffffffff021916908373ffffffffffffffffffffffffffffffffffffffff1602179055506112426040518060400160405280600b81526020017f6574685f72696e6b65627900000000000000000000000000000000000000000081525061149d565b6001905061149a565b600061126a73a2998efd205fb9d4b4963afb70778d6354ad3a41610f2a565b111561130c5773a2998efd205fb9d4b4963afb70778d6354ad3a41600160006101000a81548173ffffffffffffffffffffffffffffffffffffffff021916908373ffffffffffffffffffffffffffffffffffffffff1602179055506113036040518060400160405280600a81526020017f6574685f676f65726c690000000000000000000000000000000000000000000081525061149d565b6001905061149a565b600061132b736f485c8bf6fc43ea212e93bbf8ce046c7f1cb475610f2a565b111561138f57736f485c8bf6fc43ea212e93bbf8ce046c7f1cb475600160006101000a81548173ffffffffffffffffffffffffffffffffffffffff021916908373ffffffffffffffffffffffffffffffffffffffff1602179055506001905061149a565b60006113ae7320e12a1f859b3feae5fb2a0a32c18f5a65555bbf610f2a565b1115611412577320e12a1f859b3feae5fb2a0a32c18f5a65555bbf600160006101000a81548173ffffffffffffffffffffffffffffffffffffffff021916908373ffffffffffffffffffffffffffffffffffffffff1602179055506001905061149a565b60006114317351efaf4c8b3c9afbd5ab9f4bbc82784ab6ef8faa610f2a565b1115611495577351efaf4c8b3c9afbd5ab9f4bbc82784ab6ef8faa600160006101000a81548173ffffffffffffffffffffffffffffffffffffffff021916908373ffffffffffffffffffffffffffffffffffffffff1602179055506001905061149a565b600090505b90565b80600290805190602001906114b392919061153d565b5050565b8280546114c390611ca5565b90600052602060002090601f0160209004810192826114e5576000855561152c565b82601f106114fe57805160ff191683800117855561152c565b8280016001018555821561152c579182015b8281111561152b578251825591602001919060010190611510565b5b50905061153991906115c3565b5090565b82805461154990611ca5565b90600052602060002090601f01602090048101928261156b57600085556115b2565b82601f1061158457805160ff19168380011785556115b2565b828001600101855582156115b2579182015b828111156115b1578251825591602001919060010190611596565b5b5090506115bf91906115c3565b5090565b5b808211156115dc5760008160009055506001016115c4565b5090565b60006115f36115ee84611ac3565b611a92565b90508281526020810184848401111561160b57600080fd5b611616848285611c63565b509392505050565b600061163161162c84611af3565b611a92565b90508281526020810184848401111561164957600080fd5b611654848285611c63565b509392505050565b60008151905061166b81611d75565b92915050565b60008135905061168081611d8c565b92915050565b60008151905061169581611d8c565b92915050565b600082601f8301126116ac57600080fd5b81356116bc8482602086016115e0565b91505092915050565b600082601f8301126116d657600080fd5b81356116e684826020860161161e565b91505092915050565b6000815190506116fe81611da3565b92915050565b60006020828403121561171657600080fd5b60006117248482850161165c565b91505092915050565b60006020828403121561173f57600080fd5b600061174d84828501611686565b91505092915050565b6000806040838503121561176957600080fd5b600061177785828601611671565b925050602083013567ffffffffffffffff81111561179457600080fd5b6117a0858286016116c5565b9150509250929050565b6000806000606084860312156117bf57600080fd5b60006117cd86828701611671565b935050602084013567ffffffffffffffff8111156117ea57600080fd5b6117f6868287016116c5565b925050604084013567ffffffffffffffff81111561181357600080fd5b61181f8682870161169b565b9150509250925092565b60006020828403121561183b57600080fd5b6000611849848285016116ef565b91505092915050565b600061185d82611b23565b6118678185611b39565b9350611877818560208601611c72565b61188081611d64565b840191505092915050565b61189481611c51565b82525050565b60006118a582611b2e565b6118af8185611b4a565b93506118bf818560208601611c72565b6118c881611d64565b840191505092915050565b60006118e0602e83611b4a565b91507f706c656173652061646420736f6d652045544820746f20636f76657220666f7260008301527f20746865207175657279206665650000000000000000000000000000000000006020830152604082019050919050565b6000611946602e83611b4a565b91507f436f6e747261637420696e7374616e63652068617320616c726561647920626560008301527f656e20696e697469616c697a65640000000000000000000000000000000000006020830152604082019050919050565b6119a881611c47565b82525050565b600060208201905081810360008301526119c88184611852565b905092915050565b60006060820190506119e5600083018661188b565b81810360208301526119f7818561189a565b90508181036040830152611a0b818461189a565b9050949350505050565b60006020820190508181036000830152611a2f818461189a565b905092915050565b60006020820190508181036000830152611a50816118d3565b9050919050565b60006020820190508181036000830152611a7081611939565b9050919050565b6000602082019050611a8c600083018461199f565b92915050565b6000604051905081810181811067ffffffffffffffff82111715611ab957611ab8611d35565b5b8060405250919050565b600067ffffffffffffffff821115611ade57611add611d35565b5b601f19601f8301169050602081019050919050565b600067ffffffffffffffff821115611b0e57611b0d611d35565b5b601f19601f8301169050602081019050919050565b600081519050919050565b600081519050919050565b600082825260208201905092915050565b600082825260208201905092915050565b6000611b6682611c47565b9150611b7183611c47565b9250827fffffffffffffffffffffffffffffffffffffffffffffffffffffffffffffffff03821115611ba657611ba5611cd7565b5b828201905092915050565b6000611bbc82611c47565b9150611bc783611c47565b9250817fffffffffffffffffffffffffffffffffffffffffffffffffffffffffffffffff0483118215151615611c0057611bff611cd7565b5b828202905092915050565b6000611c1682611c27565b9050919050565b6000819050919050565b600073ffffffffffffffffffffffffffffffffffffffff82169050919050565b6000819050919050565b6000611c5c82611c47565b9050919050565b82818337600083830152505050565b60005b83811015611c90578082015181840152602081019050611c75565b83811115611c9f576000848401525b50505050565b60006002820490506001821680611cbd57607f821691505b60208210811415611cd157611cd0611d06565b5b50919050565b7f4e487b7100000000000000000000000000000000000000000000000000000000600052601160045260246000fd5b7f4e487b7100000000000000000000000000000000000000000000000000000000600052602260045260246000fd5b7f4e487b7100000000000000000000000000000000000000000000000000000000600052604160045260246000fd5b6000601f19601f8301169050919050565b611d7e81611c0b565b8114611d8957600080fd5b50565b611d9581611c1d565b8114611da057600080fd5b50565b611dac81611c47565b8114611db757600080fd5b5056fe6a736f6e28687474703a2f2f776565726c6976652e6e6c2f6170692f6a736f6e2d646174612d31306d696e2e7068703f6b65793d30313436346364363235266c6f63617469653d48656c6c65766f6574736c756973292e6c697665776565725b305d2e74656d70a2646970667358221220abdc59ce36bacf2d7cad63de1b1e2daa582611f130bfe677ebbe18fa91ebd57c64736f6c63430008000033546865206865726f20686173206265656e206465666561746564212054686520647261676f6e2077617320746f6f207374726f6e6721546865206865726f20616e6420647261676f6e2061726520657175616c20696e20737472656e6774682c207468657265206973206e6f20766963746f7221a2646970667358221220f3532b915640eec300c80e7897b77f1af630952ceaba6a37ef6fe25476ef62ff64736f6c63430008000033",
  "immutableReferences": {},
  "source": "// SPDX-License-Identifier: MIT\r\npragma solidity >=0.8.0;\r\n\r\nimport \"./HeroFactory.sol\";\r\nimport \"./DragonFactory.sol\";\r\nimport \"./OrmrOracle.sol\";\r\nimport './Initializable.sol';\r\n\r\n/// @title Ormr, Man vs. Dragon\r\n/// @author github@ToFat4Fun\r\n/// @notice Calling the Oracle might take a few seconds to minutes, depending on block processing speed.\r\n/// @dev Working with solidity v0.8.0\r\ncontract Ormr is Initializable {\r\n    /// @dev emits the result of the battle initiated by the user. shows in front-end\r\n    event encounterResult(string);\r\n    /// @dev return for the ownerSays method\r\n    event ownerSaysResponse(string);\r\n\r\n    /// @dev HF herofactory we use to create heroes     \r\n    /// @dev DF dragonfactory we use to create dragons\r\n    /// @dev OO oracle we call for our random functions \r\n    HeroFactory public HF;\r\n    DragonFactory public DF;\r\n    OrmrOracle OO;\r\n    address owner; // PD-9 Modifier\r\n\r\n    // PD-9 upgrades. Replace constructor with openzeppelin initialize.\r\n    function initialize() public initializer {\r\n        HF = new HeroFactory();\r\n        DF = new DragonFactory();\r\n        OO = new OrmrOracle();\r\n        owner = address(0x85e7CE82Af8565D3D9583A75E063de8aBBF98f64);\r\n    }\r\n\r\n    // PD-9 Modifier\r\n    /// @dev modifier that specifies only the contract owner can access a function\r\n    /// More info: https://docs.soliditylang.org/en/v0.8.0/structure-of-a-contract.html?highlight=modifier#function-modifiers and\r\n    /// https://docs.soliditylang.org/en/develop/common-patterns.html#restricting-access \r\n    modifier onlyOwner {\r\n        require(\r\n            msg.sender == owner,\r\n            \"Sender not authorized.\"\r\n        );\r\n        // Do not forget the \"_;\"! It will\r\n        // be replaced by the actual function\r\n        // body when the modifier is used.\r\n        _;\r\n    }\r\n\r\n    /// @return the address of the owner.\r\n    function getOwner() public view returns (address) {\r\n        return owner;\r\n    }\r\n\r\n    /// @dev function to demonstrate the modifier for PD-9\r\n    function ownerSays() public onlyOwner {\r\n        emit ownerSaysResponse(\"I am the owner of this contract! And no one else!\");\r\n    }\r\n\r\n    /// @dev PD-9 selfdestruct method. More info: https://docs.soliditylang.org/en/v0.8.0/contracts.html#modifiers \r\n    /// only the contract owner may call this method\r\n    /// Not allowed when using OpenZeppelin, see: https://zpl.in/upgrades/error-003 \r\n    // function destroy() public onlyOwner {\r\n    //     selfdestruct(payable(owner));\r\n    // }\r\n\r\n    /// @dev below follows the game logic of creating heroes and dragons, combat and handling Oracle requests\r\n    /// @param _name heroname given by the user\r\n    function createHero(string memory _name) public {\r\n        HF.createHero(_name, msg.sender);\r\n    }\r\n\r\n    /// @return return hero associated with the user requesting the address\r\n    function getHero() public view returns (Hero memory) {\r\n        return HF.getHero(msg.sender);\r\n    }\r\n\r\n    /// @return returns all heroes in array form\r\n    function getHeroes() public view returns (Hero[] memory) {\r\n        return HF.getHeroes();\r\n    }\r\n\r\n    /// @dev creates a dragon using dragonfactory\r\n    function createDragon() public {\r\n        DF.createDragon();\r\n    }\r\n\r\n    /// @return returns dragon object\r\n    function getDragon() public view returns (Dragon memory) {\r\n        return DF.getDragon();\r\n    }\r\n\r\n    /// @notice here you can initiate a battle! make sure there is both a dragon and hero\r\n    /// @dev This is the function our user sees when starting a battle.\r\n    function startEncounter() public {\r\n        // Calls internal function which handles the encounter\r\n        _encounter(HF.getHero(msg.sender), DF.getDragon());\r\n    }\r\n\r\n    /// @dev Lock in our Hero and the Dragon. Emits the result of the encounter.\r\n    /// @param _hero the user's hero\r\n    /// @param _dragon a dragon from within the contract\r\n    function _encounter(Hero memory _hero, Dragon memory _dragon) internal {\r\n        // Check if there are both a hero and a dragon. Require keyword and ternary operator. PD-3 Error Handling.\r\n        require(keccak256(abi.encodePacked(_hero.name)) != keccak256(abi.encodePacked(\"\")), \"Hero not found\");\r\n        require(keccak256(abi.encodePacked(_dragon.name)) !=keccak256(abi.encodePacked(\"\")), \"Dragon not found\");\r\n\r\n        // calls the method which decides a winner, emits the result afterwards\r\n        emit encounterResult(_battle(_hero.power, _dragon.power));\r\n    }\r\n\r\n    /// @dev here is decided who is stronger\r\n    /// @param heroPower hero power\r\n    /// @param dragonPower dragon power\r\n    /// @return the outcome of the battle as string format\r\n    function _battle(uint256 heroPower, uint256 dragonPower) private pure returns (string memory) {\r\n        if (heroPower > dragonPower) {\r\n            return \"The dragon has been slain!\";\r\n        } else if (heroPower < dragonPower) {\r\n            return \"The hero has been defeated! The dragon was too strong!\";\r\n        } else {\r\n            return\r\n                \"The hero and dragon are equal in strength, there is no victor!\";\r\n        }\r\n    }\r\n\r\n    /// @dev Let's do something with our Oracle here. Because we want to display uint to the user and our Oracle\r\n    /// returns bytes format, let's convert it here.\r\n    /// Web3examples convert to uint https://github.com/web3examples/ethereum/blob/master/solidity_examples/bytes2uint.sol\r\n    /// @param input the bytes we want to convert to uint\r\n    /// @return the converted bytes value as uint\r\n    function convertToUint(bytes memory input) public pure returns (uint256) {\r\n        uint256 res = 0;\r\n        for (uint256 i = 0; i < input.length; i++)\r\n            res = (res << 8) + uint256(uint8(input[i]));\r\n        return res;\r\n    }\r\n\r\n    /// @dev call the oracle using OrmrOracle instance, we need to send ETH as subsequent requests to provable are not free\r\n    /// hence the payable attribute and value: msg.value object\r\n    function callOracleRandom() public payable {\r\n        OO.requestTemp{value: msg.value}();\r\n    }\r\n\r\n    /// @dev only request AFTER the oracle has been called (and wait atleast 2 blocks for the result + callback)\r\n    /// otherwise it will return NULL and undefined. This method also converts the result to uint right away for display in the front-end\r\n    /// @return returns the result of the oracle call as uint\r\n    function getTempUint() public view returns (uint256) {\r\n        bytes memory res = OO.getTemp();\r\n        return convertToUint(res);\r\n    }\r\n\r\n    /// @dev only request AFTER the oracle has been called (and wait atleast 2 blocks for the result + callback)\r\n    /// otherwise it will return NULL and undefined. This method also converts the result to uint right away for display in the front-end\r\n    /// @return returns the result of the oracle call as bytes\r\n    function getTemp() public view returns (bytes memory) {\r\n        return OO.getTemp();\r\n    }\r\n}\r\n",
  "sourcePath": "D:/HHS/Jaar 4 Minor/IT Deel Minor/Assignments/PD-8/contracts/Ormr.sol",
  "compiler": {
    "name": "solc",
    "version": "0.8.0+commit.c7dfd78e.Emscripten.clang"
  },
  "schemaVersion": "3.3.2",
  "updatedAt": "2021-01-04T19:12:05.692Z",
  "devdoc": {
    "author": "github@ToFat4Fun",
    "details": "Working with solidity v0.8.0",
    "events": {
      "encounterResult(string)": {
        "details": "emits the result of the battle initiated by the user. shows in front-end"
      },
      "ownerSaysResponse(string)": {
        "details": "return for the ownerSays method"
      }
    },
    "kind": "dev",
    "methods": {
      "callOracleRandom()": {
        "details": "call the oracle using OrmrOracle instance, we need to send ETH as subsequent requests to provable are not free hence the payable attribute and value: msg.value object"
      },
      "convertToUint(bytes)": {
        "details": "Let's do something with our Oracle here. Because we want to display uint to the user and our Oracle returns bytes format, let's convert it here. Web3examples convert to uint https://github.com/web3examples/ethereum/blob/master/solidity_examples/bytes2uint.sol",
        "params": {
          "input": "the bytes we want to convert to uint"
        },
        "returns": {
          "_0": "the converted bytes value as uint"
        }
      },
      "createDragon()": {
        "details": "creates a dragon using dragonfactory"
      },
      "createHero(string)": {
        "details": "below follows the game logic of creating heroes and dragons, combat and handling Oracle requests",
        "params": {
          "_name": "heroname given by the user"
        }
      },
      "getDragon()": {
        "returns": {
          "_0": "returns dragon object"
        }
      },
      "getHero()": {
        "returns": {
          "_0": "return hero associated with the user requesting the address"
        }
      },
      "getHeroes()": {
        "returns": {
          "_0": "returns all heroes in array form"
        }
      },
      "getOwner()": {
        "returns": {
          "_0": "the address of the owner."
        }
      },
      "getTemp()": {
        "details": "only request AFTER the oracle has been called (and wait atleast 2 blocks for the result + callback) otherwise it will return NULL and undefined. This method also converts the result to uint right away for display in the front-end",
        "returns": {
          "_0": "returns the result of the oracle call as bytes"
        }
      },
      "getTempUint()": {
        "details": "only request AFTER the oracle has been called (and wait atleast 2 blocks for the result + callback) otherwise it will return NULL and undefined. This method also converts the result to uint right away for display in the front-end",
        "returns": {
          "_0": "returns the result of the oracle call as uint"
        }
      },
      "ownerSays()": {
        "details": "function to demonstrate the modifier for PD-9"
      },
      "startEncounter()": {
        "details": "This is the function our user sees when starting a battle."
      }
    },
    "stateVariables": {
      "HF": {
        "details": "HF herofactory we use to create heroes     DF dragonfactory we use to create dragonsOO oracle we call for our random functions "
      }
    },
    "title": "Ormr, Man vs. Dragon",
    "version": 1
  },
  "userdoc": {
    "kind": "user",
    "methods": {
      "startEncounter()": {
        "notice": "here you can initiate a battle! make sure there is both a dragon and hero"
      }
    },
    "notice": "Calling the Oracle might take a few seconds to minutes, depending on block processing speed.",
    "version": 1
  }
}